{"contracts/BuyMyRoom.sol":{"BuyMyRoom":{"abi":[{"inputs":[],"stateMutability":"nonpayable","type":"constructor"},{"anonymous":false,"inputs":[{"indexed":true,"internalType":"address","name":"owner","type":"address"},{"indexed":true,"internalType":"address","name":"approved","type":"address"},{"indexed":true,"internalType":"uint256","name":"tokenId","type":"uint256"}],"name":"Approval","type":"event"},{"anonymous":false,"inputs":[{"indexed":true,"internalType":"address","name":"owner","type":"address"},{"indexed":true,"internalType":"address","name":"operator","type":"address"},{"indexed":false,"internalType":"bool","name":"approved","type":"bool"}],"name":"ApprovalForAll","type":"event"},{"anonymous":false,"inputs":[{"indexed":true,"internalType":"address","name":"from","type":"address"},{"indexed":true,"internalType":"address","name":"to","type":"address"},{"indexed":true,"internalType":"uint256","name":"tokenId","type":"uint256"}],"name":"Transfer","type":"event"},{"inputs":[{"internalType":"address","name":"to","type":"address"},{"internalType":"uint256","name":"tokenId","type":"uint256"}],"name":"approve","outputs":[],"stateMutability":"nonpayable","type":"function"},{"inputs":[{"internalType":"address","name":"owner","type":"address"}],"name":"balanceOf","outputs":[{"internalType":"uint256","name":"","type":"uint256"}],"stateMutability":"view","type":"function"},{"inputs":[{"internalType":"uint256","name":"tokenId","type":"uint256"}],"name":"buyHouse","outputs":[],"stateMutability":"payable","type":"function"},{"inputs":[{"internalType":"uint256","name":"tokenId","type":"uint256"}],"name":"getApproved","outputs":[{"internalType":"address","name":"","type":"address"}],"stateMutability":"view","type":"function"},{"inputs":[],"name":"getHousesForSale","outputs":[{"internalType":"uint256[]","name":"","type":"uint256[]"}],"stateMutability":"view","type":"function"},{"inputs":[{"internalType":"uint256","name":"","type":"uint256"}],"name":"houses","outputs":[{"internalType":"address","name":"owner","type":"address"},{"internalType":"uint256","name":"price","type":"uint256"},{"internalType":"bool","name":"forSale","type":"bool"}],"stateMutability":"view","type":"function"},{"inputs":[{"internalType":"address","name":"owner","type":"address"},{"internalType":"address","name":"operator","type":"address"}],"name":"isApprovedForAll","outputs":[{"internalType":"bool","name":"","type":"bool"}],"stateMutability":"view","type":"function"},{"inputs":[],"name":"mintHouse","outputs":[],"stateMutability":"nonpayable","type":"function"},{"inputs":[],"name":"myERC20","outputs":[{"internalType":"contract MyERC20","name":"","type":"address"}],"stateMutability":"view","type":"function"},{"inputs":[],"name":"name","outputs":[{"internalType":"string","name":"","type":"string"}],"stateMutability":"view","type":"function"},{"inputs":[{"internalType":"uint256","name":"tokenId","type":"uint256"}],"name":"ownerOf","outputs":[{"internalType":"address","name":"","type":"address"}],"stateMutability":"view","type":"function"},{"inputs":[{"internalType":"uint256","name":"tokenId","type":"uint256"},{"internalType":"uint256","name":"price","type":"uint256"}],"name":"putHouseForSale","outputs":[],"stateMutability":"nonpayable","type":"function"},{"inputs":[{"internalType":"address","name":"from","type":"address"},{"internalType":"address","name":"to","type":"address"},{"internalType":"uint256","name":"tokenId","type":"uint256"}],"name":"safeTransferFrom","outputs":[],"stateMutability":"nonpayable","type":"function"},{"inputs":[{"internalType":"address","name":"from","type":"address"},{"internalType":"address","name":"to","type":"address"},{"internalType":"uint256","name":"tokenId","type":"uint256"},{"internalType":"bytes","name":"data","type":"bytes"}],"name":"safeTransferFrom","outputs":[],"stateMutability":"nonpayable","type":"function"},{"inputs":[{"internalType":"address","name":"operator","type":"address"},{"internalType":"bool","name":"approved","type":"bool"}],"name":"setApprovalForAll","outputs":[],"stateMutability":"nonpayable","type":"function"},{"inputs":[{"internalType":"bytes4","name":"interfaceId","type":"bytes4"}],"name":"supportsInterface","outputs":[{"internalType":"bool","name":"","type":"bool"}],"stateMutability":"view","type":"function"},{"inputs":[],"name":"symbol","outputs":[{"internalType":"string","name":"","type":"string"}],"stateMutability":"view","type":"function"},{"inputs":[{"internalType":"uint256","name":"tokenId","type":"uint256"}],"name":"tokenURI","outputs":[{"internalType":"string","name":"","type":"string"}],"stateMutability":"view","type":"function"},{"inputs":[{"internalType":"address","name":"from","type":"address"},{"internalType":"address","name":"to","type":"address"},{"internalType":"uint256","name":"tokenId","type":"uint256"}],"name":"transferFrom","outputs":[],"stateMutability":"nonpayable","type":"function"}],"evm":{"bytecode":{"linkReferences":{},"object":"60806040523480156200001157600080fd5b506040518060400160405280600881526020017f486f7573654e46540000000000000000000000000000000000000000000000008152506040518060400160405280600481526020017f484e46540000000000000000000000000000000000000000000000000000000081525081600090816200008f9190620003b1565b508060019081620000a19190620003b1565b505050604051620000b29062000129565b620000bd9062000549565b604051809103906000f080158015620000da573d6000803e3d6000fd5b50600860006101000a81548173ffffffffffffffffffffffffffffffffffffffff021916908373ffffffffffffffffffffffffffffffffffffffff160217905550600060068190555062000580565b611d2180620033e783390190565b600081519050919050565b7f4e487b7100000000000000000000000000000000000000000000000000000000600052604160045260246000fd5b7f4e487b7100000000000000000000000000000000000000000000000000000000600052602260045260246000fd5b60006002820490506001821680620001b957607f821691505b602082108103620001cf57620001ce62000171565b5b50919050565b60008190508160005260206000209050919050565b60006020601f8301049050919050565b600082821b905092915050565b600060088302620002397fffffffffffffffffffffffffffffffffffffffffffffffffffffffffffffffff82620001fa565b620002458683620001fa565b95508019841693508086168417925050509392505050565b6000819050919050565b6000819050919050565b6000620002926200028c62000286846200025d565b62000267565b6200025d565b9050919050565b6000819050919050565b620002ae8362000271565b620002c6620002bd8262000299565b84845462000207565b825550505050565b600090565b620002dd620002ce565b620002ea818484620002a3565b505050565b5b81811015620003125762000306600082620002d3565b600181019050620002f0565b5050565b601f82111562000361576200032b81620001d5565b6200033684620001ea565b8101602085101562000346578190505b6200035e6200035585620001ea565b830182620002ef565b50505b505050565b600082821c905092915050565b6000620003866000198460080262000366565b1980831691505092915050565b6000620003a1838362000373565b9150826002028217905092915050565b620003bc8262000137565b67ffffffffffffffff811115620003d857620003d762000142565b5b620003e48254620001a0565b620003f182828562000316565b600060209050601f83116001811462000429576000841562000414578287015190505b62000420858262000393565b86555062000490565b601f1984166200043986620001d5565b60005b8281101562000463578489015182556001820191506020850194506020810190506200043c565b868310156200048357848901516200047f601f89168262000373565b8355505b6001600288020188555050505b505050505050565b600082825260208201905092915050565b7f4d79546f6b656e00000000000000000000000000000000000000000000000000600082015250565b6000620004e160078362000498565b9150620004ee82620004a9565b602082019050919050565b7f4d544b0000000000000000000000000000000000000000000000000000000000600082015250565b60006200053160038362000498565b91506200053e82620004f9565b602082019050919050565b600060408201905081810360008301526200056481620004d2565b90508181036020830152620005798162000522565b9050919050565b612e5780620005906000396000f3fe6080604052600436106101145760003560e01c806395d89b41116100a0578063b88d4fde11610064578063b88d4fde146103c5578063c87b56dd146103ee578063e985e9c51461042b578063eddc426914610468578063f364333d1461048457610114565b806395d89b41146102de5780639e4ffa7f146103095780639f76a03714610334578063a22cb4651461035d578063aeda852f1461038657610114565b806323b872dd116100e757806323b872dd146101e757806342842e0e146102105780636352211e146102395780636d3739c41461027657806370a08231146102a157610114565b806301ffc9a71461011957806306fdde0314610156578063081812fc14610181578063095ea7b3146101be575b600080fd5b34801561012557600080fd5b50610140600480360381019061013b9190611ca8565b61049b565b60405161014d9190611cf0565b60405180910390f35b34801561016257600080fd5b5061016b61057d565b6040516101789190611d9b565b60405180910390f35b34801561018d57600080fd5b506101a860048036038101906101a39190611df3565b61060f565b6040516101b59190611e61565b60405180910390f35b3480156101ca57600080fd5b506101e560048036038101906101e09190611ea8565b610655565b005b3480156101f357600080fd5b5061020e60048036038101906102099190611ee8565b61076c565b005b34801561021c57600080fd5b5061023760048036038101906102329190611ee8565b6107cc565b005b34801561024557600080fd5b50610260600480360381019061025b9190611df3565b6107ec565b60405161026d9190611e61565b60405180910390f35b34801561028257600080fd5b5061028b61089d565b6040516102989190611f9a565b60405180910390f35b3480156102ad57600080fd5b506102c860048036038101906102c39190611fb5565b6108c3565b6040516102d59190611ff1565b60405180910390f35b3480156102ea57600080fd5b506102f361097a565b6040516103009190611d9b565b60405180910390f35b34801561031557600080fd5b5061031e610a0c565b60405161032b91906120ca565b60405180910390f35b34801561034057600080fd5b5061035b600480360381019061035691906120ec565b610b8a565b005b34801561036957600080fd5b50610384600480360381019061037f9190612158565b610c4e565b005b34801561039257600080fd5b506103ad60048036038101906103a89190611df3565b610c64565b6040516103bc93929190612198565b60405180910390f35b3480156103d157600080fd5b506103ec60048036038101906103e79190612304565b610cbb565b005b3480156103fa57600080fd5b5061041560048036038101906104109190611df3565b610d1d565b6040516104229190611d9b565b60405180910390f35b34801561043757600080fd5b50610452600480360381019061044d9190612387565b610d85565b60405161045f9190611cf0565b60405180910390f35b610482600480360381019061047d9190611df3565b610e19565b005b34801561049057600080fd5b50610499610fab565b005b60007f80ac58cd000000000000000000000000000000000000000000000000000000007bffffffffffffffffffffffffffffffffffffffffffffffffffffffff1916827bffffffffffffffffffffffffffffffffffffffffffffffffffffffff1916148061056657507f5b5e139f000000000000000000000000000000000000000000000000000000007bffffffffffffffffffffffffffffffffffffffffffffffffffffffff1916827bffffffffffffffffffffffffffffffffffffffffffffffffffffffff1916145b80610576575061057582611093565b5b9050919050565b60606000805461058c906123f6565b80601f01602080910402602001604051908101604052809291908181526020018280546105b8906123f6565b80156106055780601f106105da57610100808354040283529160200191610605565b820191906000526020600020905b8154815290600101906020018083116105e857829003601f168201915b5050505050905090565b600061061a826110fd565b6004600083815260200190815260200160002060009054906101000a900473ffffffffffffffffffffffffffffffffffffffff169050919050565b6000610660826107ec565b90508073ffffffffffffffffffffffffffffffffffffffff168373ffffffffffffffffffffffffffffffffffffffff16036106d0576040517f08c379a00000000000000000000000000000000000000000000000000000000081526004016106c790612499565b60405180910390fd5b8073ffffffffffffffffffffffffffffffffffffffff166106ef611148565b73ffffffffffffffffffffffffffffffffffffffff16148061071e575061071d81610718611148565b610d85565b5b61075d576040517f08c379a00000000000000000000000000000000000000000000000000000000081526004016107549061252b565b60405180910390fd5b6107678383611150565b505050565b61077d610777611148565b82611209565b6107bc576040517f08c379a00000000000000000000000000000000000000000000000000000000081526004016107b3906125bd565b60405180910390fd5b6107c783838361129e565b505050565b6107e783838360405180602001604052806000815250610cbb565b505050565b6000806002600084815260200190815260200160002060009054906101000a900473ffffffffffffffffffffffffffffffffffffffff169050600073ffffffffffffffffffffffffffffffffffffffff168173ffffffffffffffffffffffffffffffffffffffff1603610894576040517f08c379a000000000000000000000000000000000000000000000000000000000815260040161088b90612629565b60405180910390fd5b80915050919050565b600860009054906101000a900473ffffffffffffffffffffffffffffffffffffffff1681565b60008073ffffffffffffffffffffffffffffffffffffffff168273ffffffffffffffffffffffffffffffffffffffff1603610933576040517f08c379a000000000000000000000000000000000000000000000000000000000815260040161092a906126bb565b60405180910390fd5b600360008373ffffffffffffffffffffffffffffffffffffffff1673ffffffffffffffffffffffffffffffffffffffff168152602001908152602001600020549050919050565b606060018054610989906123f6565b80601f01602080910402602001604051908101604052809291908181526020018280546109b5906123f6565b8015610a025780601f106109d757610100808354040283529160200191610a02565b820191906000526020600020905b8154815290600101906020018083116109e557829003601f168201915b5050505050905090565b60606000600654905060008167ffffffffffffffff811115610a3157610a306121d9565b5b604051908082528060200260200182016040528015610a5f5781602001602082028036833780820191505090505b5090506000805b83811015610ad9576007600082815260200190815260200160002060020160009054906101000a900460ff1615610ac65780838381518110610aab57610aaa6126db565b5b6020026020010181815250508180610ac290612739565b9250505b8080610ad190612739565b915050610a66565b5060008167ffffffffffffffff811115610af657610af56121d9565b5b604051908082528060200260200182016040528015610b245781602001602082028036833780820191505090505b50905060005b82811015610b7f57838181518110610b4557610b446126db565b5b6020026020010151828281518110610b6057610b5f6126db565b5b6020026020010181815250508080610b7790612739565b915050610b2a565b508094505050505090565b3373ffffffffffffffffffffffffffffffffffffffff16610baa836107ec565b73ffffffffffffffffffffffffffffffffffffffff1614610c00576040517f08c379a0000000000000000000000000000000000000000000000000000000008152600401610bf7906127cd565b60405180910390fd5b60016007600084815260200190815260200160002060020160006101000a81548160ff0219169083151502179055508060076000848152602001908152602001600020600101819055505050565b610c60610c59611148565b8383611504565b5050565b60076020528060005260406000206000915090508060000160009054906101000a900473ffffffffffffffffffffffffffffffffffffffff16908060010154908060020160009054906101000a900460ff16905083565b610ccc610cc6611148565b83611209565b610d0b576040517f08c379a0000000000000000000000000000000000000000000000000000000008152600401610d02906125bd565b60405180910390fd5b610d1784848484611670565b50505050565b6060610d28826110fd565b6000610d326116cc565b90506000815111610d525760405180602001604052806000815250610d7d565b80610d5c846116e3565b604051602001610d6d929190612829565b6040516020818303038152906040525b915050919050565b6000600560008473ffffffffffffffffffffffffffffffffffffffff1673ffffffffffffffffffffffffffffffffffffffff16815260200190815260200160002060008373ffffffffffffffffffffffffffffffffffffffff1673ffffffffffffffffffffffffffffffffffffffff16815260200190815260200160002060009054906101000a900460ff16905092915050565b6007600082815260200190815260200160002060020160009054906101000a900460ff16610e7c576040517f08c379a0000000000000000000000000000000000000000000000000000000008152600401610e7390612899565b60405180910390fd5b6007600082815260200190815260200160002060010154341015610ed5576040517f08c379a0000000000000000000000000000000000000000000000000000000008152600401610ecc9061292b565b60405180910390fd5b60006007600083815260200190815260200160002060000160009054906101000a900473ffffffffffffffffffffffffffffffffffffffff1690508073ffffffffffffffffffffffffffffffffffffffff166108fc60076000858152602001908152602001600020600101549081150290604051600060405180830381858888f19350505050158015610f6c573d6000803e3d6000fd5b50610f7881338461129e565b60006007600084815260200190815260200160002060020160006101000a81548160ff0219169083151502179055505050565b60006006549050610fbc3382611843565b60405180606001604052803373ffffffffffffffffffffffffffffffffffffffff16815260200160008152602001600015158152506007600083815260200190815260200160002060008201518160000160006101000a81548173ffffffffffffffffffffffffffffffffffffffff021916908373ffffffffffffffffffffffffffffffffffffffff1602179055506020820151816001015560408201518160020160006101000a81548160ff0219169083151502179055509050506006600081548092919061108b90612739565b919050555050565b60007f01ffc9a7000000000000000000000000000000000000000000000000000000007bffffffffffffffffffffffffffffffffffffffffffffffffffffffff1916827bffffffffffffffffffffffffffffffffffffffffffffffffffffffff1916149050919050565b61110681611a1c565b611145576040517f08c379a000000000000000000000000000000000000000000000000000000000815260040161113c90612629565b60405180910390fd5b50565b600033905090565b816004600083815260200190815260200160002060006101000a81548173ffffffffffffffffffffffffffffffffffffffff021916908373ffffffffffffffffffffffffffffffffffffffff160217905550808273ffffffffffffffffffffffffffffffffffffffff166111c3836107ec565b73ffffffffffffffffffffffffffffffffffffffff167f8c5be1e5ebec7d5bd14f71427d1e84f3dd0314c0f7b2291e5b200ac8c7c3b92560405160405180910390a45050565b600080611215836107ec565b90508073ffffffffffffffffffffffffffffffffffffffff168473ffffffffffffffffffffffffffffffffffffffff16148061125757506112568185610d85565b5b8061129557508373ffffffffffffffffffffffffffffffffffffffff1661127d8461060f565b73ffffffffffffffffffffffffffffffffffffffff16145b91505092915050565b8273ffffffffffffffffffffffffffffffffffffffff166112be826107ec565b73ffffffffffffffffffffffffffffffffffffffff1614611314576040517f08c379a000000000000000000000000000000000000000000000000000000000815260040161130b906129bd565b60405180910390fd5b600073ffffffffffffffffffffffffffffffffffffffff168273ffffffffffffffffffffffffffffffffffffffff1603611383576040517f08c379a000000000000000000000000000000000000000000000000000000000815260040161137a90612a4f565b60405180910390fd5b61138e838383611a88565b611399600082611150565b6001600360008573ffffffffffffffffffffffffffffffffffffffff1673ffffffffffffffffffffffffffffffffffffffff16815260200190815260200160002060008282546113e99190612a6f565b925050819055506001600360008473ffffffffffffffffffffffffffffffffffffffff1673ffffffffffffffffffffffffffffffffffffffff16815260200190815260200160002060008282546114409190612aa3565b92505081905550816002600083815260200190815260200160002060006101000a81548173ffffffffffffffffffffffffffffffffffffffff021916908373ffffffffffffffffffffffffffffffffffffffff160217905550808273ffffffffffffffffffffffffffffffffffffffff168473ffffffffffffffffffffffffffffffffffffffff167fddf252ad1be2c89b69c2b068fc378daa952ba7f163c4a11628f55a4df523b3ef60405160405180910390a46114ff838383611a8d565b505050565b8173ffffffffffffffffffffffffffffffffffffffff168373ffffffffffffffffffffffffffffffffffffffff1603611572576040517f08c379a000000000000000000000000000000000000000000000000000000000815260040161156990612b23565b60405180910390fd5b80600560008573ffffffffffffffffffffffffffffffffffffffff1673ffffffffffffffffffffffffffffffffffffffff16815260200190815260200160002060008473ffffffffffffffffffffffffffffffffffffffff1673ffffffffffffffffffffffffffffffffffffffff16815260200190815260200160002060006101000a81548160ff0219169083151502179055508173ffffffffffffffffffffffffffffffffffffffff168373ffffffffffffffffffffffffffffffffffffffff167f17307eab39ab6107e8899845ad3d59bd9653f200f220920489ca2b5937696c31836040516116639190611cf0565b60405180910390a3505050565b61167b84848461129e565b61168784848484611a92565b6116c6576040517f08c379a00000000000000000000000000000000000000000000000000000000081526004016116bd90612bb5565b60405180910390fd5b50505050565b606060405180602001604052806000815250905090565b60606000820361172a576040518060400160405280600181526020017f3000000000000000000000000000000000000000000000000000000000000000815250905061183e565b600082905060005b6000821461175c57808061174590612739565b915050600a826117559190612c04565b9150611732565b60008167ffffffffffffffff811115611778576117776121d9565b5b6040519080825280601f01601f1916602001820160405280156117aa5781602001600182028036833780820191505090505b5090505b60008514611837576001826117c39190612a6f565b9150600a856117d29190612c35565b60306117de9190612aa3565b60f81b8183815181106117f4576117f36126db565b5b60200101907effffffffffffffffffffffffffffffffffffffffffffffffffffffffffffff1916908160001a905350600a856118309190612c04565b94506117ae565b8093505050505b919050565b600073ffffffffffffffffffffffffffffffffffffffff168273ffffffffffffffffffffffffffffffffffffffff16036118b2576040517f08c379a00000000000000000000000000000000000000000000000000000000081526004016118a990612cb2565b60405180910390fd5b6118bb81611a1c565b156118fb576040517f08c379a00000000000000000000000000000000000000000000000000000000081526004016118f290612d1e565b60405180910390fd5b61190760008383611a88565b6001600360008473ffffffffffffffffffffffffffffffffffffffff1673ffffffffffffffffffffffffffffffffffffffff16815260200190815260200160002060008282546119579190612aa3565b92505081905550816002600083815260200190815260200160002060006101000a81548173ffffffffffffffffffffffffffffffffffffffff021916908373ffffffffffffffffffffffffffffffffffffffff160217905550808273ffffffffffffffffffffffffffffffffffffffff16600073ffffffffffffffffffffffffffffffffffffffff167fddf252ad1be2c89b69c2b068fc378daa952ba7f163c4a11628f55a4df523b3ef60405160405180910390a4611a1860008383611a8d565b5050565b60008073ffffffffffffffffffffffffffffffffffffffff166002600084815260200190815260200160002060009054906101000a900473ffffffffffffffffffffffffffffffffffffffff1673ffffffffffffffffffffffffffffffffffffffff1614159050919050565b505050565b505050565b6000611ab38473ffffffffffffffffffffffffffffffffffffffff16611c19565b15611c0c578373ffffffffffffffffffffffffffffffffffffffff1663150b7a02611adc611148565b8786866040518563ffffffff1660e01b8152600401611afe9493929190612d93565b6020604051808303816000875af1925050508015611b3a57506040513d601f19601f82011682018060405250810190611b379190612df4565b60015b611bbc573d8060008114611b6a576040519150601f19603f3d011682016040523d82523d6000602084013e611b6f565b606091505b506000815103611bb4576040517f08c379a0000000000000000000000000000000000000000000000000000000008152600401611bab90612bb5565b60405180910390fd5b805181602001fd5b63150b7a0260e01b7bffffffffffffffffffffffffffffffffffffffffffffffffffffffff1916817bffffffffffffffffffffffffffffffffffffffffffffffffffffffff191614915050611c11565b600190505b949350505050565b6000808273ffffffffffffffffffffffffffffffffffffffff163b119050919050565b6000604051905090565b600080fd5b600080fd5b60007fffffffff0000000000000000000000000000000000000000000000000000000082169050919050565b611c8581611c50565b8114611c9057600080fd5b50565b600081359050611ca281611c7c565b92915050565b600060208284031215611cbe57611cbd611c46565b5b6000611ccc84828501611c93565b91505092915050565b60008115159050919050565b611cea81611cd5565b82525050565b6000602082019050611d056000830184611ce1565b92915050565b600081519050919050565b600082825260208201905092915050565b60005b83811015611d45578082015181840152602081019050611d2a565b60008484015250505050565b6000601f19601f8301169050919050565b6000611d6d82611d0b565b611d778185611d16565b9350611d87818560208601611d27565b611d9081611d51565b840191505092915050565b60006020820190508181036000830152611db58184611d62565b905092915050565b6000819050919050565b611dd081611dbd565b8114611ddb57600080fd5b50565b600081359050611ded81611dc7565b92915050565b600060208284031215611e0957611e08611c46565b5b6000611e1784828501611dde565b91505092915050565b600073ffffffffffffffffffffffffffffffffffffffff82169050919050565b6000611e4b82611e20565b9050919050565b611e5b81611e40565b82525050565b6000602082019050611e766000830184611e52565b92915050565b611e8581611e40565b8114611e9057600080fd5b50565b600081359050611ea281611e7c565b92915050565b60008060408385031215611ebf57611ebe611c46565b5b6000611ecd85828601611e93565b9250506020611ede85828601611dde565b9150509250929050565b600080600060608486031215611f0157611f00611c46565b5b6000611f0f86828701611e93565b9350506020611f2086828701611e93565b9250506040611f3186828701611dde565b9150509250925092565b6000819050919050565b6000611f60611f5b611f5684611e20565b611f3b565b611e20565b9050919050565b6000611f7282611f45565b9050919050565b6000611f8482611f67565b9050919050565b611f9481611f79565b82525050565b6000602082019050611faf6000830184611f8b565b92915050565b600060208284031215611fcb57611fca611c46565b5b6000611fd984828501611e93565b91505092915050565b611feb81611dbd565b82525050565b60006020820190506120066000830184611fe2565b92915050565b600081519050919050565b600082825260208201905092915050565b6000819050602082019050919050565b61204181611dbd565b82525050565b60006120538383612038565b60208301905092915050565b6000602082019050919050565b60006120778261200c565b6120818185612017565b935061208c83612028565b8060005b838110156120bd5781516120a48882612047565b97506120af8361205f565b925050600181019050612090565b5085935050505092915050565b600060208201905081810360008301526120e4818461206c565b905092915050565b6000806040838503121561210357612102611c46565b5b600061211185828601611dde565b925050602061212285828601611dde565b9150509250929050565b61213581611cd5565b811461214057600080fd5b50565b6000813590506121528161212c565b92915050565b6000806040838503121561216f5761216e611c46565b5b600061217d85828601611e93565b925050602061218e85828601612143565b9150509250929050565b60006060820190506121ad6000830186611e52565b6121ba6020830185611fe2565b6121c76040830184611ce1565b949350505050565b600080fd5b600080fd5b7f4e487b7100000000000000000000000000000000000000000000000000000000600052604160045260246000fd5b61221182611d51565b810181811067ffffffffffffffff821117156122305761222f6121d9565b5b80604052505050565b6000612243611c3c565b905061224f8282612208565b919050565b600067ffffffffffffffff82111561226f5761226e6121d9565b5b61227882611d51565b9050602081019050919050565b82818337600083830152505050565b60006122a76122a284612254565b612239565b9050828152602081018484840111156122c3576122c26121d4565b5b6122ce848285612285565b509392505050565b600082601f8301126122eb576122ea6121cf565b5b81356122fb848260208601612294565b91505092915050565b6000806000806080858703121561231e5761231d611c46565b5b600061232c87828801611e93565b945050602061233d87828801611e93565b935050604061234e87828801611dde565b925050606085013567ffffffffffffffff81111561236f5761236e611c4b565b5b61237b878288016122d6565b91505092959194509250565b6000806040838503121561239e5761239d611c46565b5b60006123ac85828601611e93565b92505060206123bd85828601611e93565b9150509250929050565b7f4e487b7100000000000000000000000000000000000000000000000000000000600052602260045260246000fd5b6000600282049050600182168061240e57607f821691505b602082108103612421576124206123c7565b5b50919050565b7f4552433732313a20617070726f76616c20746f2063757272656e74206f776e6560008201527f7200000000000000000000000000000000000000000000000000000000000000602082015250565b6000612483602183611d16565b915061248e82612427565b604082019050919050565b600060208201905081810360008301526124b281612476565b9050919050565b7f4552433732313a20617070726f76652063616c6c6572206973206e6f7420746f60008201527f6b656e206f776e6572206e6f7220617070726f76656420666f7220616c6c0000602082015250565b6000612515603e83611d16565b9150612520826124b9565b604082019050919050565b6000602082019050818103600083015261254481612508565b9050919050565b7f4552433732313a2063616c6c6572206973206e6f7420746f6b656e206f776e6560008201527f72206e6f7220617070726f766564000000000000000000000000000000000000602082015250565b60006125a7602e83611d16565b91506125b28261254b565b604082019050919050565b600060208201905081810360008301526125d68161259a565b9050919050565b7f4552433732313a20696e76616c696420746f6b656e2049440000000000000000600082015250565b6000612613601883611d16565b915061261e826125dd565b602082019050919050565b6000602082019050818103600083015261264281612606565b9050919050565b7f4552433732313a2061646472657373207a65726f206973206e6f74206120766160008201527f6c6964206f776e65720000000000000000000000000000000000000000000000602082015250565b60006126a5602983611d16565b91506126b082612649565b604082019050919050565b600060208201905081810360008301526126d481612698565b9050919050565b7f4e487b7100000000000000000000000000000000000000000000000000000000600052603260045260246000fd5b7f4e487b7100000000000000000000000000000000000000000000000000000000600052601160045260246000fd5b600061274482611dbd565b91507fffffffffffffffffffffffffffffffffffffffffffffffffffffffffffffffff82036127765761277561270a565b5b600182019050919050565b7f596f7520646f206e6f74206f776e207468697320686f75736500000000000000600082015250565b60006127b7601983611d16565b91506127c282612781565b602082019050919050565b600060208201905081810360008301526127e6816127aa565b9050919050565b600081905092915050565b600061280382611d0b565b61280d81856127ed565b935061281d818560208601611d27565b80840191505092915050565b600061283582856127f8565b915061284182846127f8565b91508190509392505050565b7f486f757365206973206e6f7420666f722073616c650000000000000000000000600082015250565b6000612883601583611d16565b915061288e8261284d565b602082019050919050565b600060208201905081810360008301526128b281612876565b9050919050565b7f496e73756666696369656e742066756e647320746f206275792074686973206860008201527f6f75736500000000000000000000000000000000000000000000000000000000602082015250565b6000612915602483611d16565b9150612920826128b9565b604082019050919050565b6000602082019050818103600083015261294481612908565b9050919050565b7f4552433732313a207472616e736665722066726f6d20696e636f72726563742060008201527f6f776e6572000000000000000000000000000000000000000000000000000000602082015250565b60006129a7602583611d16565b91506129b28261294b565b604082019050919050565b600060208201905081810360008301526129d68161299a565b9050919050565b7f4552433732313a207472616e7366657220746f20746865207a65726f2061646460008201527f7265737300000000000000000000000000000000000000000000000000000000602082015250565b6000612a39602483611d16565b9150612a44826129dd565b604082019050919050565b60006020820190508181036000830152612a6881612a2c565b9050919050565b6000612a7a82611dbd565b9150612a8583611dbd565b9250828203905081811115612a9d57612a9c61270a565b5b92915050565b6000612aae82611dbd565b9150612ab983611dbd565b9250828201905080821115612ad157612ad061270a565b5b92915050565b7f4552433732313a20617070726f766520746f2063616c6c657200000000000000600082015250565b6000612b0d601983611d16565b9150612b1882612ad7565b602082019050919050565b60006020820190508181036000830152612b3c81612b00565b9050919050565b7f4552433732313a207472616e7366657220746f206e6f6e20455243373231526560008201527f63656976657220696d706c656d656e7465720000000000000000000000000000602082015250565b6000612b9f603283611d16565b9150612baa82612b43565b604082019050919050565b60006020820190508181036000830152612bce81612b92565b9050919050565b7f4e487b7100000000000000000000000000000000000000000000000000000000600052601260045260246000fd5b6000612c0f82611dbd565b9150612c1a83611dbd565b925082612c2a57612c29612bd5565b5b828204905092915050565b6000612c4082611dbd565b9150612c4b83611dbd565b925082612c5b57612c5a612bd5565b5b828206905092915050565b7f4552433732313a206d696e7420746f20746865207a65726f2061646472657373600082015250565b6000612c9c602083611d16565b9150612ca782612c66565b602082019050919050565b60006020820190508181036000830152612ccb81612c8f565b9050919050565b7f4552433732313a20746f6b656e20616c7265616479206d696e74656400000000600082015250565b6000612d08601c83611d16565b9150612d1382612cd2565b602082019050919050565b60006020820190508181036000830152612d3781612cfb565b9050919050565b600081519050919050565b600082825260208201905092915050565b6000612d6582612d3e565b612d6f8185612d49565b9350612d7f818560208601611d27565b612d8881611d51565b840191505092915050565b6000608082019050612da86000830187611e52565b612db56020830186611e52565b612dc26040830185611fe2565b8181036060830152612dd48184612d5a565b905095945050505050565b600081519050612dee81611c7c565b92915050565b600060208284031215612e0a57612e09611c46565b5b6000612e1884828501612ddf565b9150509291505056fea2646970667358221220bbd6755bff59388931f800c1cb0cbf578a7481897490f535bb74dac812682eea64736f6c6343000814003360806040523480156200001157600080fd5b5060405162001d2138038062001d218339818101604052810190620000379190620001fa565b818181600390816200004a9190620004ca565b5080600490816200005c9190620004ca565b5050505050620005b1565b6000604051905090565b600080fd5b600080fd5b600080fd5b600080fd5b6000601f19601f8301169050919050565b7f4e487b7100000000000000000000000000000000000000000000000000000000600052604160045260246000fd5b620000d08262000085565b810181811067ffffffffffffffff82111715620000f257620000f162000096565b5b80604052505050565b60006200010762000067565b9050620001158282620000c5565b919050565b600067ffffffffffffffff82111562000138576200013762000096565b5b620001438262000085565b9050602081019050919050565b60005b838110156200017057808201518184015260208101905062000153565b60008484015250505050565b6000620001936200018d846200011a565b620000fb565b905082815260208101848484011115620001b257620001b162000080565b5b620001bf84828562000150565b509392505050565b600082601f830112620001df57620001de6200007b565b5b8151620001f18482602086016200017c565b91505092915050565b6000806040838503121562000214576200021362000071565b5b600083015167ffffffffffffffff81111562000235576200023462000076565b5b6200024385828601620001c7565b925050602083015167ffffffffffffffff81111562000267576200026662000076565b5b6200027585828601620001c7565b9150509250929050565b600081519050919050565b7f4e487b7100000000000000000000000000000000000000000000000000000000600052602260045260246000fd5b60006002820490506001821680620002d257607f821691505b602082108103620002e857620002e76200028a565b5b50919050565b60008190508160005260206000209050919050565b60006020601f8301049050919050565b600082821b905092915050565b600060088302620003527fffffffffffffffffffffffffffffffffffffffffffffffffffffffffffffffff8262000313565b6200035e868362000313565b95508019841693508086168417925050509392505050565b6000819050919050565b6000819050919050565b6000620003ab620003a56200039f8462000376565b62000380565b62000376565b9050919050565b6000819050919050565b620003c7836200038a565b620003df620003d682620003b2565b84845462000320565b825550505050565b600090565b620003f6620003e7565b62000403818484620003bc565b505050565b5b818110156200042b576200041f600082620003ec565b60018101905062000409565b5050565b601f8211156200047a576200044481620002ee565b6200044f8462000303565b810160208510156200045f578190505b620004776200046e8562000303565b83018262000408565b50505b505050565b600082821c905092915050565b60006200049f600019846008026200047f565b1980831691505092915050565b6000620004ba83836200048c565b9150826002028217905092915050565b620004d5826200027f565b67ffffffffffffffff811115620004f157620004f062000096565b5b620004fd8254620002b9565b6200050a8282856200042f565b600060209050601f8311600181146200054257600084156200052d578287015190505b620005398582620004ac565b865550620005a9565b601f1984166200055286620002ee565b60005b828110156200057c5784890151825560018201915060208501945060208101905062000555565b868310156200059c578489015162000598601f8916826200048c565b8355505b6001600288020188555050505b505050505050565b61176080620005c16000396000f3fe6080604052600436106100c25760003560e01c8063395093511161007f578063a457c2d711610059578063a457c2d71461027e578063a9059cbb146102bb578063d0febe4c146102f8578063dd62ed3e14610302576100c2565b806339509351146101d957806370a082311461021657806395d89b4114610253576100c2565b806306fdde03146100c7578063095ea7b3146100f257806318160ddd1461012f57806323b872dd1461015a578063313ce567146101975780633884d635146101c2575b600080fd5b3480156100d357600080fd5b506100dc61033f565b6040516100e99190610e91565b60405180910390f35b3480156100fe57600080fd5b5061011960048036038101906101149190610f4c565b6103d1565b6040516101269190610fa7565b60405180910390f35b34801561013b57600080fd5b506101446103f4565b6040516101519190610fd1565b60405180910390f35b34801561016657600080fd5b50610181600480360381019061017c9190610fec565b6103fe565b60405161018e9190610fa7565b60405180910390f35b3480156101a357600080fd5b506101ac61042d565b6040516101b9919061105b565b60405180910390f35b3480156101ce57600080fd5b506101d7610436565b005b3480156101e557600080fd5b5061020060048036038101906101fb9190610f4c565b610529565b60405161020d9190610fa7565b60405180910390f35b34801561022257600080fd5b5061023d60048036038101906102389190611076565b610560565b60405161024a9190610fd1565b60405180910390f35b34801561025f57600080fd5b506102686105a8565b6040516102759190610e91565b60405180910390f35b34801561028a57600080fd5b506102a560048036038101906102a09190610f4c565b61063a565b6040516102b29190610fa7565b60405180910390f35b3480156102c757600080fd5b506102e260048036038101906102dd9190610f4c565b6106b1565b6040516102ef9190610fa7565b60405180910390f35b6103006106d4565b005b34801561030e57600080fd5b50610329600480360381019061032491906110a3565b610735565b6040516103369190610fd1565b60405180910390f35b60606003805461034e90611112565b80601f016020809104026020016040519081016040528092919081815260200182805461037a90611112565b80156103c75780601f1061039c576101008083540402835291602001916103c7565b820191906000526020600020905b8154815290600101906020018083116103aa57829003601f168201915b5050505050905090565b6000806103dc6107bc565b90506103e98185856107c4565b600191505092915050565b6000600254905090565b6000806104096107bc565b905061041685828561098d565b610421858585610a19565b60019150509392505050565b60006012905090565b600560003373ffffffffffffffffffffffffffffffffffffffff1673ffffffffffffffffffffffffffffffffffffffff16815260200190815260200160002060009054906101000a900460ff16156104c3576040517f08c379a00000000000000000000000000000000000000000000000000000000081526004016104ba906111b5565b60405180910390fd5b6104cf33612710610c98565b6001600560003373ffffffffffffffffffffffffffffffffffffffff1673ffffffffffffffffffffffffffffffffffffffff16815260200190815260200160002060006101000a81548160ff021916908315150217905550565b6000806105346107bc565b90506105558185856105468589610735565b6105509190611204565b6107c4565b600191505092915050565b60008060008373ffffffffffffffffffffffffffffffffffffffff1673ffffffffffffffffffffffffffffffffffffffff168152602001908152602001600020549050919050565b6060600480546105b790611112565b80601f01602080910402602001604051908101604052809291908181526020018280546105e390611112565b80156106305780601f1061060557610100808354040283529160200191610630565b820191906000526020600020905b81548152906001019060200180831161061357829003601f168201915b5050505050905090565b6000806106456107bc565b905060006106538286610735565b905083811015610698576040517f08c379a000000000000000000000000000000000000000000000000000000000815260040161068f906112aa565b60405180910390fd5b6106a582868684036107c4565b60019250505092915050565b6000806106bc6107bc565b90506106c9818585610a19565b600191505092915050565b60003411610717576040517f08c379a000000000000000000000000000000000000000000000000000000000815260040161070e90611316565b60405180910390fd5b60006064346107269190611336565b90506107323382610c98565b50565b6000600160008473ffffffffffffffffffffffffffffffffffffffff1673ffffffffffffffffffffffffffffffffffffffff16815260200190815260200160002060008373ffffffffffffffffffffffffffffffffffffffff1673ffffffffffffffffffffffffffffffffffffffff16815260200190815260200160002054905092915050565b600033905090565b600073ffffffffffffffffffffffffffffffffffffffff168373ffffffffffffffffffffffffffffffffffffffff1603610833576040517f08c379a000000000000000000000000000000000000000000000000000000000815260040161082a906113ea565b60405180910390fd5b600073ffffffffffffffffffffffffffffffffffffffff168273ffffffffffffffffffffffffffffffffffffffff16036108a2576040517f08c379a00000000000000000000000000000000000000000000000000000000081526004016108999061147c565b60405180910390fd5b80600160008573ffffffffffffffffffffffffffffffffffffffff1673ffffffffffffffffffffffffffffffffffffffff16815260200190815260200160002060008473ffffffffffffffffffffffffffffffffffffffff1673ffffffffffffffffffffffffffffffffffffffff168152602001908152602001600020819055508173ffffffffffffffffffffffffffffffffffffffff168373ffffffffffffffffffffffffffffffffffffffff167f8c5be1e5ebec7d5bd14f71427d1e84f3dd0314c0f7b2291e5b200ac8c7c3b925836040516109809190610fd1565b60405180910390a3505050565b60006109998484610735565b90507fffffffffffffffffffffffffffffffffffffffffffffffffffffffffffffffff8114610a135781811015610a05576040517f08c379a00000000000000000000000000000000000000000000000000000000081526004016109fc906114e8565b60405180910390fd5b610a1284848484036107c4565b5b50505050565b600073ffffffffffffffffffffffffffffffffffffffff168373ffffffffffffffffffffffffffffffffffffffff1603610a88576040517f08c379a0000000000000000000000000000000000000000000000000000000008152600401610a7f9061157a565b60405180910390fd5b600073ffffffffffffffffffffffffffffffffffffffff168273ffffffffffffffffffffffffffffffffffffffff1603610af7576040517f08c379a0000000000000000000000000000000000000000000000000000000008152600401610aee9061160c565b60405180910390fd5b610b02838383610df7565b60008060008573ffffffffffffffffffffffffffffffffffffffff1673ffffffffffffffffffffffffffffffffffffffff16815260200190815260200160002054905081811015610b88576040517f08c379a0000000000000000000000000000000000000000000000000000000008152600401610b7f9061169e565b60405180910390fd5b8181036000808673ffffffffffffffffffffffffffffffffffffffff1673ffffffffffffffffffffffffffffffffffffffff16815260200190815260200160002081905550816000808573ffffffffffffffffffffffffffffffffffffffff1673ffffffffffffffffffffffffffffffffffffffff1681526020019081526020016000206000828254610c1b9190611204565b925050819055508273ffffffffffffffffffffffffffffffffffffffff168473ffffffffffffffffffffffffffffffffffffffff167fddf252ad1be2c89b69c2b068fc378daa952ba7f163c4a11628f55a4df523b3ef84604051610c7f9190610fd1565b60405180910390a3610c92848484610dfc565b50505050565b600073ffffffffffffffffffffffffffffffffffffffff168273ffffffffffffffffffffffffffffffffffffffff1603610d07576040517f08c379a0000000000000000000000000000000000000000000000000000000008152600401610cfe9061170a565b60405180910390fd5b610d1360008383610df7565b8060026000828254610d259190611204565b92505081905550806000808473ffffffffffffffffffffffffffffffffffffffff1673ffffffffffffffffffffffffffffffffffffffff1681526020019081526020016000206000828254610d7a9190611204565b925050819055508173ffffffffffffffffffffffffffffffffffffffff16600073ffffffffffffffffffffffffffffffffffffffff167fddf252ad1be2c89b69c2b068fc378daa952ba7f163c4a11628f55a4df523b3ef83604051610ddf9190610fd1565b60405180910390a3610df360008383610dfc565b5050565b505050565b505050565b600081519050919050565b600082825260208201905092915050565b60005b83811015610e3b578082015181840152602081019050610e20565b60008484015250505050565b6000601f19601f8301169050919050565b6000610e6382610e01565b610e6d8185610e0c565b9350610e7d818560208601610e1d565b610e8681610e47565b840191505092915050565b60006020820190508181036000830152610eab8184610e58565b905092915050565b600080fd5b600073ffffffffffffffffffffffffffffffffffffffff82169050919050565b6000610ee382610eb8565b9050919050565b610ef381610ed8565b8114610efe57600080fd5b50565b600081359050610f1081610eea565b92915050565b6000819050919050565b610f2981610f16565b8114610f3457600080fd5b50565b600081359050610f4681610f20565b92915050565b60008060408385031215610f6357610f62610eb3565b5b6000610f7185828601610f01565b9250506020610f8285828601610f37565b9150509250929050565b60008115159050919050565b610fa181610f8c565b82525050565b6000602082019050610fbc6000830184610f98565b92915050565b610fcb81610f16565b82525050565b6000602082019050610fe66000830184610fc2565b92915050565b60008060006060848603121561100557611004610eb3565b5b600061101386828701610f01565b935050602061102486828701610f01565b925050604061103586828701610f37565b9150509250925092565b600060ff82169050919050565b6110558161103f565b82525050565b6000602082019050611070600083018461104c565b92915050565b60006020828403121561108c5761108b610eb3565b5b600061109a84828501610f01565b91505092915050565b600080604083850312156110ba576110b9610eb3565b5b60006110c885828601610f01565b92505060206110d985828601610f01565b9150509250929050565b7f4e487b7100000000000000000000000000000000000000000000000000000000600052602260045260246000fd5b6000600282049050600182168061112a57607f821691505b60208210810361113d5761113c6110e3565b5b50919050565b7f5468697320757365722068617320636c61696d65642061697264726f7020616c60008201527f7265616479000000000000000000000000000000000000000000000000000000602082015250565b600061119f602583610e0c565b91506111aa82611143565b604082019050919050565b600060208201905081810360008301526111ce81611192565b9050919050565b7f4e487b7100000000000000000000000000000000000000000000000000000000600052601160045260246000fd5b600061120f82610f16565b915061121a83610f16565b9250828201905080821115611232576112316111d5565b5b92915050565b7f45524332303a2064656372656173656420616c6c6f77616e63652062656c6f7760008201527f207a65726f000000000000000000000000000000000000000000000000000000602082015250565b6000611294602583610e0c565b915061129f82611238565b604082019050919050565b600060208201905081810360008301526112c381611287565b9050919050565b7f4d7573742073656e6420457468657220746f2062757920746f6b656e73000000600082015250565b6000611300601d83610e0c565b915061130b826112ca565b602082019050919050565b6000602082019050818103600083015261132f816112f3565b9050919050565b600061134182610f16565b915061134c83610f16565b925082820261135a81610f16565b91508282048414831517611371576113706111d5565b5b5092915050565b7f45524332303a20617070726f76652066726f6d20746865207a65726f2061646460008201527f7265737300000000000000000000000000000000000000000000000000000000602082015250565b60006113d4602483610e0c565b91506113df82611378565b604082019050919050565b60006020820190508181036000830152611403816113c7565b9050919050565b7f45524332303a20617070726f766520746f20746865207a65726f20616464726560008201527f7373000000000000000000000000000000000000000000000000000000000000602082015250565b6000611466602283610e0c565b91506114718261140a565b604082019050919050565b6000602082019050818103600083015261149581611459565b9050919050565b7f45524332303a20696e73756666696369656e7420616c6c6f77616e6365000000600082015250565b60006114d2601d83610e0c565b91506114dd8261149c565b602082019050919050565b60006020820190508181036000830152611501816114c5565b9050919050565b7f45524332303a207472616e736665722066726f6d20746865207a65726f20616460008201527f6472657373000000000000000000000000000000000000000000000000000000602082015250565b6000611564602583610e0c565b915061156f82611508565b604082019050919050565b6000602082019050818103600083015261159381611557565b9050919050565b7f45524332303a207472616e7366657220746f20746865207a65726f206164647260008201527f6573730000000000000000000000000000000000000000000000000000000000602082015250565b60006115f6602383610e0c565b91506116018261159a565b604082019050919050565b60006020820190508181036000830152611625816115e9565b9050919050565b7f45524332303a207472616e7366657220616d6f756e742065786365656473206260008201527f616c616e63650000000000000000000000000000000000000000000000000000602082015250565b6000611688602683610e0c565b91506116938261162c565b604082019050919050565b600060208201905081810360008301526116b78161167b565b9050919050565b7f45524332303a206d696e7420746f20746865207a65726f206164647265737300600082015250565b60006116f4601f83610e0c565b91506116ff826116be565b602082019050919050565b60006020820190508181036000830152611723816116e7565b905091905056fea2646970667358221220a92ff73ff3d323bb1cffdb11fbaed30805274c025cf6b0454e8dabc091ddadc964736f6c63430008140033","opcodes":"PUSH1 0x80 PUSH1 0x40 MSTORE CALLVALUE DUP1 ISZERO PUSH3 0x11 JUMPI PUSH1 0x0 DUP1 REVERT JUMPDEST POP PUSH1 0x40 MLOAD DUP1 PUSH1 0x40 ADD PUSH1 0x40 MSTORE DUP1 PUSH1 0x8 DUP2 MSTORE PUSH1 0x20 ADD PUSH32 0x486F7573654E4654000000000000000000000000000000000000000000000000 DUP2 MSTORE POP PUSH1 0x40 MLOAD DUP1 PUSH1 0x40 ADD PUSH1 0x40 MSTORE DUP1 PUSH1 0x4 DUP2 MSTORE PUSH1 0x20 ADD PUSH32 0x484E465400000000000000000000000000000000000000000000000000000000 DUP2 MSTORE POP DUP2 PUSH1 0x0 SWAP1 DUP2 PUSH3 0x8F SWAP2 SWAP1 PUSH3 0x3B1 JUMP JUMPDEST POP DUP1 PUSH1 0x1 SWAP1 DUP2 PUSH3 0xA1 SWAP2 SWAP1 PUSH3 0x3B1 JUMP JUMPDEST POP POP POP PUSH1 0x40 MLOAD PUSH3 0xB2 SWAP1 PUSH3 0x129 JUMP JUMPDEST PUSH3 0xBD SWAP1 PUSH3 0x549 JUMP JUMPDEST PUSH1 0x40 MLOAD DUP1 SWAP2 SUB SWAP1 PUSH1 0x0 CREATE DUP1 ISZERO DUP1 ISZERO PUSH3 0xDA JUMPI RETURNDATASIZE PUSH1 0x0 DUP1 RETURNDATACOPY RETURNDATASIZE PUSH1 0x0 REVERT JUMPDEST POP PUSH1 0x8 PUSH1 0x0 PUSH2 0x100 EXP DUP2 SLOAD DUP2 PUSH20 0xFFFFFFFFFFFFFFFFFFFFFFFFFFFFFFFFFFFFFFFF MUL NOT AND SWAP1 DUP4 PUSH20 0xFFFFFFFFFFFFFFFFFFFFFFFFFFFFFFFFFFFFFFFF AND MUL OR SWAP1 SSTORE POP PUSH1 0x0 PUSH1 0x6 DUP2 SWAP1 SSTORE POP PUSH3 0x580 JUMP JUMPDEST PUSH2 0x1D21 DUP1 PUSH3 0x33E7 DUP4 CODECOPY ADD SWAP1 JUMP JUMPDEST PUSH1 0x0 DUP2 MLOAD SWAP1 POP SWAP2 SWAP1 POP JUMP JUMPDEST PUSH32 0x4E487B7100000000000000000000000000000000000000000000000000000000 PUSH1 0x0 MSTORE PUSH1 0x41 PUSH1 0x4 MSTORE PUSH1 0x24 PUSH1 0x0 REVERT JUMPDEST PUSH32 0x4E487B7100000000000000000000000000000000000000000000000000000000 PUSH1 0x0 MSTORE PUSH1 0x22 PUSH1 0x4 MSTORE PUSH1 0x24 PUSH1 0x0 REVERT JUMPDEST PUSH1 0x0 PUSH1 0x2 DUP3 DIV SWAP1 POP PUSH1 0x1 DUP3 AND DUP1 PUSH3 0x1B9 JUMPI PUSH1 0x7F DUP3 AND SWAP2 POP JUMPDEST PUSH1 0x20 DUP3 LT DUP2 SUB PUSH3 0x1CF JUMPI PUSH3 0x1CE PUSH3 0x171 JUMP JUMPDEST JUMPDEST POP SWAP2 SWAP1 POP JUMP JUMPDEST PUSH1 0x0 DUP2 SWAP1 POP DUP2 PUSH1 0x0 MSTORE PUSH1 0x20 PUSH1 0x0 KECCAK256 SWAP1 POP SWAP2 SWAP1 POP JUMP JUMPDEST PUSH1 0x0 PUSH1 0x20 PUSH1 0x1F DUP4 ADD DIV SWAP1 POP SWAP2 SWAP1 POP JUMP JUMPDEST PUSH1 0x0 DUP3 DUP3 SHL SWAP1 POP SWAP3 SWAP2 POP POP JUMP JUMPDEST PUSH1 0x0 PUSH1 0x8 DUP4 MUL PUSH3 0x239 PUSH32 0xFFFFFFFFFFFFFFFFFFFFFFFFFFFFFFFFFFFFFFFFFFFFFFFFFFFFFFFFFFFFFFFF DUP3 PUSH3 0x1FA JUMP JUMPDEST PUSH3 0x245 DUP7 DUP4 PUSH3 0x1FA JUMP JUMPDEST SWAP6 POP DUP1 NOT DUP5 AND SWAP4 POP DUP1 DUP7 AND DUP5 OR SWAP3 POP POP POP SWAP4 SWAP3 POP POP POP JUMP JUMPDEST PUSH1 0x0 DUP2 SWAP1 POP SWAP2 SWAP1 POP JUMP JUMPDEST PUSH1 0x0 DUP2 SWAP1 POP SWAP2 SWAP1 POP JUMP JUMPDEST PUSH1 0x0 PUSH3 0x292 PUSH3 0x28C PUSH3 0x286 DUP5 PUSH3 0x25D JUMP JUMPDEST PUSH3 0x267 JUMP JUMPDEST PUSH3 0x25D JUMP JUMPDEST SWAP1 POP SWAP2 SWAP1 POP JUMP JUMPDEST PUSH1 0x0 DUP2 SWAP1 POP SWAP2 SWAP1 POP JUMP JUMPDEST PUSH3 0x2AE DUP4 PUSH3 0x271 JUMP JUMPDEST PUSH3 0x2C6 PUSH3 0x2BD DUP3 PUSH3 0x299 JUMP JUMPDEST DUP5 DUP5 SLOAD PUSH3 0x207 JUMP JUMPDEST DUP3 SSTORE POP POP POP POP JUMP JUMPDEST PUSH1 0x0 SWAP1 JUMP JUMPDEST PUSH3 0x2DD PUSH3 0x2CE JUMP JUMPDEST PUSH3 0x2EA DUP2 DUP5 DUP5 PUSH3 0x2A3 JUMP JUMPDEST POP POP POP JUMP JUMPDEST JUMPDEST DUP2 DUP2 LT ISZERO PUSH3 0x312 JUMPI PUSH3 0x306 PUSH1 0x0 DUP3 PUSH3 0x2D3 JUMP JUMPDEST PUSH1 0x1 DUP2 ADD SWAP1 POP PUSH3 0x2F0 JUMP JUMPDEST POP POP JUMP JUMPDEST PUSH1 0x1F DUP3 GT ISZERO PUSH3 0x361 JUMPI PUSH3 0x32B DUP2 PUSH3 0x1D5 JUMP JUMPDEST PUSH3 0x336 DUP5 PUSH3 0x1EA JUMP JUMPDEST DUP2 ADD PUSH1 0x20 DUP6 LT ISZERO PUSH3 0x346 JUMPI DUP2 SWAP1 POP JUMPDEST PUSH3 0x35E PUSH3 0x355 DUP6 PUSH3 0x1EA JUMP JUMPDEST DUP4 ADD DUP3 PUSH3 0x2EF JUMP JUMPDEST POP POP JUMPDEST POP POP POP JUMP JUMPDEST PUSH1 0x0 DUP3 DUP3 SHR SWAP1 POP SWAP3 SWAP2 POP POP JUMP JUMPDEST PUSH1 0x0 PUSH3 0x386 PUSH1 0x0 NOT DUP5 PUSH1 0x8 MUL PUSH3 0x366 JUMP JUMPDEST NOT DUP1 DUP4 AND SWAP2 POP POP SWAP3 SWAP2 POP POP JUMP JUMPDEST PUSH1 0x0 PUSH3 0x3A1 DUP4 DUP4 PUSH3 0x373 JUMP JUMPDEST SWAP2 POP DUP3 PUSH1 0x2 MUL DUP3 OR SWAP1 POP SWAP3 SWAP2 POP POP JUMP JUMPDEST PUSH3 0x3BC DUP3 PUSH3 0x137 JUMP JUMPDEST PUSH8 0xFFFFFFFFFFFFFFFF DUP2 GT ISZERO PUSH3 0x3D8 JUMPI PUSH3 0x3D7 PUSH3 0x142 JUMP JUMPDEST JUMPDEST PUSH3 0x3E4 DUP3 SLOAD PUSH3 0x1A0 JUMP JUMPDEST PUSH3 0x3F1 DUP3 DUP3 DUP6 PUSH3 0x316 JUMP JUMPDEST PUSH1 0x0 PUSH1 0x20 SWAP1 POP PUSH1 0x1F DUP4 GT PUSH1 0x1 DUP2 EQ PUSH3 0x429 JUMPI PUSH1 0x0 DUP5 ISZERO PUSH3 0x414 JUMPI DUP3 DUP8 ADD MLOAD SWAP1 POP JUMPDEST PUSH3 0x420 DUP6 DUP3 PUSH3 0x393 JUMP JUMPDEST DUP7 SSTORE POP PUSH3 0x490 JUMP JUMPDEST PUSH1 0x1F NOT DUP5 AND PUSH3 0x439 DUP7 PUSH3 0x1D5 JUMP JUMPDEST PUSH1 0x0 JUMPDEST DUP3 DUP2 LT ISZERO PUSH3 0x463 JUMPI DUP5 DUP10 ADD MLOAD DUP3 SSTORE PUSH1 0x1 DUP3 ADD SWAP2 POP PUSH1 0x20 DUP6 ADD SWAP5 POP PUSH1 0x20 DUP2 ADD SWAP1 POP PUSH3 0x43C JUMP JUMPDEST DUP7 DUP4 LT ISZERO PUSH3 0x483 JUMPI DUP5 DUP10 ADD MLOAD PUSH3 0x47F PUSH1 0x1F DUP10 AND DUP3 PUSH3 0x373 JUMP JUMPDEST DUP4 SSTORE POP JUMPDEST PUSH1 0x1 PUSH1 0x2 DUP9 MUL ADD DUP9 SSTORE POP POP POP JUMPDEST POP POP POP POP POP POP JUMP JUMPDEST PUSH1 0x0 DUP3 DUP3 MSTORE PUSH1 0x20 DUP3 ADD SWAP1 POP SWAP3 SWAP2 POP POP JUMP JUMPDEST PUSH32 0x4D79546F6B656E00000000000000000000000000000000000000000000000000 PUSH1 0x0 DUP3 ADD MSTORE POP JUMP JUMPDEST PUSH1 0x0 PUSH3 0x4E1 PUSH1 0x7 DUP4 PUSH3 0x498 JUMP JUMPDEST SWAP2 POP PUSH3 0x4EE DUP3 PUSH3 0x4A9 JUMP JUMPDEST PUSH1 0x20 DUP3 ADD SWAP1 POP SWAP2 SWAP1 POP JUMP JUMPDEST PUSH32 0x4D544B0000000000000000000000000000000000000000000000000000000000 PUSH1 0x0 DUP3 ADD MSTORE POP JUMP JUMPDEST PUSH1 0x0 PUSH3 0x531 PUSH1 0x3 DUP4 PUSH3 0x498 JUMP JUMPDEST SWAP2 POP PUSH3 0x53E DUP3 PUSH3 0x4F9 JUMP JUMPDEST PUSH1 0x20 DUP3 ADD SWAP1 POP SWAP2 SWAP1 POP JUMP JUMPDEST PUSH1 0x0 PUSH1 0x40 DUP3 ADD SWAP1 POP DUP2 DUP2 SUB PUSH1 0x0 DUP4 ADD MSTORE PUSH3 0x564 DUP2 PUSH3 0x4D2 JUMP JUMPDEST SWAP1 POP DUP2 DUP2 SUB PUSH1 0x20 DUP4 ADD MSTORE PUSH3 0x579 DUP2 PUSH3 0x522 JUMP JUMPDEST SWAP1 POP SWAP2 SWAP1 POP JUMP JUMPDEST PUSH2 0x2E57 DUP1 PUSH3 0x590 PUSH1 0x0 CODECOPY PUSH1 0x0 RETURN INVALID PUSH1 0x80 PUSH1 0x40 MSTORE PUSH1 0x4 CALLDATASIZE LT PUSH2 0x114 JUMPI PUSH1 0x0 CALLDATALOAD PUSH1 0xE0 SHR DUP1 PUSH4 0x95D89B41 GT PUSH2 0xA0 JUMPI DUP1 PUSH4 0xB88D4FDE GT PUSH2 0x64 JUMPI DUP1 PUSH4 0xB88D4FDE EQ PUSH2 0x3C5 JUMPI DUP1 PUSH4 0xC87B56DD EQ PUSH2 0x3EE JUMPI DUP1 PUSH4 0xE985E9C5 EQ PUSH2 0x42B JUMPI DUP1 PUSH4 0xEDDC4269 EQ PUSH2 0x468 JUMPI DUP1 PUSH4 0xF364333D EQ PUSH2 0x484 JUMPI PUSH2 0x114 JUMP JUMPDEST DUP1 PUSH4 0x95D89B41 EQ PUSH2 0x2DE JUMPI DUP1 PUSH4 0x9E4FFA7F EQ PUSH2 0x309 JUMPI DUP1 PUSH4 0x9F76A037 EQ PUSH2 0x334 JUMPI DUP1 PUSH4 0xA22CB465 EQ PUSH2 0x35D JUMPI DUP1 PUSH4 0xAEDA852F EQ PUSH2 0x386 JUMPI PUSH2 0x114 JUMP JUMPDEST DUP1 PUSH4 0x23B872DD GT PUSH2 0xE7 JUMPI DUP1 PUSH4 0x23B872DD EQ PUSH2 0x1E7 JUMPI DUP1 PUSH4 0x42842E0E EQ PUSH2 0x210 JUMPI DUP1 PUSH4 0x6352211E EQ PUSH2 0x239 JUMPI DUP1 PUSH4 0x6D3739C4 EQ PUSH2 0x276 JUMPI DUP1 PUSH4 0x70A08231 EQ PUSH2 0x2A1 JUMPI PUSH2 0x114 JUMP JUMPDEST DUP1 PUSH4 0x1FFC9A7 EQ PUSH2 0x119 JUMPI DUP1 PUSH4 0x6FDDE03 EQ PUSH2 0x156 JUMPI DUP1 PUSH4 0x81812FC EQ PUSH2 0x181 JUMPI DUP1 PUSH4 0x95EA7B3 EQ PUSH2 0x1BE JUMPI JUMPDEST PUSH1 0x0 DUP1 REVERT JUMPDEST CALLVALUE DUP1 ISZERO PUSH2 0x125 JUMPI PUSH1 0x0 DUP1 REVERT JUMPDEST POP PUSH2 0x140 PUSH1 0x4 DUP1 CALLDATASIZE SUB DUP2 ADD SWAP1 PUSH2 0x13B SWAP2 SWAP1 PUSH2 0x1CA8 JUMP JUMPDEST PUSH2 0x49B JUMP JUMPDEST PUSH1 0x40 MLOAD PUSH2 0x14D SWAP2 SWAP1 PUSH2 0x1CF0 JUMP JUMPDEST PUSH1 0x40 MLOAD DUP1 SWAP2 SUB SWAP1 RETURN JUMPDEST CALLVALUE DUP1 ISZERO PUSH2 0x162 JUMPI PUSH1 0x0 DUP1 REVERT JUMPDEST POP PUSH2 0x16B PUSH2 0x57D JUMP JUMPDEST PUSH1 0x40 MLOAD PUSH2 0x178 SWAP2 SWAP1 PUSH2 0x1D9B JUMP JUMPDEST PUSH1 0x40 MLOAD DUP1 SWAP2 SUB SWAP1 RETURN JUMPDEST CALLVALUE DUP1 ISZERO PUSH2 0x18D JUMPI PUSH1 0x0 DUP1 REVERT JUMPDEST POP PUSH2 0x1A8 PUSH1 0x4 DUP1 CALLDATASIZE SUB DUP2 ADD SWAP1 PUSH2 0x1A3 SWAP2 SWAP1 PUSH2 0x1DF3 JUMP JUMPDEST PUSH2 0x60F JUMP JUMPDEST PUSH1 0x40 MLOAD PUSH2 0x1B5 SWAP2 SWAP1 PUSH2 0x1E61 JUMP JUMPDEST PUSH1 0x40 MLOAD DUP1 SWAP2 SUB SWAP1 RETURN JUMPDEST CALLVALUE DUP1 ISZERO PUSH2 0x1CA JUMPI PUSH1 0x0 DUP1 REVERT JUMPDEST POP PUSH2 0x1E5 PUSH1 0x4 DUP1 CALLDATASIZE SUB DUP2 ADD SWAP1 PUSH2 0x1E0 SWAP2 SWAP1 PUSH2 0x1EA8 JUMP JUMPDEST PUSH2 0x655 JUMP JUMPDEST STOP JUMPDEST CALLVALUE DUP1 ISZERO PUSH2 0x1F3 JUMPI PUSH1 0x0 DUP1 REVERT JUMPDEST POP PUSH2 0x20E PUSH1 0x4 DUP1 CALLDATASIZE SUB DUP2 ADD SWAP1 PUSH2 0x209 SWAP2 SWAP1 PUSH2 0x1EE8 JUMP JUMPDEST PUSH2 0x76C JUMP JUMPDEST STOP JUMPDEST CALLVALUE DUP1 ISZERO PUSH2 0x21C JUMPI PUSH1 0x0 DUP1 REVERT JUMPDEST POP PUSH2 0x237 PUSH1 0x4 DUP1 CALLDATASIZE SUB DUP2 ADD SWAP1 PUSH2 0x232 SWAP2 SWAP1 PUSH2 0x1EE8 JUMP JUMPDEST PUSH2 0x7CC JUMP JUMPDEST STOP JUMPDEST CALLVALUE DUP1 ISZERO PUSH2 0x245 JUMPI PUSH1 0x0 DUP1 REVERT JUMPDEST POP PUSH2 0x260 PUSH1 0x4 DUP1 CALLDATASIZE SUB DUP2 ADD SWAP1 PUSH2 0x25B SWAP2 SWAP1 PUSH2 0x1DF3 JUMP JUMPDEST PUSH2 0x7EC JUMP JUMPDEST PUSH1 0x40 MLOAD PUSH2 0x26D SWAP2 SWAP1 PUSH2 0x1E61 JUMP JUMPDEST PUSH1 0x40 MLOAD DUP1 SWAP2 SUB SWAP1 RETURN JUMPDEST CALLVALUE DUP1 ISZERO PUSH2 0x282 JUMPI PUSH1 0x0 DUP1 REVERT JUMPDEST POP PUSH2 0x28B PUSH2 0x89D JUMP JUMPDEST PUSH1 0x40 MLOAD PUSH2 0x298 SWAP2 SWAP1 PUSH2 0x1F9A JUMP JUMPDEST PUSH1 0x40 MLOAD DUP1 SWAP2 SUB SWAP1 RETURN JUMPDEST CALLVALUE DUP1 ISZERO PUSH2 0x2AD JUMPI PUSH1 0x0 DUP1 REVERT JUMPDEST POP PUSH2 0x2C8 PUSH1 0x4 DUP1 CALLDATASIZE SUB DUP2 ADD SWAP1 PUSH2 0x2C3 SWAP2 SWAP1 PUSH2 0x1FB5 JUMP JUMPDEST PUSH2 0x8C3 JUMP JUMPDEST PUSH1 0x40 MLOAD PUSH2 0x2D5 SWAP2 SWAP1 PUSH2 0x1FF1 JUMP JUMPDEST PUSH1 0x40 MLOAD DUP1 SWAP2 SUB SWAP1 RETURN JUMPDEST CALLVALUE DUP1 ISZERO PUSH2 0x2EA JUMPI PUSH1 0x0 DUP1 REVERT JUMPDEST POP PUSH2 0x2F3 PUSH2 0x97A JUMP JUMPDEST PUSH1 0x40 MLOAD PUSH2 0x300 SWAP2 SWAP1 PUSH2 0x1D9B JUMP JUMPDEST PUSH1 0x40 MLOAD DUP1 SWAP2 SUB SWAP1 RETURN JUMPDEST CALLVALUE DUP1 ISZERO PUSH2 0x315 JUMPI PUSH1 0x0 DUP1 REVERT JUMPDEST POP PUSH2 0x31E PUSH2 0xA0C JUMP JUMPDEST PUSH1 0x40 MLOAD PUSH2 0x32B SWAP2 SWAP1 PUSH2 0x20CA JUMP JUMPDEST PUSH1 0x40 MLOAD DUP1 SWAP2 SUB SWAP1 RETURN JUMPDEST CALLVALUE DUP1 ISZERO PUSH2 0x340 JUMPI PUSH1 0x0 DUP1 REVERT JUMPDEST POP PUSH2 0x35B PUSH1 0x4 DUP1 CALLDATASIZE SUB DUP2 ADD SWAP1 PUSH2 0x356 SWAP2 SWAP1 PUSH2 0x20EC JUMP JUMPDEST PUSH2 0xB8A JUMP JUMPDEST STOP JUMPDEST CALLVALUE DUP1 ISZERO PUSH2 0x369 JUMPI PUSH1 0x0 DUP1 REVERT JUMPDEST POP PUSH2 0x384 PUSH1 0x4 DUP1 CALLDATASIZE SUB DUP2 ADD SWAP1 PUSH2 0x37F SWAP2 SWAP1 PUSH2 0x2158 JUMP JUMPDEST PUSH2 0xC4E JUMP JUMPDEST STOP JUMPDEST CALLVALUE DUP1 ISZERO PUSH2 0x392 JUMPI PUSH1 0x0 DUP1 REVERT JUMPDEST POP PUSH2 0x3AD PUSH1 0x4 DUP1 CALLDATASIZE SUB DUP2 ADD SWAP1 PUSH2 0x3A8 SWAP2 SWAP1 PUSH2 0x1DF3 JUMP JUMPDEST PUSH2 0xC64 JUMP JUMPDEST PUSH1 0x40 MLOAD PUSH2 0x3BC SWAP4 SWAP3 SWAP2 SWAP1 PUSH2 0x2198 JUMP JUMPDEST PUSH1 0x40 MLOAD DUP1 SWAP2 SUB SWAP1 RETURN JUMPDEST CALLVALUE DUP1 ISZERO PUSH2 0x3D1 JUMPI PUSH1 0x0 DUP1 REVERT JUMPDEST POP PUSH2 0x3EC PUSH1 0x4 DUP1 CALLDATASIZE SUB DUP2 ADD SWAP1 PUSH2 0x3E7 SWAP2 SWAP1 PUSH2 0x2304 JUMP JUMPDEST PUSH2 0xCBB JUMP JUMPDEST STOP JUMPDEST CALLVALUE DUP1 ISZERO PUSH2 0x3FA JUMPI PUSH1 0x0 DUP1 REVERT JUMPDEST POP PUSH2 0x415 PUSH1 0x4 DUP1 CALLDATASIZE SUB DUP2 ADD SWAP1 PUSH2 0x410 SWAP2 SWAP1 PUSH2 0x1DF3 JUMP JUMPDEST PUSH2 0xD1D JUMP JUMPDEST PUSH1 0x40 MLOAD PUSH2 0x422 SWAP2 SWAP1 PUSH2 0x1D9B JUMP JUMPDEST PUSH1 0x40 MLOAD DUP1 SWAP2 SUB SWAP1 RETURN JUMPDEST CALLVALUE DUP1 ISZERO PUSH2 0x437 JUMPI PUSH1 0x0 DUP1 REVERT JUMPDEST POP PUSH2 0x452 PUSH1 0x4 DUP1 CALLDATASIZE SUB DUP2 ADD SWAP1 PUSH2 0x44D SWAP2 SWAP1 PUSH2 0x2387 JUMP JUMPDEST PUSH2 0xD85 JUMP JUMPDEST PUSH1 0x40 MLOAD PUSH2 0x45F SWAP2 SWAP1 PUSH2 0x1CF0 JUMP JUMPDEST PUSH1 0x40 MLOAD DUP1 SWAP2 SUB SWAP1 RETURN JUMPDEST PUSH2 0x482 PUSH1 0x4 DUP1 CALLDATASIZE SUB DUP2 ADD SWAP1 PUSH2 0x47D SWAP2 SWAP1 PUSH2 0x1DF3 JUMP JUMPDEST PUSH2 0xE19 JUMP JUMPDEST STOP JUMPDEST CALLVALUE DUP1 ISZERO PUSH2 0x490 JUMPI PUSH1 0x0 DUP1 REVERT JUMPDEST POP PUSH2 0x499 PUSH2 0xFAB JUMP JUMPDEST STOP JUMPDEST PUSH1 0x0 PUSH32 0x80AC58CD00000000000000000000000000000000000000000000000000000000 PUSH28 0xFFFFFFFFFFFFFFFFFFFFFFFFFFFFFFFFFFFFFFFFFFFFFFFFFFFFFFFF NOT AND DUP3 PUSH28 0xFFFFFFFFFFFFFFFFFFFFFFFFFFFFFFFFFFFFFFFFFFFFFFFFFFFFFFFF NOT AND EQ DUP1 PUSH2 0x566 JUMPI POP PUSH32 0x5B5E139F00000000000000000000000000000000000000000000000000000000 PUSH28 0xFFFFFFFFFFFFFFFFFFFFFFFFFFFFFFFFFFFFFFFFFFFFFFFFFFFFFFFF NOT AND DUP3 PUSH28 0xFFFFFFFFFFFFFFFFFFFFFFFFFFFFFFFFFFFFFFFFFFFFFFFFFFFFFFFF NOT AND EQ JUMPDEST DUP1 PUSH2 0x576 JUMPI POP PUSH2 0x575 DUP3 PUSH2 0x1093 JUMP JUMPDEST JUMPDEST SWAP1 POP SWAP2 SWAP1 POP JUMP JUMPDEST PUSH1 0x60 PUSH1 0x0 DUP1 SLOAD PUSH2 0x58C SWAP1 PUSH2 0x23F6 JUMP JUMPDEST DUP1 PUSH1 0x1F ADD PUSH1 0x20 DUP1 SWAP2 DIV MUL PUSH1 0x20 ADD PUSH1 0x40 MLOAD SWAP1 DUP2 ADD PUSH1 0x40 MSTORE DUP1 SWAP3 SWAP2 SWAP1 DUP2 DUP2 MSTORE PUSH1 0x20 ADD DUP3 DUP1 SLOAD PUSH2 0x5B8 SWAP1 PUSH2 0x23F6 JUMP JUMPDEST DUP1 ISZERO PUSH2 0x605 JUMPI DUP1 PUSH1 0x1F LT PUSH2 0x5DA JUMPI PUSH2 0x100 DUP1 DUP4 SLOAD DIV MUL DUP4 MSTORE SWAP2 PUSH1 0x20 ADD SWAP2 PUSH2 0x605 JUMP JUMPDEST DUP3 ADD SWAP2 SWAP1 PUSH1 0x0 MSTORE PUSH1 0x20 PUSH1 0x0 KECCAK256 SWAP1 JUMPDEST DUP2 SLOAD DUP2 MSTORE SWAP1 PUSH1 0x1 ADD SWAP1 PUSH1 0x20 ADD DUP1 DUP4 GT PUSH2 0x5E8 JUMPI DUP3 SWAP1 SUB PUSH1 0x1F AND DUP3 ADD SWAP2 JUMPDEST POP POP POP POP POP SWAP1 POP SWAP1 JUMP JUMPDEST PUSH1 0x0 PUSH2 0x61A DUP3 PUSH2 0x10FD JUMP JUMPDEST PUSH1 0x4 PUSH1 0x0 DUP4 DUP2 MSTORE PUSH1 0x20 ADD SWAP1 DUP2 MSTORE PUSH1 0x20 ADD PUSH1 0x0 KECCAK256 PUSH1 0x0 SWAP1 SLOAD SWAP1 PUSH2 0x100 EXP SWAP1 DIV PUSH20 0xFFFFFFFFFFFFFFFFFFFFFFFFFFFFFFFFFFFFFFFF AND SWAP1 POP SWAP2 SWAP1 POP JUMP JUMPDEST PUSH1 0x0 PUSH2 0x660 DUP3 PUSH2 0x7EC JUMP JUMPDEST SWAP1 POP DUP1 PUSH20 0xFFFFFFFFFFFFFFFFFFFFFFFFFFFFFFFFFFFFFFFF AND DUP4 PUSH20 0xFFFFFFFFFFFFFFFFFFFFFFFFFFFFFFFFFFFFFFFF AND SUB PUSH2 0x6D0 JUMPI PUSH1 0x40 MLOAD PUSH32 0x8C379A000000000000000000000000000000000000000000000000000000000 DUP2 MSTORE PUSH1 0x4 ADD PUSH2 0x6C7 SWAP1 PUSH2 0x2499 JUMP JUMPDEST PUSH1 0x40 MLOAD DUP1 SWAP2 SUB SWAP1 REVERT JUMPDEST DUP1 PUSH20 0xFFFFFFFFFFFFFFFFFFFFFFFFFFFFFFFFFFFFFFFF AND PUSH2 0x6EF PUSH2 0x1148 JUMP JUMPDEST PUSH20 0xFFFFFFFFFFFFFFFFFFFFFFFFFFFFFFFFFFFFFFFF AND EQ DUP1 PUSH2 0x71E JUMPI POP PUSH2 0x71D DUP2 PUSH2 0x718 PUSH2 0x1148 JUMP JUMPDEST PUSH2 0xD85 JUMP JUMPDEST JUMPDEST PUSH2 0x75D JUMPI PUSH1 0x40 MLOAD PUSH32 0x8C379A000000000000000000000000000000000000000000000000000000000 DUP2 MSTORE PUSH1 0x4 ADD PUSH2 0x754 SWAP1 PUSH2 0x252B JUMP JUMPDEST PUSH1 0x40 MLOAD DUP1 SWAP2 SUB SWAP1 REVERT JUMPDEST PUSH2 0x767 DUP4 DUP4 PUSH2 0x1150 JUMP JUMPDEST POP POP POP JUMP JUMPDEST PUSH2 0x77D PUSH2 0x777 PUSH2 0x1148 JUMP JUMPDEST DUP3 PUSH2 0x1209 JUMP JUMPDEST PUSH2 0x7BC JUMPI PUSH1 0x40 MLOAD PUSH32 0x8C379A000000000000000000000000000000000000000000000000000000000 DUP2 MSTORE PUSH1 0x4 ADD PUSH2 0x7B3 SWAP1 PUSH2 0x25BD JUMP JUMPDEST PUSH1 0x40 MLOAD DUP1 SWAP2 SUB SWAP1 REVERT JUMPDEST PUSH2 0x7C7 DUP4 DUP4 DUP4 PUSH2 0x129E JUMP JUMPDEST POP POP POP JUMP JUMPDEST PUSH2 0x7E7 DUP4 DUP4 DUP4 PUSH1 0x40 MLOAD DUP1 PUSH1 0x20 ADD PUSH1 0x40 MSTORE DUP1 PUSH1 0x0 DUP2 MSTORE POP PUSH2 0xCBB JUMP JUMPDEST POP POP POP JUMP JUMPDEST PUSH1 0x0 DUP1 PUSH1 0x2 PUSH1 0x0 DUP5 DUP2 MSTORE PUSH1 0x20 ADD SWAP1 DUP2 MSTORE PUSH1 0x20 ADD PUSH1 0x0 KECCAK256 PUSH1 0x0 SWAP1 SLOAD SWAP1 PUSH2 0x100 EXP SWAP1 DIV PUSH20 0xFFFFFFFFFFFFFFFFFFFFFFFFFFFFFFFFFFFFFFFF AND SWAP1 POP PUSH1 0x0 PUSH20 0xFFFFFFFFFFFFFFFFFFFFFFFFFFFFFFFFFFFFFFFF AND DUP2 PUSH20 0xFFFFFFFFFFFFFFFFFFFFFFFFFFFFFFFFFFFFFFFF AND SUB PUSH2 0x894 JUMPI PUSH1 0x40 MLOAD PUSH32 0x8C379A000000000000000000000000000000000000000000000000000000000 DUP2 MSTORE PUSH1 0x4 ADD PUSH2 0x88B SWAP1 PUSH2 0x2629 JUMP JUMPDEST PUSH1 0x40 MLOAD DUP1 SWAP2 SUB SWAP1 REVERT JUMPDEST DUP1 SWAP2 POP POP SWAP2 SWAP1 POP JUMP JUMPDEST PUSH1 0x8 PUSH1 0x0 SWAP1 SLOAD SWAP1 PUSH2 0x100 EXP SWAP1 DIV PUSH20 0xFFFFFFFFFFFFFFFFFFFFFFFFFFFFFFFFFFFFFFFF AND DUP2 JUMP JUMPDEST PUSH1 0x0 DUP1 PUSH20 0xFFFFFFFFFFFFFFFFFFFFFFFFFFFFFFFFFFFFFFFF AND DUP3 PUSH20 0xFFFFFFFFFFFFFFFFFFFFFFFFFFFFFFFFFFFFFFFF AND SUB PUSH2 0x933 JUMPI PUSH1 0x40 MLOAD PUSH32 0x8C379A000000000000000000000000000000000000000000000000000000000 DUP2 MSTORE PUSH1 0x4 ADD PUSH2 0x92A SWAP1 PUSH2 0x26BB JUMP JUMPDEST PUSH1 0x40 MLOAD DUP1 SWAP2 SUB SWAP1 REVERT JUMPDEST PUSH1 0x3 PUSH1 0x0 DUP4 PUSH20 0xFFFFFFFFFFFFFFFFFFFFFFFFFFFFFFFFFFFFFFFF AND PUSH20 0xFFFFFFFFFFFFFFFFFFFFFFFFFFFFFFFFFFFFFFFF AND DUP2 MSTORE PUSH1 0x20 ADD SWAP1 DUP2 MSTORE PUSH1 0x20 ADD PUSH1 0x0 KECCAK256 SLOAD SWAP1 POP SWAP2 SWAP1 POP JUMP JUMPDEST PUSH1 0x60 PUSH1 0x1 DUP1 SLOAD PUSH2 0x989 SWAP1 PUSH2 0x23F6 JUMP JUMPDEST DUP1 PUSH1 0x1F ADD PUSH1 0x20 DUP1 SWAP2 DIV MUL PUSH1 0x20 ADD PUSH1 0x40 MLOAD SWAP1 DUP2 ADD PUSH1 0x40 MSTORE DUP1 SWAP3 SWAP2 SWAP1 DUP2 DUP2 MSTORE PUSH1 0x20 ADD DUP3 DUP1 SLOAD PUSH2 0x9B5 SWAP1 PUSH2 0x23F6 JUMP JUMPDEST DUP1 ISZERO PUSH2 0xA02 JUMPI DUP1 PUSH1 0x1F LT PUSH2 0x9D7 JUMPI PUSH2 0x100 DUP1 DUP4 SLOAD DIV MUL DUP4 MSTORE SWAP2 PUSH1 0x20 ADD SWAP2 PUSH2 0xA02 JUMP JUMPDEST DUP3 ADD SWAP2 SWAP1 PUSH1 0x0 MSTORE PUSH1 0x20 PUSH1 0x0 KECCAK256 SWAP1 JUMPDEST DUP2 SLOAD DUP2 MSTORE SWAP1 PUSH1 0x1 ADD SWAP1 PUSH1 0x20 ADD DUP1 DUP4 GT PUSH2 0x9E5 JUMPI DUP3 SWAP1 SUB PUSH1 0x1F AND DUP3 ADD SWAP2 JUMPDEST POP POP POP POP POP SWAP1 POP SWAP1 JUMP JUMPDEST PUSH1 0x60 PUSH1 0x0 PUSH1 0x6 SLOAD SWAP1 POP PUSH1 0x0 DUP2 PUSH8 0xFFFFFFFFFFFFFFFF DUP2 GT ISZERO PUSH2 0xA31 JUMPI PUSH2 0xA30 PUSH2 0x21D9 JUMP JUMPDEST JUMPDEST PUSH1 0x40 MLOAD SWAP1 DUP1 DUP3 MSTORE DUP1 PUSH1 0x20 MUL PUSH1 0x20 ADD DUP3 ADD PUSH1 0x40 MSTORE DUP1 ISZERO PUSH2 0xA5F JUMPI DUP2 PUSH1 0x20 ADD PUSH1 0x20 DUP3 MUL DUP1 CALLDATASIZE DUP4 CALLDATACOPY DUP1 DUP3 ADD SWAP2 POP POP SWAP1 POP JUMPDEST POP SWAP1 POP PUSH1 0x0 DUP1 JUMPDEST DUP4 DUP2 LT ISZERO PUSH2 0xAD9 JUMPI PUSH1 0x7 PUSH1 0x0 DUP3 DUP2 MSTORE PUSH1 0x20 ADD SWAP1 DUP2 MSTORE PUSH1 0x20 ADD PUSH1 0x0 KECCAK256 PUSH1 0x2 ADD PUSH1 0x0 SWAP1 SLOAD SWAP1 PUSH2 0x100 EXP SWAP1 DIV PUSH1 0xFF AND ISZERO PUSH2 0xAC6 JUMPI DUP1 DUP4 DUP4 DUP2 MLOAD DUP2 LT PUSH2 0xAAB JUMPI PUSH2 0xAAA PUSH2 0x26DB JUMP JUMPDEST JUMPDEST PUSH1 0x20 MUL PUSH1 0x20 ADD ADD DUP2 DUP2 MSTORE POP POP DUP2 DUP1 PUSH2 0xAC2 SWAP1 PUSH2 0x2739 JUMP JUMPDEST SWAP3 POP POP JUMPDEST DUP1 DUP1 PUSH2 0xAD1 SWAP1 PUSH2 0x2739 JUMP JUMPDEST SWAP2 POP POP PUSH2 0xA66 JUMP JUMPDEST POP PUSH1 0x0 DUP2 PUSH8 0xFFFFFFFFFFFFFFFF DUP2 GT ISZERO PUSH2 0xAF6 JUMPI PUSH2 0xAF5 PUSH2 0x21D9 JUMP JUMPDEST JUMPDEST PUSH1 0x40 MLOAD SWAP1 DUP1 DUP3 MSTORE DUP1 PUSH1 0x20 MUL PUSH1 0x20 ADD DUP3 ADD PUSH1 0x40 MSTORE DUP1 ISZERO PUSH2 0xB24 JUMPI DUP2 PUSH1 0x20 ADD PUSH1 0x20 DUP3 MUL DUP1 CALLDATASIZE DUP4 CALLDATACOPY DUP1 DUP3 ADD SWAP2 POP POP SWAP1 POP JUMPDEST POP SWAP1 POP PUSH1 0x0 JUMPDEST DUP3 DUP2 LT ISZERO PUSH2 0xB7F JUMPI DUP4 DUP2 DUP2 MLOAD DUP2 LT PUSH2 0xB45 JUMPI PUSH2 0xB44 PUSH2 0x26DB JUMP JUMPDEST JUMPDEST PUSH1 0x20 MUL PUSH1 0x20 ADD ADD MLOAD DUP3 DUP3 DUP2 MLOAD DUP2 LT PUSH2 0xB60 JUMPI PUSH2 0xB5F PUSH2 0x26DB JUMP JUMPDEST JUMPDEST PUSH1 0x20 MUL PUSH1 0x20 ADD ADD DUP2 DUP2 MSTORE POP POP DUP1 DUP1 PUSH2 0xB77 SWAP1 PUSH2 0x2739 JUMP JUMPDEST SWAP2 POP POP PUSH2 0xB2A JUMP JUMPDEST POP DUP1 SWAP5 POP POP POP POP POP SWAP1 JUMP JUMPDEST CALLER PUSH20 0xFFFFFFFFFFFFFFFFFFFFFFFFFFFFFFFFFFFFFFFF AND PUSH2 0xBAA DUP4 PUSH2 0x7EC JUMP JUMPDEST PUSH20 0xFFFFFFFFFFFFFFFFFFFFFFFFFFFFFFFFFFFFFFFF AND EQ PUSH2 0xC00 JUMPI PUSH1 0x40 MLOAD PUSH32 0x8C379A000000000000000000000000000000000000000000000000000000000 DUP2 MSTORE PUSH1 0x4 ADD PUSH2 0xBF7 SWAP1 PUSH2 0x27CD JUMP JUMPDEST PUSH1 0x40 MLOAD DUP1 SWAP2 SUB SWAP1 REVERT JUMPDEST PUSH1 0x1 PUSH1 0x7 PUSH1 0x0 DUP5 DUP2 MSTORE PUSH1 0x20 ADD SWAP1 DUP2 MSTORE PUSH1 0x20 ADD PUSH1 0x0 KECCAK256 PUSH1 0x2 ADD PUSH1 0x0 PUSH2 0x100 EXP DUP2 SLOAD DUP2 PUSH1 0xFF MUL NOT AND SWAP1 DUP4 ISZERO ISZERO MUL OR SWAP1 SSTORE POP DUP1 PUSH1 0x7 PUSH1 0x0 DUP5 DUP2 MSTORE PUSH1 0x20 ADD SWAP1 DUP2 MSTORE PUSH1 0x20 ADD PUSH1 0x0 KECCAK256 PUSH1 0x1 ADD DUP2 SWAP1 SSTORE POP POP POP JUMP JUMPDEST PUSH2 0xC60 PUSH2 0xC59 PUSH2 0x1148 JUMP JUMPDEST DUP4 DUP4 PUSH2 0x1504 JUMP JUMPDEST POP POP JUMP JUMPDEST PUSH1 0x7 PUSH1 0x20 MSTORE DUP1 PUSH1 0x0 MSTORE PUSH1 0x40 PUSH1 0x0 KECCAK256 PUSH1 0x0 SWAP2 POP SWAP1 POP DUP1 PUSH1 0x0 ADD PUSH1 0x0 SWAP1 SLOAD SWAP1 PUSH2 0x100 EXP SWAP1 DIV PUSH20 0xFFFFFFFFFFFFFFFFFFFFFFFFFFFFFFFFFFFFFFFF AND SWAP1 DUP1 PUSH1 0x1 ADD SLOAD SWAP1 DUP1 PUSH1 0x2 ADD PUSH1 0x0 SWAP1 SLOAD SWAP1 PUSH2 0x100 EXP SWAP1 DIV PUSH1 0xFF AND SWAP1 POP DUP4 JUMP JUMPDEST PUSH2 0xCCC PUSH2 0xCC6 PUSH2 0x1148 JUMP JUMPDEST DUP4 PUSH2 0x1209 JUMP JUMPDEST PUSH2 0xD0B JUMPI PUSH1 0x40 MLOAD PUSH32 0x8C379A000000000000000000000000000000000000000000000000000000000 DUP2 MSTORE PUSH1 0x4 ADD PUSH2 0xD02 SWAP1 PUSH2 0x25BD JUMP JUMPDEST PUSH1 0x40 MLOAD DUP1 SWAP2 SUB SWAP1 REVERT JUMPDEST PUSH2 0xD17 DUP5 DUP5 DUP5 DUP5 PUSH2 0x1670 JUMP JUMPDEST POP POP POP POP JUMP JUMPDEST PUSH1 0x60 PUSH2 0xD28 DUP3 PUSH2 0x10FD JUMP JUMPDEST PUSH1 0x0 PUSH2 0xD32 PUSH2 0x16CC JUMP JUMPDEST SWAP1 POP PUSH1 0x0 DUP2 MLOAD GT PUSH2 0xD52 JUMPI PUSH1 0x40 MLOAD DUP1 PUSH1 0x20 ADD PUSH1 0x40 MSTORE DUP1 PUSH1 0x0 DUP2 MSTORE POP PUSH2 0xD7D JUMP JUMPDEST DUP1 PUSH2 0xD5C DUP5 PUSH2 0x16E3 JUMP JUMPDEST PUSH1 0x40 MLOAD PUSH1 0x20 ADD PUSH2 0xD6D SWAP3 SWAP2 SWAP1 PUSH2 0x2829 JUMP JUMPDEST PUSH1 0x40 MLOAD PUSH1 0x20 DUP2 DUP4 SUB SUB DUP2 MSTORE SWAP1 PUSH1 0x40 MSTORE JUMPDEST SWAP2 POP POP SWAP2 SWAP1 POP JUMP JUMPDEST PUSH1 0x0 PUSH1 0x5 PUSH1 0x0 DUP5 PUSH20 0xFFFFFFFFFFFFFFFFFFFFFFFFFFFFFFFFFFFFFFFF AND PUSH20 0xFFFFFFFFFFFFFFFFFFFFFFFFFFFFFFFFFFFFFFFF AND DUP2 MSTORE PUSH1 0x20 ADD SWAP1 DUP2 MSTORE PUSH1 0x20 ADD PUSH1 0x0 KECCAK256 PUSH1 0x0 DUP4 PUSH20 0xFFFFFFFFFFFFFFFFFFFFFFFFFFFFFFFFFFFFFFFF AND PUSH20 0xFFFFFFFFFFFFFFFFFFFFFFFFFFFFFFFFFFFFFFFF AND DUP2 MSTORE PUSH1 0x20 ADD SWAP1 DUP2 MSTORE PUSH1 0x20 ADD PUSH1 0x0 KECCAK256 PUSH1 0x0 SWAP1 SLOAD SWAP1 PUSH2 0x100 EXP SWAP1 DIV PUSH1 0xFF AND SWAP1 POP SWAP3 SWAP2 POP POP JUMP JUMPDEST PUSH1 0x7 PUSH1 0x0 DUP3 DUP2 MSTORE PUSH1 0x20 ADD SWAP1 DUP2 MSTORE PUSH1 0x20 ADD PUSH1 0x0 KECCAK256 PUSH1 0x2 ADD PUSH1 0x0 SWAP1 SLOAD SWAP1 PUSH2 0x100 EXP SWAP1 DIV PUSH1 0xFF AND PUSH2 0xE7C JUMPI PUSH1 0x40 MLOAD PUSH32 0x8C379A000000000000000000000000000000000000000000000000000000000 DUP2 MSTORE PUSH1 0x4 ADD PUSH2 0xE73 SWAP1 PUSH2 0x2899 JUMP JUMPDEST PUSH1 0x40 MLOAD DUP1 SWAP2 SUB SWAP1 REVERT JUMPDEST PUSH1 0x7 PUSH1 0x0 DUP3 DUP2 MSTORE PUSH1 0x20 ADD SWAP1 DUP2 MSTORE PUSH1 0x20 ADD PUSH1 0x0 KECCAK256 PUSH1 0x1 ADD SLOAD CALLVALUE LT ISZERO PUSH2 0xED5 JUMPI PUSH1 0x40 MLOAD PUSH32 0x8C379A000000000000000000000000000000000000000000000000000000000 DUP2 MSTORE PUSH1 0x4 ADD PUSH2 0xECC SWAP1 PUSH2 0x292B JUMP JUMPDEST PUSH1 0x40 MLOAD DUP1 SWAP2 SUB SWAP1 REVERT JUMPDEST PUSH1 0x0 PUSH1 0x7 PUSH1 0x0 DUP4 DUP2 MSTORE PUSH1 0x20 ADD SWAP1 DUP2 MSTORE PUSH1 0x20 ADD PUSH1 0x0 KECCAK256 PUSH1 0x0 ADD PUSH1 0x0 SWAP1 SLOAD SWAP1 PUSH2 0x100 EXP SWAP1 DIV PUSH20 0xFFFFFFFFFFFFFFFFFFFFFFFFFFFFFFFFFFFFFFFF AND SWAP1 POP DUP1 PUSH20 0xFFFFFFFFFFFFFFFFFFFFFFFFFFFFFFFFFFFFFFFF AND PUSH2 0x8FC PUSH1 0x7 PUSH1 0x0 DUP6 DUP2 MSTORE PUSH1 0x20 ADD SWAP1 DUP2 MSTORE PUSH1 0x20 ADD PUSH1 0x0 KECCAK256 PUSH1 0x1 ADD SLOAD SWAP1 DUP2 ISZERO MUL SWAP1 PUSH1 0x40 MLOAD PUSH1 0x0 PUSH1 0x40 MLOAD DUP1 DUP4 SUB DUP2 DUP6 DUP9 DUP9 CALL SWAP4 POP POP POP POP ISZERO DUP1 ISZERO PUSH2 0xF6C JUMPI RETURNDATASIZE PUSH1 0x0 DUP1 RETURNDATACOPY RETURNDATASIZE PUSH1 0x0 REVERT JUMPDEST POP PUSH2 0xF78 DUP2 CALLER DUP5 PUSH2 0x129E JUMP JUMPDEST PUSH1 0x0 PUSH1 0x7 PUSH1 0x0 DUP5 DUP2 MSTORE PUSH1 0x20 ADD SWAP1 DUP2 MSTORE PUSH1 0x20 ADD PUSH1 0x0 KECCAK256 PUSH1 0x2 ADD PUSH1 0x0 PUSH2 0x100 EXP DUP2 SLOAD DUP2 PUSH1 0xFF MUL NOT AND SWAP1 DUP4 ISZERO ISZERO MUL OR SWAP1 SSTORE POP POP POP JUMP JUMPDEST PUSH1 0x0 PUSH1 0x6 SLOAD SWAP1 POP PUSH2 0xFBC CALLER DUP3 PUSH2 0x1843 JUMP JUMPDEST PUSH1 0x40 MLOAD DUP1 PUSH1 0x60 ADD PUSH1 0x40 MSTORE DUP1 CALLER PUSH20 0xFFFFFFFFFFFFFFFFFFFFFFFFFFFFFFFFFFFFFFFF AND DUP2 MSTORE PUSH1 0x20 ADD PUSH1 0x0 DUP2 MSTORE PUSH1 0x20 ADD PUSH1 0x0 ISZERO ISZERO DUP2 MSTORE POP PUSH1 0x7 PUSH1 0x0 DUP4 DUP2 MSTORE PUSH1 0x20 ADD SWAP1 DUP2 MSTORE PUSH1 0x20 ADD PUSH1 0x0 KECCAK256 PUSH1 0x0 DUP3 ADD MLOAD DUP2 PUSH1 0x0 ADD PUSH1 0x0 PUSH2 0x100 EXP DUP2 SLOAD DUP2 PUSH20 0xFFFFFFFFFFFFFFFFFFFFFFFFFFFFFFFFFFFFFFFF MUL NOT AND SWAP1 DUP4 PUSH20 0xFFFFFFFFFFFFFFFFFFFFFFFFFFFFFFFFFFFFFFFF AND MUL OR SWAP1 SSTORE POP PUSH1 0x20 DUP3 ADD MLOAD DUP2 PUSH1 0x1 ADD SSTORE PUSH1 0x40 DUP3 ADD MLOAD DUP2 PUSH1 0x2 ADD PUSH1 0x0 PUSH2 0x100 EXP DUP2 SLOAD DUP2 PUSH1 0xFF MUL NOT AND SWAP1 DUP4 ISZERO ISZERO MUL OR SWAP1 SSTORE POP SWAP1 POP POP PUSH1 0x6 PUSH1 0x0 DUP2 SLOAD DUP1 SWAP3 SWAP2 SWAP1 PUSH2 0x108B SWAP1 PUSH2 0x2739 JUMP JUMPDEST SWAP2 SWAP1 POP SSTORE POP POP JUMP JUMPDEST PUSH1 0x0 PUSH32 0x1FFC9A700000000000000000000000000000000000000000000000000000000 PUSH28 0xFFFFFFFFFFFFFFFFFFFFFFFFFFFFFFFFFFFFFFFFFFFFFFFFFFFFFFFF NOT AND DUP3 PUSH28 0xFFFFFFFFFFFFFFFFFFFFFFFFFFFFFFFFFFFFFFFFFFFFFFFFFFFFFFFF NOT AND EQ SWAP1 POP SWAP2 SWAP1 POP JUMP JUMPDEST PUSH2 0x1106 DUP2 PUSH2 0x1A1C JUMP JUMPDEST PUSH2 0x1145 JUMPI PUSH1 0x40 MLOAD PUSH32 0x8C379A000000000000000000000000000000000000000000000000000000000 DUP2 MSTORE PUSH1 0x4 ADD PUSH2 0x113C SWAP1 PUSH2 0x2629 JUMP JUMPDEST PUSH1 0x40 MLOAD DUP1 SWAP2 SUB SWAP1 REVERT JUMPDEST POP JUMP JUMPDEST PUSH1 0x0 CALLER SWAP1 POP SWAP1 JUMP JUMPDEST DUP2 PUSH1 0x4 PUSH1 0x0 DUP4 DUP2 MSTORE PUSH1 0x20 ADD SWAP1 DUP2 MSTORE PUSH1 0x20 ADD PUSH1 0x0 KECCAK256 PUSH1 0x0 PUSH2 0x100 EXP DUP2 SLOAD DUP2 PUSH20 0xFFFFFFFFFFFFFFFFFFFFFFFFFFFFFFFFFFFFFFFF MUL NOT AND SWAP1 DUP4 PUSH20 0xFFFFFFFFFFFFFFFFFFFFFFFFFFFFFFFFFFFFFFFF AND MUL OR SWAP1 SSTORE POP DUP1 DUP3 PUSH20 0xFFFFFFFFFFFFFFFFFFFFFFFFFFFFFFFFFFFFFFFF AND PUSH2 0x11C3 DUP4 PUSH2 0x7EC JUMP JUMPDEST PUSH20 0xFFFFFFFFFFFFFFFFFFFFFFFFFFFFFFFFFFFFFFFF AND PUSH32 0x8C5BE1E5EBEC7D5BD14F71427D1E84F3DD0314C0F7B2291E5B200AC8C7C3B925 PUSH1 0x40 MLOAD PUSH1 0x40 MLOAD DUP1 SWAP2 SUB SWAP1 LOG4 POP POP JUMP JUMPDEST PUSH1 0x0 DUP1 PUSH2 0x1215 DUP4 PUSH2 0x7EC JUMP JUMPDEST SWAP1 POP DUP1 PUSH20 0xFFFFFFFFFFFFFFFFFFFFFFFFFFFFFFFFFFFFFFFF AND DUP5 PUSH20 0xFFFFFFFFFFFFFFFFFFFFFFFFFFFFFFFFFFFFFFFF AND EQ DUP1 PUSH2 0x1257 JUMPI POP PUSH2 0x1256 DUP2 DUP6 PUSH2 0xD85 JUMP JUMPDEST JUMPDEST DUP1 PUSH2 0x1295 JUMPI POP DUP4 PUSH20 0xFFFFFFFFFFFFFFFFFFFFFFFFFFFFFFFFFFFFFFFF AND PUSH2 0x127D DUP5 PUSH2 0x60F JUMP JUMPDEST PUSH20 0xFFFFFFFFFFFFFFFFFFFFFFFFFFFFFFFFFFFFFFFF AND EQ JUMPDEST SWAP2 POP POP SWAP3 SWAP2 POP POP JUMP JUMPDEST DUP3 PUSH20 0xFFFFFFFFFFFFFFFFFFFFFFFFFFFFFFFFFFFFFFFF AND PUSH2 0x12BE DUP3 PUSH2 0x7EC JUMP JUMPDEST PUSH20 0xFFFFFFFFFFFFFFFFFFFFFFFFFFFFFFFFFFFFFFFF AND EQ PUSH2 0x1314 JUMPI PUSH1 0x40 MLOAD PUSH32 0x8C379A000000000000000000000000000000000000000000000000000000000 DUP2 MSTORE PUSH1 0x4 ADD PUSH2 0x130B SWAP1 PUSH2 0x29BD JUMP JUMPDEST PUSH1 0x40 MLOAD DUP1 SWAP2 SUB SWAP1 REVERT JUMPDEST PUSH1 0x0 PUSH20 0xFFFFFFFFFFFFFFFFFFFFFFFFFFFFFFFFFFFFFFFF AND DUP3 PUSH20 0xFFFFFFFFFFFFFFFFFFFFFFFFFFFFFFFFFFFFFFFF AND SUB PUSH2 0x1383 JUMPI PUSH1 0x40 MLOAD PUSH32 0x8C379A000000000000000000000000000000000000000000000000000000000 DUP2 MSTORE PUSH1 0x4 ADD PUSH2 0x137A SWAP1 PUSH2 0x2A4F JUMP JUMPDEST PUSH1 0x40 MLOAD DUP1 SWAP2 SUB SWAP1 REVERT JUMPDEST PUSH2 0x138E DUP4 DUP4 DUP4 PUSH2 0x1A88 JUMP JUMPDEST PUSH2 0x1399 PUSH1 0x0 DUP3 PUSH2 0x1150 JUMP JUMPDEST PUSH1 0x1 PUSH1 0x3 PUSH1 0x0 DUP6 PUSH20 0xFFFFFFFFFFFFFFFFFFFFFFFFFFFFFFFFFFFFFFFF AND PUSH20 0xFFFFFFFFFFFFFFFFFFFFFFFFFFFFFFFFFFFFFFFF AND DUP2 MSTORE PUSH1 0x20 ADD SWAP1 DUP2 MSTORE PUSH1 0x20 ADD PUSH1 0x0 KECCAK256 PUSH1 0x0 DUP3 DUP3 SLOAD PUSH2 0x13E9 SWAP2 SWAP1 PUSH2 0x2A6F JUMP JUMPDEST SWAP3 POP POP DUP2 SWAP1 SSTORE POP PUSH1 0x1 PUSH1 0x3 PUSH1 0x0 DUP5 PUSH20 0xFFFFFFFFFFFFFFFFFFFFFFFFFFFFFFFFFFFFFFFF AND PUSH20 0xFFFFFFFFFFFFFFFFFFFFFFFFFFFFFFFFFFFFFFFF AND DUP2 MSTORE PUSH1 0x20 ADD SWAP1 DUP2 MSTORE PUSH1 0x20 ADD PUSH1 0x0 KECCAK256 PUSH1 0x0 DUP3 DUP3 SLOAD PUSH2 0x1440 SWAP2 SWAP1 PUSH2 0x2AA3 JUMP JUMPDEST SWAP3 POP POP DUP2 SWAP1 SSTORE POP DUP2 PUSH1 0x2 PUSH1 0x0 DUP4 DUP2 MSTORE PUSH1 0x20 ADD SWAP1 DUP2 MSTORE PUSH1 0x20 ADD PUSH1 0x0 KECCAK256 PUSH1 0x0 PUSH2 0x100 EXP DUP2 SLOAD DUP2 PUSH20 0xFFFFFFFFFFFFFFFFFFFFFFFFFFFFFFFFFFFFFFFF MUL NOT AND SWAP1 DUP4 PUSH20 0xFFFFFFFFFFFFFFFFFFFFFFFFFFFFFFFFFFFFFFFF AND MUL OR SWAP1 SSTORE POP DUP1 DUP3 PUSH20 0xFFFFFFFFFFFFFFFFFFFFFFFFFFFFFFFFFFFFFFFF AND DUP5 PUSH20 0xFFFFFFFFFFFFFFFFFFFFFFFFFFFFFFFFFFFFFFFF AND PUSH32 0xDDF252AD1BE2C89B69C2B068FC378DAA952BA7F163C4A11628F55A4DF523B3EF PUSH1 0x40 MLOAD PUSH1 0x40 MLOAD DUP1 SWAP2 SUB SWAP1 LOG4 PUSH2 0x14FF DUP4 DUP4 DUP4 PUSH2 0x1A8D JUMP JUMPDEST POP POP POP JUMP JUMPDEST DUP2 PUSH20 0xFFFFFFFFFFFFFFFFFFFFFFFFFFFFFFFFFFFFFFFF AND DUP4 PUSH20 0xFFFFFFFFFFFFFFFFFFFFFFFFFFFFFFFFFFFFFFFF AND SUB PUSH2 0x1572 JUMPI PUSH1 0x40 MLOAD PUSH32 0x8C379A000000000000000000000000000000000000000000000000000000000 DUP2 MSTORE PUSH1 0x4 ADD PUSH2 0x1569 SWAP1 PUSH2 0x2B23 JUMP JUMPDEST PUSH1 0x40 MLOAD DUP1 SWAP2 SUB SWAP1 REVERT JUMPDEST DUP1 PUSH1 0x5 PUSH1 0x0 DUP6 PUSH20 0xFFFFFFFFFFFFFFFFFFFFFFFFFFFFFFFFFFFFFFFF AND PUSH20 0xFFFFFFFFFFFFFFFFFFFFFFFFFFFFFFFFFFFFFFFF AND DUP2 MSTORE PUSH1 0x20 ADD SWAP1 DUP2 MSTORE PUSH1 0x20 ADD PUSH1 0x0 KECCAK256 PUSH1 0x0 DUP5 PUSH20 0xFFFFFFFFFFFFFFFFFFFFFFFFFFFFFFFFFFFFFFFF AND PUSH20 0xFFFFFFFFFFFFFFFFFFFFFFFFFFFFFFFFFFFFFFFF AND DUP2 MSTORE PUSH1 0x20 ADD SWAP1 DUP2 MSTORE PUSH1 0x20 ADD PUSH1 0x0 KECCAK256 PUSH1 0x0 PUSH2 0x100 EXP DUP2 SLOAD DUP2 PUSH1 0xFF MUL NOT AND SWAP1 DUP4 ISZERO ISZERO MUL OR SWAP1 SSTORE POP DUP2 PUSH20 0xFFFFFFFFFFFFFFFFFFFFFFFFFFFFFFFFFFFFFFFF AND DUP4 PUSH20 0xFFFFFFFFFFFFFFFFFFFFFFFFFFFFFFFFFFFFFFFF AND PUSH32 0x17307EAB39AB6107E8899845AD3D59BD9653F200F220920489CA2B5937696C31 DUP4 PUSH1 0x40 MLOAD PUSH2 0x1663 SWAP2 SWAP1 PUSH2 0x1CF0 JUMP JUMPDEST PUSH1 0x40 MLOAD DUP1 SWAP2 SUB SWAP1 LOG3 POP POP POP JUMP JUMPDEST PUSH2 0x167B DUP5 DUP5 DUP5 PUSH2 0x129E JUMP JUMPDEST PUSH2 0x1687 DUP5 DUP5 DUP5 DUP5 PUSH2 0x1A92 JUMP JUMPDEST PUSH2 0x16C6 JUMPI PUSH1 0x40 MLOAD PUSH32 0x8C379A000000000000000000000000000000000000000000000000000000000 DUP2 MSTORE PUSH1 0x4 ADD PUSH2 0x16BD SWAP1 PUSH2 0x2BB5 JUMP JUMPDEST PUSH1 0x40 MLOAD DUP1 SWAP2 SUB SWAP1 REVERT JUMPDEST POP POP POP POP JUMP JUMPDEST PUSH1 0x60 PUSH1 0x40 MLOAD DUP1 PUSH1 0x20 ADD PUSH1 0x40 MSTORE DUP1 PUSH1 0x0 DUP2 MSTORE POP SWAP1 POP SWAP1 JUMP JUMPDEST PUSH1 0x60 PUSH1 0x0 DUP3 SUB PUSH2 0x172A JUMPI PUSH1 0x40 MLOAD DUP1 PUSH1 0x40 ADD PUSH1 0x40 MSTORE DUP1 PUSH1 0x1 DUP2 MSTORE PUSH1 0x20 ADD PUSH32 0x3000000000000000000000000000000000000000000000000000000000000000 DUP2 MSTORE POP SWAP1 POP PUSH2 0x183E JUMP JUMPDEST PUSH1 0x0 DUP3 SWAP1 POP PUSH1 0x0 JUMPDEST PUSH1 0x0 DUP3 EQ PUSH2 0x175C JUMPI DUP1 DUP1 PUSH2 0x1745 SWAP1 PUSH2 0x2739 JUMP JUMPDEST SWAP2 POP POP PUSH1 0xA DUP3 PUSH2 0x1755 SWAP2 SWAP1 PUSH2 0x2C04 JUMP JUMPDEST SWAP2 POP PUSH2 0x1732 JUMP JUMPDEST PUSH1 0x0 DUP2 PUSH8 0xFFFFFFFFFFFFFFFF DUP2 GT ISZERO PUSH2 0x1778 JUMPI PUSH2 0x1777 PUSH2 0x21D9 JUMP JUMPDEST JUMPDEST PUSH1 0x40 MLOAD SWAP1 DUP1 DUP3 MSTORE DUP1 PUSH1 0x1F ADD PUSH1 0x1F NOT AND PUSH1 0x20 ADD DUP3 ADD PUSH1 0x40 MSTORE DUP1 ISZERO PUSH2 0x17AA JUMPI DUP2 PUSH1 0x20 ADD PUSH1 0x1 DUP3 MUL DUP1 CALLDATASIZE DUP4 CALLDATACOPY DUP1 DUP3 ADD SWAP2 POP POP SWAP1 POP JUMPDEST POP SWAP1 POP JUMPDEST PUSH1 0x0 DUP6 EQ PUSH2 0x1837 JUMPI PUSH1 0x1 DUP3 PUSH2 0x17C3 SWAP2 SWAP1 PUSH2 0x2A6F JUMP JUMPDEST SWAP2 POP PUSH1 0xA DUP6 PUSH2 0x17D2 SWAP2 SWAP1 PUSH2 0x2C35 JUMP JUMPDEST PUSH1 0x30 PUSH2 0x17DE SWAP2 SWAP1 PUSH2 0x2AA3 JUMP JUMPDEST PUSH1 0xF8 SHL DUP2 DUP4 DUP2 MLOAD DUP2 LT PUSH2 0x17F4 JUMPI PUSH2 0x17F3 PUSH2 0x26DB JUMP JUMPDEST JUMPDEST PUSH1 0x20 ADD ADD SWAP1 PUSH31 0xFFFFFFFFFFFFFFFFFFFFFFFFFFFFFFFFFFFFFFFFFFFFFFFFFFFFFFFFFFFFFF NOT AND SWAP1 DUP2 PUSH1 0x0 BYTE SWAP1 MSTORE8 POP PUSH1 0xA DUP6 PUSH2 0x1830 SWAP2 SWAP1 PUSH2 0x2C04 JUMP JUMPDEST SWAP5 POP PUSH2 0x17AE JUMP JUMPDEST DUP1 SWAP4 POP POP POP POP JUMPDEST SWAP2 SWAP1 POP JUMP JUMPDEST PUSH1 0x0 PUSH20 0xFFFFFFFFFFFFFFFFFFFFFFFFFFFFFFFFFFFFFFFF AND DUP3 PUSH20 0xFFFFFFFFFFFFFFFFFFFFFFFFFFFFFFFFFFFFFFFF AND SUB PUSH2 0x18B2 JUMPI PUSH1 0x40 MLOAD PUSH32 0x8C379A000000000000000000000000000000000000000000000000000000000 DUP2 MSTORE PUSH1 0x4 ADD PUSH2 0x18A9 SWAP1 PUSH2 0x2CB2 JUMP JUMPDEST PUSH1 0x40 MLOAD DUP1 SWAP2 SUB SWAP1 REVERT JUMPDEST PUSH2 0x18BB DUP2 PUSH2 0x1A1C JUMP JUMPDEST ISZERO PUSH2 0x18FB JUMPI PUSH1 0x40 MLOAD PUSH32 0x8C379A000000000000000000000000000000000000000000000000000000000 DUP2 MSTORE PUSH1 0x4 ADD PUSH2 0x18F2 SWAP1 PUSH2 0x2D1E JUMP JUMPDEST PUSH1 0x40 MLOAD DUP1 SWAP2 SUB SWAP1 REVERT JUMPDEST PUSH2 0x1907 PUSH1 0x0 DUP4 DUP4 PUSH2 0x1A88 JUMP JUMPDEST PUSH1 0x1 PUSH1 0x3 PUSH1 0x0 DUP5 PUSH20 0xFFFFFFFFFFFFFFFFFFFFFFFFFFFFFFFFFFFFFFFF AND PUSH20 0xFFFFFFFFFFFFFFFFFFFFFFFFFFFFFFFFFFFFFFFF AND DUP2 MSTORE PUSH1 0x20 ADD SWAP1 DUP2 MSTORE PUSH1 0x20 ADD PUSH1 0x0 KECCAK256 PUSH1 0x0 DUP3 DUP3 SLOAD PUSH2 0x1957 SWAP2 SWAP1 PUSH2 0x2AA3 JUMP JUMPDEST SWAP3 POP POP DUP2 SWAP1 SSTORE POP DUP2 PUSH1 0x2 PUSH1 0x0 DUP4 DUP2 MSTORE PUSH1 0x20 ADD SWAP1 DUP2 MSTORE PUSH1 0x20 ADD PUSH1 0x0 KECCAK256 PUSH1 0x0 PUSH2 0x100 EXP DUP2 SLOAD DUP2 PUSH20 0xFFFFFFFFFFFFFFFFFFFFFFFFFFFFFFFFFFFFFFFF MUL NOT AND SWAP1 DUP4 PUSH20 0xFFFFFFFFFFFFFFFFFFFFFFFFFFFFFFFFFFFFFFFF AND MUL OR SWAP1 SSTORE POP DUP1 DUP3 PUSH20 0xFFFFFFFFFFFFFFFFFFFFFFFFFFFFFFFFFFFFFFFF AND PUSH1 0x0 PUSH20 0xFFFFFFFFFFFFFFFFFFFFFFFFFFFFFFFFFFFFFFFF AND PUSH32 0xDDF252AD1BE2C89B69C2B068FC378DAA952BA7F163C4A11628F55A4DF523B3EF PUSH1 0x40 MLOAD PUSH1 0x40 MLOAD DUP1 SWAP2 SUB SWAP1 LOG4 PUSH2 0x1A18 PUSH1 0x0 DUP4 DUP4 PUSH2 0x1A8D JUMP JUMPDEST POP POP JUMP JUMPDEST PUSH1 0x0 DUP1 PUSH20 0xFFFFFFFFFFFFFFFFFFFFFFFFFFFFFFFFFFFFFFFF AND PUSH1 0x2 PUSH1 0x0 DUP5 DUP2 MSTORE PUSH1 0x20 ADD SWAP1 DUP2 MSTORE PUSH1 0x20 ADD PUSH1 0x0 KECCAK256 PUSH1 0x0 SWAP1 SLOAD SWAP1 PUSH2 0x100 EXP SWAP1 DIV PUSH20 0xFFFFFFFFFFFFFFFFFFFFFFFFFFFFFFFFFFFFFFFF AND PUSH20 0xFFFFFFFFFFFFFFFFFFFFFFFFFFFFFFFFFFFFFFFF AND EQ ISZERO SWAP1 POP SWAP2 SWAP1 POP JUMP JUMPDEST POP POP POP JUMP JUMPDEST POP POP POP JUMP JUMPDEST PUSH1 0x0 PUSH2 0x1AB3 DUP5 PUSH20 0xFFFFFFFFFFFFFFFFFFFFFFFFFFFFFFFFFFFFFFFF AND PUSH2 0x1C19 JUMP JUMPDEST ISZERO PUSH2 0x1C0C JUMPI DUP4 PUSH20 0xFFFFFFFFFFFFFFFFFFFFFFFFFFFFFFFFFFFFFFFF AND PUSH4 0x150B7A02 PUSH2 0x1ADC PUSH2 0x1148 JUMP JUMPDEST DUP8 DUP7 DUP7 PUSH1 0x40 MLOAD DUP6 PUSH4 0xFFFFFFFF AND PUSH1 0xE0 SHL DUP2 MSTORE PUSH1 0x4 ADD PUSH2 0x1AFE SWAP5 SWAP4 SWAP3 SWAP2 SWAP1 PUSH2 0x2D93 JUMP JUMPDEST PUSH1 0x20 PUSH1 0x40 MLOAD DUP1 DUP4 SUB DUP2 PUSH1 0x0 DUP8 GAS CALL SWAP3 POP POP POP DUP1 ISZERO PUSH2 0x1B3A JUMPI POP PUSH1 0x40 MLOAD RETURNDATASIZE PUSH1 0x1F NOT PUSH1 0x1F DUP3 ADD AND DUP3 ADD DUP1 PUSH1 0x40 MSTORE POP DUP2 ADD SWAP1 PUSH2 0x1B37 SWAP2 SWAP1 PUSH2 0x2DF4 JUMP JUMPDEST PUSH1 0x1 JUMPDEST PUSH2 0x1BBC JUMPI RETURNDATASIZE DUP1 PUSH1 0x0 DUP2 EQ PUSH2 0x1B6A JUMPI PUSH1 0x40 MLOAD SWAP2 POP PUSH1 0x1F NOT PUSH1 0x3F RETURNDATASIZE ADD AND DUP3 ADD PUSH1 0x40 MSTORE RETURNDATASIZE DUP3 MSTORE RETURNDATASIZE PUSH1 0x0 PUSH1 0x20 DUP5 ADD RETURNDATACOPY PUSH2 0x1B6F JUMP JUMPDEST PUSH1 0x60 SWAP2 POP JUMPDEST POP PUSH1 0x0 DUP2 MLOAD SUB PUSH2 0x1BB4 JUMPI PUSH1 0x40 MLOAD PUSH32 0x8C379A000000000000000000000000000000000000000000000000000000000 DUP2 MSTORE PUSH1 0x4 ADD PUSH2 0x1BAB SWAP1 PUSH2 0x2BB5 JUMP JUMPDEST PUSH1 0x40 MLOAD DUP1 SWAP2 SUB SWAP1 REVERT JUMPDEST DUP1 MLOAD DUP2 PUSH1 0x20 ADD REVERT JUMPDEST PUSH4 0x150B7A02 PUSH1 0xE0 SHL PUSH28 0xFFFFFFFFFFFFFFFFFFFFFFFFFFFFFFFFFFFFFFFFFFFFFFFFFFFFFFFF NOT AND DUP2 PUSH28 0xFFFFFFFFFFFFFFFFFFFFFFFFFFFFFFFFFFFFFFFFFFFFFFFFFFFFFFFF NOT AND EQ SWAP2 POP POP PUSH2 0x1C11 JUMP JUMPDEST PUSH1 0x1 SWAP1 POP JUMPDEST SWAP5 SWAP4 POP POP POP POP JUMP JUMPDEST PUSH1 0x0 DUP1 DUP3 PUSH20 0xFFFFFFFFFFFFFFFFFFFFFFFFFFFFFFFFFFFFFFFF AND EXTCODESIZE GT SWAP1 POP SWAP2 SWAP1 POP JUMP JUMPDEST PUSH1 0x0 PUSH1 0x40 MLOAD SWAP1 POP SWAP1 JUMP JUMPDEST PUSH1 0x0 DUP1 REVERT JUMPDEST PUSH1 0x0 DUP1 REVERT JUMPDEST PUSH1 0x0 PUSH32 0xFFFFFFFF00000000000000000000000000000000000000000000000000000000 DUP3 AND SWAP1 POP SWAP2 SWAP1 POP JUMP JUMPDEST PUSH2 0x1C85 DUP2 PUSH2 0x1C50 JUMP JUMPDEST DUP2 EQ PUSH2 0x1C90 JUMPI PUSH1 0x0 DUP1 REVERT JUMPDEST POP JUMP JUMPDEST PUSH1 0x0 DUP2 CALLDATALOAD SWAP1 POP PUSH2 0x1CA2 DUP2 PUSH2 0x1C7C JUMP JUMPDEST SWAP3 SWAP2 POP POP JUMP JUMPDEST PUSH1 0x0 PUSH1 0x20 DUP3 DUP5 SUB SLT ISZERO PUSH2 0x1CBE JUMPI PUSH2 0x1CBD PUSH2 0x1C46 JUMP JUMPDEST JUMPDEST PUSH1 0x0 PUSH2 0x1CCC DUP5 DUP3 DUP6 ADD PUSH2 0x1C93 JUMP JUMPDEST SWAP2 POP POP SWAP3 SWAP2 POP POP JUMP JUMPDEST PUSH1 0x0 DUP2 ISZERO ISZERO SWAP1 POP SWAP2 SWAP1 POP JUMP JUMPDEST PUSH2 0x1CEA DUP2 PUSH2 0x1CD5 JUMP JUMPDEST DUP3 MSTORE POP POP JUMP JUMPDEST PUSH1 0x0 PUSH1 0x20 DUP3 ADD SWAP1 POP PUSH2 0x1D05 PUSH1 0x0 DUP4 ADD DUP5 PUSH2 0x1CE1 JUMP JUMPDEST SWAP3 SWAP2 POP POP JUMP JUMPDEST PUSH1 0x0 DUP2 MLOAD SWAP1 POP SWAP2 SWAP1 POP JUMP JUMPDEST PUSH1 0x0 DUP3 DUP3 MSTORE PUSH1 0x20 DUP3 ADD SWAP1 POP SWAP3 SWAP2 POP POP JUMP JUMPDEST PUSH1 0x0 JUMPDEST DUP4 DUP2 LT ISZERO PUSH2 0x1D45 JUMPI DUP1 DUP3 ADD MLOAD DUP2 DUP5 ADD MSTORE PUSH1 0x20 DUP2 ADD SWAP1 POP PUSH2 0x1D2A JUMP JUMPDEST PUSH1 0x0 DUP5 DUP5 ADD MSTORE POP POP POP POP JUMP JUMPDEST PUSH1 0x0 PUSH1 0x1F NOT PUSH1 0x1F DUP4 ADD AND SWAP1 POP SWAP2 SWAP1 POP JUMP JUMPDEST PUSH1 0x0 PUSH2 0x1D6D DUP3 PUSH2 0x1D0B JUMP JUMPDEST PUSH2 0x1D77 DUP2 DUP6 PUSH2 0x1D16 JUMP JUMPDEST SWAP4 POP PUSH2 0x1D87 DUP2 DUP6 PUSH1 0x20 DUP7 ADD PUSH2 0x1D27 JUMP JUMPDEST PUSH2 0x1D90 DUP2 PUSH2 0x1D51 JUMP JUMPDEST DUP5 ADD SWAP2 POP POP SWAP3 SWAP2 POP POP JUMP JUMPDEST PUSH1 0x0 PUSH1 0x20 DUP3 ADD SWAP1 POP DUP2 DUP2 SUB PUSH1 0x0 DUP4 ADD MSTORE PUSH2 0x1DB5 DUP2 DUP5 PUSH2 0x1D62 JUMP JUMPDEST SWAP1 POP SWAP3 SWAP2 POP POP JUMP JUMPDEST PUSH1 0x0 DUP2 SWAP1 POP SWAP2 SWAP1 POP JUMP JUMPDEST PUSH2 0x1DD0 DUP2 PUSH2 0x1DBD JUMP JUMPDEST DUP2 EQ PUSH2 0x1DDB JUMPI PUSH1 0x0 DUP1 REVERT JUMPDEST POP JUMP JUMPDEST PUSH1 0x0 DUP2 CALLDATALOAD SWAP1 POP PUSH2 0x1DED DUP2 PUSH2 0x1DC7 JUMP JUMPDEST SWAP3 SWAP2 POP POP JUMP JUMPDEST PUSH1 0x0 PUSH1 0x20 DUP3 DUP5 SUB SLT ISZERO PUSH2 0x1E09 JUMPI PUSH2 0x1E08 PUSH2 0x1C46 JUMP JUMPDEST JUMPDEST PUSH1 0x0 PUSH2 0x1E17 DUP5 DUP3 DUP6 ADD PUSH2 0x1DDE JUMP JUMPDEST SWAP2 POP POP SWAP3 SWAP2 POP POP JUMP JUMPDEST PUSH1 0x0 PUSH20 0xFFFFFFFFFFFFFFFFFFFFFFFFFFFFFFFFFFFFFFFF DUP3 AND SWAP1 POP SWAP2 SWAP1 POP JUMP JUMPDEST PUSH1 0x0 PUSH2 0x1E4B DUP3 PUSH2 0x1E20 JUMP JUMPDEST SWAP1 POP SWAP2 SWAP1 POP JUMP JUMPDEST PUSH2 0x1E5B DUP2 PUSH2 0x1E40 JUMP JUMPDEST DUP3 MSTORE POP POP JUMP JUMPDEST PUSH1 0x0 PUSH1 0x20 DUP3 ADD SWAP1 POP PUSH2 0x1E76 PUSH1 0x0 DUP4 ADD DUP5 PUSH2 0x1E52 JUMP JUMPDEST SWAP3 SWAP2 POP POP JUMP JUMPDEST PUSH2 0x1E85 DUP2 PUSH2 0x1E40 JUMP JUMPDEST DUP2 EQ PUSH2 0x1E90 JUMPI PUSH1 0x0 DUP1 REVERT JUMPDEST POP JUMP JUMPDEST PUSH1 0x0 DUP2 CALLDATALOAD SWAP1 POP PUSH2 0x1EA2 DUP2 PUSH2 0x1E7C JUMP JUMPDEST SWAP3 SWAP2 POP POP JUMP JUMPDEST PUSH1 0x0 DUP1 PUSH1 0x40 DUP4 DUP6 SUB SLT ISZERO PUSH2 0x1EBF JUMPI PUSH2 0x1EBE PUSH2 0x1C46 JUMP JUMPDEST JUMPDEST PUSH1 0x0 PUSH2 0x1ECD DUP6 DUP3 DUP7 ADD PUSH2 0x1E93 JUMP JUMPDEST SWAP3 POP POP PUSH1 0x20 PUSH2 0x1EDE DUP6 DUP3 DUP7 ADD PUSH2 0x1DDE JUMP JUMPDEST SWAP2 POP POP SWAP3 POP SWAP3 SWAP1 POP JUMP JUMPDEST PUSH1 0x0 DUP1 PUSH1 0x0 PUSH1 0x60 DUP5 DUP7 SUB SLT ISZERO PUSH2 0x1F01 JUMPI PUSH2 0x1F00 PUSH2 0x1C46 JUMP JUMPDEST JUMPDEST PUSH1 0x0 PUSH2 0x1F0F DUP7 DUP3 DUP8 ADD PUSH2 0x1E93 JUMP JUMPDEST SWAP4 POP POP PUSH1 0x20 PUSH2 0x1F20 DUP7 DUP3 DUP8 ADD PUSH2 0x1E93 JUMP JUMPDEST SWAP3 POP POP PUSH1 0x40 PUSH2 0x1F31 DUP7 DUP3 DUP8 ADD PUSH2 0x1DDE JUMP JUMPDEST SWAP2 POP POP SWAP3 POP SWAP3 POP SWAP3 JUMP JUMPDEST PUSH1 0x0 DUP2 SWAP1 POP SWAP2 SWAP1 POP JUMP JUMPDEST PUSH1 0x0 PUSH2 0x1F60 PUSH2 0x1F5B PUSH2 0x1F56 DUP5 PUSH2 0x1E20 JUMP JUMPDEST PUSH2 0x1F3B JUMP JUMPDEST PUSH2 0x1E20 JUMP JUMPDEST SWAP1 POP SWAP2 SWAP1 POP JUMP JUMPDEST PUSH1 0x0 PUSH2 0x1F72 DUP3 PUSH2 0x1F45 JUMP JUMPDEST SWAP1 POP SWAP2 SWAP1 POP JUMP JUMPDEST PUSH1 0x0 PUSH2 0x1F84 DUP3 PUSH2 0x1F67 JUMP JUMPDEST SWAP1 POP SWAP2 SWAP1 POP JUMP JUMPDEST PUSH2 0x1F94 DUP2 PUSH2 0x1F79 JUMP JUMPDEST DUP3 MSTORE POP POP JUMP JUMPDEST PUSH1 0x0 PUSH1 0x20 DUP3 ADD SWAP1 POP PUSH2 0x1FAF PUSH1 0x0 DUP4 ADD DUP5 PUSH2 0x1F8B JUMP JUMPDEST SWAP3 SWAP2 POP POP JUMP JUMPDEST PUSH1 0x0 PUSH1 0x20 DUP3 DUP5 SUB SLT ISZERO PUSH2 0x1FCB JUMPI PUSH2 0x1FCA PUSH2 0x1C46 JUMP JUMPDEST JUMPDEST PUSH1 0x0 PUSH2 0x1FD9 DUP5 DUP3 DUP6 ADD PUSH2 0x1E93 JUMP JUMPDEST SWAP2 POP POP SWAP3 SWAP2 POP POP JUMP JUMPDEST PUSH2 0x1FEB DUP2 PUSH2 0x1DBD JUMP JUMPDEST DUP3 MSTORE POP POP JUMP JUMPDEST PUSH1 0x0 PUSH1 0x20 DUP3 ADD SWAP1 POP PUSH2 0x2006 PUSH1 0x0 DUP4 ADD DUP5 PUSH2 0x1FE2 JUMP JUMPDEST SWAP3 SWAP2 POP POP JUMP JUMPDEST PUSH1 0x0 DUP2 MLOAD SWAP1 POP SWAP2 SWAP1 POP JUMP JUMPDEST PUSH1 0x0 DUP3 DUP3 MSTORE PUSH1 0x20 DUP3 ADD SWAP1 POP SWAP3 SWAP2 POP POP JUMP JUMPDEST PUSH1 0x0 DUP2 SWAP1 POP PUSH1 0x20 DUP3 ADD SWAP1 POP SWAP2 SWAP1 POP JUMP JUMPDEST PUSH2 0x2041 DUP2 PUSH2 0x1DBD JUMP JUMPDEST DUP3 MSTORE POP POP JUMP JUMPDEST PUSH1 0x0 PUSH2 0x2053 DUP4 DUP4 PUSH2 0x2038 JUMP JUMPDEST PUSH1 0x20 DUP4 ADD SWAP1 POP SWAP3 SWAP2 POP POP JUMP JUMPDEST PUSH1 0x0 PUSH1 0x20 DUP3 ADD SWAP1 POP SWAP2 SWAP1 POP JUMP JUMPDEST PUSH1 0x0 PUSH2 0x2077 DUP3 PUSH2 0x200C JUMP JUMPDEST PUSH2 0x2081 DUP2 DUP6 PUSH2 0x2017 JUMP JUMPDEST SWAP4 POP PUSH2 0x208C DUP4 PUSH2 0x2028 JUMP JUMPDEST DUP1 PUSH1 0x0 JUMPDEST DUP4 DUP2 LT ISZERO PUSH2 0x20BD JUMPI DUP2 MLOAD PUSH2 0x20A4 DUP9 DUP3 PUSH2 0x2047 JUMP JUMPDEST SWAP8 POP PUSH2 0x20AF DUP4 PUSH2 0x205F JUMP JUMPDEST SWAP3 POP POP PUSH1 0x1 DUP2 ADD SWAP1 POP PUSH2 0x2090 JUMP JUMPDEST POP DUP6 SWAP4 POP POP POP POP SWAP3 SWAP2 POP POP JUMP JUMPDEST PUSH1 0x0 PUSH1 0x20 DUP3 ADD SWAP1 POP DUP2 DUP2 SUB PUSH1 0x0 DUP4 ADD MSTORE PUSH2 0x20E4 DUP2 DUP5 PUSH2 0x206C JUMP JUMPDEST SWAP1 POP SWAP3 SWAP2 POP POP JUMP JUMPDEST PUSH1 0x0 DUP1 PUSH1 0x40 DUP4 DUP6 SUB SLT ISZERO PUSH2 0x2103 JUMPI PUSH2 0x2102 PUSH2 0x1C46 JUMP JUMPDEST JUMPDEST PUSH1 0x0 PUSH2 0x2111 DUP6 DUP3 DUP7 ADD PUSH2 0x1DDE JUMP JUMPDEST SWAP3 POP POP PUSH1 0x20 PUSH2 0x2122 DUP6 DUP3 DUP7 ADD PUSH2 0x1DDE JUMP JUMPDEST SWAP2 POP POP SWAP3 POP SWAP3 SWAP1 POP JUMP JUMPDEST PUSH2 0x2135 DUP2 PUSH2 0x1CD5 JUMP JUMPDEST DUP2 EQ PUSH2 0x2140 JUMPI PUSH1 0x0 DUP1 REVERT JUMPDEST POP JUMP JUMPDEST PUSH1 0x0 DUP2 CALLDATALOAD SWAP1 POP PUSH2 0x2152 DUP2 PUSH2 0x212C JUMP JUMPDEST SWAP3 SWAP2 POP POP JUMP JUMPDEST PUSH1 0x0 DUP1 PUSH1 0x40 DUP4 DUP6 SUB SLT ISZERO PUSH2 0x216F JUMPI PUSH2 0x216E PUSH2 0x1C46 JUMP JUMPDEST JUMPDEST PUSH1 0x0 PUSH2 0x217D DUP6 DUP3 DUP7 ADD PUSH2 0x1E93 JUMP JUMPDEST SWAP3 POP POP PUSH1 0x20 PUSH2 0x218E DUP6 DUP3 DUP7 ADD PUSH2 0x2143 JUMP JUMPDEST SWAP2 POP POP SWAP3 POP SWAP3 SWAP1 POP JUMP JUMPDEST PUSH1 0x0 PUSH1 0x60 DUP3 ADD SWAP1 POP PUSH2 0x21AD PUSH1 0x0 DUP4 ADD DUP7 PUSH2 0x1E52 JUMP JUMPDEST PUSH2 0x21BA PUSH1 0x20 DUP4 ADD DUP6 PUSH2 0x1FE2 JUMP JUMPDEST PUSH2 0x21C7 PUSH1 0x40 DUP4 ADD DUP5 PUSH2 0x1CE1 JUMP JUMPDEST SWAP5 SWAP4 POP POP POP POP JUMP JUMPDEST PUSH1 0x0 DUP1 REVERT JUMPDEST PUSH1 0x0 DUP1 REVERT JUMPDEST PUSH32 0x4E487B7100000000000000000000000000000000000000000000000000000000 PUSH1 0x0 MSTORE PUSH1 0x41 PUSH1 0x4 MSTORE PUSH1 0x24 PUSH1 0x0 REVERT JUMPDEST PUSH2 0x2211 DUP3 PUSH2 0x1D51 JUMP JUMPDEST DUP2 ADD DUP2 DUP2 LT PUSH8 0xFFFFFFFFFFFFFFFF DUP3 GT OR ISZERO PUSH2 0x2230 JUMPI PUSH2 0x222F PUSH2 0x21D9 JUMP JUMPDEST JUMPDEST DUP1 PUSH1 0x40 MSTORE POP POP POP JUMP JUMPDEST PUSH1 0x0 PUSH2 0x2243 PUSH2 0x1C3C JUMP JUMPDEST SWAP1 POP PUSH2 0x224F DUP3 DUP3 PUSH2 0x2208 JUMP JUMPDEST SWAP2 SWAP1 POP JUMP JUMPDEST PUSH1 0x0 PUSH8 0xFFFFFFFFFFFFFFFF DUP3 GT ISZERO PUSH2 0x226F JUMPI PUSH2 0x226E PUSH2 0x21D9 JUMP JUMPDEST JUMPDEST PUSH2 0x2278 DUP3 PUSH2 0x1D51 JUMP JUMPDEST SWAP1 POP PUSH1 0x20 DUP2 ADD SWAP1 POP SWAP2 SWAP1 POP JUMP JUMPDEST DUP3 DUP2 DUP4 CALLDATACOPY PUSH1 0x0 DUP4 DUP4 ADD MSTORE POP POP POP JUMP JUMPDEST PUSH1 0x0 PUSH2 0x22A7 PUSH2 0x22A2 DUP5 PUSH2 0x2254 JUMP JUMPDEST PUSH2 0x2239 JUMP JUMPDEST SWAP1 POP DUP3 DUP2 MSTORE PUSH1 0x20 DUP2 ADD DUP5 DUP5 DUP5 ADD GT ISZERO PUSH2 0x22C3 JUMPI PUSH2 0x22C2 PUSH2 0x21D4 JUMP JUMPDEST JUMPDEST PUSH2 0x22CE DUP5 DUP3 DUP6 PUSH2 0x2285 JUMP JUMPDEST POP SWAP4 SWAP3 POP POP POP JUMP JUMPDEST PUSH1 0x0 DUP3 PUSH1 0x1F DUP4 ADD SLT PUSH2 0x22EB JUMPI PUSH2 0x22EA PUSH2 0x21CF JUMP JUMPDEST JUMPDEST DUP2 CALLDATALOAD PUSH2 0x22FB DUP5 DUP3 PUSH1 0x20 DUP7 ADD PUSH2 0x2294 JUMP JUMPDEST SWAP2 POP POP SWAP3 SWAP2 POP POP JUMP JUMPDEST PUSH1 0x0 DUP1 PUSH1 0x0 DUP1 PUSH1 0x80 DUP6 DUP8 SUB SLT ISZERO PUSH2 0x231E JUMPI PUSH2 0x231D PUSH2 0x1C46 JUMP JUMPDEST JUMPDEST PUSH1 0x0 PUSH2 0x232C DUP8 DUP3 DUP9 ADD PUSH2 0x1E93 JUMP JUMPDEST SWAP5 POP POP PUSH1 0x20 PUSH2 0x233D DUP8 DUP3 DUP9 ADD PUSH2 0x1E93 JUMP JUMPDEST SWAP4 POP POP PUSH1 0x40 PUSH2 0x234E DUP8 DUP3 DUP9 ADD PUSH2 0x1DDE JUMP JUMPDEST SWAP3 POP POP PUSH1 0x60 DUP6 ADD CALLDATALOAD PUSH8 0xFFFFFFFFFFFFFFFF DUP2 GT ISZERO PUSH2 0x236F JUMPI PUSH2 0x236E PUSH2 0x1C4B JUMP JUMPDEST JUMPDEST PUSH2 0x237B DUP8 DUP3 DUP9 ADD PUSH2 0x22D6 JUMP JUMPDEST SWAP2 POP POP SWAP3 SWAP6 SWAP2 SWAP5 POP SWAP3 POP JUMP JUMPDEST PUSH1 0x0 DUP1 PUSH1 0x40 DUP4 DUP6 SUB SLT ISZERO PUSH2 0x239E JUMPI PUSH2 0x239D PUSH2 0x1C46 JUMP JUMPDEST JUMPDEST PUSH1 0x0 PUSH2 0x23AC DUP6 DUP3 DUP7 ADD PUSH2 0x1E93 JUMP JUMPDEST SWAP3 POP POP PUSH1 0x20 PUSH2 0x23BD DUP6 DUP3 DUP7 ADD PUSH2 0x1E93 JUMP JUMPDEST SWAP2 POP POP SWAP3 POP SWAP3 SWAP1 POP JUMP JUMPDEST PUSH32 0x4E487B7100000000000000000000000000000000000000000000000000000000 PUSH1 0x0 MSTORE PUSH1 0x22 PUSH1 0x4 MSTORE PUSH1 0x24 PUSH1 0x0 REVERT JUMPDEST PUSH1 0x0 PUSH1 0x2 DUP3 DIV SWAP1 POP PUSH1 0x1 DUP3 AND DUP1 PUSH2 0x240E JUMPI PUSH1 0x7F DUP3 AND SWAP2 POP JUMPDEST PUSH1 0x20 DUP3 LT DUP2 SUB PUSH2 0x2421 JUMPI PUSH2 0x2420 PUSH2 0x23C7 JUMP JUMPDEST JUMPDEST POP SWAP2 SWAP1 POP JUMP JUMPDEST PUSH32 0x4552433732313A20617070726F76616C20746F2063757272656E74206F776E65 PUSH1 0x0 DUP3 ADD MSTORE PUSH32 0x7200000000000000000000000000000000000000000000000000000000000000 PUSH1 0x20 DUP3 ADD MSTORE POP JUMP JUMPDEST PUSH1 0x0 PUSH2 0x2483 PUSH1 0x21 DUP4 PUSH2 0x1D16 JUMP JUMPDEST SWAP2 POP PUSH2 0x248E DUP3 PUSH2 0x2427 JUMP JUMPDEST PUSH1 0x40 DUP3 ADD SWAP1 POP SWAP2 SWAP1 POP JUMP JUMPDEST PUSH1 0x0 PUSH1 0x20 DUP3 ADD SWAP1 POP DUP2 DUP2 SUB PUSH1 0x0 DUP4 ADD MSTORE PUSH2 0x24B2 DUP2 PUSH2 0x2476 JUMP JUMPDEST SWAP1 POP SWAP2 SWAP1 POP JUMP JUMPDEST PUSH32 0x4552433732313A20617070726F76652063616C6C6572206973206E6F7420746F PUSH1 0x0 DUP3 ADD MSTORE PUSH32 0x6B656E206F776E6572206E6F7220617070726F76656420666F7220616C6C0000 PUSH1 0x20 DUP3 ADD MSTORE POP JUMP JUMPDEST PUSH1 0x0 PUSH2 0x2515 PUSH1 0x3E DUP4 PUSH2 0x1D16 JUMP JUMPDEST SWAP2 POP PUSH2 0x2520 DUP3 PUSH2 0x24B9 JUMP JUMPDEST PUSH1 0x40 DUP3 ADD SWAP1 POP SWAP2 SWAP1 POP JUMP JUMPDEST PUSH1 0x0 PUSH1 0x20 DUP3 ADD SWAP1 POP DUP2 DUP2 SUB PUSH1 0x0 DUP4 ADD MSTORE PUSH2 0x2544 DUP2 PUSH2 0x2508 JUMP JUMPDEST SWAP1 POP SWAP2 SWAP1 POP JUMP JUMPDEST PUSH32 0x4552433732313A2063616C6C6572206973206E6F7420746F6B656E206F776E65 PUSH1 0x0 DUP3 ADD MSTORE PUSH32 0x72206E6F7220617070726F766564000000000000000000000000000000000000 PUSH1 0x20 DUP3 ADD MSTORE POP JUMP JUMPDEST PUSH1 0x0 PUSH2 0x25A7 PUSH1 0x2E DUP4 PUSH2 0x1D16 JUMP JUMPDEST SWAP2 POP PUSH2 0x25B2 DUP3 PUSH2 0x254B JUMP JUMPDEST PUSH1 0x40 DUP3 ADD SWAP1 POP SWAP2 SWAP1 POP JUMP JUMPDEST PUSH1 0x0 PUSH1 0x20 DUP3 ADD SWAP1 POP DUP2 DUP2 SUB PUSH1 0x0 DUP4 ADD MSTORE PUSH2 0x25D6 DUP2 PUSH2 0x259A JUMP JUMPDEST SWAP1 POP SWAP2 SWAP1 POP JUMP JUMPDEST PUSH32 0x4552433732313A20696E76616C696420746F6B656E2049440000000000000000 PUSH1 0x0 DUP3 ADD MSTORE POP JUMP JUMPDEST PUSH1 0x0 PUSH2 0x2613 PUSH1 0x18 DUP4 PUSH2 0x1D16 JUMP JUMPDEST SWAP2 POP PUSH2 0x261E DUP3 PUSH2 0x25DD JUMP JUMPDEST PUSH1 0x20 DUP3 ADD SWAP1 POP SWAP2 SWAP1 POP JUMP JUMPDEST PUSH1 0x0 PUSH1 0x20 DUP3 ADD SWAP1 POP DUP2 DUP2 SUB PUSH1 0x0 DUP4 ADD MSTORE PUSH2 0x2642 DUP2 PUSH2 0x2606 JUMP JUMPDEST SWAP1 POP SWAP2 SWAP1 POP JUMP JUMPDEST PUSH32 0x4552433732313A2061646472657373207A65726F206973206E6F742061207661 PUSH1 0x0 DUP3 ADD MSTORE PUSH32 0x6C6964206F776E65720000000000000000000000000000000000000000000000 PUSH1 0x20 DUP3 ADD MSTORE POP JUMP JUMPDEST PUSH1 0x0 PUSH2 0x26A5 PUSH1 0x29 DUP4 PUSH2 0x1D16 JUMP JUMPDEST SWAP2 POP PUSH2 0x26B0 DUP3 PUSH2 0x2649 JUMP JUMPDEST PUSH1 0x40 DUP3 ADD SWAP1 POP SWAP2 SWAP1 POP JUMP JUMPDEST PUSH1 0x0 PUSH1 0x20 DUP3 ADD SWAP1 POP DUP2 DUP2 SUB PUSH1 0x0 DUP4 ADD MSTORE PUSH2 0x26D4 DUP2 PUSH2 0x2698 JUMP JUMPDEST SWAP1 POP SWAP2 SWAP1 POP JUMP JUMPDEST PUSH32 0x4E487B7100000000000000000000000000000000000000000000000000000000 PUSH1 0x0 MSTORE PUSH1 0x32 PUSH1 0x4 MSTORE PUSH1 0x24 PUSH1 0x0 REVERT JUMPDEST PUSH32 0x4E487B7100000000000000000000000000000000000000000000000000000000 PUSH1 0x0 MSTORE PUSH1 0x11 PUSH1 0x4 MSTORE PUSH1 0x24 PUSH1 0x0 REVERT JUMPDEST PUSH1 0x0 PUSH2 0x2744 DUP3 PUSH2 0x1DBD JUMP JUMPDEST SWAP2 POP PUSH32 0xFFFFFFFFFFFFFFFFFFFFFFFFFFFFFFFFFFFFFFFFFFFFFFFFFFFFFFFFFFFFFFFF DUP3 SUB PUSH2 0x2776 JUMPI PUSH2 0x2775 PUSH2 0x270A JUMP JUMPDEST JUMPDEST PUSH1 0x1 DUP3 ADD SWAP1 POP SWAP2 SWAP1 POP JUMP JUMPDEST PUSH32 0x596F7520646F206E6F74206F776E207468697320686F75736500000000000000 PUSH1 0x0 DUP3 ADD MSTORE POP JUMP JUMPDEST PUSH1 0x0 PUSH2 0x27B7 PUSH1 0x19 DUP4 PUSH2 0x1D16 JUMP JUMPDEST SWAP2 POP PUSH2 0x27C2 DUP3 PUSH2 0x2781 JUMP JUMPDEST PUSH1 0x20 DUP3 ADD SWAP1 POP SWAP2 SWAP1 POP JUMP JUMPDEST PUSH1 0x0 PUSH1 0x20 DUP3 ADD SWAP1 POP DUP2 DUP2 SUB PUSH1 0x0 DUP4 ADD MSTORE PUSH2 0x27E6 DUP2 PUSH2 0x27AA JUMP JUMPDEST SWAP1 POP SWAP2 SWAP1 POP JUMP JUMPDEST PUSH1 0x0 DUP2 SWAP1 POP SWAP3 SWAP2 POP POP JUMP JUMPDEST PUSH1 0x0 PUSH2 0x2803 DUP3 PUSH2 0x1D0B JUMP JUMPDEST PUSH2 0x280D DUP2 DUP6 PUSH2 0x27ED JUMP JUMPDEST SWAP4 POP PUSH2 0x281D DUP2 DUP6 PUSH1 0x20 DUP7 ADD PUSH2 0x1D27 JUMP JUMPDEST DUP1 DUP5 ADD SWAP2 POP POP SWAP3 SWAP2 POP POP JUMP JUMPDEST PUSH1 0x0 PUSH2 0x2835 DUP3 DUP6 PUSH2 0x27F8 JUMP JUMPDEST SWAP2 POP PUSH2 0x2841 DUP3 DUP5 PUSH2 0x27F8 JUMP JUMPDEST SWAP2 POP DUP2 SWAP1 POP SWAP4 SWAP3 POP POP POP JUMP JUMPDEST PUSH32 0x486F757365206973206E6F7420666F722073616C650000000000000000000000 PUSH1 0x0 DUP3 ADD MSTORE POP JUMP JUMPDEST PUSH1 0x0 PUSH2 0x2883 PUSH1 0x15 DUP4 PUSH2 0x1D16 JUMP JUMPDEST SWAP2 POP PUSH2 0x288E DUP3 PUSH2 0x284D JUMP JUMPDEST PUSH1 0x20 DUP3 ADD SWAP1 POP SWAP2 SWAP1 POP JUMP JUMPDEST PUSH1 0x0 PUSH1 0x20 DUP3 ADD SWAP1 POP DUP2 DUP2 SUB PUSH1 0x0 DUP4 ADD MSTORE PUSH2 0x28B2 DUP2 PUSH2 0x2876 JUMP JUMPDEST SWAP1 POP SWAP2 SWAP1 POP JUMP JUMPDEST PUSH32 0x496E73756666696369656E742066756E647320746F2062757920746869732068 PUSH1 0x0 DUP3 ADD MSTORE PUSH32 0x6F75736500000000000000000000000000000000000000000000000000000000 PUSH1 0x20 DUP3 ADD MSTORE POP JUMP JUMPDEST PUSH1 0x0 PUSH2 0x2915 PUSH1 0x24 DUP4 PUSH2 0x1D16 JUMP JUMPDEST SWAP2 POP PUSH2 0x2920 DUP3 PUSH2 0x28B9 JUMP JUMPDEST PUSH1 0x40 DUP3 ADD SWAP1 POP SWAP2 SWAP1 POP JUMP JUMPDEST PUSH1 0x0 PUSH1 0x20 DUP3 ADD SWAP1 POP DUP2 DUP2 SUB PUSH1 0x0 DUP4 ADD MSTORE PUSH2 0x2944 DUP2 PUSH2 0x2908 JUMP JUMPDEST SWAP1 POP SWAP2 SWAP1 POP JUMP JUMPDEST PUSH32 0x4552433732313A207472616E736665722066726F6D20696E636F727265637420 PUSH1 0x0 DUP3 ADD MSTORE PUSH32 0x6F776E6572000000000000000000000000000000000000000000000000000000 PUSH1 0x20 DUP3 ADD MSTORE POP JUMP JUMPDEST PUSH1 0x0 PUSH2 0x29A7 PUSH1 0x25 DUP4 PUSH2 0x1D16 JUMP JUMPDEST SWAP2 POP PUSH2 0x29B2 DUP3 PUSH2 0x294B JUMP JUMPDEST PUSH1 0x40 DUP3 ADD SWAP1 POP SWAP2 SWAP1 POP JUMP JUMPDEST PUSH1 0x0 PUSH1 0x20 DUP3 ADD SWAP1 POP DUP2 DUP2 SUB PUSH1 0x0 DUP4 ADD MSTORE PUSH2 0x29D6 DUP2 PUSH2 0x299A JUMP JUMPDEST SWAP1 POP SWAP2 SWAP1 POP JUMP JUMPDEST PUSH32 0x4552433732313A207472616E7366657220746F20746865207A65726F20616464 PUSH1 0x0 DUP3 ADD MSTORE PUSH32 0x7265737300000000000000000000000000000000000000000000000000000000 PUSH1 0x20 DUP3 ADD MSTORE POP JUMP JUMPDEST PUSH1 0x0 PUSH2 0x2A39 PUSH1 0x24 DUP4 PUSH2 0x1D16 JUMP JUMPDEST SWAP2 POP PUSH2 0x2A44 DUP3 PUSH2 0x29DD JUMP JUMPDEST PUSH1 0x40 DUP3 ADD SWAP1 POP SWAP2 SWAP1 POP JUMP JUMPDEST PUSH1 0x0 PUSH1 0x20 DUP3 ADD SWAP1 POP DUP2 DUP2 SUB PUSH1 0x0 DUP4 ADD MSTORE PUSH2 0x2A68 DUP2 PUSH2 0x2A2C JUMP JUMPDEST SWAP1 POP SWAP2 SWAP1 POP JUMP JUMPDEST PUSH1 0x0 PUSH2 0x2A7A DUP3 PUSH2 0x1DBD JUMP JUMPDEST SWAP2 POP PUSH2 0x2A85 DUP4 PUSH2 0x1DBD JUMP JUMPDEST SWAP3 POP DUP3 DUP3 SUB SWAP1 POP DUP2 DUP2 GT ISZERO PUSH2 0x2A9D JUMPI PUSH2 0x2A9C PUSH2 0x270A JUMP JUMPDEST JUMPDEST SWAP3 SWAP2 POP POP JUMP JUMPDEST PUSH1 0x0 PUSH2 0x2AAE DUP3 PUSH2 0x1DBD JUMP JUMPDEST SWAP2 POP PUSH2 0x2AB9 DUP4 PUSH2 0x1DBD JUMP JUMPDEST SWAP3 POP DUP3 DUP3 ADD SWAP1 POP DUP1 DUP3 GT ISZERO PUSH2 0x2AD1 JUMPI PUSH2 0x2AD0 PUSH2 0x270A JUMP JUMPDEST JUMPDEST SWAP3 SWAP2 POP POP JUMP JUMPDEST PUSH32 0x4552433732313A20617070726F766520746F2063616C6C657200000000000000 PUSH1 0x0 DUP3 ADD MSTORE POP JUMP JUMPDEST PUSH1 0x0 PUSH2 0x2B0D PUSH1 0x19 DUP4 PUSH2 0x1D16 JUMP JUMPDEST SWAP2 POP PUSH2 0x2B18 DUP3 PUSH2 0x2AD7 JUMP JUMPDEST PUSH1 0x20 DUP3 ADD SWAP1 POP SWAP2 SWAP1 POP JUMP JUMPDEST PUSH1 0x0 PUSH1 0x20 DUP3 ADD SWAP1 POP DUP2 DUP2 SUB PUSH1 0x0 DUP4 ADD MSTORE PUSH2 0x2B3C DUP2 PUSH2 0x2B00 JUMP JUMPDEST SWAP1 POP SWAP2 SWAP1 POP JUMP JUMPDEST PUSH32 0x4552433732313A207472616E7366657220746F206E6F6E204552433732315265 PUSH1 0x0 DUP3 ADD MSTORE PUSH32 0x63656976657220696D706C656D656E7465720000000000000000000000000000 PUSH1 0x20 DUP3 ADD MSTORE POP JUMP JUMPDEST PUSH1 0x0 PUSH2 0x2B9F PUSH1 0x32 DUP4 PUSH2 0x1D16 JUMP JUMPDEST SWAP2 POP PUSH2 0x2BAA DUP3 PUSH2 0x2B43 JUMP JUMPDEST PUSH1 0x40 DUP3 ADD SWAP1 POP SWAP2 SWAP1 POP JUMP JUMPDEST PUSH1 0x0 PUSH1 0x20 DUP3 ADD SWAP1 POP DUP2 DUP2 SUB PUSH1 0x0 DUP4 ADD MSTORE PUSH2 0x2BCE DUP2 PUSH2 0x2B92 JUMP JUMPDEST SWAP1 POP SWAP2 SWAP1 POP JUMP JUMPDEST PUSH32 0x4E487B7100000000000000000000000000000000000000000000000000000000 PUSH1 0x0 MSTORE PUSH1 0x12 PUSH1 0x4 MSTORE PUSH1 0x24 PUSH1 0x0 REVERT JUMPDEST PUSH1 0x0 PUSH2 0x2C0F DUP3 PUSH2 0x1DBD JUMP JUMPDEST SWAP2 POP PUSH2 0x2C1A DUP4 PUSH2 0x1DBD JUMP JUMPDEST SWAP3 POP DUP3 PUSH2 0x2C2A JUMPI PUSH2 0x2C29 PUSH2 0x2BD5 JUMP JUMPDEST JUMPDEST DUP3 DUP3 DIV SWAP1 POP SWAP3 SWAP2 POP POP JUMP JUMPDEST PUSH1 0x0 PUSH2 0x2C40 DUP3 PUSH2 0x1DBD JUMP JUMPDEST SWAP2 POP PUSH2 0x2C4B DUP4 PUSH2 0x1DBD JUMP JUMPDEST SWAP3 POP DUP3 PUSH2 0x2C5B JUMPI PUSH2 0x2C5A PUSH2 0x2BD5 JUMP JUMPDEST JUMPDEST DUP3 DUP3 MOD SWAP1 POP SWAP3 SWAP2 POP POP JUMP JUMPDEST PUSH32 0x4552433732313A206D696E7420746F20746865207A65726F2061646472657373 PUSH1 0x0 DUP3 ADD MSTORE POP JUMP JUMPDEST PUSH1 0x0 PUSH2 0x2C9C PUSH1 0x20 DUP4 PUSH2 0x1D16 JUMP JUMPDEST SWAP2 POP PUSH2 0x2CA7 DUP3 PUSH2 0x2C66 JUMP JUMPDEST PUSH1 0x20 DUP3 ADD SWAP1 POP SWAP2 SWAP1 POP JUMP JUMPDEST PUSH1 0x0 PUSH1 0x20 DUP3 ADD SWAP1 POP DUP2 DUP2 SUB PUSH1 0x0 DUP4 ADD MSTORE PUSH2 0x2CCB DUP2 PUSH2 0x2C8F JUMP JUMPDEST SWAP1 POP SWAP2 SWAP1 POP JUMP JUMPDEST PUSH32 0x4552433732313A20746F6B656E20616C7265616479206D696E74656400000000 PUSH1 0x0 DUP3 ADD MSTORE POP JUMP JUMPDEST PUSH1 0x0 PUSH2 0x2D08 PUSH1 0x1C DUP4 PUSH2 0x1D16 JUMP JUMPDEST SWAP2 POP PUSH2 0x2D13 DUP3 PUSH2 0x2CD2 JUMP JUMPDEST PUSH1 0x20 DUP3 ADD SWAP1 POP SWAP2 SWAP1 POP JUMP JUMPDEST PUSH1 0x0 PUSH1 0x20 DUP3 ADD SWAP1 POP DUP2 DUP2 SUB PUSH1 0x0 DUP4 ADD MSTORE PUSH2 0x2D37 DUP2 PUSH2 0x2CFB JUMP JUMPDEST SWAP1 POP SWAP2 SWAP1 POP JUMP JUMPDEST PUSH1 0x0 DUP2 MLOAD SWAP1 POP SWAP2 SWAP1 POP JUMP JUMPDEST PUSH1 0x0 DUP3 DUP3 MSTORE PUSH1 0x20 DUP3 ADD SWAP1 POP SWAP3 SWAP2 POP POP JUMP JUMPDEST PUSH1 0x0 PUSH2 0x2D65 DUP3 PUSH2 0x2D3E JUMP JUMPDEST PUSH2 0x2D6F DUP2 DUP6 PUSH2 0x2D49 JUMP JUMPDEST SWAP4 POP PUSH2 0x2D7F DUP2 DUP6 PUSH1 0x20 DUP7 ADD PUSH2 0x1D27 JUMP JUMPDEST PUSH2 0x2D88 DUP2 PUSH2 0x1D51 JUMP JUMPDEST DUP5 ADD SWAP2 POP POP SWAP3 SWAP2 POP POP JUMP JUMPDEST PUSH1 0x0 PUSH1 0x80 DUP3 ADD SWAP1 POP PUSH2 0x2DA8 PUSH1 0x0 DUP4 ADD DUP8 PUSH2 0x1E52 JUMP JUMPDEST PUSH2 0x2DB5 PUSH1 0x20 DUP4 ADD DUP7 PUSH2 0x1E52 JUMP JUMPDEST PUSH2 0x2DC2 PUSH1 0x40 DUP4 ADD DUP6 PUSH2 0x1FE2 JUMP JUMPDEST DUP2 DUP2 SUB PUSH1 0x60 DUP4 ADD MSTORE PUSH2 0x2DD4 DUP2 DUP5 PUSH2 0x2D5A JUMP JUMPDEST SWAP1 POP SWAP6 SWAP5 POP POP POP POP POP JUMP JUMPDEST PUSH1 0x0 DUP2 MLOAD SWAP1 POP PUSH2 0x2DEE DUP2 PUSH2 0x1C7C JUMP JUMPDEST SWAP3 SWAP2 POP POP JUMP JUMPDEST PUSH1 0x0 PUSH1 0x20 DUP3 DUP5 SUB SLT ISZERO PUSH2 0x2E0A JUMPI PUSH2 0x2E09 PUSH2 0x1C46 JUMP JUMPDEST JUMPDEST PUSH1 0x0 PUSH2 0x2E18 DUP5 DUP3 DUP6 ADD PUSH2 0x2DDF JUMP JUMPDEST SWAP2 POP POP SWAP3 SWAP2 POP POP JUMP INVALID LOG2 PUSH5 0x6970667358 0x22 SLT KECCAK256 0xBB 0xD6 PUSH22 0x5BFF59388931F800C1CB0CBF578A7481897490F535BB PUSH21 0xDAC812682EEA64736F6C6343000814003360806040 MSTORE CALLVALUE DUP1 ISZERO PUSH3 0x11 JUMPI PUSH1 0x0 DUP1 REVERT JUMPDEST POP PUSH1 0x40 MLOAD PUSH3 0x1D21 CODESIZE SUB DUP1 PUSH3 0x1D21 DUP4 CODECOPY DUP2 DUP2 ADD PUSH1 0x40 MSTORE DUP2 ADD SWAP1 PUSH3 0x37 SWAP2 SWAP1 PUSH3 0x1FA JUMP JUMPDEST DUP2 DUP2 DUP2 PUSH1 0x3 SWAP1 DUP2 PUSH3 0x4A SWAP2 SWAP1 PUSH3 0x4CA JUMP JUMPDEST POP DUP1 PUSH1 0x4 SWAP1 DUP2 PUSH3 0x5C SWAP2 SWAP1 PUSH3 0x4CA JUMP JUMPDEST POP POP POP POP POP PUSH3 0x5B1 JUMP JUMPDEST PUSH1 0x0 PUSH1 0x40 MLOAD SWAP1 POP SWAP1 JUMP JUMPDEST PUSH1 0x0 DUP1 REVERT JUMPDEST PUSH1 0x0 DUP1 REVERT JUMPDEST PUSH1 0x0 DUP1 REVERT JUMPDEST PUSH1 0x0 DUP1 REVERT JUMPDEST PUSH1 0x0 PUSH1 0x1F NOT PUSH1 0x1F DUP4 ADD AND SWAP1 POP SWAP2 SWAP1 POP JUMP JUMPDEST PUSH32 0x4E487B7100000000000000000000000000000000000000000000000000000000 PUSH1 0x0 MSTORE PUSH1 0x41 PUSH1 0x4 MSTORE PUSH1 0x24 PUSH1 0x0 REVERT JUMPDEST PUSH3 0xD0 DUP3 PUSH3 0x85 JUMP JUMPDEST DUP2 ADD DUP2 DUP2 LT PUSH8 0xFFFFFFFFFFFFFFFF DUP3 GT OR ISZERO PUSH3 0xF2 JUMPI PUSH3 0xF1 PUSH3 0x96 JUMP JUMPDEST JUMPDEST DUP1 PUSH1 0x40 MSTORE POP POP POP JUMP JUMPDEST PUSH1 0x0 PUSH3 0x107 PUSH3 0x67 JUMP JUMPDEST SWAP1 POP PUSH3 0x115 DUP3 DUP3 PUSH3 0xC5 JUMP JUMPDEST SWAP2 SWAP1 POP JUMP JUMPDEST PUSH1 0x0 PUSH8 0xFFFFFFFFFFFFFFFF DUP3 GT ISZERO PUSH3 0x138 JUMPI PUSH3 0x137 PUSH3 0x96 JUMP JUMPDEST JUMPDEST PUSH3 0x143 DUP3 PUSH3 0x85 JUMP JUMPDEST SWAP1 POP PUSH1 0x20 DUP2 ADD SWAP1 POP SWAP2 SWAP1 POP JUMP JUMPDEST PUSH1 0x0 JUMPDEST DUP4 DUP2 LT ISZERO PUSH3 0x170 JUMPI DUP1 DUP3 ADD MLOAD DUP2 DUP5 ADD MSTORE PUSH1 0x20 DUP2 ADD SWAP1 POP PUSH3 0x153 JUMP JUMPDEST PUSH1 0x0 DUP5 DUP5 ADD MSTORE POP POP POP POP JUMP JUMPDEST PUSH1 0x0 PUSH3 0x193 PUSH3 0x18D DUP5 PUSH3 0x11A JUMP JUMPDEST PUSH3 0xFB JUMP JUMPDEST SWAP1 POP DUP3 DUP2 MSTORE PUSH1 0x20 DUP2 ADD DUP5 DUP5 DUP5 ADD GT ISZERO PUSH3 0x1B2 JUMPI PUSH3 0x1B1 PUSH3 0x80 JUMP JUMPDEST JUMPDEST PUSH3 0x1BF DUP5 DUP3 DUP6 PUSH3 0x150 JUMP JUMPDEST POP SWAP4 SWAP3 POP POP POP JUMP JUMPDEST PUSH1 0x0 DUP3 PUSH1 0x1F DUP4 ADD SLT PUSH3 0x1DF JUMPI PUSH3 0x1DE PUSH3 0x7B JUMP JUMPDEST JUMPDEST DUP2 MLOAD PUSH3 0x1F1 DUP5 DUP3 PUSH1 0x20 DUP7 ADD PUSH3 0x17C JUMP JUMPDEST SWAP2 POP POP SWAP3 SWAP2 POP POP JUMP JUMPDEST PUSH1 0x0 DUP1 PUSH1 0x40 DUP4 DUP6 SUB SLT ISZERO PUSH3 0x214 JUMPI PUSH3 0x213 PUSH3 0x71 JUMP JUMPDEST JUMPDEST PUSH1 0x0 DUP4 ADD MLOAD PUSH8 0xFFFFFFFFFFFFFFFF DUP2 GT ISZERO PUSH3 0x235 JUMPI PUSH3 0x234 PUSH3 0x76 JUMP JUMPDEST JUMPDEST PUSH3 0x243 DUP6 DUP3 DUP7 ADD PUSH3 0x1C7 JUMP JUMPDEST SWAP3 POP POP PUSH1 0x20 DUP4 ADD MLOAD PUSH8 0xFFFFFFFFFFFFFFFF DUP2 GT ISZERO PUSH3 0x267 JUMPI PUSH3 0x266 PUSH3 0x76 JUMP JUMPDEST JUMPDEST PUSH3 0x275 DUP6 DUP3 DUP7 ADD PUSH3 0x1C7 JUMP JUMPDEST SWAP2 POP POP SWAP3 POP SWAP3 SWAP1 POP JUMP JUMPDEST PUSH1 0x0 DUP2 MLOAD SWAP1 POP SWAP2 SWAP1 POP JUMP JUMPDEST PUSH32 0x4E487B7100000000000000000000000000000000000000000000000000000000 PUSH1 0x0 MSTORE PUSH1 0x22 PUSH1 0x4 MSTORE PUSH1 0x24 PUSH1 0x0 REVERT JUMPDEST PUSH1 0x0 PUSH1 0x2 DUP3 DIV SWAP1 POP PUSH1 0x1 DUP3 AND DUP1 PUSH3 0x2D2 JUMPI PUSH1 0x7F DUP3 AND SWAP2 POP JUMPDEST PUSH1 0x20 DUP3 LT DUP2 SUB PUSH3 0x2E8 JUMPI PUSH3 0x2E7 PUSH3 0x28A JUMP JUMPDEST JUMPDEST POP SWAP2 SWAP1 POP JUMP JUMPDEST PUSH1 0x0 DUP2 SWAP1 POP DUP2 PUSH1 0x0 MSTORE PUSH1 0x20 PUSH1 0x0 KECCAK256 SWAP1 POP SWAP2 SWAP1 POP JUMP JUMPDEST PUSH1 0x0 PUSH1 0x20 PUSH1 0x1F DUP4 ADD DIV SWAP1 POP SWAP2 SWAP1 POP JUMP JUMPDEST PUSH1 0x0 DUP3 DUP3 SHL SWAP1 POP SWAP3 SWAP2 POP POP JUMP JUMPDEST PUSH1 0x0 PUSH1 0x8 DUP4 MUL PUSH3 0x352 PUSH32 0xFFFFFFFFFFFFFFFFFFFFFFFFFFFFFFFFFFFFFFFFFFFFFFFFFFFFFFFFFFFFFFFF DUP3 PUSH3 0x313 JUMP JUMPDEST PUSH3 0x35E DUP7 DUP4 PUSH3 0x313 JUMP JUMPDEST SWAP6 POP DUP1 NOT DUP5 AND SWAP4 POP DUP1 DUP7 AND DUP5 OR SWAP3 POP POP POP SWAP4 SWAP3 POP POP POP JUMP JUMPDEST PUSH1 0x0 DUP2 SWAP1 POP SWAP2 SWAP1 POP JUMP JUMPDEST PUSH1 0x0 DUP2 SWAP1 POP SWAP2 SWAP1 POP JUMP JUMPDEST PUSH1 0x0 PUSH3 0x3AB PUSH3 0x3A5 PUSH3 0x39F DUP5 PUSH3 0x376 JUMP JUMPDEST PUSH3 0x380 JUMP JUMPDEST PUSH3 0x376 JUMP JUMPDEST SWAP1 POP SWAP2 SWAP1 POP JUMP JUMPDEST PUSH1 0x0 DUP2 SWAP1 POP SWAP2 SWAP1 POP JUMP JUMPDEST PUSH3 0x3C7 DUP4 PUSH3 0x38A JUMP JUMPDEST PUSH3 0x3DF PUSH3 0x3D6 DUP3 PUSH3 0x3B2 JUMP JUMPDEST DUP5 DUP5 SLOAD PUSH3 0x320 JUMP JUMPDEST DUP3 SSTORE POP POP POP POP JUMP JUMPDEST PUSH1 0x0 SWAP1 JUMP JUMPDEST PUSH3 0x3F6 PUSH3 0x3E7 JUMP JUMPDEST PUSH3 0x403 DUP2 DUP5 DUP5 PUSH3 0x3BC JUMP JUMPDEST POP POP POP JUMP JUMPDEST JUMPDEST DUP2 DUP2 LT ISZERO PUSH3 0x42B JUMPI PUSH3 0x41F PUSH1 0x0 DUP3 PUSH3 0x3EC JUMP JUMPDEST PUSH1 0x1 DUP2 ADD SWAP1 POP PUSH3 0x409 JUMP JUMPDEST POP POP JUMP JUMPDEST PUSH1 0x1F DUP3 GT ISZERO PUSH3 0x47A JUMPI PUSH3 0x444 DUP2 PUSH3 0x2EE JUMP JUMPDEST PUSH3 0x44F DUP5 PUSH3 0x303 JUMP JUMPDEST DUP2 ADD PUSH1 0x20 DUP6 LT ISZERO PUSH3 0x45F JUMPI DUP2 SWAP1 POP JUMPDEST PUSH3 0x477 PUSH3 0x46E DUP6 PUSH3 0x303 JUMP JUMPDEST DUP4 ADD DUP3 PUSH3 0x408 JUMP JUMPDEST POP POP JUMPDEST POP POP POP JUMP JUMPDEST PUSH1 0x0 DUP3 DUP3 SHR SWAP1 POP SWAP3 SWAP2 POP POP JUMP JUMPDEST PUSH1 0x0 PUSH3 0x49F PUSH1 0x0 NOT DUP5 PUSH1 0x8 MUL PUSH3 0x47F JUMP JUMPDEST NOT DUP1 DUP4 AND SWAP2 POP POP SWAP3 SWAP2 POP POP JUMP JUMPDEST PUSH1 0x0 PUSH3 0x4BA DUP4 DUP4 PUSH3 0x48C JUMP JUMPDEST SWAP2 POP DUP3 PUSH1 0x2 MUL DUP3 OR SWAP1 POP SWAP3 SWAP2 POP POP JUMP JUMPDEST PUSH3 0x4D5 DUP3 PUSH3 0x27F JUMP JUMPDEST PUSH8 0xFFFFFFFFFFFFFFFF DUP2 GT ISZERO PUSH3 0x4F1 JUMPI PUSH3 0x4F0 PUSH3 0x96 JUMP JUMPDEST JUMPDEST PUSH3 0x4FD DUP3 SLOAD PUSH3 0x2B9 JUMP JUMPDEST PUSH3 0x50A DUP3 DUP3 DUP6 PUSH3 0x42F JUMP JUMPDEST PUSH1 0x0 PUSH1 0x20 SWAP1 POP PUSH1 0x1F DUP4 GT PUSH1 0x1 DUP2 EQ PUSH3 0x542 JUMPI PUSH1 0x0 DUP5 ISZERO PUSH3 0x52D JUMPI DUP3 DUP8 ADD MLOAD SWAP1 POP JUMPDEST PUSH3 0x539 DUP6 DUP3 PUSH3 0x4AC JUMP JUMPDEST DUP7 SSTORE POP PUSH3 0x5A9 JUMP JUMPDEST PUSH1 0x1F NOT DUP5 AND PUSH3 0x552 DUP7 PUSH3 0x2EE JUMP JUMPDEST PUSH1 0x0 JUMPDEST DUP3 DUP2 LT ISZERO PUSH3 0x57C JUMPI DUP5 DUP10 ADD MLOAD DUP3 SSTORE PUSH1 0x1 DUP3 ADD SWAP2 POP PUSH1 0x20 DUP6 ADD SWAP5 POP PUSH1 0x20 DUP2 ADD SWAP1 POP PUSH3 0x555 JUMP JUMPDEST DUP7 DUP4 LT ISZERO PUSH3 0x59C JUMPI DUP5 DUP10 ADD MLOAD PUSH3 0x598 PUSH1 0x1F DUP10 AND DUP3 PUSH3 0x48C JUMP JUMPDEST DUP4 SSTORE POP JUMPDEST PUSH1 0x1 PUSH1 0x2 DUP9 MUL ADD DUP9 SSTORE POP POP POP JUMPDEST POP POP POP POP POP POP JUMP JUMPDEST PUSH2 0x1760 DUP1 PUSH3 0x5C1 PUSH1 0x0 CODECOPY PUSH1 0x0 RETURN INVALID PUSH1 0x80 PUSH1 0x40 MSTORE PUSH1 0x4 CALLDATASIZE LT PUSH2 0xC2 JUMPI PUSH1 0x0 CALLDATALOAD PUSH1 0xE0 SHR DUP1 PUSH4 0x39509351 GT PUSH2 0x7F JUMPI DUP1 PUSH4 0xA457C2D7 GT PUSH2 0x59 JUMPI DUP1 PUSH4 0xA457C2D7 EQ PUSH2 0x27E JUMPI DUP1 PUSH4 0xA9059CBB EQ PUSH2 0x2BB JUMPI DUP1 PUSH4 0xD0FEBE4C EQ PUSH2 0x2F8 JUMPI DUP1 PUSH4 0xDD62ED3E EQ PUSH2 0x302 JUMPI PUSH2 0xC2 JUMP JUMPDEST DUP1 PUSH4 0x39509351 EQ PUSH2 0x1D9 JUMPI DUP1 PUSH4 0x70A08231 EQ PUSH2 0x216 JUMPI DUP1 PUSH4 0x95D89B41 EQ PUSH2 0x253 JUMPI PUSH2 0xC2 JUMP JUMPDEST DUP1 PUSH4 0x6FDDE03 EQ PUSH2 0xC7 JUMPI DUP1 PUSH4 0x95EA7B3 EQ PUSH2 0xF2 JUMPI DUP1 PUSH4 0x18160DDD EQ PUSH2 0x12F JUMPI DUP1 PUSH4 0x23B872DD EQ PUSH2 0x15A JUMPI DUP1 PUSH4 0x313CE567 EQ PUSH2 0x197 JUMPI DUP1 PUSH4 0x3884D635 EQ PUSH2 0x1C2 JUMPI JUMPDEST PUSH1 0x0 DUP1 REVERT JUMPDEST CALLVALUE DUP1 ISZERO PUSH2 0xD3 JUMPI PUSH1 0x0 DUP1 REVERT JUMPDEST POP PUSH2 0xDC PUSH2 0x33F JUMP JUMPDEST PUSH1 0x40 MLOAD PUSH2 0xE9 SWAP2 SWAP1 PUSH2 0xE91 JUMP JUMPDEST PUSH1 0x40 MLOAD DUP1 SWAP2 SUB SWAP1 RETURN JUMPDEST CALLVALUE DUP1 ISZERO PUSH2 0xFE JUMPI PUSH1 0x0 DUP1 REVERT JUMPDEST POP PUSH2 0x119 PUSH1 0x4 DUP1 CALLDATASIZE SUB DUP2 ADD SWAP1 PUSH2 0x114 SWAP2 SWAP1 PUSH2 0xF4C JUMP JUMPDEST PUSH2 0x3D1 JUMP JUMPDEST PUSH1 0x40 MLOAD PUSH2 0x126 SWAP2 SWAP1 PUSH2 0xFA7 JUMP JUMPDEST PUSH1 0x40 MLOAD DUP1 SWAP2 SUB SWAP1 RETURN JUMPDEST CALLVALUE DUP1 ISZERO PUSH2 0x13B JUMPI PUSH1 0x0 DUP1 REVERT JUMPDEST POP PUSH2 0x144 PUSH2 0x3F4 JUMP JUMPDEST PUSH1 0x40 MLOAD PUSH2 0x151 SWAP2 SWAP1 PUSH2 0xFD1 JUMP JUMPDEST PUSH1 0x40 MLOAD DUP1 SWAP2 SUB SWAP1 RETURN JUMPDEST CALLVALUE DUP1 ISZERO PUSH2 0x166 JUMPI PUSH1 0x0 DUP1 REVERT JUMPDEST POP PUSH2 0x181 PUSH1 0x4 DUP1 CALLDATASIZE SUB DUP2 ADD SWAP1 PUSH2 0x17C SWAP2 SWAP1 PUSH2 0xFEC JUMP JUMPDEST PUSH2 0x3FE JUMP JUMPDEST PUSH1 0x40 MLOAD PUSH2 0x18E SWAP2 SWAP1 PUSH2 0xFA7 JUMP JUMPDEST PUSH1 0x40 MLOAD DUP1 SWAP2 SUB SWAP1 RETURN JUMPDEST CALLVALUE DUP1 ISZERO PUSH2 0x1A3 JUMPI PUSH1 0x0 DUP1 REVERT JUMPDEST POP PUSH2 0x1AC PUSH2 0x42D JUMP JUMPDEST PUSH1 0x40 MLOAD PUSH2 0x1B9 SWAP2 SWAP1 PUSH2 0x105B JUMP JUMPDEST PUSH1 0x40 MLOAD DUP1 SWAP2 SUB SWAP1 RETURN JUMPDEST CALLVALUE DUP1 ISZERO PUSH2 0x1CE JUMPI PUSH1 0x0 DUP1 REVERT JUMPDEST POP PUSH2 0x1D7 PUSH2 0x436 JUMP JUMPDEST STOP JUMPDEST CALLVALUE DUP1 ISZERO PUSH2 0x1E5 JUMPI PUSH1 0x0 DUP1 REVERT JUMPDEST POP PUSH2 0x200 PUSH1 0x4 DUP1 CALLDATASIZE SUB DUP2 ADD SWAP1 PUSH2 0x1FB SWAP2 SWAP1 PUSH2 0xF4C JUMP JUMPDEST PUSH2 0x529 JUMP JUMPDEST PUSH1 0x40 MLOAD PUSH2 0x20D SWAP2 SWAP1 PUSH2 0xFA7 JUMP JUMPDEST PUSH1 0x40 MLOAD DUP1 SWAP2 SUB SWAP1 RETURN JUMPDEST CALLVALUE DUP1 ISZERO PUSH2 0x222 JUMPI PUSH1 0x0 DUP1 REVERT JUMPDEST POP PUSH2 0x23D PUSH1 0x4 DUP1 CALLDATASIZE SUB DUP2 ADD SWAP1 PUSH2 0x238 SWAP2 SWAP1 PUSH2 0x1076 JUMP JUMPDEST PUSH2 0x560 JUMP JUMPDEST PUSH1 0x40 MLOAD PUSH2 0x24A SWAP2 SWAP1 PUSH2 0xFD1 JUMP JUMPDEST PUSH1 0x40 MLOAD DUP1 SWAP2 SUB SWAP1 RETURN JUMPDEST CALLVALUE DUP1 ISZERO PUSH2 0x25F JUMPI PUSH1 0x0 DUP1 REVERT JUMPDEST POP PUSH2 0x268 PUSH2 0x5A8 JUMP JUMPDEST PUSH1 0x40 MLOAD PUSH2 0x275 SWAP2 SWAP1 PUSH2 0xE91 JUMP JUMPDEST PUSH1 0x40 MLOAD DUP1 SWAP2 SUB SWAP1 RETURN JUMPDEST CALLVALUE DUP1 ISZERO PUSH2 0x28A JUMPI PUSH1 0x0 DUP1 REVERT JUMPDEST POP PUSH2 0x2A5 PUSH1 0x4 DUP1 CALLDATASIZE SUB DUP2 ADD SWAP1 PUSH2 0x2A0 SWAP2 SWAP1 PUSH2 0xF4C JUMP JUMPDEST PUSH2 0x63A JUMP JUMPDEST PUSH1 0x40 MLOAD PUSH2 0x2B2 SWAP2 SWAP1 PUSH2 0xFA7 JUMP JUMPDEST PUSH1 0x40 MLOAD DUP1 SWAP2 SUB SWAP1 RETURN JUMPDEST CALLVALUE DUP1 ISZERO PUSH2 0x2C7 JUMPI PUSH1 0x0 DUP1 REVERT JUMPDEST POP PUSH2 0x2E2 PUSH1 0x4 DUP1 CALLDATASIZE SUB DUP2 ADD SWAP1 PUSH2 0x2DD SWAP2 SWAP1 PUSH2 0xF4C JUMP JUMPDEST PUSH2 0x6B1 JUMP JUMPDEST PUSH1 0x40 MLOAD PUSH2 0x2EF SWAP2 SWAP1 PUSH2 0xFA7 JUMP JUMPDEST PUSH1 0x40 MLOAD DUP1 SWAP2 SUB SWAP1 RETURN JUMPDEST PUSH2 0x300 PUSH2 0x6D4 JUMP JUMPDEST STOP JUMPDEST CALLVALUE DUP1 ISZERO PUSH2 0x30E JUMPI PUSH1 0x0 DUP1 REVERT JUMPDEST POP PUSH2 0x329 PUSH1 0x4 DUP1 CALLDATASIZE SUB DUP2 ADD SWAP1 PUSH2 0x324 SWAP2 SWAP1 PUSH2 0x10A3 JUMP JUMPDEST PUSH2 0x735 JUMP JUMPDEST PUSH1 0x40 MLOAD PUSH2 0x336 SWAP2 SWAP1 PUSH2 0xFD1 JUMP JUMPDEST PUSH1 0x40 MLOAD DUP1 SWAP2 SUB SWAP1 RETURN JUMPDEST PUSH1 0x60 PUSH1 0x3 DUP1 SLOAD PUSH2 0x34E SWAP1 PUSH2 0x1112 JUMP JUMPDEST DUP1 PUSH1 0x1F ADD PUSH1 0x20 DUP1 SWAP2 DIV MUL PUSH1 0x20 ADD PUSH1 0x40 MLOAD SWAP1 DUP2 ADD PUSH1 0x40 MSTORE DUP1 SWAP3 SWAP2 SWAP1 DUP2 DUP2 MSTORE PUSH1 0x20 ADD DUP3 DUP1 SLOAD PUSH2 0x37A SWAP1 PUSH2 0x1112 JUMP JUMPDEST DUP1 ISZERO PUSH2 0x3C7 JUMPI DUP1 PUSH1 0x1F LT PUSH2 0x39C JUMPI PUSH2 0x100 DUP1 DUP4 SLOAD DIV MUL DUP4 MSTORE SWAP2 PUSH1 0x20 ADD SWAP2 PUSH2 0x3C7 JUMP JUMPDEST DUP3 ADD SWAP2 SWAP1 PUSH1 0x0 MSTORE PUSH1 0x20 PUSH1 0x0 KECCAK256 SWAP1 JUMPDEST DUP2 SLOAD DUP2 MSTORE SWAP1 PUSH1 0x1 ADD SWAP1 PUSH1 0x20 ADD DUP1 DUP4 GT PUSH2 0x3AA JUMPI DUP3 SWAP1 SUB PUSH1 0x1F AND DUP3 ADD SWAP2 JUMPDEST POP POP POP POP POP SWAP1 POP SWAP1 JUMP JUMPDEST PUSH1 0x0 DUP1 PUSH2 0x3DC PUSH2 0x7BC JUMP JUMPDEST SWAP1 POP PUSH2 0x3E9 DUP2 DUP6 DUP6 PUSH2 0x7C4 JUMP JUMPDEST PUSH1 0x1 SWAP2 POP POP SWAP3 SWAP2 POP POP JUMP JUMPDEST PUSH1 0x0 PUSH1 0x2 SLOAD SWAP1 POP SWAP1 JUMP JUMPDEST PUSH1 0x0 DUP1 PUSH2 0x409 PUSH2 0x7BC JUMP JUMPDEST SWAP1 POP PUSH2 0x416 DUP6 DUP3 DUP6 PUSH2 0x98D JUMP JUMPDEST PUSH2 0x421 DUP6 DUP6 DUP6 PUSH2 0xA19 JUMP JUMPDEST PUSH1 0x1 SWAP2 POP POP SWAP4 SWAP3 POP POP POP JUMP JUMPDEST PUSH1 0x0 PUSH1 0x12 SWAP1 POP SWAP1 JUMP JUMPDEST PUSH1 0x5 PUSH1 0x0 CALLER PUSH20 0xFFFFFFFFFFFFFFFFFFFFFFFFFFFFFFFFFFFFFFFF AND PUSH20 0xFFFFFFFFFFFFFFFFFFFFFFFFFFFFFFFFFFFFFFFF AND DUP2 MSTORE PUSH1 0x20 ADD SWAP1 DUP2 MSTORE PUSH1 0x20 ADD PUSH1 0x0 KECCAK256 PUSH1 0x0 SWAP1 SLOAD SWAP1 PUSH2 0x100 EXP SWAP1 DIV PUSH1 0xFF AND ISZERO PUSH2 0x4C3 JUMPI PUSH1 0x40 MLOAD PUSH32 0x8C379A000000000000000000000000000000000000000000000000000000000 DUP2 MSTORE PUSH1 0x4 ADD PUSH2 0x4BA SWAP1 PUSH2 0x11B5 JUMP JUMPDEST PUSH1 0x40 MLOAD DUP1 SWAP2 SUB SWAP1 REVERT JUMPDEST PUSH2 0x4CF CALLER PUSH2 0x2710 PUSH2 0xC98 JUMP JUMPDEST PUSH1 0x1 PUSH1 0x5 PUSH1 0x0 CALLER PUSH20 0xFFFFFFFFFFFFFFFFFFFFFFFFFFFFFFFFFFFFFFFF AND PUSH20 0xFFFFFFFFFFFFFFFFFFFFFFFFFFFFFFFFFFFFFFFF AND DUP2 MSTORE PUSH1 0x20 ADD SWAP1 DUP2 MSTORE PUSH1 0x20 ADD PUSH1 0x0 KECCAK256 PUSH1 0x0 PUSH2 0x100 EXP DUP2 SLOAD DUP2 PUSH1 0xFF MUL NOT AND SWAP1 DUP4 ISZERO ISZERO MUL OR SWAP1 SSTORE POP JUMP JUMPDEST PUSH1 0x0 DUP1 PUSH2 0x534 PUSH2 0x7BC JUMP JUMPDEST SWAP1 POP PUSH2 0x555 DUP2 DUP6 DUP6 PUSH2 0x546 DUP6 DUP10 PUSH2 0x735 JUMP JUMPDEST PUSH2 0x550 SWAP2 SWAP1 PUSH2 0x1204 JUMP JUMPDEST PUSH2 0x7C4 JUMP JUMPDEST PUSH1 0x1 SWAP2 POP POP SWAP3 SWAP2 POP POP JUMP JUMPDEST PUSH1 0x0 DUP1 PUSH1 0x0 DUP4 PUSH20 0xFFFFFFFFFFFFFFFFFFFFFFFFFFFFFFFFFFFFFFFF AND PUSH20 0xFFFFFFFFFFFFFFFFFFFFFFFFFFFFFFFFFFFFFFFF AND DUP2 MSTORE PUSH1 0x20 ADD SWAP1 DUP2 MSTORE PUSH1 0x20 ADD PUSH1 0x0 KECCAK256 SLOAD SWAP1 POP SWAP2 SWAP1 POP JUMP JUMPDEST PUSH1 0x60 PUSH1 0x4 DUP1 SLOAD PUSH2 0x5B7 SWAP1 PUSH2 0x1112 JUMP JUMPDEST DUP1 PUSH1 0x1F ADD PUSH1 0x20 DUP1 SWAP2 DIV MUL PUSH1 0x20 ADD PUSH1 0x40 MLOAD SWAP1 DUP2 ADD PUSH1 0x40 MSTORE DUP1 SWAP3 SWAP2 SWAP1 DUP2 DUP2 MSTORE PUSH1 0x20 ADD DUP3 DUP1 SLOAD PUSH2 0x5E3 SWAP1 PUSH2 0x1112 JUMP JUMPDEST DUP1 ISZERO PUSH2 0x630 JUMPI DUP1 PUSH1 0x1F LT PUSH2 0x605 JUMPI PUSH2 0x100 DUP1 DUP4 SLOAD DIV MUL DUP4 MSTORE SWAP2 PUSH1 0x20 ADD SWAP2 PUSH2 0x630 JUMP JUMPDEST DUP3 ADD SWAP2 SWAP1 PUSH1 0x0 MSTORE PUSH1 0x20 PUSH1 0x0 KECCAK256 SWAP1 JUMPDEST DUP2 SLOAD DUP2 MSTORE SWAP1 PUSH1 0x1 ADD SWAP1 PUSH1 0x20 ADD DUP1 DUP4 GT PUSH2 0x613 JUMPI DUP3 SWAP1 SUB PUSH1 0x1F AND DUP3 ADD SWAP2 JUMPDEST POP POP POP POP POP SWAP1 POP SWAP1 JUMP JUMPDEST PUSH1 0x0 DUP1 PUSH2 0x645 PUSH2 0x7BC JUMP JUMPDEST SWAP1 POP PUSH1 0x0 PUSH2 0x653 DUP3 DUP7 PUSH2 0x735 JUMP JUMPDEST SWAP1 POP DUP4 DUP2 LT ISZERO PUSH2 0x698 JUMPI PUSH1 0x40 MLOAD PUSH32 0x8C379A000000000000000000000000000000000000000000000000000000000 DUP2 MSTORE PUSH1 0x4 ADD PUSH2 0x68F SWAP1 PUSH2 0x12AA JUMP JUMPDEST PUSH1 0x40 MLOAD DUP1 SWAP2 SUB SWAP1 REVERT JUMPDEST PUSH2 0x6A5 DUP3 DUP7 DUP7 DUP5 SUB PUSH2 0x7C4 JUMP JUMPDEST PUSH1 0x1 SWAP3 POP POP POP SWAP3 SWAP2 POP POP JUMP JUMPDEST PUSH1 0x0 DUP1 PUSH2 0x6BC PUSH2 0x7BC JUMP JUMPDEST SWAP1 POP PUSH2 0x6C9 DUP2 DUP6 DUP6 PUSH2 0xA19 JUMP JUMPDEST PUSH1 0x1 SWAP2 POP POP SWAP3 SWAP2 POP POP JUMP JUMPDEST PUSH1 0x0 CALLVALUE GT PUSH2 0x717 JUMPI PUSH1 0x40 MLOAD PUSH32 0x8C379A000000000000000000000000000000000000000000000000000000000 DUP2 MSTORE PUSH1 0x4 ADD PUSH2 0x70E SWAP1 PUSH2 0x1316 JUMP JUMPDEST PUSH1 0x40 MLOAD DUP1 SWAP2 SUB SWAP1 REVERT JUMPDEST PUSH1 0x0 PUSH1 0x64 CALLVALUE PUSH2 0x726 SWAP2 SWAP1 PUSH2 0x1336 JUMP JUMPDEST SWAP1 POP PUSH2 0x732 CALLER DUP3 PUSH2 0xC98 JUMP JUMPDEST POP JUMP JUMPDEST PUSH1 0x0 PUSH1 0x1 PUSH1 0x0 DUP5 PUSH20 0xFFFFFFFFFFFFFFFFFFFFFFFFFFFFFFFFFFFFFFFF AND PUSH20 0xFFFFFFFFFFFFFFFFFFFFFFFFFFFFFFFFFFFFFFFF AND DUP2 MSTORE PUSH1 0x20 ADD SWAP1 DUP2 MSTORE PUSH1 0x20 ADD PUSH1 0x0 KECCAK256 PUSH1 0x0 DUP4 PUSH20 0xFFFFFFFFFFFFFFFFFFFFFFFFFFFFFFFFFFFFFFFF AND PUSH20 0xFFFFFFFFFFFFFFFFFFFFFFFFFFFFFFFFFFFFFFFF AND DUP2 MSTORE PUSH1 0x20 ADD SWAP1 DUP2 MSTORE PUSH1 0x20 ADD PUSH1 0x0 KECCAK256 SLOAD SWAP1 POP SWAP3 SWAP2 POP POP JUMP JUMPDEST PUSH1 0x0 CALLER SWAP1 POP SWAP1 JUMP JUMPDEST PUSH1 0x0 PUSH20 0xFFFFFFFFFFFFFFFFFFFFFFFFFFFFFFFFFFFFFFFF AND DUP4 PUSH20 0xFFFFFFFFFFFFFFFFFFFFFFFFFFFFFFFFFFFFFFFF AND SUB PUSH2 0x833 JUMPI PUSH1 0x40 MLOAD PUSH32 0x8C379A000000000000000000000000000000000000000000000000000000000 DUP2 MSTORE PUSH1 0x4 ADD PUSH2 0x82A SWAP1 PUSH2 0x13EA JUMP JUMPDEST PUSH1 0x40 MLOAD DUP1 SWAP2 SUB SWAP1 REVERT JUMPDEST PUSH1 0x0 PUSH20 0xFFFFFFFFFFFFFFFFFFFFFFFFFFFFFFFFFFFFFFFF AND DUP3 PUSH20 0xFFFFFFFFFFFFFFFFFFFFFFFFFFFFFFFFFFFFFFFF AND SUB PUSH2 0x8A2 JUMPI PUSH1 0x40 MLOAD PUSH32 0x8C379A000000000000000000000000000000000000000000000000000000000 DUP2 MSTORE PUSH1 0x4 ADD PUSH2 0x899 SWAP1 PUSH2 0x147C JUMP JUMPDEST PUSH1 0x40 MLOAD DUP1 SWAP2 SUB SWAP1 REVERT JUMPDEST DUP1 PUSH1 0x1 PUSH1 0x0 DUP6 PUSH20 0xFFFFFFFFFFFFFFFFFFFFFFFFFFFFFFFFFFFFFFFF AND PUSH20 0xFFFFFFFFFFFFFFFFFFFFFFFFFFFFFFFFFFFFFFFF AND DUP2 MSTORE PUSH1 0x20 ADD SWAP1 DUP2 MSTORE PUSH1 0x20 ADD PUSH1 0x0 KECCAK256 PUSH1 0x0 DUP5 PUSH20 0xFFFFFFFFFFFFFFFFFFFFFFFFFFFFFFFFFFFFFFFF AND PUSH20 0xFFFFFFFFFFFFFFFFFFFFFFFFFFFFFFFFFFFFFFFF AND DUP2 MSTORE PUSH1 0x20 ADD SWAP1 DUP2 MSTORE PUSH1 0x20 ADD PUSH1 0x0 KECCAK256 DUP2 SWAP1 SSTORE POP DUP2 PUSH20 0xFFFFFFFFFFFFFFFFFFFFFFFFFFFFFFFFFFFFFFFF AND DUP4 PUSH20 0xFFFFFFFFFFFFFFFFFFFFFFFFFFFFFFFFFFFFFFFF AND PUSH32 0x8C5BE1E5EBEC7D5BD14F71427D1E84F3DD0314C0F7B2291E5B200AC8C7C3B925 DUP4 PUSH1 0x40 MLOAD PUSH2 0x980 SWAP2 SWAP1 PUSH2 0xFD1 JUMP JUMPDEST PUSH1 0x40 MLOAD DUP1 SWAP2 SUB SWAP1 LOG3 POP POP POP JUMP JUMPDEST PUSH1 0x0 PUSH2 0x999 DUP5 DUP5 PUSH2 0x735 JUMP JUMPDEST SWAP1 POP PUSH32 0xFFFFFFFFFFFFFFFFFFFFFFFFFFFFFFFFFFFFFFFFFFFFFFFFFFFFFFFFFFFFFFFF DUP2 EQ PUSH2 0xA13 JUMPI DUP2 DUP2 LT ISZERO PUSH2 0xA05 JUMPI PUSH1 0x40 MLOAD PUSH32 0x8C379A000000000000000000000000000000000000000000000000000000000 DUP2 MSTORE PUSH1 0x4 ADD PUSH2 0x9FC SWAP1 PUSH2 0x14E8 JUMP JUMPDEST PUSH1 0x40 MLOAD DUP1 SWAP2 SUB SWAP1 REVERT JUMPDEST PUSH2 0xA12 DUP5 DUP5 DUP5 DUP5 SUB PUSH2 0x7C4 JUMP JUMPDEST JUMPDEST POP POP POP POP JUMP JUMPDEST PUSH1 0x0 PUSH20 0xFFFFFFFFFFFFFFFFFFFFFFFFFFFFFFFFFFFFFFFF AND DUP4 PUSH20 0xFFFFFFFFFFFFFFFFFFFFFFFFFFFFFFFFFFFFFFFF AND SUB PUSH2 0xA88 JUMPI PUSH1 0x40 MLOAD PUSH32 0x8C379A000000000000000000000000000000000000000000000000000000000 DUP2 MSTORE PUSH1 0x4 ADD PUSH2 0xA7F SWAP1 PUSH2 0x157A JUMP JUMPDEST PUSH1 0x40 MLOAD DUP1 SWAP2 SUB SWAP1 REVERT JUMPDEST PUSH1 0x0 PUSH20 0xFFFFFFFFFFFFFFFFFFFFFFFFFFFFFFFFFFFFFFFF AND DUP3 PUSH20 0xFFFFFFFFFFFFFFFFFFFFFFFFFFFFFFFFFFFFFFFF AND SUB PUSH2 0xAF7 JUMPI PUSH1 0x40 MLOAD PUSH32 0x8C379A000000000000000000000000000000000000000000000000000000000 DUP2 MSTORE PUSH1 0x4 ADD PUSH2 0xAEE SWAP1 PUSH2 0x160C JUMP JUMPDEST PUSH1 0x40 MLOAD DUP1 SWAP2 SUB SWAP1 REVERT JUMPDEST PUSH2 0xB02 DUP4 DUP4 DUP4 PUSH2 0xDF7 JUMP JUMPDEST PUSH1 0x0 DUP1 PUSH1 0x0 DUP6 PUSH20 0xFFFFFFFFFFFFFFFFFFFFFFFFFFFFFFFFFFFFFFFF AND PUSH20 0xFFFFFFFFFFFFFFFFFFFFFFFFFFFFFFFFFFFFFFFF AND DUP2 MSTORE PUSH1 0x20 ADD SWAP1 DUP2 MSTORE PUSH1 0x20 ADD PUSH1 0x0 KECCAK256 SLOAD SWAP1 POP DUP2 DUP2 LT ISZERO PUSH2 0xB88 JUMPI PUSH1 0x40 MLOAD PUSH32 0x8C379A000000000000000000000000000000000000000000000000000000000 DUP2 MSTORE PUSH1 0x4 ADD PUSH2 0xB7F SWAP1 PUSH2 0x169E JUMP JUMPDEST PUSH1 0x40 MLOAD DUP1 SWAP2 SUB SWAP1 REVERT JUMPDEST DUP2 DUP2 SUB PUSH1 0x0 DUP1 DUP7 PUSH20 0xFFFFFFFFFFFFFFFFFFFFFFFFFFFFFFFFFFFFFFFF AND PUSH20 0xFFFFFFFFFFFFFFFFFFFFFFFFFFFFFFFFFFFFFFFF AND DUP2 MSTORE PUSH1 0x20 ADD SWAP1 DUP2 MSTORE PUSH1 0x20 ADD PUSH1 0x0 KECCAK256 DUP2 SWAP1 SSTORE POP DUP2 PUSH1 0x0 DUP1 DUP6 PUSH20 0xFFFFFFFFFFFFFFFFFFFFFFFFFFFFFFFFFFFFFFFF AND PUSH20 0xFFFFFFFFFFFFFFFFFFFFFFFFFFFFFFFFFFFFFFFF AND DUP2 MSTORE PUSH1 0x20 ADD SWAP1 DUP2 MSTORE PUSH1 0x20 ADD PUSH1 0x0 KECCAK256 PUSH1 0x0 DUP3 DUP3 SLOAD PUSH2 0xC1B SWAP2 SWAP1 PUSH2 0x1204 JUMP JUMPDEST SWAP3 POP POP DUP2 SWAP1 SSTORE POP DUP3 PUSH20 0xFFFFFFFFFFFFFFFFFFFFFFFFFFFFFFFFFFFFFFFF AND DUP5 PUSH20 0xFFFFFFFFFFFFFFFFFFFFFFFFFFFFFFFFFFFFFFFF AND PUSH32 0xDDF252AD1BE2C89B69C2B068FC378DAA952BA7F163C4A11628F55A4DF523B3EF DUP5 PUSH1 0x40 MLOAD PUSH2 0xC7F SWAP2 SWAP1 PUSH2 0xFD1 JUMP JUMPDEST PUSH1 0x40 MLOAD DUP1 SWAP2 SUB SWAP1 LOG3 PUSH2 0xC92 DUP5 DUP5 DUP5 PUSH2 0xDFC JUMP JUMPDEST POP POP POP POP JUMP JUMPDEST PUSH1 0x0 PUSH20 0xFFFFFFFFFFFFFFFFFFFFFFFFFFFFFFFFFFFFFFFF AND DUP3 PUSH20 0xFFFFFFFFFFFFFFFFFFFFFFFFFFFFFFFFFFFFFFFF AND SUB PUSH2 0xD07 JUMPI PUSH1 0x40 MLOAD PUSH32 0x8C379A000000000000000000000000000000000000000000000000000000000 DUP2 MSTORE PUSH1 0x4 ADD PUSH2 0xCFE SWAP1 PUSH2 0x170A JUMP JUMPDEST PUSH1 0x40 MLOAD DUP1 SWAP2 SUB SWAP1 REVERT JUMPDEST PUSH2 0xD13 PUSH1 0x0 DUP4 DUP4 PUSH2 0xDF7 JUMP JUMPDEST DUP1 PUSH1 0x2 PUSH1 0x0 DUP3 DUP3 SLOAD PUSH2 0xD25 SWAP2 SWAP1 PUSH2 0x1204 JUMP JUMPDEST SWAP3 POP POP DUP2 SWAP1 SSTORE POP DUP1 PUSH1 0x0 DUP1 DUP5 PUSH20 0xFFFFFFFFFFFFFFFFFFFFFFFFFFFFFFFFFFFFFFFF AND PUSH20 0xFFFFFFFFFFFFFFFFFFFFFFFFFFFFFFFFFFFFFFFF AND DUP2 MSTORE PUSH1 0x20 ADD SWAP1 DUP2 MSTORE PUSH1 0x20 ADD PUSH1 0x0 KECCAK256 PUSH1 0x0 DUP3 DUP3 SLOAD PUSH2 0xD7A SWAP2 SWAP1 PUSH2 0x1204 JUMP JUMPDEST SWAP3 POP POP DUP2 SWAP1 SSTORE POP DUP2 PUSH20 0xFFFFFFFFFFFFFFFFFFFFFFFFFFFFFFFFFFFFFFFF AND PUSH1 0x0 PUSH20 0xFFFFFFFFFFFFFFFFFFFFFFFFFFFFFFFFFFFFFFFF AND PUSH32 0xDDF252AD1BE2C89B69C2B068FC378DAA952BA7F163C4A11628F55A4DF523B3EF DUP4 PUSH1 0x40 MLOAD PUSH2 0xDDF SWAP2 SWAP1 PUSH2 0xFD1 JUMP JUMPDEST PUSH1 0x40 MLOAD DUP1 SWAP2 SUB SWAP1 LOG3 PUSH2 0xDF3 PUSH1 0x0 DUP4 DUP4 PUSH2 0xDFC JUMP JUMPDEST POP POP JUMP JUMPDEST POP POP POP JUMP JUMPDEST POP POP POP JUMP JUMPDEST PUSH1 0x0 DUP2 MLOAD SWAP1 POP SWAP2 SWAP1 POP JUMP JUMPDEST PUSH1 0x0 DUP3 DUP3 MSTORE PUSH1 0x20 DUP3 ADD SWAP1 POP SWAP3 SWAP2 POP POP JUMP JUMPDEST PUSH1 0x0 JUMPDEST DUP4 DUP2 LT ISZERO PUSH2 0xE3B JUMPI DUP1 DUP3 ADD MLOAD DUP2 DUP5 ADD MSTORE PUSH1 0x20 DUP2 ADD SWAP1 POP PUSH2 0xE20 JUMP JUMPDEST PUSH1 0x0 DUP5 DUP5 ADD MSTORE POP POP POP POP JUMP JUMPDEST PUSH1 0x0 PUSH1 0x1F NOT PUSH1 0x1F DUP4 ADD AND SWAP1 POP SWAP2 SWAP1 POP JUMP JUMPDEST PUSH1 0x0 PUSH2 0xE63 DUP3 PUSH2 0xE01 JUMP JUMPDEST PUSH2 0xE6D DUP2 DUP6 PUSH2 0xE0C JUMP JUMPDEST SWAP4 POP PUSH2 0xE7D DUP2 DUP6 PUSH1 0x20 DUP7 ADD PUSH2 0xE1D JUMP JUMPDEST PUSH2 0xE86 DUP2 PUSH2 0xE47 JUMP JUMPDEST DUP5 ADD SWAP2 POP POP SWAP3 SWAP2 POP POP JUMP JUMPDEST PUSH1 0x0 PUSH1 0x20 DUP3 ADD SWAP1 POP DUP2 DUP2 SUB PUSH1 0x0 DUP4 ADD MSTORE PUSH2 0xEAB DUP2 DUP5 PUSH2 0xE58 JUMP JUMPDEST SWAP1 POP SWAP3 SWAP2 POP POP JUMP JUMPDEST PUSH1 0x0 DUP1 REVERT JUMPDEST PUSH1 0x0 PUSH20 0xFFFFFFFFFFFFFFFFFFFFFFFFFFFFFFFFFFFFFFFF DUP3 AND SWAP1 POP SWAP2 SWAP1 POP JUMP JUMPDEST PUSH1 0x0 PUSH2 0xEE3 DUP3 PUSH2 0xEB8 JUMP JUMPDEST SWAP1 POP SWAP2 SWAP1 POP JUMP JUMPDEST PUSH2 0xEF3 DUP2 PUSH2 0xED8 JUMP JUMPDEST DUP2 EQ PUSH2 0xEFE JUMPI PUSH1 0x0 DUP1 REVERT JUMPDEST POP JUMP JUMPDEST PUSH1 0x0 DUP2 CALLDATALOAD SWAP1 POP PUSH2 0xF10 DUP2 PUSH2 0xEEA JUMP JUMPDEST SWAP3 SWAP2 POP POP JUMP JUMPDEST PUSH1 0x0 DUP2 SWAP1 POP SWAP2 SWAP1 POP JUMP JUMPDEST PUSH2 0xF29 DUP2 PUSH2 0xF16 JUMP JUMPDEST DUP2 EQ PUSH2 0xF34 JUMPI PUSH1 0x0 DUP1 REVERT JUMPDEST POP JUMP JUMPDEST PUSH1 0x0 DUP2 CALLDATALOAD SWAP1 POP PUSH2 0xF46 DUP2 PUSH2 0xF20 JUMP JUMPDEST SWAP3 SWAP2 POP POP JUMP JUMPDEST PUSH1 0x0 DUP1 PUSH1 0x40 DUP4 DUP6 SUB SLT ISZERO PUSH2 0xF63 JUMPI PUSH2 0xF62 PUSH2 0xEB3 JUMP JUMPDEST JUMPDEST PUSH1 0x0 PUSH2 0xF71 DUP6 DUP3 DUP7 ADD PUSH2 0xF01 JUMP JUMPDEST SWAP3 POP POP PUSH1 0x20 PUSH2 0xF82 DUP6 DUP3 DUP7 ADD PUSH2 0xF37 JUMP JUMPDEST SWAP2 POP POP SWAP3 POP SWAP3 SWAP1 POP JUMP JUMPDEST PUSH1 0x0 DUP2 ISZERO ISZERO SWAP1 POP SWAP2 SWAP1 POP JUMP JUMPDEST PUSH2 0xFA1 DUP2 PUSH2 0xF8C JUMP JUMPDEST DUP3 MSTORE POP POP JUMP JUMPDEST PUSH1 0x0 PUSH1 0x20 DUP3 ADD SWAP1 POP PUSH2 0xFBC PUSH1 0x0 DUP4 ADD DUP5 PUSH2 0xF98 JUMP JUMPDEST SWAP3 SWAP2 POP POP JUMP JUMPDEST PUSH2 0xFCB DUP2 PUSH2 0xF16 JUMP JUMPDEST DUP3 MSTORE POP POP JUMP JUMPDEST PUSH1 0x0 PUSH1 0x20 DUP3 ADD SWAP1 POP PUSH2 0xFE6 PUSH1 0x0 DUP4 ADD DUP5 PUSH2 0xFC2 JUMP JUMPDEST SWAP3 SWAP2 POP POP JUMP JUMPDEST PUSH1 0x0 DUP1 PUSH1 0x0 PUSH1 0x60 DUP5 DUP7 SUB SLT ISZERO PUSH2 0x1005 JUMPI PUSH2 0x1004 PUSH2 0xEB3 JUMP JUMPDEST JUMPDEST PUSH1 0x0 PUSH2 0x1013 DUP7 DUP3 DUP8 ADD PUSH2 0xF01 JUMP JUMPDEST SWAP4 POP POP PUSH1 0x20 PUSH2 0x1024 DUP7 DUP3 DUP8 ADD PUSH2 0xF01 JUMP JUMPDEST SWAP3 POP POP PUSH1 0x40 PUSH2 0x1035 DUP7 DUP3 DUP8 ADD PUSH2 0xF37 JUMP JUMPDEST SWAP2 POP POP SWAP3 POP SWAP3 POP SWAP3 JUMP JUMPDEST PUSH1 0x0 PUSH1 0xFF DUP3 AND SWAP1 POP SWAP2 SWAP1 POP JUMP JUMPDEST PUSH2 0x1055 DUP2 PUSH2 0x103F JUMP JUMPDEST DUP3 MSTORE POP POP JUMP JUMPDEST PUSH1 0x0 PUSH1 0x20 DUP3 ADD SWAP1 POP PUSH2 0x1070 PUSH1 0x0 DUP4 ADD DUP5 PUSH2 0x104C JUMP JUMPDEST SWAP3 SWAP2 POP POP JUMP JUMPDEST PUSH1 0x0 PUSH1 0x20 DUP3 DUP5 SUB SLT ISZERO PUSH2 0x108C JUMPI PUSH2 0x108B PUSH2 0xEB3 JUMP JUMPDEST JUMPDEST PUSH1 0x0 PUSH2 0x109A DUP5 DUP3 DUP6 ADD PUSH2 0xF01 JUMP JUMPDEST SWAP2 POP POP SWAP3 SWAP2 POP POP JUMP JUMPDEST PUSH1 0x0 DUP1 PUSH1 0x40 DUP4 DUP6 SUB SLT ISZERO PUSH2 0x10BA JUMPI PUSH2 0x10B9 PUSH2 0xEB3 JUMP JUMPDEST JUMPDEST PUSH1 0x0 PUSH2 0x10C8 DUP6 DUP3 DUP7 ADD PUSH2 0xF01 JUMP JUMPDEST SWAP3 POP POP PUSH1 0x20 PUSH2 0x10D9 DUP6 DUP3 DUP7 ADD PUSH2 0xF01 JUMP JUMPDEST SWAP2 POP POP SWAP3 POP SWAP3 SWAP1 POP JUMP JUMPDEST PUSH32 0x4E487B7100000000000000000000000000000000000000000000000000000000 PUSH1 0x0 MSTORE PUSH1 0x22 PUSH1 0x4 MSTORE PUSH1 0x24 PUSH1 0x0 REVERT JUMPDEST PUSH1 0x0 PUSH1 0x2 DUP3 DIV SWAP1 POP PUSH1 0x1 DUP3 AND DUP1 PUSH2 0x112A JUMPI PUSH1 0x7F DUP3 AND SWAP2 POP JUMPDEST PUSH1 0x20 DUP3 LT DUP2 SUB PUSH2 0x113D JUMPI PUSH2 0x113C PUSH2 0x10E3 JUMP JUMPDEST JUMPDEST POP SWAP2 SWAP1 POP JUMP JUMPDEST PUSH32 0x5468697320757365722068617320636C61696D65642061697264726F7020616C PUSH1 0x0 DUP3 ADD MSTORE PUSH32 0x7265616479000000000000000000000000000000000000000000000000000000 PUSH1 0x20 DUP3 ADD MSTORE POP JUMP JUMPDEST PUSH1 0x0 PUSH2 0x119F PUSH1 0x25 DUP4 PUSH2 0xE0C JUMP JUMPDEST SWAP2 POP PUSH2 0x11AA DUP3 PUSH2 0x1143 JUMP JUMPDEST PUSH1 0x40 DUP3 ADD SWAP1 POP SWAP2 SWAP1 POP JUMP JUMPDEST PUSH1 0x0 PUSH1 0x20 DUP3 ADD SWAP1 POP DUP2 DUP2 SUB PUSH1 0x0 DUP4 ADD MSTORE PUSH2 0x11CE DUP2 PUSH2 0x1192 JUMP JUMPDEST SWAP1 POP SWAP2 SWAP1 POP JUMP JUMPDEST PUSH32 0x4E487B7100000000000000000000000000000000000000000000000000000000 PUSH1 0x0 MSTORE PUSH1 0x11 PUSH1 0x4 MSTORE PUSH1 0x24 PUSH1 0x0 REVERT JUMPDEST PUSH1 0x0 PUSH2 0x120F DUP3 PUSH2 0xF16 JUMP JUMPDEST SWAP2 POP PUSH2 0x121A DUP4 PUSH2 0xF16 JUMP JUMPDEST SWAP3 POP DUP3 DUP3 ADD SWAP1 POP DUP1 DUP3 GT ISZERO PUSH2 0x1232 JUMPI PUSH2 0x1231 PUSH2 0x11D5 JUMP JUMPDEST JUMPDEST SWAP3 SWAP2 POP POP JUMP JUMPDEST PUSH32 0x45524332303A2064656372656173656420616C6C6F77616E63652062656C6F77 PUSH1 0x0 DUP3 ADD MSTORE PUSH32 0x207A65726F000000000000000000000000000000000000000000000000000000 PUSH1 0x20 DUP3 ADD MSTORE POP JUMP JUMPDEST PUSH1 0x0 PUSH2 0x1294 PUSH1 0x25 DUP4 PUSH2 0xE0C JUMP JUMPDEST SWAP2 POP PUSH2 0x129F DUP3 PUSH2 0x1238 JUMP JUMPDEST PUSH1 0x40 DUP3 ADD SWAP1 POP SWAP2 SWAP1 POP JUMP JUMPDEST PUSH1 0x0 PUSH1 0x20 DUP3 ADD SWAP1 POP DUP2 DUP2 SUB PUSH1 0x0 DUP4 ADD MSTORE PUSH2 0x12C3 DUP2 PUSH2 0x1287 JUMP JUMPDEST SWAP1 POP SWAP2 SWAP1 POP JUMP JUMPDEST PUSH32 0x4D7573742073656E6420457468657220746F2062757920746F6B656E73000000 PUSH1 0x0 DUP3 ADD MSTORE POP JUMP JUMPDEST PUSH1 0x0 PUSH2 0x1300 PUSH1 0x1D DUP4 PUSH2 0xE0C JUMP JUMPDEST SWAP2 POP PUSH2 0x130B DUP3 PUSH2 0x12CA JUMP JUMPDEST PUSH1 0x20 DUP3 ADD SWAP1 POP SWAP2 SWAP1 POP JUMP JUMPDEST PUSH1 0x0 PUSH1 0x20 DUP3 ADD SWAP1 POP DUP2 DUP2 SUB PUSH1 0x0 DUP4 ADD MSTORE PUSH2 0x132F DUP2 PUSH2 0x12F3 JUMP JUMPDEST SWAP1 POP SWAP2 SWAP1 POP JUMP JUMPDEST PUSH1 0x0 PUSH2 0x1341 DUP3 PUSH2 0xF16 JUMP JUMPDEST SWAP2 POP PUSH2 0x134C DUP4 PUSH2 0xF16 JUMP JUMPDEST SWAP3 POP DUP3 DUP3 MUL PUSH2 0x135A DUP2 PUSH2 0xF16 JUMP JUMPDEST SWAP2 POP DUP3 DUP3 DIV DUP5 EQ DUP4 ISZERO OR PUSH2 0x1371 JUMPI PUSH2 0x1370 PUSH2 0x11D5 JUMP JUMPDEST JUMPDEST POP SWAP3 SWAP2 POP POP JUMP JUMPDEST PUSH32 0x45524332303A20617070726F76652066726F6D20746865207A65726F20616464 PUSH1 0x0 DUP3 ADD MSTORE PUSH32 0x7265737300000000000000000000000000000000000000000000000000000000 PUSH1 0x20 DUP3 ADD MSTORE POP JUMP JUMPDEST PUSH1 0x0 PUSH2 0x13D4 PUSH1 0x24 DUP4 PUSH2 0xE0C JUMP JUMPDEST SWAP2 POP PUSH2 0x13DF DUP3 PUSH2 0x1378 JUMP JUMPDEST PUSH1 0x40 DUP3 ADD SWAP1 POP SWAP2 SWAP1 POP JUMP JUMPDEST PUSH1 0x0 PUSH1 0x20 DUP3 ADD SWAP1 POP DUP2 DUP2 SUB PUSH1 0x0 DUP4 ADD MSTORE PUSH2 0x1403 DUP2 PUSH2 0x13C7 JUMP JUMPDEST SWAP1 POP SWAP2 SWAP1 POP JUMP JUMPDEST PUSH32 0x45524332303A20617070726F766520746F20746865207A65726F206164647265 PUSH1 0x0 DUP3 ADD MSTORE PUSH32 0x7373000000000000000000000000000000000000000000000000000000000000 PUSH1 0x20 DUP3 ADD MSTORE POP JUMP JUMPDEST PUSH1 0x0 PUSH2 0x1466 PUSH1 0x22 DUP4 PUSH2 0xE0C JUMP JUMPDEST SWAP2 POP PUSH2 0x1471 DUP3 PUSH2 0x140A JUMP JUMPDEST PUSH1 0x40 DUP3 ADD SWAP1 POP SWAP2 SWAP1 POP JUMP JUMPDEST PUSH1 0x0 PUSH1 0x20 DUP3 ADD SWAP1 POP DUP2 DUP2 SUB PUSH1 0x0 DUP4 ADD MSTORE PUSH2 0x1495 DUP2 PUSH2 0x1459 JUMP JUMPDEST SWAP1 POP SWAP2 SWAP1 POP JUMP JUMPDEST PUSH32 0x45524332303A20696E73756666696369656E7420616C6C6F77616E6365000000 PUSH1 0x0 DUP3 ADD MSTORE POP JUMP JUMPDEST PUSH1 0x0 PUSH2 0x14D2 PUSH1 0x1D DUP4 PUSH2 0xE0C JUMP JUMPDEST SWAP2 POP PUSH2 0x14DD DUP3 PUSH2 0x149C JUMP JUMPDEST PUSH1 0x20 DUP3 ADD SWAP1 POP SWAP2 SWAP1 POP JUMP JUMPDEST PUSH1 0x0 PUSH1 0x20 DUP3 ADD SWAP1 POP DUP2 DUP2 SUB PUSH1 0x0 DUP4 ADD MSTORE PUSH2 0x1501 DUP2 PUSH2 0x14C5 JUMP JUMPDEST SWAP1 POP SWAP2 SWAP1 POP JUMP JUMPDEST PUSH32 0x45524332303A207472616E736665722066726F6D20746865207A65726F206164 PUSH1 0x0 DUP3 ADD MSTORE PUSH32 0x6472657373000000000000000000000000000000000000000000000000000000 PUSH1 0x20 DUP3 ADD MSTORE POP JUMP JUMPDEST PUSH1 0x0 PUSH2 0x1564 PUSH1 0x25 DUP4 PUSH2 0xE0C JUMP JUMPDEST SWAP2 POP PUSH2 0x156F DUP3 PUSH2 0x1508 JUMP JUMPDEST PUSH1 0x40 DUP3 ADD SWAP1 POP SWAP2 SWAP1 POP JUMP JUMPDEST PUSH1 0x0 PUSH1 0x20 DUP3 ADD SWAP1 POP DUP2 DUP2 SUB PUSH1 0x0 DUP4 ADD MSTORE PUSH2 0x1593 DUP2 PUSH2 0x1557 JUMP JUMPDEST SWAP1 POP SWAP2 SWAP1 POP JUMP JUMPDEST PUSH32 0x45524332303A207472616E7366657220746F20746865207A65726F2061646472 PUSH1 0x0 DUP3 ADD MSTORE PUSH32 0x6573730000000000000000000000000000000000000000000000000000000000 PUSH1 0x20 DUP3 ADD MSTORE POP JUMP JUMPDEST PUSH1 0x0 PUSH2 0x15F6 PUSH1 0x23 DUP4 PUSH2 0xE0C JUMP JUMPDEST SWAP2 POP PUSH2 0x1601 DUP3 PUSH2 0x159A JUMP JUMPDEST PUSH1 0x40 DUP3 ADD SWAP1 POP SWAP2 SWAP1 POP JUMP JUMPDEST PUSH1 0x0 PUSH1 0x20 DUP3 ADD SWAP1 POP DUP2 DUP2 SUB PUSH1 0x0 DUP4 ADD MSTORE PUSH2 0x1625 DUP2 PUSH2 0x15E9 JUMP JUMPDEST SWAP1 POP SWAP2 SWAP1 POP JUMP JUMPDEST PUSH32 0x45524332303A207472616E7366657220616D6F756E7420657863656564732062 PUSH1 0x0 DUP3 ADD MSTORE PUSH32 0x616C616E63650000000000000000000000000000000000000000000000000000 PUSH1 0x20 DUP3 ADD MSTORE POP JUMP JUMPDEST PUSH1 0x0 PUSH2 0x1688 PUSH1 0x26 DUP4 PUSH2 0xE0C JUMP JUMPDEST SWAP2 POP PUSH2 0x1693 DUP3 PUSH2 0x162C JUMP JUMPDEST PUSH1 0x40 DUP3 ADD SWAP1 POP SWAP2 SWAP1 POP JUMP JUMPDEST PUSH1 0x0 PUSH1 0x20 DUP3 ADD SWAP1 POP DUP2 DUP2 SUB PUSH1 0x0 DUP4 ADD MSTORE PUSH2 0x16B7 DUP2 PUSH2 0x167B JUMP JUMPDEST SWAP1 POP SWAP2 SWAP1 POP JUMP JUMPDEST PUSH32 0x45524332303A206D696E7420746F20746865207A65726F206164647265737300 PUSH1 0x0 DUP3 ADD MSTORE POP JUMP JUMPDEST PUSH1 0x0 PUSH2 0x16F4 PUSH1 0x1F DUP4 PUSH2 0xE0C JUMP JUMPDEST SWAP2 POP PUSH2 0x16FF DUP3 PUSH2 0x16BE JUMP JUMPDEST PUSH1 0x20 DUP3 ADD SWAP1 POP SWAP2 SWAP1 POP JUMP JUMPDEST PUSH1 0x0 PUSH1 0x20 DUP3 ADD SWAP1 POP DUP2 DUP2 SUB PUSH1 0x0 DUP4 ADD MSTORE PUSH2 0x1723 DUP2 PUSH2 0x16E7 JUMP JUMPDEST SWAP1 POP SWAP2 SWAP1 POP JUMP INVALID LOG2 PUSH5 0x6970667358 0x22 SLT KECCAK256 0xA9 0x2F 0xF7 EXTCODEHASH RETURN 0xD3 0x23 0xBB SHR SELFDESTRUCT 0xDB GT 0xFB 0xAE 0xD3 ADDMOD SDIV 0x27 0x4C MUL 0x5C 0xF6 0xB0 GASLIMIT 0x4E DUP14 0xAB 0xC0 SWAP2 0xDD 0xAD 0xC9 PUSH5 0x736F6C6343 STOP ADDMOD EQ STOP CALLER "},"methodIdentifiers":{"approve(address,uint256)":"095ea7b3","balanceOf(address)":"70a08231","buyHouse(uint256)":"eddc4269","getApproved(uint256)":"081812fc","getHousesForSale()":"9e4ffa7f","houses(uint256)":"aeda852f","isApprovedForAll(address,address)":"e985e9c5","mintHouse()":"f364333d","myERC20()":"6d3739c4","name()":"06fdde03","ownerOf(uint256)":"6352211e","putHouseForSale(uint256,uint256)":"9f76a037","safeTransferFrom(address,address,uint256)":"42842e0e","safeTransferFrom(address,address,uint256,bytes)":"b88d4fde","setApprovalForAll(address,bool)":"a22cb465","supportsInterface(bytes4)":"01ffc9a7","symbol()":"95d89b41","tokenURI(uint256)":"c87b56dd","transferFrom(address,address,uint256)":"23b872dd"}}}}}