{"contracts/BuyMyRoom.sol":{"BuyMyRoom":{"abi":[{"inputs":[],"stateMutability":"nonpayable","type":"constructor"},{"anonymous":false,"inputs":[{"indexed":true,"internalType":"address","name":"owner","type":"address"},{"indexed":true,"internalType":"address","name":"approved","type":"address"},{"indexed":true,"internalType":"uint256","name":"tokenId","type":"uint256"}],"name":"Approval","type":"event"},{"anonymous":false,"inputs":[{"indexed":true,"internalType":"address","name":"owner","type":"address"},{"indexed":true,"internalType":"address","name":"operator","type":"address"},{"indexed":false,"internalType":"bool","name":"approved","type":"bool"}],"name":"ApprovalForAll","type":"event"},{"anonymous":false,"inputs":[{"indexed":true,"internalType":"address","name":"from","type":"address"},{"indexed":true,"internalType":"address","name":"to","type":"address"},{"indexed":true,"internalType":"uint256","name":"tokenId","type":"uint256"}],"name":"Transfer","type":"event"},{"inputs":[{"internalType":"address","name":"to","type":"address"},{"internalType":"uint256","name":"tokenId","type":"uint256"}],"name":"approve","outputs":[],"stateMutability":"nonpayable","type":"function"},{"inputs":[{"internalType":"address","name":"owner","type":"address"}],"name":"balanceOf","outputs":[{"internalType":"uint256","name":"","type":"uint256"}],"stateMutability":"view","type":"function"},{"inputs":[{"internalType":"uint256","name":"tokenId","type":"uint256"}],"name":"buyHouse","outputs":[],"stateMutability":"payable","type":"function"},{"inputs":[{"internalType":"uint256","name":"tokenId","type":"uint256"}],"name":"buyHouseWithERC20","outputs":[],"stateMutability":"nonpayable","type":"function"},{"inputs":[{"internalType":"uint256","name":"tokenId","type":"uint256"}],"name":"getApproved","outputs":[{"internalType":"address","name":"","type":"address"}],"stateMutability":"view","type":"function"},{"inputs":[],"name":"getHousesForSale","outputs":[{"components":[{"internalType":"uint256","name":"tokenId","type":"uint256"},{"internalType":"address","name":"owner","type":"address"},{"internalType":"uint256","name":"price","type":"uint256"},{"internalType":"uint256","name":"erc20Price","type":"uint256"},{"internalType":"bool","name":"forSale","type":"bool"}],"internalType":"struct BuyMyRoom.House[]","name":"","type":"tuple[]"}],"stateMutability":"view","type":"function"},{"inputs":[],"name":"getMyHouses","outputs":[{"components":[{"internalType":"uint256","name":"tokenId","type":"uint256"},{"internalType":"address","name":"owner","type":"address"},{"internalType":"uint256","name":"price","type":"uint256"},{"internalType":"uint256","name":"erc20Price","type":"uint256"},{"internalType":"bool","name":"forSale","type":"bool"}],"internalType":"struct BuyMyRoom.House[]","name":"","type":"tuple[]"}],"stateMutability":"view","type":"function"},{"inputs":[{"internalType":"uint256","name":"","type":"uint256"}],"name":"houses","outputs":[{"internalType":"uint256","name":"tokenId","type":"uint256"},{"internalType":"address","name":"owner","type":"address"},{"internalType":"uint256","name":"price","type":"uint256"},{"internalType":"uint256","name":"erc20Price","type":"uint256"},{"internalType":"bool","name":"forSale","type":"bool"}],"stateMutability":"view","type":"function"},{"inputs":[{"internalType":"address","name":"owner","type":"address"},{"internalType":"address","name":"operator","type":"address"}],"name":"isApprovedForAll","outputs":[{"internalType":"bool","name":"","type":"bool"}],"stateMutability":"view","type":"function"},{"inputs":[],"name":"manager","outputs":[{"internalType":"address","name":"","type":"address"}],"stateMutability":"view","type":"function"},{"inputs":[],"name":"mintHouse","outputs":[],"stateMutability":"nonpayable","type":"function"},{"inputs":[],"name":"myERC20","outputs":[{"internalType":"contract MyERC20","name":"","type":"address"}],"stateMutability":"view","type":"function"},{"inputs":[],"name":"name","outputs":[{"internalType":"string","name":"","type":"string"}],"stateMutability":"view","type":"function"},{"inputs":[{"internalType":"uint256","name":"tokenId","type":"uint256"}],"name":"ownerOf","outputs":[{"internalType":"address","name":"","type":"address"}],"stateMutability":"view","type":"function"},{"inputs":[{"internalType":"uint256","name":"tokenId","type":"uint256"},{"internalType":"uint256","name":"price","type":"uint256"}],"name":"putHouseForSale","outputs":[],"stateMutability":"nonpayable","type":"function"},{"inputs":[{"internalType":"address","name":"from","type":"address"},{"internalType":"address","name":"to","type":"address"},{"internalType":"uint256","name":"tokenId","type":"uint256"}],"name":"safeTransferFrom","outputs":[],"stateMutability":"nonpayable","type":"function"},{"inputs":[{"internalType":"address","name":"from","type":"address"},{"internalType":"address","name":"to","type":"address"},{"internalType":"uint256","name":"tokenId","type":"uint256"},{"internalType":"bytes","name":"data","type":"bytes"}],"name":"safeTransferFrom","outputs":[],"stateMutability":"nonpayable","type":"function"},{"inputs":[{"internalType":"address","name":"operator","type":"address"},{"internalType":"bool","name":"approved","type":"bool"}],"name":"setApprovalForAll","outputs":[],"stateMutability":"nonpayable","type":"function"},{"inputs":[{"internalType":"bytes4","name":"interfaceId","type":"bytes4"}],"name":"supportsInterface","outputs":[{"internalType":"bool","name":"","type":"bool"}],"stateMutability":"view","type":"function"},{"inputs":[],"name":"symbol","outputs":[{"internalType":"string","name":"","type":"string"}],"stateMutability":"view","type":"function"},{"inputs":[{"internalType":"uint256","name":"tokenId","type":"uint256"}],"name":"tokenURI","outputs":[{"internalType":"string","name":"","type":"string"}],"stateMutability":"view","type":"function"},{"inputs":[{"internalType":"address","name":"from","type":"address"},{"internalType":"address","name":"to","type":"address"},{"internalType":"uint256","name":"tokenId","type":"uint256"}],"name":"transferFrom","outputs":[],"stateMutability":"nonpayable","type":"function"}],"evm":{"bytecode":{"linkReferences":{},"object":"60806040523480156200001157600080fd5b506040518060400160405280600881526020017f486f7573654e46540000000000000000000000000000000000000000000000008152506040518060400160405280600481526020017f484e46540000000000000000000000000000000000000000000000000000000081525081600090816200008f9190620003f2565b508060019081620000a19190620003f2565b505050604051620000b2906200016a565b620000bd906200058a565b604051809103906000f080158015620000da573d6000803e3d6000fd5b50600960006101000a81548173ffffffffffffffffffffffffffffffffffffffff021916908373ffffffffffffffffffffffffffffffffffffffff160217905550600060068190555033600760006101000a81548173ffffffffffffffffffffffffffffffffffffffff021916908373ffffffffffffffffffffffffffffffffffffffff160217905550620005c1565b611f768062003e8a83390190565b600081519050919050565b7f4e487b7100000000000000000000000000000000000000000000000000000000600052604160045260246000fd5b7f4e487b7100000000000000000000000000000000000000000000000000000000600052602260045260246000fd5b60006002820490506001821680620001fa57607f821691505b60208210810362000210576200020f620001b2565b5b50919050565b60008190508160005260206000209050919050565b60006020601f8301049050919050565b600082821b905092915050565b6000600883026200027a7fffffffffffffffffffffffffffffffffffffffffffffffffffffffffffffffff826200023b565b6200028686836200023b565b95508019841693508086168417925050509392505050565b6000819050919050565b6000819050919050565b6000620002d3620002cd620002c7846200029e565b620002a8565b6200029e565b9050919050565b6000819050919050565b620002ef83620002b2565b62000307620002fe82620002da565b84845462000248565b825550505050565b600090565b6200031e6200030f565b6200032b818484620002e4565b505050565b5b8181101562000353576200034760008262000314565b60018101905062000331565b5050565b601f821115620003a2576200036c8162000216565b62000377846200022b565b8101602085101562000387578190505b6200039f62000396856200022b565b83018262000330565b50505b505050565b600082821c905092915050565b6000620003c760001984600802620003a7565b1980831691505092915050565b6000620003e28383620003b4565b9150826002028217905092915050565b620003fd8262000178565b67ffffffffffffffff81111562000419576200041862000183565b5b620004258254620001e1565b6200043282828562000357565b600060209050601f8311600181146200046a576000841562000455578287015190505b620004618582620003d4565b865550620004d1565b601f1984166200047a8662000216565b60005b82811015620004a4578489015182556001820191506020850194506020810190506200047d565b86831015620004c45784890151620004c0601f891682620003b4565b8355505b6001600288020188555050505b505050505050565b600082825260208201905092915050565b7f4d79546f6b656e00000000000000000000000000000000000000000000000000600082015250565b600062000522600783620004d9565b91506200052f82620004ea565b602082019050919050565b7f4d544b0000000000000000000000000000000000000000000000000000000000600082015250565b600062000572600383620004d9565b91506200057f826200053a565b602082019050919050565b60006040820190508181036000830152620005a58162000513565b90508181036020830152620005ba8162000563565b9050919050565b6138b980620005d16000396000f3fe6080604052600436106101355760003560e01c806395d89b41116100ab578063b14f1afd1161006f578063b14f1afd1461043c578063b88d4fde14610467578063c87b56dd14610490578063e985e9c5146104cd578063eddc42691461050a578063f364333d1461052657610135565b806395d89b41146103535780639e4ffa7f1461037e5780639f76a037146103a9578063a22cb465146103d2578063aeda852f146103fb57610135565b8063242b3e72116100fd578063242b3e721461023157806342842e0e1461025a578063481c6a75146102835780636352211e146102ae5780636d3739c4146102eb57806370a082311461031657610135565b806301ffc9a71461013a57806306fdde0314610177578063081812fc146101a2578063095ea7b3146101df57806323b872dd14610208575b600080fd5b34801561014657600080fd5b50610161600480360381019061015c9190612541565b61053d565b60405161016e9190612589565b60405180910390f35b34801561018357600080fd5b5061018c61061f565b6040516101999190612634565b60405180910390f35b3480156101ae57600080fd5b506101c960048036038101906101c4919061268c565b6106b1565b6040516101d691906126fa565b60405180910390f35b3480156101eb57600080fd5b5061020660048036038101906102019190612741565b6106f7565b005b34801561021457600080fd5b5061022f600480360381019061022a9190612781565b61080e565b005b34801561023d57600080fd5b506102586004803603810190610253919061268c565b61086e565b005b34801561026657600080fd5b50610281600480360381019061027c9190612781565b610be5565b005b34801561028f57600080fd5b50610298610c05565b6040516102a591906126fa565b60405180910390f35b3480156102ba57600080fd5b506102d560048036038101906102d0919061268c565b610c2f565b6040516102e291906126fa565b60405180910390f35b3480156102f757600080fd5b50610300610ce0565b60405161030d9190612833565b60405180910390f35b34801561032257600080fd5b5061033d6004803603810190610338919061284e565b610d06565b60405161034a919061288a565b60405180910390f35b34801561035f57600080fd5b50610368610dbd565b6040516103759190612634565b60405180910390f35b34801561038a57600080fd5b50610393610e4f565b6040516103a091906129e9565b60405180910390f35b3480156103b557600080fd5b506103d060048036038101906103cb9190612a0b565b61108d565b005b3480156103de57600080fd5b506103f960048036038101906103f49190612a77565b611178565b005b34801561040757600080fd5b50610422600480360381019061041d919061268c565b61118e565b604051610433959493929190612ab7565b60405180910390f35b34801561044857600080fd5b506104516111f1565b60405161045e91906129e9565b60405180910390f35b34801561047357600080fd5b5061048e60048036038101906104899190612c3f565b611457565b005b34801561049c57600080fd5b506104b760048036038101906104b2919061268c565b6114b9565b6040516104c49190612634565b60405180910390f35b3480156104d957600080fd5b506104f460048036038101906104ef9190612cc2565b611521565b6040516105019190612589565b60405180910390f35b610524600480360381019061051f919061268c565b6115b5565b005b34801561053257600080fd5b5061053b6117dc565b005b60007f80ac58cd000000000000000000000000000000000000000000000000000000007bffffffffffffffffffffffffffffffffffffffffffffffffffffffff1916827bffffffffffffffffffffffffffffffffffffffffffffffffffffffff1916148061060857507f5b5e139f000000000000000000000000000000000000000000000000000000007bffffffffffffffffffffffffffffffffffffffffffffffffffffffff1916827bffffffffffffffffffffffffffffffffffffffffffffffffffffffff1916145b806106185750610617826118e5565b5b9050919050565b60606000805461062e90612d31565b80601f016020809104026020016040519081016040528092919081815260200182805461065a90612d31565b80156106a75780601f1061067c576101008083540402835291602001916106a7565b820191906000526020600020905b81548152906001019060200180831161068a57829003601f168201915b5050505050905090565b60006106bc8261194f565b6004600083815260200190815260200160002060009054906101000a900473ffffffffffffffffffffffffffffffffffffffff169050919050565b600061070282610c2f565b90508073ffffffffffffffffffffffffffffffffffffffff168373ffffffffffffffffffffffffffffffffffffffff1603610772576040517f08c379a000000000000000000000000000000000000000000000000000000000815260040161076990612dd4565b60405180910390fd5b8073ffffffffffffffffffffffffffffffffffffffff1661079161199a565b73ffffffffffffffffffffffffffffffffffffffff1614806107c057506107bf816107ba61199a565b611521565b5b6107ff576040517f08c379a00000000000000000000000000000000000000000000000000000000081526004016107f690612e66565b60405180910390fd5b61080983836119a2565b505050565b61081f61081961199a565b82611a5b565b61085e576040517f08c379a000000000000000000000000000000000000000000000000000000000815260040161085590612ef8565b60405180910390fd5b610869838383611af0565b505050565b60006008600083815260200190815260200160002090508060040160009054906101000a900460ff166108d6576040517f08c379a00000000000000000000000000000000000000000000000000000000081526004016108cd90612f64565b60405180910390fd5b600a81600201546108e79190612fb3565b600960009054906101000a900473ffffffffffffffffffffffffffffffffffffffff1673ffffffffffffffffffffffffffffffffffffffff166370a08231336040518263ffffffff1660e01b815260040161094291906126fa565b602060405180830381865afa15801561095f573d6000803e3d6000fd5b505050506040513d601f19601f82011682018060405250810190610983919061300a565b10156109c4576040517f08c379a00000000000000000000000000000000000000000000000000000000081526004016109bb90613083565b60405180910390fd5b600060646103b683600201546109da9190612fb3565b6109e491906130d2565b9050600081600a84600201546109fa9190612fb3565b610a049190613103565b905060008360010160009054906101000a900473ffffffffffffffffffffffffffffffffffffffff169050338460010160006101000a81548173ffffffffffffffffffffffffffffffffffffffff021916908373ffffffffffffffffffffffffffffffffffffffff16021790555060008460040160006101000a81548160ff021916908315150217905550610a9a813387611af0565b600960009054906101000a900473ffffffffffffffffffffffffffffffffffffffff1673ffffffffffffffffffffffffffffffffffffffff1663eb8571c83383866040518463ffffffff1660e01b8152600401610af993929190613137565b600060405180830381600087803b158015610b1357600080fd5b505af1158015610b27573d6000803e3d6000fd5b50505050600960009054906101000a900473ffffffffffffffffffffffffffffffffffffffff1673ffffffffffffffffffffffffffffffffffffffff1663eb8571c833600760009054906101000a900473ffffffffffffffffffffffffffffffffffffffff16856040518463ffffffff1660e01b8152600401610bac93929190613137565b600060405180830381600087803b158015610bc657600080fd5b505af1158015610bda573d6000803e3d6000fd5b505050505050505050565b610c0083838360405180602001604052806000815250611457565b505050565b6000600760009054906101000a900473ffffffffffffffffffffffffffffffffffffffff16905090565b6000806002600084815260200190815260200160002060009054906101000a900473ffffffffffffffffffffffffffffffffffffffff169050600073ffffffffffffffffffffffffffffffffffffffff168173ffffffffffffffffffffffffffffffffffffffff1603610cd7576040517f08c379a0000000000000000000000000000000000000000000000000000000008152600401610cce906131ba565b60405180910390fd5b80915050919050565b600960009054906101000a900473ffffffffffffffffffffffffffffffffffffffff1681565b60008073ffffffffffffffffffffffffffffffffffffffff168273ffffffffffffffffffffffffffffffffffffffff1603610d76576040517f08c379a0000000000000000000000000000000000000000000000000000000008152600401610d6d9061324c565b60405180910390fd5b600360008373ffffffffffffffffffffffffffffffffffffffff1673ffffffffffffffffffffffffffffffffffffffff168152602001908152602001600020549050919050565b606060018054610dcc90612d31565b80601f0160208091040260200160405190810160405280929190818152602001828054610df890612d31565b8015610e455780601f10610e1a57610100808354040283529160200191610e45565b820191906000526020600020905b815481529060010190602001808311610e2857829003601f168201915b5050505050905090565b60606000600654905060008167ffffffffffffffff811115610e7457610e73612b14565b5b604051908082528060200260200182016040528015610ead57816020015b610e9a61248e565b815260200190600190039081610e925790505b5090506000805b83811015610fd2576008600082815260200190815260200160002060040160009054906101000a900460ff1615610fbf57600860008281526020019081526020016000206040518060a0016040529081600082015481526020016001820160009054906101000a900473ffffffffffffffffffffffffffffffffffffffff1673ffffffffffffffffffffffffffffffffffffffff1673ffffffffffffffffffffffffffffffffffffffff16815260200160028201548152602001600382015481526020016004820160009054906101000a900460ff161515151581525050838381518110610fa557610fa461326c565b5b60200260200101819052508180610fbb9061329b565b9250505b8080610fca9061329b565b915050610eb4565b5060008167ffffffffffffffff811115610fef57610fee612b14565b5b60405190808252806020026020018201604052801561102857816020015b61101561248e565b81526020019060019003908161100d5790505b50905060005b82811015611082578381815181106110495761104861326c565b5b60200260200101518282815181106110645761106361326c565b5b6020026020010181905250808061107a9061329b565b91505061102e565b508094505050505090565b3373ffffffffffffffffffffffffffffffffffffffff166110ad83610c2f565b73ffffffffffffffffffffffffffffffffffffffff1614611103576040517f08c379a00000000000000000000000000000000000000000000000000000000081526004016110fa9061332f565b60405180910390fd5b60016008600084815260200190815260200160002060040160006101000a81548160ff021916908315150217905550806008600084815260200190815260200160002060020181905550600a8161115a9190612fb3565b60086000848152602001908152602001600020600301819055505050565b61118a61118361199a565b8383611d56565b5050565b60086020528060005260406000206000915090508060000154908060010160009054906101000a900473ffffffffffffffffffffffffffffffffffffffff16908060020154908060030154908060040160009054906101000a900460ff16905085565b6060600060065490506000805b82811015611291573373ffffffffffffffffffffffffffffffffffffffff166008600083815260200190815260200160002060010160009054906101000a900473ffffffffffffffffffffffffffffffffffffffff1673ffffffffffffffffffffffffffffffffffffffff160361127e57818061127a9061329b565b9250505b80806112899061329b565b9150506111fe565b5060008167ffffffffffffffff8111156112ae576112ad612b14565b5b6040519080825280602002602001820160405280156112e757816020015b6112d461248e565b8152602001906001900390816112cc5790505b5090506000805b8481101561144c573373ffffffffffffffffffffffffffffffffffffffff166008600083815260200190815260200160002060010160009054906101000a900473ffffffffffffffffffffffffffffffffffffffff1673ffffffffffffffffffffffffffffffffffffffff160361143957600860008281526020019081526020016000206040518060a0016040529081600082015481526020016001820160009054906101000a900473ffffffffffffffffffffffffffffffffffffffff1673ffffffffffffffffffffffffffffffffffffffff1673ffffffffffffffffffffffffffffffffffffffff16815260200160028201548152602001600382015481526020016004820160009054906101000a900460ff16151515158152505083838151811061141f5761141e61326c565b5b602002602001018190525081806114359061329b565b9250505b80806114449061329b565b9150506112ee565b508194505050505090565b61146861146261199a565b83611a5b565b6114a7576040517f08c379a000000000000000000000000000000000000000000000000000000000815260040161149e90612ef8565b60405180910390fd5b6114b384848484611ec2565b50505050565b60606114c48261194f565b60006114ce611f1e565b905060008151116114ee5760405180602001604052806000815250611519565b806114f884611f35565b60405160200161150992919061338b565b6040516020818303038152906040525b915050919050565b6000600560008473ffffffffffffffffffffffffffffffffffffffff1673ffffffffffffffffffffffffffffffffffffffff16815260200190815260200160002060008373ffffffffffffffffffffffffffffffffffffffff1673ffffffffffffffffffffffffffffffffffffffff16815260200190815260200160002060009054906101000a900460ff16905092915050565b60006008600083815260200190815260200160002090508060040160009054906101000a900460ff1661161d576040517f08c379a000000000000000000000000000000000000000000000000000000000815260040161161490612f64565b60405180910390fd5b8060020154341015611664576040517f08c379a000000000000000000000000000000000000000000000000000000000815260040161165b90613421565b60405180910390fd5b60006064605f346116759190612fb3565b61167f91906130d2565b90506000813461168f9190613103565b905060008360010160009054906101000a900473ffffffffffffffffffffffffffffffffffffffff169050338460010160006101000a81548173ffffffffffffffffffffffffffffffffffffffff021916908373ffffffffffffffffffffffffffffffffffffffff16021790555060008460040160006101000a81548160ff021916908315150217905550611725813387611af0565b8073ffffffffffffffffffffffffffffffffffffffff166108fc849081150290604051600060405180830381858888f1935050505015801561176b573d6000803e3d6000fd5b50600760009054906101000a900473ffffffffffffffffffffffffffffffffffffffff1673ffffffffffffffffffffffffffffffffffffffff166108fc839081150290604051600060405180830381858888f193505050501580156117d4573d6000803e3d6000fd5b505050505050565b600060065490506117ed3382612095565b6040518060a001604052808281526020013373ffffffffffffffffffffffffffffffffffffffff168152602001600081526020016000815260200160001515815250600860008381526020019081526020016000206000820151816000015560208201518160010160006101000a81548173ffffffffffffffffffffffffffffffffffffffff021916908373ffffffffffffffffffffffffffffffffffffffff160217905550604082015181600201556060820151816003015560808201518160040160006101000a81548160ff021916908315150217905550905050600660008154809291906118dd9061329b565b919050555050565b60007f01ffc9a7000000000000000000000000000000000000000000000000000000007bffffffffffffffffffffffffffffffffffffffffffffffffffffffff1916827bffffffffffffffffffffffffffffffffffffffffffffffffffffffff1916149050919050565b6119588161226e565b611997576040517f08c379a000000000000000000000000000000000000000000000000000000000815260040161198e906131ba565b60405180910390fd5b50565b600033905090565b816004600083815260200190815260200160002060006101000a81548173ffffffffffffffffffffffffffffffffffffffff021916908373ffffffffffffffffffffffffffffffffffffffff160217905550808273ffffffffffffffffffffffffffffffffffffffff16611a1583610c2f565b73ffffffffffffffffffffffffffffffffffffffff167f8c5be1e5ebec7d5bd14f71427d1e84f3dd0314c0f7b2291e5b200ac8c7c3b92560405160405180910390a45050565b600080611a6783610c2f565b90508073ffffffffffffffffffffffffffffffffffffffff168473ffffffffffffffffffffffffffffffffffffffff161480611aa95750611aa88185611521565b5b80611ae757508373ffffffffffffffffffffffffffffffffffffffff16611acf846106b1565b73ffffffffffffffffffffffffffffffffffffffff16145b91505092915050565b8273ffffffffffffffffffffffffffffffffffffffff16611b1082610c2f565b73ffffffffffffffffffffffffffffffffffffffff1614611b66576040517f08c379a0000000000000000000000000000000000000000000000000000000008152600401611b5d906134b3565b60405180910390fd5b600073ffffffffffffffffffffffffffffffffffffffff168273ffffffffffffffffffffffffffffffffffffffff1603611bd5576040517f08c379a0000000000000000000000000000000000000000000000000000000008152600401611bcc90613545565b60405180910390fd5b611be08383836122da565b611beb6000826119a2565b6001600360008573ffffffffffffffffffffffffffffffffffffffff1673ffffffffffffffffffffffffffffffffffffffff1681526020019081526020016000206000828254611c3b9190613103565b925050819055506001600360008473ffffffffffffffffffffffffffffffffffffffff1673ffffffffffffffffffffffffffffffffffffffff1681526020019081526020016000206000828254611c929190613565565b92505081905550816002600083815260200190815260200160002060006101000a81548173ffffffffffffffffffffffffffffffffffffffff021916908373ffffffffffffffffffffffffffffffffffffffff160217905550808273ffffffffffffffffffffffffffffffffffffffff168473ffffffffffffffffffffffffffffffffffffffff167fddf252ad1be2c89b69c2b068fc378daa952ba7f163c4a11628f55a4df523b3ef60405160405180910390a4611d518383836122df565b505050565b8173ffffffffffffffffffffffffffffffffffffffff168373ffffffffffffffffffffffffffffffffffffffff1603611dc4576040517f08c379a0000000000000000000000000000000000000000000000000000000008152600401611dbb906135e5565b60405180910390fd5b80600560008573ffffffffffffffffffffffffffffffffffffffff1673ffffffffffffffffffffffffffffffffffffffff16815260200190815260200160002060008473ffffffffffffffffffffffffffffffffffffffff1673ffffffffffffffffffffffffffffffffffffffff16815260200190815260200160002060006101000a81548160ff0219169083151502179055508173ffffffffffffffffffffffffffffffffffffffff168373ffffffffffffffffffffffffffffffffffffffff167f17307eab39ab6107e8899845ad3d59bd9653f200f220920489ca2b5937696c3183604051611eb59190612589565b60405180910390a3505050565b611ecd848484611af0565b611ed9848484846122e4565b611f18576040517f08c379a0000000000000000000000000000000000000000000000000000000008152600401611f0f90613677565b60405180910390fd5b50505050565b606060405180602001604052806000815250905090565b606060008203611f7c576040518060400160405280600181526020017f30000000000000000000000000000000000000000000000000000000000000008152509050612090565b600082905060005b60008214611fae578080611f979061329b565b915050600a82611fa791906130d2565b9150611f84565b60008167ffffffffffffffff811115611fca57611fc9612b14565b5b6040519080825280601f01601f191660200182016040528015611ffc5781602001600182028036833780820191505090505b5090505b60008514612089576001826120159190613103565b9150600a856120249190613697565b60306120309190613565565b60f81b8183815181106120465761204561326c565b5b60200101907effffffffffffffffffffffffffffffffffffffffffffffffffffffffffffff1916908160001a905350600a8561208291906130d2565b9450612000565b8093505050505b919050565b600073ffffffffffffffffffffffffffffffffffffffff168273ffffffffffffffffffffffffffffffffffffffff1603612104576040517f08c379a00000000000000000000000000000000000000000000000000000000081526004016120fb90613714565b60405180910390fd5b61210d8161226e565b1561214d576040517f08c379a000000000000000000000000000000000000000000000000000000000815260040161214490613780565b60405180910390fd5b612159600083836122da565b6001600360008473ffffffffffffffffffffffffffffffffffffffff1673ffffffffffffffffffffffffffffffffffffffff16815260200190815260200160002060008282546121a99190613565565b92505081905550816002600083815260200190815260200160002060006101000a81548173ffffffffffffffffffffffffffffffffffffffff021916908373ffffffffffffffffffffffffffffffffffffffff160217905550808273ffffffffffffffffffffffffffffffffffffffff16600073ffffffffffffffffffffffffffffffffffffffff167fddf252ad1be2c89b69c2b068fc378daa952ba7f163c4a11628f55a4df523b3ef60405160405180910390a461226a600083836122df565b5050565b60008073ffffffffffffffffffffffffffffffffffffffff166002600084815260200190815260200160002060009054906101000a900473ffffffffffffffffffffffffffffffffffffffff1673ffffffffffffffffffffffffffffffffffffffff1614159050919050565b505050565b505050565b60006123058473ffffffffffffffffffffffffffffffffffffffff1661246b565b1561245e578373ffffffffffffffffffffffffffffffffffffffff1663150b7a0261232e61199a565b8786866040518563ffffffff1660e01b815260040161235094939291906137f5565b6020604051808303816000875af192505050801561238c57506040513d601f19601f820116820180604052508101906123899190613856565b60015b61240e573d80600081146123bc576040519150601f19603f3d011682016040523d82523d6000602084013e6123c1565b606091505b506000815103612406576040517f08c379a00000000000000000000000000000000000000000000000000000000081526004016123fd90613677565b60405180910390fd5b805181602001fd5b63150b7a0260e01b7bffffffffffffffffffffffffffffffffffffffffffffffffffffffff1916817bffffffffffffffffffffffffffffffffffffffffffffffffffffffff191614915050612463565b600190505b949350505050565b6000808273ffffffffffffffffffffffffffffffffffffffff163b119050919050565b6040518060a0016040528060008152602001600073ffffffffffffffffffffffffffffffffffffffff16815260200160008152602001600081526020016000151581525090565b6000604051905090565b600080fd5b600080fd5b60007fffffffff0000000000000000000000000000000000000000000000000000000082169050919050565b61251e816124e9565b811461252957600080fd5b50565b60008135905061253b81612515565b92915050565b600060208284031215612557576125566124df565b5b60006125658482850161252c565b91505092915050565b60008115159050919050565b6125838161256e565b82525050565b600060208201905061259e600083018461257a565b92915050565b600081519050919050565b600082825260208201905092915050565b60005b838110156125de5780820151818401526020810190506125c3565b60008484015250505050565b6000601f19601f8301169050919050565b6000612606826125a4565b61261081856125af565b93506126208185602086016125c0565b612629816125ea565b840191505092915050565b6000602082019050818103600083015261264e81846125fb565b905092915050565b6000819050919050565b61266981612656565b811461267457600080fd5b50565b60008135905061268681612660565b92915050565b6000602082840312156126a2576126a16124df565b5b60006126b084828501612677565b91505092915050565b600073ffffffffffffffffffffffffffffffffffffffff82169050919050565b60006126e4826126b9565b9050919050565b6126f4816126d9565b82525050565b600060208201905061270f60008301846126eb565b92915050565b61271e816126d9565b811461272957600080fd5b50565b60008135905061273b81612715565b92915050565b60008060408385031215612758576127576124df565b5b60006127668582860161272c565b925050602061277785828601612677565b9150509250929050565b60008060006060848603121561279a576127996124df565b5b60006127a88682870161272c565b93505060206127b98682870161272c565b92505060406127ca86828701612677565b9150509250925092565b6000819050919050565b60006127f96127f46127ef846126b9565b6127d4565b6126b9565b9050919050565b600061280b826127de565b9050919050565b600061281d82612800565b9050919050565b61282d81612812565b82525050565b60006020820190506128486000830184612824565b92915050565b600060208284031215612864576128636124df565b5b60006128728482850161272c565b91505092915050565b61288481612656565b82525050565b600060208201905061289f600083018461287b565b92915050565b600081519050919050565b600082825260208201905092915050565b6000819050602082019050919050565b6128da81612656565b82525050565b6128e9816126d9565b82525050565b6128f88161256e565b82525050565b60a08201600082015161291460008501826128d1565b50602082015161292760208501826128e0565b50604082015161293a60408501826128d1565b50606082015161294d60608501826128d1565b50608082015161296060808501826128ef565b50505050565b600061297283836128fe565b60a08301905092915050565b6000602082019050919050565b6000612996826128a5565b6129a081856128b0565b93506129ab836128c1565b8060005b838110156129dc5781516129c38882612966565b97506129ce8361297e565b9250506001810190506129af565b5085935050505092915050565b60006020820190508181036000830152612a03818461298b565b905092915050565b60008060408385031215612a2257612a216124df565b5b6000612a3085828601612677565b9250506020612a4185828601612677565b9150509250929050565b612a548161256e565b8114612a5f57600080fd5b50565b600081359050612a7181612a4b565b92915050565b60008060408385031215612a8e57612a8d6124df565b5b6000612a9c8582860161272c565b9250506020612aad85828601612a62565b9150509250929050565b600060a082019050612acc600083018861287b565b612ad960208301876126eb565b612ae6604083018661287b565b612af3606083018561287b565b612b00608083018461257a565b9695505050505050565b600080fd5b600080fd5b7f4e487b7100000000000000000000000000000000000000000000000000000000600052604160045260246000fd5b612b4c826125ea565b810181811067ffffffffffffffff82111715612b6b57612b6a612b14565b5b80604052505050565b6000612b7e6124d5565b9050612b8a8282612b43565b919050565b600067ffffffffffffffff821115612baa57612ba9612b14565b5b612bb3826125ea565b9050602081019050919050565b82818337600083830152505050565b6000612be2612bdd84612b8f565b612b74565b905082815260208101848484011115612bfe57612bfd612b0f565b5b612c09848285612bc0565b509392505050565b600082601f830112612c2657612c25612b0a565b5b8135612c36848260208601612bcf565b91505092915050565b60008060008060808587031215612c5957612c586124df565b5b6000612c678782880161272c565b9450506020612c788782880161272c565b9350506040612c8987828801612677565b925050606085013567ffffffffffffffff811115612caa57612ca96124e4565b5b612cb687828801612c11565b91505092959194509250565b60008060408385031215612cd957612cd86124df565b5b6000612ce78582860161272c565b9250506020612cf88582860161272c565b9150509250929050565b7f4e487b7100000000000000000000000000000000000000000000000000000000600052602260045260246000fd5b60006002820490506001821680612d4957607f821691505b602082108103612d5c57612d5b612d02565b5b50919050565b7f4552433732313a20617070726f76616c20746f2063757272656e74206f776e6560008201527f7200000000000000000000000000000000000000000000000000000000000000602082015250565b6000612dbe6021836125af565b9150612dc982612d62565b604082019050919050565b60006020820190508181036000830152612ded81612db1565b9050919050565b7f4552433732313a20617070726f76652063616c6c6572206973206e6f7420746f60008201527f6b656e206f776e6572206e6f7220617070726f76656420666f7220616c6c0000602082015250565b6000612e50603e836125af565b9150612e5b82612df4565b604082019050919050565b60006020820190508181036000830152612e7f81612e43565b9050919050565b7f4552433732313a2063616c6c6572206973206e6f7420746f6b656e206f776e6560008201527f72206e6f7220617070726f766564000000000000000000000000000000000000602082015250565b6000612ee2602e836125af565b9150612eed82612e86565b604082019050919050565b60006020820190508181036000830152612f1181612ed5565b9050919050565b7f486f757365206973206e6f7420666f722073616c650000000000000000000000600082015250565b6000612f4e6015836125af565b9150612f5982612f18565b602082019050919050565b60006020820190508181036000830152612f7d81612f41565b9050919050565b7f4e487b7100000000000000000000000000000000000000000000000000000000600052601160045260246000fd5b6000612fbe82612656565b9150612fc983612656565b9250828202612fd781612656565b91508282048414831517612fee57612fed612f84565b5b5092915050565b60008151905061300481612660565b92915050565b6000602082840312156130205761301f6124df565b5b600061302e84828501612ff5565b91505092915050565b7f496e73756666696369656e742045524332302062616c616e6365000000000000600082015250565b600061306d601a836125af565b915061307882613037565b602082019050919050565b6000602082019050818103600083015261309c81613060565b9050919050565b7f4e487b7100000000000000000000000000000000000000000000000000000000600052601260045260246000fd5b60006130dd82612656565b91506130e883612656565b9250826130f8576130f76130a3565b5b828204905092915050565b600061310e82612656565b915061311983612656565b925082820390508181111561313157613130612f84565b5b92915050565b600060608201905061314c60008301866126eb565b61315960208301856126eb565b613166604083018461287b565b949350505050565b7f4552433732313a20696e76616c696420746f6b656e2049440000000000000000600082015250565b60006131a46018836125af565b91506131af8261316e565b602082019050919050565b600060208201905081810360008301526131d381613197565b9050919050565b7f4552433732313a2061646472657373207a65726f206973206e6f74206120766160008201527f6c6964206f776e65720000000000000000000000000000000000000000000000602082015250565b60006132366029836125af565b9150613241826131da565b604082019050919050565b6000602082019050818103600083015261326581613229565b9050919050565b7f4e487b7100000000000000000000000000000000000000000000000000000000600052603260045260246000fd5b60006132a682612656565b91507fffffffffffffffffffffffffffffffffffffffffffffffffffffffffffffffff82036132d8576132d7612f84565b5b600182019050919050565b7f596f7520646f206e6f74206f776e207468697320686f75736500000000000000600082015250565b60006133196019836125af565b9150613324826132e3565b602082019050919050565b600060208201905081810360008301526133488161330c565b9050919050565b600081905092915050565b6000613365826125a4565b61336f818561334f565b935061337f8185602086016125c0565b80840191505092915050565b6000613397828561335a565b91506133a3828461335a565b91508190509392505050565b7f496e73756666696369656e742066756e647320746f206275792074686973206860008201527f6f75736500000000000000000000000000000000000000000000000000000000602082015250565b600061340b6024836125af565b9150613416826133af565b604082019050919050565b6000602082019050818103600083015261343a816133fe565b9050919050565b7f4552433732313a207472616e736665722066726f6d20696e636f72726563742060008201527f6f776e6572000000000000000000000000000000000000000000000000000000602082015250565b600061349d6025836125af565b91506134a882613441565b604082019050919050565b600060208201905081810360008301526134cc81613490565b9050919050565b7f4552433732313a207472616e7366657220746f20746865207a65726f2061646460008201527f7265737300000000000000000000000000000000000000000000000000000000602082015250565b600061352f6024836125af565b915061353a826134d3565b604082019050919050565b6000602082019050818103600083015261355e81613522565b9050919050565b600061357082612656565b915061357b83612656565b925082820190508082111561359357613592612f84565b5b92915050565b7f4552433732313a20617070726f766520746f2063616c6c657200000000000000600082015250565b60006135cf6019836125af565b91506135da82613599565b602082019050919050565b600060208201905081810360008301526135fe816135c2565b9050919050565b7f4552433732313a207472616e7366657220746f206e6f6e20455243373231526560008201527f63656976657220696d706c656d656e7465720000000000000000000000000000602082015250565b60006136616032836125af565b915061366c82613605565b604082019050919050565b6000602082019050818103600083015261369081613654565b9050919050565b60006136a282612656565b91506136ad83612656565b9250826136bd576136bc6130a3565b5b828206905092915050565b7f4552433732313a206d696e7420746f20746865207a65726f2061646472657373600082015250565b60006136fe6020836125af565b9150613709826136c8565b602082019050919050565b6000602082019050818103600083015261372d816136f1565b9050919050565b7f4552433732313a20746f6b656e20616c7265616479206d696e74656400000000600082015250565b600061376a601c836125af565b915061377582613734565b602082019050919050565b600060208201905081810360008301526137998161375d565b9050919050565b600081519050919050565b600082825260208201905092915050565b60006137c7826137a0565b6137d181856137ab565b93506137e18185602086016125c0565b6137ea816125ea565b840191505092915050565b600060808201905061380a60008301876126eb565b61381760208301866126eb565b613824604083018561287b565b818103606083015261383681846137bc565b905095945050505050565b60008151905061385081612515565b92915050565b60006020828403121561386c5761386b6124df565b5b600061387a84828501613841565b9150509291505056fea2646970667358221220da4711843c396b021ff6f8bab360b8239d56874993bfaf3b11ec79c2020727d264736f6c634300081400336080604052600a600755670de0b6b3a7640000600855683635c9adc5dea000006009553480156200002f57600080fd5b5060405162001f7638038062001f76833981810160405281019062000055919062000259565b8181816003908162000068919062000529565b5080600490816200007a919062000529565b50505033600660006101000a81548173ffffffffffffffffffffffffffffffffffffffff021916908373ffffffffffffffffffffffffffffffffffffffff160217905550505062000610565b6000604051905090565b600080fd5b600080fd5b600080fd5b600080fd5b6000601f19601f8301169050919050565b7f4e487b7100000000000000000000000000000000000000000000000000000000600052604160045260246000fd5b6200012f82620000e4565b810181811067ffffffffffffffff82111715620001515762000150620000f5565b5b80604052505050565b600062000166620000c6565b905062000174828262000124565b919050565b600067ffffffffffffffff821115620001975762000196620000f5565b5b620001a282620000e4565b9050602081019050919050565b60005b83811015620001cf578082015181840152602081019050620001b2565b60008484015250505050565b6000620001f2620001ec8462000179565b6200015a565b905082815260208101848484011115620002115762000210620000df565b5b6200021e848285620001af565b509392505050565b600082601f8301126200023e576200023d620000da565b5b815162000250848260208601620001db565b91505092915050565b60008060408385031215620002735762000272620000d0565b5b600083015167ffffffffffffffff811115620002945762000293620000d5565b5b620002a28582860162000226565b925050602083015167ffffffffffffffff811115620002c657620002c5620000d5565b5b620002d48582860162000226565b9150509250929050565b600081519050919050565b7f4e487b7100000000000000000000000000000000000000000000000000000000600052602260045260246000fd5b600060028204905060018216806200033157607f821691505b602082108103620003475762000346620002e9565b5b50919050565b60008190508160005260206000209050919050565b60006020601f8301049050919050565b600082821b905092915050565b600060088302620003b17fffffffffffffffffffffffffffffffffffffffffffffffffffffffffffffffff8262000372565b620003bd868362000372565b95508019841693508086168417925050509392505050565b6000819050919050565b6000819050919050565b60006200040a62000404620003fe84620003d5565b620003df565b620003d5565b9050919050565b6000819050919050565b6200042683620003e9565b6200043e620004358262000411565b8484546200037f565b825550505050565b600090565b6200045562000446565b620004628184846200041b565b505050565b5b818110156200048a576200047e6000826200044b565b60018101905062000468565b5050565b601f821115620004d957620004a3816200034d565b620004ae8462000362565b81016020851015620004be578190505b620004d6620004cd8562000362565b83018262000467565b50505b505050565b600082821c905092915050565b6000620004fe60001984600802620004de565b1980831691505092915050565b6000620005198383620004eb565b9150826002028217905092915050565b6200053482620002de565b67ffffffffffffffff81111562000550576200054f620000f5565b5b6200055c825462000318565b620005698282856200048e565b600060209050601f831160018114620005a157600084156200058c578287015190505b6200059885826200050b565b86555062000608565b601f198416620005b1866200034d565b60005b82811015620005db57848901518255600182019150602085019450602081019050620005b4565b86831015620005fb5784890151620005f7601f891682620004eb565b8355505b6001600288020188555050505b505050505050565b61195680620006206000396000f3fe60806040526004361061010d5760003560e01c80637ffdf53e11610095578063a464c48711610064578063a464c4871461036d578063a9059cbb14610398578063d0febe4c146103d5578063dd62ed3e146103df578063eb8571c81461041c57610114565b80637ffdf53e146102d057806395d89b41146102fb5780639b80d68714610326578063a457c2d71461033057610114565b806323b872dd116100dc57806323b872dd146101d7578063313ce567146102145780633884d6351461023f578063395093511461025657806370a082311461029357610114565b806306fdde0314610119578063095ea7b31461014457806318160ddd146101815780631b8e94a1146101ac57610114565b3661011457005b600080fd5b34801561012557600080fd5b5061012e610445565b60405161013b919061101b565b60405180910390f35b34801561015057600080fd5b5061016b600480360381019061016691906110d6565b6104d7565b6040516101789190611131565b60405180910390f35b34801561018d57600080fd5b506101966104fa565b6040516101a3919061115b565b60405180910390f35b3480156101b857600080fd5b506101c1610504565b6040516101ce919061115b565b60405180910390f35b3480156101e357600080fd5b506101fe60048036038101906101f99190611176565b61050a565b60405161020b9190611131565b60405180910390f35b34801561022057600080fd5b50610229610539565b60405161023691906111e5565b60405180910390f35b34801561024b57600080fd5b50610254610542565b005b34801561026257600080fd5b5061027d600480360381019061027891906110d6565b610635565b60405161028a9190611131565b60405180910390f35b34801561029f57600080fd5b506102ba60048036038101906102b59190611200565b61066c565b6040516102c7919061115b565b60405180910390f35b3480156102dc57600080fd5b506102e56106b4565b6040516102f2919061115b565b60405180910390f35b34801561030757600080fd5b506103106106ba565b60405161031d919061101b565b60405180910390f35b61032e61074c565b005b34801561033c57600080fd5b50610357600480360381019061035291906110d6565b6107ae565b6040516103649190611131565b60405180910390f35b34801561037957600080fd5b50610382610825565b60405161038f919061115b565b60405180910390f35b3480156103a457600080fd5b506103bf60048036038101906103ba91906110d6565b61082b565b6040516103cc9190611131565b60405180910390f35b6103dd61084e565b005b3480156103eb57600080fd5b506104066004803603810190610401919061122d565b6108af565b604051610413919061115b565b60405180910390f35b34801561042857600080fd5b50610443600480360381019061043e9190611176565b610936565b005b6060600380546104549061129c565b80601f01602080910402602001604051908101604052809291908181526020018280546104809061129c565b80156104cd5780601f106104a2576101008083540402835291602001916104cd565b820191906000526020600020905b8154815290600101906020018083116104b057829003601f168201915b5050505050905090565b6000806104e2610946565b90506104ef81858561094e565b600191505092915050565b6000600254905090565b60085481565b600080610515610946565b9050610522858285610b17565b61052d858585610ba3565b60019150509392505050565b60006012905090565b600560003373ffffffffffffffffffffffffffffffffffffffff1673ffffffffffffffffffffffffffffffffffffffff16815260200190815260200160002060009054906101000a900460ff16156105cf576040517f08c379a00000000000000000000000000000000000000000000000000000000081526004016105c69061133f565b60405180910390fd5b6105db33600954610e22565b6001600560003373ffffffffffffffffffffffffffffffffffffffff1673ffffffffffffffffffffffffffffffffffffffff16815260200190815260200160002060006101000a81548160ff021916908315150217905550565b600080610640610946565b905061066181858561065285896108af565b61065c919061138e565b61094e565b600191505092915050565b60008060008373ffffffffffffffffffffffffffffffffffffffff1673ffffffffffffffffffffffffffffffffffffffff168152602001908152602001600020549050919050565b60075481565b6060600480546106c99061129c565b80601f01602080910402602001604051908101604052809291908181526020018280546106f59061129c565b80156107425780601f1061071757610100808354040283529160200191610742565b820191906000526020600020905b81548152906001019060200180831161072557829003601f168201915b5050505050905090565b6000341161078f576040517f08c379a00000000000000000000000000000000000000000000000000000000081526004016107869061140e565b60405180910390fd5b60006007543461079f919061142e565b90506107ab3382610e22565b50565b6000806107b9610946565b905060006107c782866108af565b90508381101561080c576040517f08c379a0000000000000000000000000000000000000000000000000000000008152600401610803906114e2565b60405180910390fd5b610819828686840361094e565b60019250505092915050565b60095481565b600080610836610946565b9050610843818585610ba3565b600191505092915050565b60003411610891576040517f08c379a00000000000000000000000000000000000000000000000000000000081526004016108889061154e565b60405180910390fd5b60006064346108a0919061142e565b90506108ac3382610e22565b50565b6000600160008473ffffffffffffffffffffffffffffffffffffffff1673ffffffffffffffffffffffffffffffffffffffff16815260200190815260200160002060008373ffffffffffffffffffffffffffffffffffffffff1673ffffffffffffffffffffffffffffffffffffffff16815260200190815260200160002054905092915050565b610941838383610ba3565b505050565b600033905090565b600073ffffffffffffffffffffffffffffffffffffffff168373ffffffffffffffffffffffffffffffffffffffff16036109bd576040517f08c379a00000000000000000000000000000000000000000000000000000000081526004016109b4906115e0565b60405180910390fd5b600073ffffffffffffffffffffffffffffffffffffffff168273ffffffffffffffffffffffffffffffffffffffff1603610a2c576040517f08c379a0000000000000000000000000000000000000000000000000000000008152600401610a2390611672565b60405180910390fd5b80600160008573ffffffffffffffffffffffffffffffffffffffff1673ffffffffffffffffffffffffffffffffffffffff16815260200190815260200160002060008473ffffffffffffffffffffffffffffffffffffffff1673ffffffffffffffffffffffffffffffffffffffff168152602001908152602001600020819055508173ffffffffffffffffffffffffffffffffffffffff168373ffffffffffffffffffffffffffffffffffffffff167f8c5be1e5ebec7d5bd14f71427d1e84f3dd0314c0f7b2291e5b200ac8c7c3b92583604051610b0a919061115b565b60405180910390a3505050565b6000610b2384846108af565b90507fffffffffffffffffffffffffffffffffffffffffffffffffffffffffffffffff8114610b9d5781811015610b8f576040517f08c379a0000000000000000000000000000000000000000000000000000000008152600401610b86906116de565b60405180910390fd5b610b9c848484840361094e565b5b50505050565b600073ffffffffffffffffffffffffffffffffffffffff168373ffffffffffffffffffffffffffffffffffffffff1603610c12576040517f08c379a0000000000000000000000000000000000000000000000000000000008152600401610c0990611770565b60405180910390fd5b600073ffffffffffffffffffffffffffffffffffffffff168273ffffffffffffffffffffffffffffffffffffffff1603610c81576040517f08c379a0000000000000000000000000000000000000000000000000000000008152600401610c7890611802565b60405180910390fd5b610c8c838383610f81565b60008060008573ffffffffffffffffffffffffffffffffffffffff1673ffffffffffffffffffffffffffffffffffffffff16815260200190815260200160002054905081811015610d12576040517f08c379a0000000000000000000000000000000000000000000000000000000008152600401610d0990611894565b60405180910390fd5b8181036000808673ffffffffffffffffffffffffffffffffffffffff1673ffffffffffffffffffffffffffffffffffffffff16815260200190815260200160002081905550816000808573ffffffffffffffffffffffffffffffffffffffff1673ffffffffffffffffffffffffffffffffffffffff1681526020019081526020016000206000828254610da5919061138e565b925050819055508273ffffffffffffffffffffffffffffffffffffffff168473ffffffffffffffffffffffffffffffffffffffff167fddf252ad1be2c89b69c2b068fc378daa952ba7f163c4a11628f55a4df523b3ef84604051610e09919061115b565b60405180910390a3610e1c848484610f86565b50505050565b600073ffffffffffffffffffffffffffffffffffffffff168273ffffffffffffffffffffffffffffffffffffffff1603610e91576040517f08c379a0000000000000000000000000000000000000000000000000000000008152600401610e8890611900565b60405180910390fd5b610e9d60008383610f81565b8060026000828254610eaf919061138e565b92505081905550806000808473ffffffffffffffffffffffffffffffffffffffff1673ffffffffffffffffffffffffffffffffffffffff1681526020019081526020016000206000828254610f04919061138e565b925050819055508173ffffffffffffffffffffffffffffffffffffffff16600073ffffffffffffffffffffffffffffffffffffffff167fddf252ad1be2c89b69c2b068fc378daa952ba7f163c4a11628f55a4df523b3ef83604051610f69919061115b565b60405180910390a3610f7d60008383610f86565b5050565b505050565b505050565b600081519050919050565b600082825260208201905092915050565b60005b83811015610fc5578082015181840152602081019050610faa565b60008484015250505050565b6000601f19601f8301169050919050565b6000610fed82610f8b565b610ff78185610f96565b9350611007818560208601610fa7565b61101081610fd1565b840191505092915050565b600060208201905081810360008301526110358184610fe2565b905092915050565b600080fd5b600073ffffffffffffffffffffffffffffffffffffffff82169050919050565b600061106d82611042565b9050919050565b61107d81611062565b811461108857600080fd5b50565b60008135905061109a81611074565b92915050565b6000819050919050565b6110b3816110a0565b81146110be57600080fd5b50565b6000813590506110d0816110aa565b92915050565b600080604083850312156110ed576110ec61103d565b5b60006110fb8582860161108b565b925050602061110c858286016110c1565b9150509250929050565b60008115159050919050565b61112b81611116565b82525050565b60006020820190506111466000830184611122565b92915050565b611155816110a0565b82525050565b6000602082019050611170600083018461114c565b92915050565b60008060006060848603121561118f5761118e61103d565b5b600061119d8682870161108b565b93505060206111ae8682870161108b565b92505060406111bf868287016110c1565b9150509250925092565b600060ff82169050919050565b6111df816111c9565b82525050565b60006020820190506111fa60008301846111d6565b92915050565b6000602082840312156112165761121561103d565b5b60006112248482850161108b565b91505092915050565b600080604083850312156112445761124361103d565b5b60006112528582860161108b565b92505060206112638582860161108b565b9150509250929050565b7f4e487b7100000000000000000000000000000000000000000000000000000000600052602260045260246000fd5b600060028204905060018216806112b457607f821691505b6020821081036112c7576112c661126d565b5b50919050565b7f5468697320757365722068617320636c61696d65642061697264726f7020616c60008201527f7265616479000000000000000000000000000000000000000000000000000000602082015250565b6000611329602583610f96565b9150611334826112cd565b604082019050919050565b600060208201905081810360008301526113588161131c565b9050919050565b7f4e487b7100000000000000000000000000000000000000000000000000000000600052601160045260246000fd5b6000611399826110a0565b91506113a4836110a0565b92508282019050808211156113bc576113bb61135f565b5b92915050565b7f4d7573742073656e642045544820746f20636f6e766572740000000000000000600082015250565b60006113f8601883610f96565b9150611403826113c2565b602082019050919050565b60006020820190508181036000830152611427816113eb565b9050919050565b6000611439826110a0565b9150611444836110a0565b9250828202611452816110a0565b915082820484148315176114695761146861135f565b5b5092915050565b7f45524332303a2064656372656173656420616c6c6f77616e63652062656c6f7760008201527f207a65726f000000000000000000000000000000000000000000000000000000602082015250565b60006114cc602583610f96565b91506114d782611470565b604082019050919050565b600060208201905081810360008301526114fb816114bf565b9050919050565b7f4d7573742073656e6420457468657220746f2062757920746f6b656e73000000600082015250565b6000611538601d83610f96565b915061154382611502565b602082019050919050565b600060208201905081810360008301526115678161152b565b9050919050565b7f45524332303a20617070726f76652066726f6d20746865207a65726f2061646460008201527f7265737300000000000000000000000000000000000000000000000000000000602082015250565b60006115ca602483610f96565b91506115d58261156e565b604082019050919050565b600060208201905081810360008301526115f9816115bd565b9050919050565b7f45524332303a20617070726f766520746f20746865207a65726f20616464726560008201527f7373000000000000000000000000000000000000000000000000000000000000602082015250565b600061165c602283610f96565b915061166782611600565b604082019050919050565b6000602082019050818103600083015261168b8161164f565b9050919050565b7f45524332303a20696e73756666696369656e7420616c6c6f77616e6365000000600082015250565b60006116c8601d83610f96565b91506116d382611692565b602082019050919050565b600060208201905081810360008301526116f7816116bb565b9050919050565b7f45524332303a207472616e736665722066726f6d20746865207a65726f20616460008201527f6472657373000000000000000000000000000000000000000000000000000000602082015250565b600061175a602583610f96565b9150611765826116fe565b604082019050919050565b600060208201905081810360008301526117898161174d565b9050919050565b7f45524332303a207472616e7366657220746f20746865207a65726f206164647260008201527f6573730000000000000000000000000000000000000000000000000000000000602082015250565b60006117ec602383610f96565b91506117f782611790565b604082019050919050565b6000602082019050818103600083015261181b816117df565b9050919050565b7f45524332303a207472616e7366657220616d6f756e742065786365656473206260008201527f616c616e63650000000000000000000000000000000000000000000000000000602082015250565b600061187e602683610f96565b915061188982611822565b604082019050919050565b600060208201905081810360008301526118ad81611871565b9050919050565b7f45524332303a206d696e7420746f20746865207a65726f206164647265737300600082015250565b60006118ea601f83610f96565b91506118f5826118b4565b602082019050919050565b60006020820190508181036000830152611919816118dd565b905091905056fea2646970667358221220f773679fa875648e2e8fc32c3cdbc0b2b143f247dd8fce6227ef42aa68413c3264736f6c63430008140033","opcodes":"PUSH1 0x80 PUSH1 0x40 MSTORE CALLVALUE DUP1 ISZERO PUSH3 0x11 JUMPI PUSH1 0x0 DUP1 REVERT JUMPDEST POP PUSH1 0x40 MLOAD DUP1 PUSH1 0x40 ADD PUSH1 0x40 MSTORE DUP1 PUSH1 0x8 DUP2 MSTORE PUSH1 0x20 ADD PUSH32 0x486F7573654E4654000000000000000000000000000000000000000000000000 DUP2 MSTORE POP PUSH1 0x40 MLOAD DUP1 PUSH1 0x40 ADD PUSH1 0x40 MSTORE DUP1 PUSH1 0x4 DUP2 MSTORE PUSH1 0x20 ADD PUSH32 0x484E465400000000000000000000000000000000000000000000000000000000 DUP2 MSTORE POP DUP2 PUSH1 0x0 SWAP1 DUP2 PUSH3 0x8F SWAP2 SWAP1 PUSH3 0x3F2 JUMP JUMPDEST POP DUP1 PUSH1 0x1 SWAP1 DUP2 PUSH3 0xA1 SWAP2 SWAP1 PUSH3 0x3F2 JUMP JUMPDEST POP POP POP PUSH1 0x40 MLOAD PUSH3 0xB2 SWAP1 PUSH3 0x16A JUMP JUMPDEST PUSH3 0xBD SWAP1 PUSH3 0x58A JUMP JUMPDEST PUSH1 0x40 MLOAD DUP1 SWAP2 SUB SWAP1 PUSH1 0x0 CREATE DUP1 ISZERO DUP1 ISZERO PUSH3 0xDA JUMPI RETURNDATASIZE PUSH1 0x0 DUP1 RETURNDATACOPY RETURNDATASIZE PUSH1 0x0 REVERT JUMPDEST POP PUSH1 0x9 PUSH1 0x0 PUSH2 0x100 EXP DUP2 SLOAD DUP2 PUSH20 0xFFFFFFFFFFFFFFFFFFFFFFFFFFFFFFFFFFFFFFFF MUL NOT AND SWAP1 DUP4 PUSH20 0xFFFFFFFFFFFFFFFFFFFFFFFFFFFFFFFFFFFFFFFF AND MUL OR SWAP1 SSTORE POP PUSH1 0x0 PUSH1 0x6 DUP2 SWAP1 SSTORE POP CALLER PUSH1 0x7 PUSH1 0x0 PUSH2 0x100 EXP DUP2 SLOAD DUP2 PUSH20 0xFFFFFFFFFFFFFFFFFFFFFFFFFFFFFFFFFFFFFFFF MUL NOT AND SWAP1 DUP4 PUSH20 0xFFFFFFFFFFFFFFFFFFFFFFFFFFFFFFFFFFFFFFFF AND MUL OR SWAP1 SSTORE POP PUSH3 0x5C1 JUMP JUMPDEST PUSH2 0x1F76 DUP1 PUSH3 0x3E8A DUP4 CODECOPY ADD SWAP1 JUMP JUMPDEST PUSH1 0x0 DUP2 MLOAD SWAP1 POP SWAP2 SWAP1 POP JUMP JUMPDEST PUSH32 0x4E487B7100000000000000000000000000000000000000000000000000000000 PUSH1 0x0 MSTORE PUSH1 0x41 PUSH1 0x4 MSTORE PUSH1 0x24 PUSH1 0x0 REVERT JUMPDEST PUSH32 0x4E487B7100000000000000000000000000000000000000000000000000000000 PUSH1 0x0 MSTORE PUSH1 0x22 PUSH1 0x4 MSTORE PUSH1 0x24 PUSH1 0x0 REVERT JUMPDEST PUSH1 0x0 PUSH1 0x2 DUP3 DIV SWAP1 POP PUSH1 0x1 DUP3 AND DUP1 PUSH3 0x1FA JUMPI PUSH1 0x7F DUP3 AND SWAP2 POP JUMPDEST PUSH1 0x20 DUP3 LT DUP2 SUB PUSH3 0x210 JUMPI PUSH3 0x20F PUSH3 0x1B2 JUMP JUMPDEST JUMPDEST POP SWAP2 SWAP1 POP JUMP JUMPDEST PUSH1 0x0 DUP2 SWAP1 POP DUP2 PUSH1 0x0 MSTORE PUSH1 0x20 PUSH1 0x0 KECCAK256 SWAP1 POP SWAP2 SWAP1 POP JUMP JUMPDEST PUSH1 0x0 PUSH1 0x20 PUSH1 0x1F DUP4 ADD DIV SWAP1 POP SWAP2 SWAP1 POP JUMP JUMPDEST PUSH1 0x0 DUP3 DUP3 SHL SWAP1 POP SWAP3 SWAP2 POP POP JUMP JUMPDEST PUSH1 0x0 PUSH1 0x8 DUP4 MUL PUSH3 0x27A PUSH32 0xFFFFFFFFFFFFFFFFFFFFFFFFFFFFFFFFFFFFFFFFFFFFFFFFFFFFFFFFFFFFFFFF DUP3 PUSH3 0x23B JUMP JUMPDEST PUSH3 0x286 DUP7 DUP4 PUSH3 0x23B JUMP JUMPDEST SWAP6 POP DUP1 NOT DUP5 AND SWAP4 POP DUP1 DUP7 AND DUP5 OR SWAP3 POP POP POP SWAP4 SWAP3 POP POP POP JUMP JUMPDEST PUSH1 0x0 DUP2 SWAP1 POP SWAP2 SWAP1 POP JUMP JUMPDEST PUSH1 0x0 DUP2 SWAP1 POP SWAP2 SWAP1 POP JUMP JUMPDEST PUSH1 0x0 PUSH3 0x2D3 PUSH3 0x2CD PUSH3 0x2C7 DUP5 PUSH3 0x29E JUMP JUMPDEST PUSH3 0x2A8 JUMP JUMPDEST PUSH3 0x29E JUMP JUMPDEST SWAP1 POP SWAP2 SWAP1 POP JUMP JUMPDEST PUSH1 0x0 DUP2 SWAP1 POP SWAP2 SWAP1 POP JUMP JUMPDEST PUSH3 0x2EF DUP4 PUSH3 0x2B2 JUMP JUMPDEST PUSH3 0x307 PUSH3 0x2FE DUP3 PUSH3 0x2DA JUMP JUMPDEST DUP5 DUP5 SLOAD PUSH3 0x248 JUMP JUMPDEST DUP3 SSTORE POP POP POP POP JUMP JUMPDEST PUSH1 0x0 SWAP1 JUMP JUMPDEST PUSH3 0x31E PUSH3 0x30F JUMP JUMPDEST PUSH3 0x32B DUP2 DUP5 DUP5 PUSH3 0x2E4 JUMP JUMPDEST POP POP POP JUMP JUMPDEST JUMPDEST DUP2 DUP2 LT ISZERO PUSH3 0x353 JUMPI PUSH3 0x347 PUSH1 0x0 DUP3 PUSH3 0x314 JUMP JUMPDEST PUSH1 0x1 DUP2 ADD SWAP1 POP PUSH3 0x331 JUMP JUMPDEST POP POP JUMP JUMPDEST PUSH1 0x1F DUP3 GT ISZERO PUSH3 0x3A2 JUMPI PUSH3 0x36C DUP2 PUSH3 0x216 JUMP JUMPDEST PUSH3 0x377 DUP5 PUSH3 0x22B JUMP JUMPDEST DUP2 ADD PUSH1 0x20 DUP6 LT ISZERO PUSH3 0x387 JUMPI DUP2 SWAP1 POP JUMPDEST PUSH3 0x39F PUSH3 0x396 DUP6 PUSH3 0x22B JUMP JUMPDEST DUP4 ADD DUP3 PUSH3 0x330 JUMP JUMPDEST POP POP JUMPDEST POP POP POP JUMP JUMPDEST PUSH1 0x0 DUP3 DUP3 SHR SWAP1 POP SWAP3 SWAP2 POP POP JUMP JUMPDEST PUSH1 0x0 PUSH3 0x3C7 PUSH1 0x0 NOT DUP5 PUSH1 0x8 MUL PUSH3 0x3A7 JUMP JUMPDEST NOT DUP1 DUP4 AND SWAP2 POP POP SWAP3 SWAP2 POP POP JUMP JUMPDEST PUSH1 0x0 PUSH3 0x3E2 DUP4 DUP4 PUSH3 0x3B4 JUMP JUMPDEST SWAP2 POP DUP3 PUSH1 0x2 MUL DUP3 OR SWAP1 POP SWAP3 SWAP2 POP POP JUMP JUMPDEST PUSH3 0x3FD DUP3 PUSH3 0x178 JUMP JUMPDEST PUSH8 0xFFFFFFFFFFFFFFFF DUP2 GT ISZERO PUSH3 0x419 JUMPI PUSH3 0x418 PUSH3 0x183 JUMP JUMPDEST JUMPDEST PUSH3 0x425 DUP3 SLOAD PUSH3 0x1E1 JUMP JUMPDEST PUSH3 0x432 DUP3 DUP3 DUP6 PUSH3 0x357 JUMP JUMPDEST PUSH1 0x0 PUSH1 0x20 SWAP1 POP PUSH1 0x1F DUP4 GT PUSH1 0x1 DUP2 EQ PUSH3 0x46A JUMPI PUSH1 0x0 DUP5 ISZERO PUSH3 0x455 JUMPI DUP3 DUP8 ADD MLOAD SWAP1 POP JUMPDEST PUSH3 0x461 DUP6 DUP3 PUSH3 0x3D4 JUMP JUMPDEST DUP7 SSTORE POP PUSH3 0x4D1 JUMP JUMPDEST PUSH1 0x1F NOT DUP5 AND PUSH3 0x47A DUP7 PUSH3 0x216 JUMP JUMPDEST PUSH1 0x0 JUMPDEST DUP3 DUP2 LT ISZERO PUSH3 0x4A4 JUMPI DUP5 DUP10 ADD MLOAD DUP3 SSTORE PUSH1 0x1 DUP3 ADD SWAP2 POP PUSH1 0x20 DUP6 ADD SWAP5 POP PUSH1 0x20 DUP2 ADD SWAP1 POP PUSH3 0x47D JUMP JUMPDEST DUP7 DUP4 LT ISZERO PUSH3 0x4C4 JUMPI DUP5 DUP10 ADD MLOAD PUSH3 0x4C0 PUSH1 0x1F DUP10 AND DUP3 PUSH3 0x3B4 JUMP JUMPDEST DUP4 SSTORE POP JUMPDEST PUSH1 0x1 PUSH1 0x2 DUP9 MUL ADD DUP9 SSTORE POP POP POP JUMPDEST POP POP POP POP POP POP JUMP JUMPDEST PUSH1 0x0 DUP3 DUP3 MSTORE PUSH1 0x20 DUP3 ADD SWAP1 POP SWAP3 SWAP2 POP POP JUMP JUMPDEST PUSH32 0x4D79546F6B656E00000000000000000000000000000000000000000000000000 PUSH1 0x0 DUP3 ADD MSTORE POP JUMP JUMPDEST PUSH1 0x0 PUSH3 0x522 PUSH1 0x7 DUP4 PUSH3 0x4D9 JUMP JUMPDEST SWAP2 POP PUSH3 0x52F DUP3 PUSH3 0x4EA JUMP JUMPDEST PUSH1 0x20 DUP3 ADD SWAP1 POP SWAP2 SWAP1 POP JUMP JUMPDEST PUSH32 0x4D544B0000000000000000000000000000000000000000000000000000000000 PUSH1 0x0 DUP3 ADD MSTORE POP JUMP JUMPDEST PUSH1 0x0 PUSH3 0x572 PUSH1 0x3 DUP4 PUSH3 0x4D9 JUMP JUMPDEST SWAP2 POP PUSH3 0x57F DUP3 PUSH3 0x53A JUMP JUMPDEST PUSH1 0x20 DUP3 ADD SWAP1 POP SWAP2 SWAP1 POP JUMP JUMPDEST PUSH1 0x0 PUSH1 0x40 DUP3 ADD SWAP1 POP DUP2 DUP2 SUB PUSH1 0x0 DUP4 ADD MSTORE PUSH3 0x5A5 DUP2 PUSH3 0x513 JUMP JUMPDEST SWAP1 POP DUP2 DUP2 SUB PUSH1 0x20 DUP4 ADD MSTORE PUSH3 0x5BA DUP2 PUSH3 0x563 JUMP JUMPDEST SWAP1 POP SWAP2 SWAP1 POP JUMP JUMPDEST PUSH2 0x38B9 DUP1 PUSH3 0x5D1 PUSH1 0x0 CODECOPY PUSH1 0x0 RETURN INVALID PUSH1 0x80 PUSH1 0x40 MSTORE PUSH1 0x4 CALLDATASIZE LT PUSH2 0x135 JUMPI PUSH1 0x0 CALLDATALOAD PUSH1 0xE0 SHR DUP1 PUSH4 0x95D89B41 GT PUSH2 0xAB JUMPI DUP1 PUSH4 0xB14F1AFD GT PUSH2 0x6F JUMPI DUP1 PUSH4 0xB14F1AFD EQ PUSH2 0x43C JUMPI DUP1 PUSH4 0xB88D4FDE EQ PUSH2 0x467 JUMPI DUP1 PUSH4 0xC87B56DD EQ PUSH2 0x490 JUMPI DUP1 PUSH4 0xE985E9C5 EQ PUSH2 0x4CD JUMPI DUP1 PUSH4 0xEDDC4269 EQ PUSH2 0x50A JUMPI DUP1 PUSH4 0xF364333D EQ PUSH2 0x526 JUMPI PUSH2 0x135 JUMP JUMPDEST DUP1 PUSH4 0x95D89B41 EQ PUSH2 0x353 JUMPI DUP1 PUSH4 0x9E4FFA7F EQ PUSH2 0x37E JUMPI DUP1 PUSH4 0x9F76A037 EQ PUSH2 0x3A9 JUMPI DUP1 PUSH4 0xA22CB465 EQ PUSH2 0x3D2 JUMPI DUP1 PUSH4 0xAEDA852F EQ PUSH2 0x3FB JUMPI PUSH2 0x135 JUMP JUMPDEST DUP1 PUSH4 0x242B3E72 GT PUSH2 0xFD JUMPI DUP1 PUSH4 0x242B3E72 EQ PUSH2 0x231 JUMPI DUP1 PUSH4 0x42842E0E EQ PUSH2 0x25A JUMPI DUP1 PUSH4 0x481C6A75 EQ PUSH2 0x283 JUMPI DUP1 PUSH4 0x6352211E EQ PUSH2 0x2AE JUMPI DUP1 PUSH4 0x6D3739C4 EQ PUSH2 0x2EB JUMPI DUP1 PUSH4 0x70A08231 EQ PUSH2 0x316 JUMPI PUSH2 0x135 JUMP JUMPDEST DUP1 PUSH4 0x1FFC9A7 EQ PUSH2 0x13A JUMPI DUP1 PUSH4 0x6FDDE03 EQ PUSH2 0x177 JUMPI DUP1 PUSH4 0x81812FC EQ PUSH2 0x1A2 JUMPI DUP1 PUSH4 0x95EA7B3 EQ PUSH2 0x1DF JUMPI DUP1 PUSH4 0x23B872DD EQ PUSH2 0x208 JUMPI JUMPDEST PUSH1 0x0 DUP1 REVERT JUMPDEST CALLVALUE DUP1 ISZERO PUSH2 0x146 JUMPI PUSH1 0x0 DUP1 REVERT JUMPDEST POP PUSH2 0x161 PUSH1 0x4 DUP1 CALLDATASIZE SUB DUP2 ADD SWAP1 PUSH2 0x15C SWAP2 SWAP1 PUSH2 0x2541 JUMP JUMPDEST PUSH2 0x53D JUMP JUMPDEST PUSH1 0x40 MLOAD PUSH2 0x16E SWAP2 SWAP1 PUSH2 0x2589 JUMP JUMPDEST PUSH1 0x40 MLOAD DUP1 SWAP2 SUB SWAP1 RETURN JUMPDEST CALLVALUE DUP1 ISZERO PUSH2 0x183 JUMPI PUSH1 0x0 DUP1 REVERT JUMPDEST POP PUSH2 0x18C PUSH2 0x61F JUMP JUMPDEST PUSH1 0x40 MLOAD PUSH2 0x199 SWAP2 SWAP1 PUSH2 0x2634 JUMP JUMPDEST PUSH1 0x40 MLOAD DUP1 SWAP2 SUB SWAP1 RETURN JUMPDEST CALLVALUE DUP1 ISZERO PUSH2 0x1AE JUMPI PUSH1 0x0 DUP1 REVERT JUMPDEST POP PUSH2 0x1C9 PUSH1 0x4 DUP1 CALLDATASIZE SUB DUP2 ADD SWAP1 PUSH2 0x1C4 SWAP2 SWAP1 PUSH2 0x268C JUMP JUMPDEST PUSH2 0x6B1 JUMP JUMPDEST PUSH1 0x40 MLOAD PUSH2 0x1D6 SWAP2 SWAP1 PUSH2 0x26FA JUMP JUMPDEST PUSH1 0x40 MLOAD DUP1 SWAP2 SUB SWAP1 RETURN JUMPDEST CALLVALUE DUP1 ISZERO PUSH2 0x1EB JUMPI PUSH1 0x0 DUP1 REVERT JUMPDEST POP PUSH2 0x206 PUSH1 0x4 DUP1 CALLDATASIZE SUB DUP2 ADD SWAP1 PUSH2 0x201 SWAP2 SWAP1 PUSH2 0x2741 JUMP JUMPDEST PUSH2 0x6F7 JUMP JUMPDEST STOP JUMPDEST CALLVALUE DUP1 ISZERO PUSH2 0x214 JUMPI PUSH1 0x0 DUP1 REVERT JUMPDEST POP PUSH2 0x22F PUSH1 0x4 DUP1 CALLDATASIZE SUB DUP2 ADD SWAP1 PUSH2 0x22A SWAP2 SWAP1 PUSH2 0x2781 JUMP JUMPDEST PUSH2 0x80E JUMP JUMPDEST STOP JUMPDEST CALLVALUE DUP1 ISZERO PUSH2 0x23D JUMPI PUSH1 0x0 DUP1 REVERT JUMPDEST POP PUSH2 0x258 PUSH1 0x4 DUP1 CALLDATASIZE SUB DUP2 ADD SWAP1 PUSH2 0x253 SWAP2 SWAP1 PUSH2 0x268C JUMP JUMPDEST PUSH2 0x86E JUMP JUMPDEST STOP JUMPDEST CALLVALUE DUP1 ISZERO PUSH2 0x266 JUMPI PUSH1 0x0 DUP1 REVERT JUMPDEST POP PUSH2 0x281 PUSH1 0x4 DUP1 CALLDATASIZE SUB DUP2 ADD SWAP1 PUSH2 0x27C SWAP2 SWAP1 PUSH2 0x2781 JUMP JUMPDEST PUSH2 0xBE5 JUMP JUMPDEST STOP JUMPDEST CALLVALUE DUP1 ISZERO PUSH2 0x28F JUMPI PUSH1 0x0 DUP1 REVERT JUMPDEST POP PUSH2 0x298 PUSH2 0xC05 JUMP JUMPDEST PUSH1 0x40 MLOAD PUSH2 0x2A5 SWAP2 SWAP1 PUSH2 0x26FA JUMP JUMPDEST PUSH1 0x40 MLOAD DUP1 SWAP2 SUB SWAP1 RETURN JUMPDEST CALLVALUE DUP1 ISZERO PUSH2 0x2BA JUMPI PUSH1 0x0 DUP1 REVERT JUMPDEST POP PUSH2 0x2D5 PUSH1 0x4 DUP1 CALLDATASIZE SUB DUP2 ADD SWAP1 PUSH2 0x2D0 SWAP2 SWAP1 PUSH2 0x268C JUMP JUMPDEST PUSH2 0xC2F JUMP JUMPDEST PUSH1 0x40 MLOAD PUSH2 0x2E2 SWAP2 SWAP1 PUSH2 0x26FA JUMP JUMPDEST PUSH1 0x40 MLOAD DUP1 SWAP2 SUB SWAP1 RETURN JUMPDEST CALLVALUE DUP1 ISZERO PUSH2 0x2F7 JUMPI PUSH1 0x0 DUP1 REVERT JUMPDEST POP PUSH2 0x300 PUSH2 0xCE0 JUMP JUMPDEST PUSH1 0x40 MLOAD PUSH2 0x30D SWAP2 SWAP1 PUSH2 0x2833 JUMP JUMPDEST PUSH1 0x40 MLOAD DUP1 SWAP2 SUB SWAP1 RETURN JUMPDEST CALLVALUE DUP1 ISZERO PUSH2 0x322 JUMPI PUSH1 0x0 DUP1 REVERT JUMPDEST POP PUSH2 0x33D PUSH1 0x4 DUP1 CALLDATASIZE SUB DUP2 ADD SWAP1 PUSH2 0x338 SWAP2 SWAP1 PUSH2 0x284E JUMP JUMPDEST PUSH2 0xD06 JUMP JUMPDEST PUSH1 0x40 MLOAD PUSH2 0x34A SWAP2 SWAP1 PUSH2 0x288A JUMP JUMPDEST PUSH1 0x40 MLOAD DUP1 SWAP2 SUB SWAP1 RETURN JUMPDEST CALLVALUE DUP1 ISZERO PUSH2 0x35F JUMPI PUSH1 0x0 DUP1 REVERT JUMPDEST POP PUSH2 0x368 PUSH2 0xDBD JUMP JUMPDEST PUSH1 0x40 MLOAD PUSH2 0x375 SWAP2 SWAP1 PUSH2 0x2634 JUMP JUMPDEST PUSH1 0x40 MLOAD DUP1 SWAP2 SUB SWAP1 RETURN JUMPDEST CALLVALUE DUP1 ISZERO PUSH2 0x38A JUMPI PUSH1 0x0 DUP1 REVERT JUMPDEST POP PUSH2 0x393 PUSH2 0xE4F JUMP JUMPDEST PUSH1 0x40 MLOAD PUSH2 0x3A0 SWAP2 SWAP1 PUSH2 0x29E9 JUMP JUMPDEST PUSH1 0x40 MLOAD DUP1 SWAP2 SUB SWAP1 RETURN JUMPDEST CALLVALUE DUP1 ISZERO PUSH2 0x3B5 JUMPI PUSH1 0x0 DUP1 REVERT JUMPDEST POP PUSH2 0x3D0 PUSH1 0x4 DUP1 CALLDATASIZE SUB DUP2 ADD SWAP1 PUSH2 0x3CB SWAP2 SWAP1 PUSH2 0x2A0B JUMP JUMPDEST PUSH2 0x108D JUMP JUMPDEST STOP JUMPDEST CALLVALUE DUP1 ISZERO PUSH2 0x3DE JUMPI PUSH1 0x0 DUP1 REVERT JUMPDEST POP PUSH2 0x3F9 PUSH1 0x4 DUP1 CALLDATASIZE SUB DUP2 ADD SWAP1 PUSH2 0x3F4 SWAP2 SWAP1 PUSH2 0x2A77 JUMP JUMPDEST PUSH2 0x1178 JUMP JUMPDEST STOP JUMPDEST CALLVALUE DUP1 ISZERO PUSH2 0x407 JUMPI PUSH1 0x0 DUP1 REVERT JUMPDEST POP PUSH2 0x422 PUSH1 0x4 DUP1 CALLDATASIZE SUB DUP2 ADD SWAP1 PUSH2 0x41D SWAP2 SWAP1 PUSH2 0x268C JUMP JUMPDEST PUSH2 0x118E JUMP JUMPDEST PUSH1 0x40 MLOAD PUSH2 0x433 SWAP6 SWAP5 SWAP4 SWAP3 SWAP2 SWAP1 PUSH2 0x2AB7 JUMP JUMPDEST PUSH1 0x40 MLOAD DUP1 SWAP2 SUB SWAP1 RETURN JUMPDEST CALLVALUE DUP1 ISZERO PUSH2 0x448 JUMPI PUSH1 0x0 DUP1 REVERT JUMPDEST POP PUSH2 0x451 PUSH2 0x11F1 JUMP JUMPDEST PUSH1 0x40 MLOAD PUSH2 0x45E SWAP2 SWAP1 PUSH2 0x29E9 JUMP JUMPDEST PUSH1 0x40 MLOAD DUP1 SWAP2 SUB SWAP1 RETURN JUMPDEST CALLVALUE DUP1 ISZERO PUSH2 0x473 JUMPI PUSH1 0x0 DUP1 REVERT JUMPDEST POP PUSH2 0x48E PUSH1 0x4 DUP1 CALLDATASIZE SUB DUP2 ADD SWAP1 PUSH2 0x489 SWAP2 SWAP1 PUSH2 0x2C3F JUMP JUMPDEST PUSH2 0x1457 JUMP JUMPDEST STOP JUMPDEST CALLVALUE DUP1 ISZERO PUSH2 0x49C JUMPI PUSH1 0x0 DUP1 REVERT JUMPDEST POP PUSH2 0x4B7 PUSH1 0x4 DUP1 CALLDATASIZE SUB DUP2 ADD SWAP1 PUSH2 0x4B2 SWAP2 SWAP1 PUSH2 0x268C JUMP JUMPDEST PUSH2 0x14B9 JUMP JUMPDEST PUSH1 0x40 MLOAD PUSH2 0x4C4 SWAP2 SWAP1 PUSH2 0x2634 JUMP JUMPDEST PUSH1 0x40 MLOAD DUP1 SWAP2 SUB SWAP1 RETURN JUMPDEST CALLVALUE DUP1 ISZERO PUSH2 0x4D9 JUMPI PUSH1 0x0 DUP1 REVERT JUMPDEST POP PUSH2 0x4F4 PUSH1 0x4 DUP1 CALLDATASIZE SUB DUP2 ADD SWAP1 PUSH2 0x4EF SWAP2 SWAP1 PUSH2 0x2CC2 JUMP JUMPDEST PUSH2 0x1521 JUMP JUMPDEST PUSH1 0x40 MLOAD PUSH2 0x501 SWAP2 SWAP1 PUSH2 0x2589 JUMP JUMPDEST PUSH1 0x40 MLOAD DUP1 SWAP2 SUB SWAP1 RETURN JUMPDEST PUSH2 0x524 PUSH1 0x4 DUP1 CALLDATASIZE SUB DUP2 ADD SWAP1 PUSH2 0x51F SWAP2 SWAP1 PUSH2 0x268C JUMP JUMPDEST PUSH2 0x15B5 JUMP JUMPDEST STOP JUMPDEST CALLVALUE DUP1 ISZERO PUSH2 0x532 JUMPI PUSH1 0x0 DUP1 REVERT JUMPDEST POP PUSH2 0x53B PUSH2 0x17DC JUMP JUMPDEST STOP JUMPDEST PUSH1 0x0 PUSH32 0x80AC58CD00000000000000000000000000000000000000000000000000000000 PUSH28 0xFFFFFFFFFFFFFFFFFFFFFFFFFFFFFFFFFFFFFFFFFFFFFFFFFFFFFFFF NOT AND DUP3 PUSH28 0xFFFFFFFFFFFFFFFFFFFFFFFFFFFFFFFFFFFFFFFFFFFFFFFFFFFFFFFF NOT AND EQ DUP1 PUSH2 0x608 JUMPI POP PUSH32 0x5B5E139F00000000000000000000000000000000000000000000000000000000 PUSH28 0xFFFFFFFFFFFFFFFFFFFFFFFFFFFFFFFFFFFFFFFFFFFFFFFFFFFFFFFF NOT AND DUP3 PUSH28 0xFFFFFFFFFFFFFFFFFFFFFFFFFFFFFFFFFFFFFFFFFFFFFFFFFFFFFFFF NOT AND EQ JUMPDEST DUP1 PUSH2 0x618 JUMPI POP PUSH2 0x617 DUP3 PUSH2 0x18E5 JUMP JUMPDEST JUMPDEST SWAP1 POP SWAP2 SWAP1 POP JUMP JUMPDEST PUSH1 0x60 PUSH1 0x0 DUP1 SLOAD PUSH2 0x62E SWAP1 PUSH2 0x2D31 JUMP JUMPDEST DUP1 PUSH1 0x1F ADD PUSH1 0x20 DUP1 SWAP2 DIV MUL PUSH1 0x20 ADD PUSH1 0x40 MLOAD SWAP1 DUP2 ADD PUSH1 0x40 MSTORE DUP1 SWAP3 SWAP2 SWAP1 DUP2 DUP2 MSTORE PUSH1 0x20 ADD DUP3 DUP1 SLOAD PUSH2 0x65A SWAP1 PUSH2 0x2D31 JUMP JUMPDEST DUP1 ISZERO PUSH2 0x6A7 JUMPI DUP1 PUSH1 0x1F LT PUSH2 0x67C JUMPI PUSH2 0x100 DUP1 DUP4 SLOAD DIV MUL DUP4 MSTORE SWAP2 PUSH1 0x20 ADD SWAP2 PUSH2 0x6A7 JUMP JUMPDEST DUP3 ADD SWAP2 SWAP1 PUSH1 0x0 MSTORE PUSH1 0x20 PUSH1 0x0 KECCAK256 SWAP1 JUMPDEST DUP2 SLOAD DUP2 MSTORE SWAP1 PUSH1 0x1 ADD SWAP1 PUSH1 0x20 ADD DUP1 DUP4 GT PUSH2 0x68A JUMPI DUP3 SWAP1 SUB PUSH1 0x1F AND DUP3 ADD SWAP2 JUMPDEST POP POP POP POP POP SWAP1 POP SWAP1 JUMP JUMPDEST PUSH1 0x0 PUSH2 0x6BC DUP3 PUSH2 0x194F JUMP JUMPDEST PUSH1 0x4 PUSH1 0x0 DUP4 DUP2 MSTORE PUSH1 0x20 ADD SWAP1 DUP2 MSTORE PUSH1 0x20 ADD PUSH1 0x0 KECCAK256 PUSH1 0x0 SWAP1 SLOAD SWAP1 PUSH2 0x100 EXP SWAP1 DIV PUSH20 0xFFFFFFFFFFFFFFFFFFFFFFFFFFFFFFFFFFFFFFFF AND SWAP1 POP SWAP2 SWAP1 POP JUMP JUMPDEST PUSH1 0x0 PUSH2 0x702 DUP3 PUSH2 0xC2F JUMP JUMPDEST SWAP1 POP DUP1 PUSH20 0xFFFFFFFFFFFFFFFFFFFFFFFFFFFFFFFFFFFFFFFF AND DUP4 PUSH20 0xFFFFFFFFFFFFFFFFFFFFFFFFFFFFFFFFFFFFFFFF AND SUB PUSH2 0x772 JUMPI PUSH1 0x40 MLOAD PUSH32 0x8C379A000000000000000000000000000000000000000000000000000000000 DUP2 MSTORE PUSH1 0x4 ADD PUSH2 0x769 SWAP1 PUSH2 0x2DD4 JUMP JUMPDEST PUSH1 0x40 MLOAD DUP1 SWAP2 SUB SWAP1 REVERT JUMPDEST DUP1 PUSH20 0xFFFFFFFFFFFFFFFFFFFFFFFFFFFFFFFFFFFFFFFF AND PUSH2 0x791 PUSH2 0x199A JUMP JUMPDEST PUSH20 0xFFFFFFFFFFFFFFFFFFFFFFFFFFFFFFFFFFFFFFFF AND EQ DUP1 PUSH2 0x7C0 JUMPI POP PUSH2 0x7BF DUP2 PUSH2 0x7BA PUSH2 0x199A JUMP JUMPDEST PUSH2 0x1521 JUMP JUMPDEST JUMPDEST PUSH2 0x7FF JUMPI PUSH1 0x40 MLOAD PUSH32 0x8C379A000000000000000000000000000000000000000000000000000000000 DUP2 MSTORE PUSH1 0x4 ADD PUSH2 0x7F6 SWAP1 PUSH2 0x2E66 JUMP JUMPDEST PUSH1 0x40 MLOAD DUP1 SWAP2 SUB SWAP1 REVERT JUMPDEST PUSH2 0x809 DUP4 DUP4 PUSH2 0x19A2 JUMP JUMPDEST POP POP POP JUMP JUMPDEST PUSH2 0x81F PUSH2 0x819 PUSH2 0x199A JUMP JUMPDEST DUP3 PUSH2 0x1A5B JUMP JUMPDEST PUSH2 0x85E JUMPI PUSH1 0x40 MLOAD PUSH32 0x8C379A000000000000000000000000000000000000000000000000000000000 DUP2 MSTORE PUSH1 0x4 ADD PUSH2 0x855 SWAP1 PUSH2 0x2EF8 JUMP JUMPDEST PUSH1 0x40 MLOAD DUP1 SWAP2 SUB SWAP1 REVERT JUMPDEST PUSH2 0x869 DUP4 DUP4 DUP4 PUSH2 0x1AF0 JUMP JUMPDEST POP POP POP JUMP JUMPDEST PUSH1 0x0 PUSH1 0x8 PUSH1 0x0 DUP4 DUP2 MSTORE PUSH1 0x20 ADD SWAP1 DUP2 MSTORE PUSH1 0x20 ADD PUSH1 0x0 KECCAK256 SWAP1 POP DUP1 PUSH1 0x4 ADD PUSH1 0x0 SWAP1 SLOAD SWAP1 PUSH2 0x100 EXP SWAP1 DIV PUSH1 0xFF AND PUSH2 0x8D6 JUMPI PUSH1 0x40 MLOAD PUSH32 0x8C379A000000000000000000000000000000000000000000000000000000000 DUP2 MSTORE PUSH1 0x4 ADD PUSH2 0x8CD SWAP1 PUSH2 0x2F64 JUMP JUMPDEST PUSH1 0x40 MLOAD DUP1 SWAP2 SUB SWAP1 REVERT JUMPDEST PUSH1 0xA DUP2 PUSH1 0x2 ADD SLOAD PUSH2 0x8E7 SWAP2 SWAP1 PUSH2 0x2FB3 JUMP JUMPDEST PUSH1 0x9 PUSH1 0x0 SWAP1 SLOAD SWAP1 PUSH2 0x100 EXP SWAP1 DIV PUSH20 0xFFFFFFFFFFFFFFFFFFFFFFFFFFFFFFFFFFFFFFFF AND PUSH20 0xFFFFFFFFFFFFFFFFFFFFFFFFFFFFFFFFFFFFFFFF AND PUSH4 0x70A08231 CALLER PUSH1 0x40 MLOAD DUP3 PUSH4 0xFFFFFFFF AND PUSH1 0xE0 SHL DUP2 MSTORE PUSH1 0x4 ADD PUSH2 0x942 SWAP2 SWAP1 PUSH2 0x26FA JUMP JUMPDEST PUSH1 0x20 PUSH1 0x40 MLOAD DUP1 DUP4 SUB DUP2 DUP7 GAS STATICCALL ISZERO DUP1 ISZERO PUSH2 0x95F JUMPI RETURNDATASIZE PUSH1 0x0 DUP1 RETURNDATACOPY RETURNDATASIZE PUSH1 0x0 REVERT JUMPDEST POP POP POP POP PUSH1 0x40 MLOAD RETURNDATASIZE PUSH1 0x1F NOT PUSH1 0x1F DUP3 ADD AND DUP3 ADD DUP1 PUSH1 0x40 MSTORE POP DUP2 ADD SWAP1 PUSH2 0x983 SWAP2 SWAP1 PUSH2 0x300A JUMP JUMPDEST LT ISZERO PUSH2 0x9C4 JUMPI PUSH1 0x40 MLOAD PUSH32 0x8C379A000000000000000000000000000000000000000000000000000000000 DUP2 MSTORE PUSH1 0x4 ADD PUSH2 0x9BB SWAP1 PUSH2 0x3083 JUMP JUMPDEST PUSH1 0x40 MLOAD DUP1 SWAP2 SUB SWAP1 REVERT JUMPDEST PUSH1 0x0 PUSH1 0x64 PUSH2 0x3B6 DUP4 PUSH1 0x2 ADD SLOAD PUSH2 0x9DA SWAP2 SWAP1 PUSH2 0x2FB3 JUMP JUMPDEST PUSH2 0x9E4 SWAP2 SWAP1 PUSH2 0x30D2 JUMP JUMPDEST SWAP1 POP PUSH1 0x0 DUP2 PUSH1 0xA DUP5 PUSH1 0x2 ADD SLOAD PUSH2 0x9FA SWAP2 SWAP1 PUSH2 0x2FB3 JUMP JUMPDEST PUSH2 0xA04 SWAP2 SWAP1 PUSH2 0x3103 JUMP JUMPDEST SWAP1 POP PUSH1 0x0 DUP4 PUSH1 0x1 ADD PUSH1 0x0 SWAP1 SLOAD SWAP1 PUSH2 0x100 EXP SWAP1 DIV PUSH20 0xFFFFFFFFFFFFFFFFFFFFFFFFFFFFFFFFFFFFFFFF AND SWAP1 POP CALLER DUP5 PUSH1 0x1 ADD PUSH1 0x0 PUSH2 0x100 EXP DUP2 SLOAD DUP2 PUSH20 0xFFFFFFFFFFFFFFFFFFFFFFFFFFFFFFFFFFFFFFFF MUL NOT AND SWAP1 DUP4 PUSH20 0xFFFFFFFFFFFFFFFFFFFFFFFFFFFFFFFFFFFFFFFF AND MUL OR SWAP1 SSTORE POP PUSH1 0x0 DUP5 PUSH1 0x4 ADD PUSH1 0x0 PUSH2 0x100 EXP DUP2 SLOAD DUP2 PUSH1 0xFF MUL NOT AND SWAP1 DUP4 ISZERO ISZERO MUL OR SWAP1 SSTORE POP PUSH2 0xA9A DUP2 CALLER DUP8 PUSH2 0x1AF0 JUMP JUMPDEST PUSH1 0x9 PUSH1 0x0 SWAP1 SLOAD SWAP1 PUSH2 0x100 EXP SWAP1 DIV PUSH20 0xFFFFFFFFFFFFFFFFFFFFFFFFFFFFFFFFFFFFFFFF AND PUSH20 0xFFFFFFFFFFFFFFFFFFFFFFFFFFFFFFFFFFFFFFFF AND PUSH4 0xEB8571C8 CALLER DUP4 DUP7 PUSH1 0x40 MLOAD DUP5 PUSH4 0xFFFFFFFF AND PUSH1 0xE0 SHL DUP2 MSTORE PUSH1 0x4 ADD PUSH2 0xAF9 SWAP4 SWAP3 SWAP2 SWAP1 PUSH2 0x3137 JUMP JUMPDEST PUSH1 0x0 PUSH1 0x40 MLOAD DUP1 DUP4 SUB DUP2 PUSH1 0x0 DUP8 DUP1 EXTCODESIZE ISZERO DUP1 ISZERO PUSH2 0xB13 JUMPI PUSH1 0x0 DUP1 REVERT JUMPDEST POP GAS CALL ISZERO DUP1 ISZERO PUSH2 0xB27 JUMPI RETURNDATASIZE PUSH1 0x0 DUP1 RETURNDATACOPY RETURNDATASIZE PUSH1 0x0 REVERT JUMPDEST POP POP POP POP PUSH1 0x9 PUSH1 0x0 SWAP1 SLOAD SWAP1 PUSH2 0x100 EXP SWAP1 DIV PUSH20 0xFFFFFFFFFFFFFFFFFFFFFFFFFFFFFFFFFFFFFFFF AND PUSH20 0xFFFFFFFFFFFFFFFFFFFFFFFFFFFFFFFFFFFFFFFF AND PUSH4 0xEB8571C8 CALLER PUSH1 0x7 PUSH1 0x0 SWAP1 SLOAD SWAP1 PUSH2 0x100 EXP SWAP1 DIV PUSH20 0xFFFFFFFFFFFFFFFFFFFFFFFFFFFFFFFFFFFFFFFF AND DUP6 PUSH1 0x40 MLOAD DUP5 PUSH4 0xFFFFFFFF AND PUSH1 0xE0 SHL DUP2 MSTORE PUSH1 0x4 ADD PUSH2 0xBAC SWAP4 SWAP3 SWAP2 SWAP1 PUSH2 0x3137 JUMP JUMPDEST PUSH1 0x0 PUSH1 0x40 MLOAD DUP1 DUP4 SUB DUP2 PUSH1 0x0 DUP8 DUP1 EXTCODESIZE ISZERO DUP1 ISZERO PUSH2 0xBC6 JUMPI PUSH1 0x0 DUP1 REVERT JUMPDEST POP GAS CALL ISZERO DUP1 ISZERO PUSH2 0xBDA JUMPI RETURNDATASIZE PUSH1 0x0 DUP1 RETURNDATACOPY RETURNDATASIZE PUSH1 0x0 REVERT JUMPDEST POP POP POP POP POP POP POP POP POP JUMP JUMPDEST PUSH2 0xC00 DUP4 DUP4 DUP4 PUSH1 0x40 MLOAD DUP1 PUSH1 0x20 ADD PUSH1 0x40 MSTORE DUP1 PUSH1 0x0 DUP2 MSTORE POP PUSH2 0x1457 JUMP JUMPDEST POP POP POP JUMP JUMPDEST PUSH1 0x0 PUSH1 0x7 PUSH1 0x0 SWAP1 SLOAD SWAP1 PUSH2 0x100 EXP SWAP1 DIV PUSH20 0xFFFFFFFFFFFFFFFFFFFFFFFFFFFFFFFFFFFFFFFF AND SWAP1 POP SWAP1 JUMP JUMPDEST PUSH1 0x0 DUP1 PUSH1 0x2 PUSH1 0x0 DUP5 DUP2 MSTORE PUSH1 0x20 ADD SWAP1 DUP2 MSTORE PUSH1 0x20 ADD PUSH1 0x0 KECCAK256 PUSH1 0x0 SWAP1 SLOAD SWAP1 PUSH2 0x100 EXP SWAP1 DIV PUSH20 0xFFFFFFFFFFFFFFFFFFFFFFFFFFFFFFFFFFFFFFFF AND SWAP1 POP PUSH1 0x0 PUSH20 0xFFFFFFFFFFFFFFFFFFFFFFFFFFFFFFFFFFFFFFFF AND DUP2 PUSH20 0xFFFFFFFFFFFFFFFFFFFFFFFFFFFFFFFFFFFFFFFF AND SUB PUSH2 0xCD7 JUMPI PUSH1 0x40 MLOAD PUSH32 0x8C379A000000000000000000000000000000000000000000000000000000000 DUP2 MSTORE PUSH1 0x4 ADD PUSH2 0xCCE SWAP1 PUSH2 0x31BA JUMP JUMPDEST PUSH1 0x40 MLOAD DUP1 SWAP2 SUB SWAP1 REVERT JUMPDEST DUP1 SWAP2 POP POP SWAP2 SWAP1 POP JUMP JUMPDEST PUSH1 0x9 PUSH1 0x0 SWAP1 SLOAD SWAP1 PUSH2 0x100 EXP SWAP1 DIV PUSH20 0xFFFFFFFFFFFFFFFFFFFFFFFFFFFFFFFFFFFFFFFF AND DUP2 JUMP JUMPDEST PUSH1 0x0 DUP1 PUSH20 0xFFFFFFFFFFFFFFFFFFFFFFFFFFFFFFFFFFFFFFFF AND DUP3 PUSH20 0xFFFFFFFFFFFFFFFFFFFFFFFFFFFFFFFFFFFFFFFF AND SUB PUSH2 0xD76 JUMPI PUSH1 0x40 MLOAD PUSH32 0x8C379A000000000000000000000000000000000000000000000000000000000 DUP2 MSTORE PUSH1 0x4 ADD PUSH2 0xD6D SWAP1 PUSH2 0x324C JUMP JUMPDEST PUSH1 0x40 MLOAD DUP1 SWAP2 SUB SWAP1 REVERT JUMPDEST PUSH1 0x3 PUSH1 0x0 DUP4 PUSH20 0xFFFFFFFFFFFFFFFFFFFFFFFFFFFFFFFFFFFFFFFF AND PUSH20 0xFFFFFFFFFFFFFFFFFFFFFFFFFFFFFFFFFFFFFFFF AND DUP2 MSTORE PUSH1 0x20 ADD SWAP1 DUP2 MSTORE PUSH1 0x20 ADD PUSH1 0x0 KECCAK256 SLOAD SWAP1 POP SWAP2 SWAP1 POP JUMP JUMPDEST PUSH1 0x60 PUSH1 0x1 DUP1 SLOAD PUSH2 0xDCC SWAP1 PUSH2 0x2D31 JUMP JUMPDEST DUP1 PUSH1 0x1F ADD PUSH1 0x20 DUP1 SWAP2 DIV MUL PUSH1 0x20 ADD PUSH1 0x40 MLOAD SWAP1 DUP2 ADD PUSH1 0x40 MSTORE DUP1 SWAP3 SWAP2 SWAP1 DUP2 DUP2 MSTORE PUSH1 0x20 ADD DUP3 DUP1 SLOAD PUSH2 0xDF8 SWAP1 PUSH2 0x2D31 JUMP JUMPDEST DUP1 ISZERO PUSH2 0xE45 JUMPI DUP1 PUSH1 0x1F LT PUSH2 0xE1A JUMPI PUSH2 0x100 DUP1 DUP4 SLOAD DIV MUL DUP4 MSTORE SWAP2 PUSH1 0x20 ADD SWAP2 PUSH2 0xE45 JUMP JUMPDEST DUP3 ADD SWAP2 SWAP1 PUSH1 0x0 MSTORE PUSH1 0x20 PUSH1 0x0 KECCAK256 SWAP1 JUMPDEST DUP2 SLOAD DUP2 MSTORE SWAP1 PUSH1 0x1 ADD SWAP1 PUSH1 0x20 ADD DUP1 DUP4 GT PUSH2 0xE28 JUMPI DUP3 SWAP1 SUB PUSH1 0x1F AND DUP3 ADD SWAP2 JUMPDEST POP POP POP POP POP SWAP1 POP SWAP1 JUMP JUMPDEST PUSH1 0x60 PUSH1 0x0 PUSH1 0x6 SLOAD SWAP1 POP PUSH1 0x0 DUP2 PUSH8 0xFFFFFFFFFFFFFFFF DUP2 GT ISZERO PUSH2 0xE74 JUMPI PUSH2 0xE73 PUSH2 0x2B14 JUMP JUMPDEST JUMPDEST PUSH1 0x40 MLOAD SWAP1 DUP1 DUP3 MSTORE DUP1 PUSH1 0x20 MUL PUSH1 0x20 ADD DUP3 ADD PUSH1 0x40 MSTORE DUP1 ISZERO PUSH2 0xEAD JUMPI DUP2 PUSH1 0x20 ADD JUMPDEST PUSH2 0xE9A PUSH2 0x248E JUMP JUMPDEST DUP2 MSTORE PUSH1 0x20 ADD SWAP1 PUSH1 0x1 SWAP1 SUB SWAP1 DUP2 PUSH2 0xE92 JUMPI SWAP1 POP JUMPDEST POP SWAP1 POP PUSH1 0x0 DUP1 JUMPDEST DUP4 DUP2 LT ISZERO PUSH2 0xFD2 JUMPI PUSH1 0x8 PUSH1 0x0 DUP3 DUP2 MSTORE PUSH1 0x20 ADD SWAP1 DUP2 MSTORE PUSH1 0x20 ADD PUSH1 0x0 KECCAK256 PUSH1 0x4 ADD PUSH1 0x0 SWAP1 SLOAD SWAP1 PUSH2 0x100 EXP SWAP1 DIV PUSH1 0xFF AND ISZERO PUSH2 0xFBF JUMPI PUSH1 0x8 PUSH1 0x0 DUP3 DUP2 MSTORE PUSH1 0x20 ADD SWAP1 DUP2 MSTORE PUSH1 0x20 ADD PUSH1 0x0 KECCAK256 PUSH1 0x40 MLOAD DUP1 PUSH1 0xA0 ADD PUSH1 0x40 MSTORE SWAP1 DUP2 PUSH1 0x0 DUP3 ADD SLOAD DUP2 MSTORE PUSH1 0x20 ADD PUSH1 0x1 DUP3 ADD PUSH1 0x0 SWAP1 SLOAD SWAP1 PUSH2 0x100 EXP SWAP1 DIV PUSH20 0xFFFFFFFFFFFFFFFFFFFFFFFFFFFFFFFFFFFFFFFF AND PUSH20 0xFFFFFFFFFFFFFFFFFFFFFFFFFFFFFFFFFFFFFFFF AND PUSH20 0xFFFFFFFFFFFFFFFFFFFFFFFFFFFFFFFFFFFFFFFF AND DUP2 MSTORE PUSH1 0x20 ADD PUSH1 0x2 DUP3 ADD SLOAD DUP2 MSTORE PUSH1 0x20 ADD PUSH1 0x3 DUP3 ADD SLOAD DUP2 MSTORE PUSH1 0x20 ADD PUSH1 0x4 DUP3 ADD PUSH1 0x0 SWAP1 SLOAD SWAP1 PUSH2 0x100 EXP SWAP1 DIV PUSH1 0xFF AND ISZERO ISZERO ISZERO ISZERO DUP2 MSTORE POP POP DUP4 DUP4 DUP2 MLOAD DUP2 LT PUSH2 0xFA5 JUMPI PUSH2 0xFA4 PUSH2 0x326C JUMP JUMPDEST JUMPDEST PUSH1 0x20 MUL PUSH1 0x20 ADD ADD DUP2 SWAP1 MSTORE POP DUP2 DUP1 PUSH2 0xFBB SWAP1 PUSH2 0x329B JUMP JUMPDEST SWAP3 POP POP JUMPDEST DUP1 DUP1 PUSH2 0xFCA SWAP1 PUSH2 0x329B JUMP JUMPDEST SWAP2 POP POP PUSH2 0xEB4 JUMP JUMPDEST POP PUSH1 0x0 DUP2 PUSH8 0xFFFFFFFFFFFFFFFF DUP2 GT ISZERO PUSH2 0xFEF JUMPI PUSH2 0xFEE PUSH2 0x2B14 JUMP JUMPDEST JUMPDEST PUSH1 0x40 MLOAD SWAP1 DUP1 DUP3 MSTORE DUP1 PUSH1 0x20 MUL PUSH1 0x20 ADD DUP3 ADD PUSH1 0x40 MSTORE DUP1 ISZERO PUSH2 0x1028 JUMPI DUP2 PUSH1 0x20 ADD JUMPDEST PUSH2 0x1015 PUSH2 0x248E JUMP JUMPDEST DUP2 MSTORE PUSH1 0x20 ADD SWAP1 PUSH1 0x1 SWAP1 SUB SWAP1 DUP2 PUSH2 0x100D JUMPI SWAP1 POP JUMPDEST POP SWAP1 POP PUSH1 0x0 JUMPDEST DUP3 DUP2 LT ISZERO PUSH2 0x1082 JUMPI DUP4 DUP2 DUP2 MLOAD DUP2 LT PUSH2 0x1049 JUMPI PUSH2 0x1048 PUSH2 0x326C JUMP JUMPDEST JUMPDEST PUSH1 0x20 MUL PUSH1 0x20 ADD ADD MLOAD DUP3 DUP3 DUP2 MLOAD DUP2 LT PUSH2 0x1064 JUMPI PUSH2 0x1063 PUSH2 0x326C JUMP JUMPDEST JUMPDEST PUSH1 0x20 MUL PUSH1 0x20 ADD ADD DUP2 SWAP1 MSTORE POP DUP1 DUP1 PUSH2 0x107A SWAP1 PUSH2 0x329B JUMP JUMPDEST SWAP2 POP POP PUSH2 0x102E JUMP JUMPDEST POP DUP1 SWAP5 POP POP POP POP POP SWAP1 JUMP JUMPDEST CALLER PUSH20 0xFFFFFFFFFFFFFFFFFFFFFFFFFFFFFFFFFFFFFFFF AND PUSH2 0x10AD DUP4 PUSH2 0xC2F JUMP JUMPDEST PUSH20 0xFFFFFFFFFFFFFFFFFFFFFFFFFFFFFFFFFFFFFFFF AND EQ PUSH2 0x1103 JUMPI PUSH1 0x40 MLOAD PUSH32 0x8C379A000000000000000000000000000000000000000000000000000000000 DUP2 MSTORE PUSH1 0x4 ADD PUSH2 0x10FA SWAP1 PUSH2 0x332F JUMP JUMPDEST PUSH1 0x40 MLOAD DUP1 SWAP2 SUB SWAP1 REVERT JUMPDEST PUSH1 0x1 PUSH1 0x8 PUSH1 0x0 DUP5 DUP2 MSTORE PUSH1 0x20 ADD SWAP1 DUP2 MSTORE PUSH1 0x20 ADD PUSH1 0x0 KECCAK256 PUSH1 0x4 ADD PUSH1 0x0 PUSH2 0x100 EXP DUP2 SLOAD DUP2 PUSH1 0xFF MUL NOT AND SWAP1 DUP4 ISZERO ISZERO MUL OR SWAP1 SSTORE POP DUP1 PUSH1 0x8 PUSH1 0x0 DUP5 DUP2 MSTORE PUSH1 0x20 ADD SWAP1 DUP2 MSTORE PUSH1 0x20 ADD PUSH1 0x0 KECCAK256 PUSH1 0x2 ADD DUP2 SWAP1 SSTORE POP PUSH1 0xA DUP2 PUSH2 0x115A SWAP2 SWAP1 PUSH2 0x2FB3 JUMP JUMPDEST PUSH1 0x8 PUSH1 0x0 DUP5 DUP2 MSTORE PUSH1 0x20 ADD SWAP1 DUP2 MSTORE PUSH1 0x20 ADD PUSH1 0x0 KECCAK256 PUSH1 0x3 ADD DUP2 SWAP1 SSTORE POP POP POP JUMP JUMPDEST PUSH2 0x118A PUSH2 0x1183 PUSH2 0x199A JUMP JUMPDEST DUP4 DUP4 PUSH2 0x1D56 JUMP JUMPDEST POP POP JUMP JUMPDEST PUSH1 0x8 PUSH1 0x20 MSTORE DUP1 PUSH1 0x0 MSTORE PUSH1 0x40 PUSH1 0x0 KECCAK256 PUSH1 0x0 SWAP2 POP SWAP1 POP DUP1 PUSH1 0x0 ADD SLOAD SWAP1 DUP1 PUSH1 0x1 ADD PUSH1 0x0 SWAP1 SLOAD SWAP1 PUSH2 0x100 EXP SWAP1 DIV PUSH20 0xFFFFFFFFFFFFFFFFFFFFFFFFFFFFFFFFFFFFFFFF AND SWAP1 DUP1 PUSH1 0x2 ADD SLOAD SWAP1 DUP1 PUSH1 0x3 ADD SLOAD SWAP1 DUP1 PUSH1 0x4 ADD PUSH1 0x0 SWAP1 SLOAD SWAP1 PUSH2 0x100 EXP SWAP1 DIV PUSH1 0xFF AND SWAP1 POP DUP6 JUMP JUMPDEST PUSH1 0x60 PUSH1 0x0 PUSH1 0x6 SLOAD SWAP1 POP PUSH1 0x0 DUP1 JUMPDEST DUP3 DUP2 LT ISZERO PUSH2 0x1291 JUMPI CALLER PUSH20 0xFFFFFFFFFFFFFFFFFFFFFFFFFFFFFFFFFFFFFFFF AND PUSH1 0x8 PUSH1 0x0 DUP4 DUP2 MSTORE PUSH1 0x20 ADD SWAP1 DUP2 MSTORE PUSH1 0x20 ADD PUSH1 0x0 KECCAK256 PUSH1 0x1 ADD PUSH1 0x0 SWAP1 SLOAD SWAP1 PUSH2 0x100 EXP SWAP1 DIV PUSH20 0xFFFFFFFFFFFFFFFFFFFFFFFFFFFFFFFFFFFFFFFF AND PUSH20 0xFFFFFFFFFFFFFFFFFFFFFFFFFFFFFFFFFFFFFFFF AND SUB PUSH2 0x127E JUMPI DUP2 DUP1 PUSH2 0x127A SWAP1 PUSH2 0x329B JUMP JUMPDEST SWAP3 POP POP JUMPDEST DUP1 DUP1 PUSH2 0x1289 SWAP1 PUSH2 0x329B JUMP JUMPDEST SWAP2 POP POP PUSH2 0x11FE JUMP JUMPDEST POP PUSH1 0x0 DUP2 PUSH8 0xFFFFFFFFFFFFFFFF DUP2 GT ISZERO PUSH2 0x12AE JUMPI PUSH2 0x12AD PUSH2 0x2B14 JUMP JUMPDEST JUMPDEST PUSH1 0x40 MLOAD SWAP1 DUP1 DUP3 MSTORE DUP1 PUSH1 0x20 MUL PUSH1 0x20 ADD DUP3 ADD PUSH1 0x40 MSTORE DUP1 ISZERO PUSH2 0x12E7 JUMPI DUP2 PUSH1 0x20 ADD JUMPDEST PUSH2 0x12D4 PUSH2 0x248E JUMP JUMPDEST DUP2 MSTORE PUSH1 0x20 ADD SWAP1 PUSH1 0x1 SWAP1 SUB SWAP1 DUP2 PUSH2 0x12CC JUMPI SWAP1 POP JUMPDEST POP SWAP1 POP PUSH1 0x0 DUP1 JUMPDEST DUP5 DUP2 LT ISZERO PUSH2 0x144C JUMPI CALLER PUSH20 0xFFFFFFFFFFFFFFFFFFFFFFFFFFFFFFFFFFFFFFFF AND PUSH1 0x8 PUSH1 0x0 DUP4 DUP2 MSTORE PUSH1 0x20 ADD SWAP1 DUP2 MSTORE PUSH1 0x20 ADD PUSH1 0x0 KECCAK256 PUSH1 0x1 ADD PUSH1 0x0 SWAP1 SLOAD SWAP1 PUSH2 0x100 EXP SWAP1 DIV PUSH20 0xFFFFFFFFFFFFFFFFFFFFFFFFFFFFFFFFFFFFFFFF AND PUSH20 0xFFFFFFFFFFFFFFFFFFFFFFFFFFFFFFFFFFFFFFFF AND SUB PUSH2 0x1439 JUMPI PUSH1 0x8 PUSH1 0x0 DUP3 DUP2 MSTORE PUSH1 0x20 ADD SWAP1 DUP2 MSTORE PUSH1 0x20 ADD PUSH1 0x0 KECCAK256 PUSH1 0x40 MLOAD DUP1 PUSH1 0xA0 ADD PUSH1 0x40 MSTORE SWAP1 DUP2 PUSH1 0x0 DUP3 ADD SLOAD DUP2 MSTORE PUSH1 0x20 ADD PUSH1 0x1 DUP3 ADD PUSH1 0x0 SWAP1 SLOAD SWAP1 PUSH2 0x100 EXP SWAP1 DIV PUSH20 0xFFFFFFFFFFFFFFFFFFFFFFFFFFFFFFFFFFFFFFFF AND PUSH20 0xFFFFFFFFFFFFFFFFFFFFFFFFFFFFFFFFFFFFFFFF AND PUSH20 0xFFFFFFFFFFFFFFFFFFFFFFFFFFFFFFFFFFFFFFFF AND DUP2 MSTORE PUSH1 0x20 ADD PUSH1 0x2 DUP3 ADD SLOAD DUP2 MSTORE PUSH1 0x20 ADD PUSH1 0x3 DUP3 ADD SLOAD DUP2 MSTORE PUSH1 0x20 ADD PUSH1 0x4 DUP3 ADD PUSH1 0x0 SWAP1 SLOAD SWAP1 PUSH2 0x100 EXP SWAP1 DIV PUSH1 0xFF AND ISZERO ISZERO ISZERO ISZERO DUP2 MSTORE POP POP DUP4 DUP4 DUP2 MLOAD DUP2 LT PUSH2 0x141F JUMPI PUSH2 0x141E PUSH2 0x326C JUMP JUMPDEST JUMPDEST PUSH1 0x20 MUL PUSH1 0x20 ADD ADD DUP2 SWAP1 MSTORE POP DUP2 DUP1 PUSH2 0x1435 SWAP1 PUSH2 0x329B JUMP JUMPDEST SWAP3 POP POP JUMPDEST DUP1 DUP1 PUSH2 0x1444 SWAP1 PUSH2 0x329B JUMP JUMPDEST SWAP2 POP POP PUSH2 0x12EE JUMP JUMPDEST POP DUP2 SWAP5 POP POP POP POP POP SWAP1 JUMP JUMPDEST PUSH2 0x1468 PUSH2 0x1462 PUSH2 0x199A JUMP JUMPDEST DUP4 PUSH2 0x1A5B JUMP JUMPDEST PUSH2 0x14A7 JUMPI PUSH1 0x40 MLOAD PUSH32 0x8C379A000000000000000000000000000000000000000000000000000000000 DUP2 MSTORE PUSH1 0x4 ADD PUSH2 0x149E SWAP1 PUSH2 0x2EF8 JUMP JUMPDEST PUSH1 0x40 MLOAD DUP1 SWAP2 SUB SWAP1 REVERT JUMPDEST PUSH2 0x14B3 DUP5 DUP5 DUP5 DUP5 PUSH2 0x1EC2 JUMP JUMPDEST POP POP POP POP JUMP JUMPDEST PUSH1 0x60 PUSH2 0x14C4 DUP3 PUSH2 0x194F JUMP JUMPDEST PUSH1 0x0 PUSH2 0x14CE PUSH2 0x1F1E JUMP JUMPDEST SWAP1 POP PUSH1 0x0 DUP2 MLOAD GT PUSH2 0x14EE JUMPI PUSH1 0x40 MLOAD DUP1 PUSH1 0x20 ADD PUSH1 0x40 MSTORE DUP1 PUSH1 0x0 DUP2 MSTORE POP PUSH2 0x1519 JUMP JUMPDEST DUP1 PUSH2 0x14F8 DUP5 PUSH2 0x1F35 JUMP JUMPDEST PUSH1 0x40 MLOAD PUSH1 0x20 ADD PUSH2 0x1509 SWAP3 SWAP2 SWAP1 PUSH2 0x338B JUMP JUMPDEST PUSH1 0x40 MLOAD PUSH1 0x20 DUP2 DUP4 SUB SUB DUP2 MSTORE SWAP1 PUSH1 0x40 MSTORE JUMPDEST SWAP2 POP POP SWAP2 SWAP1 POP JUMP JUMPDEST PUSH1 0x0 PUSH1 0x5 PUSH1 0x0 DUP5 PUSH20 0xFFFFFFFFFFFFFFFFFFFFFFFFFFFFFFFFFFFFFFFF AND PUSH20 0xFFFFFFFFFFFFFFFFFFFFFFFFFFFFFFFFFFFFFFFF AND DUP2 MSTORE PUSH1 0x20 ADD SWAP1 DUP2 MSTORE PUSH1 0x20 ADD PUSH1 0x0 KECCAK256 PUSH1 0x0 DUP4 PUSH20 0xFFFFFFFFFFFFFFFFFFFFFFFFFFFFFFFFFFFFFFFF AND PUSH20 0xFFFFFFFFFFFFFFFFFFFFFFFFFFFFFFFFFFFFFFFF AND DUP2 MSTORE PUSH1 0x20 ADD SWAP1 DUP2 MSTORE PUSH1 0x20 ADD PUSH1 0x0 KECCAK256 PUSH1 0x0 SWAP1 SLOAD SWAP1 PUSH2 0x100 EXP SWAP1 DIV PUSH1 0xFF AND SWAP1 POP SWAP3 SWAP2 POP POP JUMP JUMPDEST PUSH1 0x0 PUSH1 0x8 PUSH1 0x0 DUP4 DUP2 MSTORE PUSH1 0x20 ADD SWAP1 DUP2 MSTORE PUSH1 0x20 ADD PUSH1 0x0 KECCAK256 SWAP1 POP DUP1 PUSH1 0x4 ADD PUSH1 0x0 SWAP1 SLOAD SWAP1 PUSH2 0x100 EXP SWAP1 DIV PUSH1 0xFF AND PUSH2 0x161D JUMPI PUSH1 0x40 MLOAD PUSH32 0x8C379A000000000000000000000000000000000000000000000000000000000 DUP2 MSTORE PUSH1 0x4 ADD PUSH2 0x1614 SWAP1 PUSH2 0x2F64 JUMP JUMPDEST PUSH1 0x40 MLOAD DUP1 SWAP2 SUB SWAP1 REVERT JUMPDEST DUP1 PUSH1 0x2 ADD SLOAD CALLVALUE LT ISZERO PUSH2 0x1664 JUMPI PUSH1 0x40 MLOAD PUSH32 0x8C379A000000000000000000000000000000000000000000000000000000000 DUP2 MSTORE PUSH1 0x4 ADD PUSH2 0x165B SWAP1 PUSH2 0x3421 JUMP JUMPDEST PUSH1 0x40 MLOAD DUP1 SWAP2 SUB SWAP1 REVERT JUMPDEST PUSH1 0x0 PUSH1 0x64 PUSH1 0x5F CALLVALUE PUSH2 0x1675 SWAP2 SWAP1 PUSH2 0x2FB3 JUMP JUMPDEST PUSH2 0x167F SWAP2 SWAP1 PUSH2 0x30D2 JUMP JUMPDEST SWAP1 POP PUSH1 0x0 DUP2 CALLVALUE PUSH2 0x168F SWAP2 SWAP1 PUSH2 0x3103 JUMP JUMPDEST SWAP1 POP PUSH1 0x0 DUP4 PUSH1 0x1 ADD PUSH1 0x0 SWAP1 SLOAD SWAP1 PUSH2 0x100 EXP SWAP1 DIV PUSH20 0xFFFFFFFFFFFFFFFFFFFFFFFFFFFFFFFFFFFFFFFF AND SWAP1 POP CALLER DUP5 PUSH1 0x1 ADD PUSH1 0x0 PUSH2 0x100 EXP DUP2 SLOAD DUP2 PUSH20 0xFFFFFFFFFFFFFFFFFFFFFFFFFFFFFFFFFFFFFFFF MUL NOT AND SWAP1 DUP4 PUSH20 0xFFFFFFFFFFFFFFFFFFFFFFFFFFFFFFFFFFFFFFFF AND MUL OR SWAP1 SSTORE POP PUSH1 0x0 DUP5 PUSH1 0x4 ADD PUSH1 0x0 PUSH2 0x100 EXP DUP2 SLOAD DUP2 PUSH1 0xFF MUL NOT AND SWAP1 DUP4 ISZERO ISZERO MUL OR SWAP1 SSTORE POP PUSH2 0x1725 DUP2 CALLER DUP8 PUSH2 0x1AF0 JUMP JUMPDEST DUP1 PUSH20 0xFFFFFFFFFFFFFFFFFFFFFFFFFFFFFFFFFFFFFFFF AND PUSH2 0x8FC DUP5 SWAP1 DUP2 ISZERO MUL SWAP1 PUSH1 0x40 MLOAD PUSH1 0x0 PUSH1 0x40 MLOAD DUP1 DUP4 SUB DUP2 DUP6 DUP9 DUP9 CALL SWAP4 POP POP POP POP ISZERO DUP1 ISZERO PUSH2 0x176B JUMPI RETURNDATASIZE PUSH1 0x0 DUP1 RETURNDATACOPY RETURNDATASIZE PUSH1 0x0 REVERT JUMPDEST POP PUSH1 0x7 PUSH1 0x0 SWAP1 SLOAD SWAP1 PUSH2 0x100 EXP SWAP1 DIV PUSH20 0xFFFFFFFFFFFFFFFFFFFFFFFFFFFFFFFFFFFFFFFF AND PUSH20 0xFFFFFFFFFFFFFFFFFFFFFFFFFFFFFFFFFFFFFFFF AND PUSH2 0x8FC DUP4 SWAP1 DUP2 ISZERO MUL SWAP1 PUSH1 0x40 MLOAD PUSH1 0x0 PUSH1 0x40 MLOAD DUP1 DUP4 SUB DUP2 DUP6 DUP9 DUP9 CALL SWAP4 POP POP POP POP ISZERO DUP1 ISZERO PUSH2 0x17D4 JUMPI RETURNDATASIZE PUSH1 0x0 DUP1 RETURNDATACOPY RETURNDATASIZE PUSH1 0x0 REVERT JUMPDEST POP POP POP POP POP POP JUMP JUMPDEST PUSH1 0x0 PUSH1 0x6 SLOAD SWAP1 POP PUSH2 0x17ED CALLER DUP3 PUSH2 0x2095 JUMP JUMPDEST PUSH1 0x40 MLOAD DUP1 PUSH1 0xA0 ADD PUSH1 0x40 MSTORE DUP1 DUP3 DUP2 MSTORE PUSH1 0x20 ADD CALLER PUSH20 0xFFFFFFFFFFFFFFFFFFFFFFFFFFFFFFFFFFFFFFFF AND DUP2 MSTORE PUSH1 0x20 ADD PUSH1 0x0 DUP2 MSTORE PUSH1 0x20 ADD PUSH1 0x0 DUP2 MSTORE PUSH1 0x20 ADD PUSH1 0x0 ISZERO ISZERO DUP2 MSTORE POP PUSH1 0x8 PUSH1 0x0 DUP4 DUP2 MSTORE PUSH1 0x20 ADD SWAP1 DUP2 MSTORE PUSH1 0x20 ADD PUSH1 0x0 KECCAK256 PUSH1 0x0 DUP3 ADD MLOAD DUP2 PUSH1 0x0 ADD SSTORE PUSH1 0x20 DUP3 ADD MLOAD DUP2 PUSH1 0x1 ADD PUSH1 0x0 PUSH2 0x100 EXP DUP2 SLOAD DUP2 PUSH20 0xFFFFFFFFFFFFFFFFFFFFFFFFFFFFFFFFFFFFFFFF MUL NOT AND SWAP1 DUP4 PUSH20 0xFFFFFFFFFFFFFFFFFFFFFFFFFFFFFFFFFFFFFFFF AND MUL OR SWAP1 SSTORE POP PUSH1 0x40 DUP3 ADD MLOAD DUP2 PUSH1 0x2 ADD SSTORE PUSH1 0x60 DUP3 ADD MLOAD DUP2 PUSH1 0x3 ADD SSTORE PUSH1 0x80 DUP3 ADD MLOAD DUP2 PUSH1 0x4 ADD PUSH1 0x0 PUSH2 0x100 EXP DUP2 SLOAD DUP2 PUSH1 0xFF MUL NOT AND SWAP1 DUP4 ISZERO ISZERO MUL OR SWAP1 SSTORE POP SWAP1 POP POP PUSH1 0x6 PUSH1 0x0 DUP2 SLOAD DUP1 SWAP3 SWAP2 SWAP1 PUSH2 0x18DD SWAP1 PUSH2 0x329B JUMP JUMPDEST SWAP2 SWAP1 POP SSTORE POP POP JUMP JUMPDEST PUSH1 0x0 PUSH32 0x1FFC9A700000000000000000000000000000000000000000000000000000000 PUSH28 0xFFFFFFFFFFFFFFFFFFFFFFFFFFFFFFFFFFFFFFFFFFFFFFFFFFFFFFFF NOT AND DUP3 PUSH28 0xFFFFFFFFFFFFFFFFFFFFFFFFFFFFFFFFFFFFFFFFFFFFFFFFFFFFFFFF NOT AND EQ SWAP1 POP SWAP2 SWAP1 POP JUMP JUMPDEST PUSH2 0x1958 DUP2 PUSH2 0x226E JUMP JUMPDEST PUSH2 0x1997 JUMPI PUSH1 0x40 MLOAD PUSH32 0x8C379A000000000000000000000000000000000000000000000000000000000 DUP2 MSTORE PUSH1 0x4 ADD PUSH2 0x198E SWAP1 PUSH2 0x31BA JUMP JUMPDEST PUSH1 0x40 MLOAD DUP1 SWAP2 SUB SWAP1 REVERT JUMPDEST POP JUMP JUMPDEST PUSH1 0x0 CALLER SWAP1 POP SWAP1 JUMP JUMPDEST DUP2 PUSH1 0x4 PUSH1 0x0 DUP4 DUP2 MSTORE PUSH1 0x20 ADD SWAP1 DUP2 MSTORE PUSH1 0x20 ADD PUSH1 0x0 KECCAK256 PUSH1 0x0 PUSH2 0x100 EXP DUP2 SLOAD DUP2 PUSH20 0xFFFFFFFFFFFFFFFFFFFFFFFFFFFFFFFFFFFFFFFF MUL NOT AND SWAP1 DUP4 PUSH20 0xFFFFFFFFFFFFFFFFFFFFFFFFFFFFFFFFFFFFFFFF AND MUL OR SWAP1 SSTORE POP DUP1 DUP3 PUSH20 0xFFFFFFFFFFFFFFFFFFFFFFFFFFFFFFFFFFFFFFFF AND PUSH2 0x1A15 DUP4 PUSH2 0xC2F JUMP JUMPDEST PUSH20 0xFFFFFFFFFFFFFFFFFFFFFFFFFFFFFFFFFFFFFFFF AND PUSH32 0x8C5BE1E5EBEC7D5BD14F71427D1E84F3DD0314C0F7B2291E5B200AC8C7C3B925 PUSH1 0x40 MLOAD PUSH1 0x40 MLOAD DUP1 SWAP2 SUB SWAP1 LOG4 POP POP JUMP JUMPDEST PUSH1 0x0 DUP1 PUSH2 0x1A67 DUP4 PUSH2 0xC2F JUMP JUMPDEST SWAP1 POP DUP1 PUSH20 0xFFFFFFFFFFFFFFFFFFFFFFFFFFFFFFFFFFFFFFFF AND DUP5 PUSH20 0xFFFFFFFFFFFFFFFFFFFFFFFFFFFFFFFFFFFFFFFF AND EQ DUP1 PUSH2 0x1AA9 JUMPI POP PUSH2 0x1AA8 DUP2 DUP6 PUSH2 0x1521 JUMP JUMPDEST JUMPDEST DUP1 PUSH2 0x1AE7 JUMPI POP DUP4 PUSH20 0xFFFFFFFFFFFFFFFFFFFFFFFFFFFFFFFFFFFFFFFF AND PUSH2 0x1ACF DUP5 PUSH2 0x6B1 JUMP JUMPDEST PUSH20 0xFFFFFFFFFFFFFFFFFFFFFFFFFFFFFFFFFFFFFFFF AND EQ JUMPDEST SWAP2 POP POP SWAP3 SWAP2 POP POP JUMP JUMPDEST DUP3 PUSH20 0xFFFFFFFFFFFFFFFFFFFFFFFFFFFFFFFFFFFFFFFF AND PUSH2 0x1B10 DUP3 PUSH2 0xC2F JUMP JUMPDEST PUSH20 0xFFFFFFFFFFFFFFFFFFFFFFFFFFFFFFFFFFFFFFFF AND EQ PUSH2 0x1B66 JUMPI PUSH1 0x40 MLOAD PUSH32 0x8C379A000000000000000000000000000000000000000000000000000000000 DUP2 MSTORE PUSH1 0x4 ADD PUSH2 0x1B5D SWAP1 PUSH2 0x34B3 JUMP JUMPDEST PUSH1 0x40 MLOAD DUP1 SWAP2 SUB SWAP1 REVERT JUMPDEST PUSH1 0x0 PUSH20 0xFFFFFFFFFFFFFFFFFFFFFFFFFFFFFFFFFFFFFFFF AND DUP3 PUSH20 0xFFFFFFFFFFFFFFFFFFFFFFFFFFFFFFFFFFFFFFFF AND SUB PUSH2 0x1BD5 JUMPI PUSH1 0x40 MLOAD PUSH32 0x8C379A000000000000000000000000000000000000000000000000000000000 DUP2 MSTORE PUSH1 0x4 ADD PUSH2 0x1BCC SWAP1 PUSH2 0x3545 JUMP JUMPDEST PUSH1 0x40 MLOAD DUP1 SWAP2 SUB SWAP1 REVERT JUMPDEST PUSH2 0x1BE0 DUP4 DUP4 DUP4 PUSH2 0x22DA JUMP JUMPDEST PUSH2 0x1BEB PUSH1 0x0 DUP3 PUSH2 0x19A2 JUMP JUMPDEST PUSH1 0x1 PUSH1 0x3 PUSH1 0x0 DUP6 PUSH20 0xFFFFFFFFFFFFFFFFFFFFFFFFFFFFFFFFFFFFFFFF AND PUSH20 0xFFFFFFFFFFFFFFFFFFFFFFFFFFFFFFFFFFFFFFFF AND DUP2 MSTORE PUSH1 0x20 ADD SWAP1 DUP2 MSTORE PUSH1 0x20 ADD PUSH1 0x0 KECCAK256 PUSH1 0x0 DUP3 DUP3 SLOAD PUSH2 0x1C3B SWAP2 SWAP1 PUSH2 0x3103 JUMP JUMPDEST SWAP3 POP POP DUP2 SWAP1 SSTORE POP PUSH1 0x1 PUSH1 0x3 PUSH1 0x0 DUP5 PUSH20 0xFFFFFFFFFFFFFFFFFFFFFFFFFFFFFFFFFFFFFFFF AND PUSH20 0xFFFFFFFFFFFFFFFFFFFFFFFFFFFFFFFFFFFFFFFF AND DUP2 MSTORE PUSH1 0x20 ADD SWAP1 DUP2 MSTORE PUSH1 0x20 ADD PUSH1 0x0 KECCAK256 PUSH1 0x0 DUP3 DUP3 SLOAD PUSH2 0x1C92 SWAP2 SWAP1 PUSH2 0x3565 JUMP JUMPDEST SWAP3 POP POP DUP2 SWAP1 SSTORE POP DUP2 PUSH1 0x2 PUSH1 0x0 DUP4 DUP2 MSTORE PUSH1 0x20 ADD SWAP1 DUP2 MSTORE PUSH1 0x20 ADD PUSH1 0x0 KECCAK256 PUSH1 0x0 PUSH2 0x100 EXP DUP2 SLOAD DUP2 PUSH20 0xFFFFFFFFFFFFFFFFFFFFFFFFFFFFFFFFFFFFFFFF MUL NOT AND SWAP1 DUP4 PUSH20 0xFFFFFFFFFFFFFFFFFFFFFFFFFFFFFFFFFFFFFFFF AND MUL OR SWAP1 SSTORE POP DUP1 DUP3 PUSH20 0xFFFFFFFFFFFFFFFFFFFFFFFFFFFFFFFFFFFFFFFF AND DUP5 PUSH20 0xFFFFFFFFFFFFFFFFFFFFFFFFFFFFFFFFFFFFFFFF AND PUSH32 0xDDF252AD1BE2C89B69C2B068FC378DAA952BA7F163C4A11628F55A4DF523B3EF PUSH1 0x40 MLOAD PUSH1 0x40 MLOAD DUP1 SWAP2 SUB SWAP1 LOG4 PUSH2 0x1D51 DUP4 DUP4 DUP4 PUSH2 0x22DF JUMP JUMPDEST POP POP POP JUMP JUMPDEST DUP2 PUSH20 0xFFFFFFFFFFFFFFFFFFFFFFFFFFFFFFFFFFFFFFFF AND DUP4 PUSH20 0xFFFFFFFFFFFFFFFFFFFFFFFFFFFFFFFFFFFFFFFF AND SUB PUSH2 0x1DC4 JUMPI PUSH1 0x40 MLOAD PUSH32 0x8C379A000000000000000000000000000000000000000000000000000000000 DUP2 MSTORE PUSH1 0x4 ADD PUSH2 0x1DBB SWAP1 PUSH2 0x35E5 JUMP JUMPDEST PUSH1 0x40 MLOAD DUP1 SWAP2 SUB SWAP1 REVERT JUMPDEST DUP1 PUSH1 0x5 PUSH1 0x0 DUP6 PUSH20 0xFFFFFFFFFFFFFFFFFFFFFFFFFFFFFFFFFFFFFFFF AND PUSH20 0xFFFFFFFFFFFFFFFFFFFFFFFFFFFFFFFFFFFFFFFF AND DUP2 MSTORE PUSH1 0x20 ADD SWAP1 DUP2 MSTORE PUSH1 0x20 ADD PUSH1 0x0 KECCAK256 PUSH1 0x0 DUP5 PUSH20 0xFFFFFFFFFFFFFFFFFFFFFFFFFFFFFFFFFFFFFFFF AND PUSH20 0xFFFFFFFFFFFFFFFFFFFFFFFFFFFFFFFFFFFFFFFF AND DUP2 MSTORE PUSH1 0x20 ADD SWAP1 DUP2 MSTORE PUSH1 0x20 ADD PUSH1 0x0 KECCAK256 PUSH1 0x0 PUSH2 0x100 EXP DUP2 SLOAD DUP2 PUSH1 0xFF MUL NOT AND SWAP1 DUP4 ISZERO ISZERO MUL OR SWAP1 SSTORE POP DUP2 PUSH20 0xFFFFFFFFFFFFFFFFFFFFFFFFFFFFFFFFFFFFFFFF AND DUP4 PUSH20 0xFFFFFFFFFFFFFFFFFFFFFFFFFFFFFFFFFFFFFFFF AND PUSH32 0x17307EAB39AB6107E8899845AD3D59BD9653F200F220920489CA2B5937696C31 DUP4 PUSH1 0x40 MLOAD PUSH2 0x1EB5 SWAP2 SWAP1 PUSH2 0x2589 JUMP JUMPDEST PUSH1 0x40 MLOAD DUP1 SWAP2 SUB SWAP1 LOG3 POP POP POP JUMP JUMPDEST PUSH2 0x1ECD DUP5 DUP5 DUP5 PUSH2 0x1AF0 JUMP JUMPDEST PUSH2 0x1ED9 DUP5 DUP5 DUP5 DUP5 PUSH2 0x22E4 JUMP JUMPDEST PUSH2 0x1F18 JUMPI PUSH1 0x40 MLOAD PUSH32 0x8C379A000000000000000000000000000000000000000000000000000000000 DUP2 MSTORE PUSH1 0x4 ADD PUSH2 0x1F0F SWAP1 PUSH2 0x3677 JUMP JUMPDEST PUSH1 0x40 MLOAD DUP1 SWAP2 SUB SWAP1 REVERT JUMPDEST POP POP POP POP JUMP JUMPDEST PUSH1 0x60 PUSH1 0x40 MLOAD DUP1 PUSH1 0x20 ADD PUSH1 0x40 MSTORE DUP1 PUSH1 0x0 DUP2 MSTORE POP SWAP1 POP SWAP1 JUMP JUMPDEST PUSH1 0x60 PUSH1 0x0 DUP3 SUB PUSH2 0x1F7C JUMPI PUSH1 0x40 MLOAD DUP1 PUSH1 0x40 ADD PUSH1 0x40 MSTORE DUP1 PUSH1 0x1 DUP2 MSTORE PUSH1 0x20 ADD PUSH32 0x3000000000000000000000000000000000000000000000000000000000000000 DUP2 MSTORE POP SWAP1 POP PUSH2 0x2090 JUMP JUMPDEST PUSH1 0x0 DUP3 SWAP1 POP PUSH1 0x0 JUMPDEST PUSH1 0x0 DUP3 EQ PUSH2 0x1FAE JUMPI DUP1 DUP1 PUSH2 0x1F97 SWAP1 PUSH2 0x329B JUMP JUMPDEST SWAP2 POP POP PUSH1 0xA DUP3 PUSH2 0x1FA7 SWAP2 SWAP1 PUSH2 0x30D2 JUMP JUMPDEST SWAP2 POP PUSH2 0x1F84 JUMP JUMPDEST PUSH1 0x0 DUP2 PUSH8 0xFFFFFFFFFFFFFFFF DUP2 GT ISZERO PUSH2 0x1FCA JUMPI PUSH2 0x1FC9 PUSH2 0x2B14 JUMP JUMPDEST JUMPDEST PUSH1 0x40 MLOAD SWAP1 DUP1 DUP3 MSTORE DUP1 PUSH1 0x1F ADD PUSH1 0x1F NOT AND PUSH1 0x20 ADD DUP3 ADD PUSH1 0x40 MSTORE DUP1 ISZERO PUSH2 0x1FFC JUMPI DUP2 PUSH1 0x20 ADD PUSH1 0x1 DUP3 MUL DUP1 CALLDATASIZE DUP4 CALLDATACOPY DUP1 DUP3 ADD SWAP2 POP POP SWAP1 POP JUMPDEST POP SWAP1 POP JUMPDEST PUSH1 0x0 DUP6 EQ PUSH2 0x2089 JUMPI PUSH1 0x1 DUP3 PUSH2 0x2015 SWAP2 SWAP1 PUSH2 0x3103 JUMP JUMPDEST SWAP2 POP PUSH1 0xA DUP6 PUSH2 0x2024 SWAP2 SWAP1 PUSH2 0x3697 JUMP JUMPDEST PUSH1 0x30 PUSH2 0x2030 SWAP2 SWAP1 PUSH2 0x3565 JUMP JUMPDEST PUSH1 0xF8 SHL DUP2 DUP4 DUP2 MLOAD DUP2 LT PUSH2 0x2046 JUMPI PUSH2 0x2045 PUSH2 0x326C JUMP JUMPDEST JUMPDEST PUSH1 0x20 ADD ADD SWAP1 PUSH31 0xFFFFFFFFFFFFFFFFFFFFFFFFFFFFFFFFFFFFFFFFFFFFFFFFFFFFFFFFFFFFFF NOT AND SWAP1 DUP2 PUSH1 0x0 BYTE SWAP1 MSTORE8 POP PUSH1 0xA DUP6 PUSH2 0x2082 SWAP2 SWAP1 PUSH2 0x30D2 JUMP JUMPDEST SWAP5 POP PUSH2 0x2000 JUMP JUMPDEST DUP1 SWAP4 POP POP POP POP JUMPDEST SWAP2 SWAP1 POP JUMP JUMPDEST PUSH1 0x0 PUSH20 0xFFFFFFFFFFFFFFFFFFFFFFFFFFFFFFFFFFFFFFFF AND DUP3 PUSH20 0xFFFFFFFFFFFFFFFFFFFFFFFFFFFFFFFFFFFFFFFF AND SUB PUSH2 0x2104 JUMPI PUSH1 0x40 MLOAD PUSH32 0x8C379A000000000000000000000000000000000000000000000000000000000 DUP2 MSTORE PUSH1 0x4 ADD PUSH2 0x20FB SWAP1 PUSH2 0x3714 JUMP JUMPDEST PUSH1 0x40 MLOAD DUP1 SWAP2 SUB SWAP1 REVERT JUMPDEST PUSH2 0x210D DUP2 PUSH2 0x226E JUMP JUMPDEST ISZERO PUSH2 0x214D JUMPI PUSH1 0x40 MLOAD PUSH32 0x8C379A000000000000000000000000000000000000000000000000000000000 DUP2 MSTORE PUSH1 0x4 ADD PUSH2 0x2144 SWAP1 PUSH2 0x3780 JUMP JUMPDEST PUSH1 0x40 MLOAD DUP1 SWAP2 SUB SWAP1 REVERT JUMPDEST PUSH2 0x2159 PUSH1 0x0 DUP4 DUP4 PUSH2 0x22DA JUMP JUMPDEST PUSH1 0x1 PUSH1 0x3 PUSH1 0x0 DUP5 PUSH20 0xFFFFFFFFFFFFFFFFFFFFFFFFFFFFFFFFFFFFFFFF AND PUSH20 0xFFFFFFFFFFFFFFFFFFFFFFFFFFFFFFFFFFFFFFFF AND DUP2 MSTORE PUSH1 0x20 ADD SWAP1 DUP2 MSTORE PUSH1 0x20 ADD PUSH1 0x0 KECCAK256 PUSH1 0x0 DUP3 DUP3 SLOAD PUSH2 0x21A9 SWAP2 SWAP1 PUSH2 0x3565 JUMP JUMPDEST SWAP3 POP POP DUP2 SWAP1 SSTORE POP DUP2 PUSH1 0x2 PUSH1 0x0 DUP4 DUP2 MSTORE PUSH1 0x20 ADD SWAP1 DUP2 MSTORE PUSH1 0x20 ADD PUSH1 0x0 KECCAK256 PUSH1 0x0 PUSH2 0x100 EXP DUP2 SLOAD DUP2 PUSH20 0xFFFFFFFFFFFFFFFFFFFFFFFFFFFFFFFFFFFFFFFF MUL NOT AND SWAP1 DUP4 PUSH20 0xFFFFFFFFFFFFFFFFFFFFFFFFFFFFFFFFFFFFFFFF AND MUL OR SWAP1 SSTORE POP DUP1 DUP3 PUSH20 0xFFFFFFFFFFFFFFFFFFFFFFFFFFFFFFFFFFFFFFFF AND PUSH1 0x0 PUSH20 0xFFFFFFFFFFFFFFFFFFFFFFFFFFFFFFFFFFFFFFFF AND PUSH32 0xDDF252AD1BE2C89B69C2B068FC378DAA952BA7F163C4A11628F55A4DF523B3EF PUSH1 0x40 MLOAD PUSH1 0x40 MLOAD DUP1 SWAP2 SUB SWAP1 LOG4 PUSH2 0x226A PUSH1 0x0 DUP4 DUP4 PUSH2 0x22DF JUMP JUMPDEST POP POP JUMP JUMPDEST PUSH1 0x0 DUP1 PUSH20 0xFFFFFFFFFFFFFFFFFFFFFFFFFFFFFFFFFFFFFFFF AND PUSH1 0x2 PUSH1 0x0 DUP5 DUP2 MSTORE PUSH1 0x20 ADD SWAP1 DUP2 MSTORE PUSH1 0x20 ADD PUSH1 0x0 KECCAK256 PUSH1 0x0 SWAP1 SLOAD SWAP1 PUSH2 0x100 EXP SWAP1 DIV PUSH20 0xFFFFFFFFFFFFFFFFFFFFFFFFFFFFFFFFFFFFFFFF AND PUSH20 0xFFFFFFFFFFFFFFFFFFFFFFFFFFFFFFFFFFFFFFFF AND EQ ISZERO SWAP1 POP SWAP2 SWAP1 POP JUMP JUMPDEST POP POP POP JUMP JUMPDEST POP POP POP JUMP JUMPDEST PUSH1 0x0 PUSH2 0x2305 DUP5 PUSH20 0xFFFFFFFFFFFFFFFFFFFFFFFFFFFFFFFFFFFFFFFF AND PUSH2 0x246B JUMP JUMPDEST ISZERO PUSH2 0x245E JUMPI DUP4 PUSH20 0xFFFFFFFFFFFFFFFFFFFFFFFFFFFFFFFFFFFFFFFF AND PUSH4 0x150B7A02 PUSH2 0x232E PUSH2 0x199A JUMP JUMPDEST DUP8 DUP7 DUP7 PUSH1 0x40 MLOAD DUP6 PUSH4 0xFFFFFFFF AND PUSH1 0xE0 SHL DUP2 MSTORE PUSH1 0x4 ADD PUSH2 0x2350 SWAP5 SWAP4 SWAP3 SWAP2 SWAP1 PUSH2 0x37F5 JUMP JUMPDEST PUSH1 0x20 PUSH1 0x40 MLOAD DUP1 DUP4 SUB DUP2 PUSH1 0x0 DUP8 GAS CALL SWAP3 POP POP POP DUP1 ISZERO PUSH2 0x238C JUMPI POP PUSH1 0x40 MLOAD RETURNDATASIZE PUSH1 0x1F NOT PUSH1 0x1F DUP3 ADD AND DUP3 ADD DUP1 PUSH1 0x40 MSTORE POP DUP2 ADD SWAP1 PUSH2 0x2389 SWAP2 SWAP1 PUSH2 0x3856 JUMP JUMPDEST PUSH1 0x1 JUMPDEST PUSH2 0x240E JUMPI RETURNDATASIZE DUP1 PUSH1 0x0 DUP2 EQ PUSH2 0x23BC JUMPI PUSH1 0x40 MLOAD SWAP2 POP PUSH1 0x1F NOT PUSH1 0x3F RETURNDATASIZE ADD AND DUP3 ADD PUSH1 0x40 MSTORE RETURNDATASIZE DUP3 MSTORE RETURNDATASIZE PUSH1 0x0 PUSH1 0x20 DUP5 ADD RETURNDATACOPY PUSH2 0x23C1 JUMP JUMPDEST PUSH1 0x60 SWAP2 POP JUMPDEST POP PUSH1 0x0 DUP2 MLOAD SUB PUSH2 0x2406 JUMPI PUSH1 0x40 MLOAD PUSH32 0x8C379A000000000000000000000000000000000000000000000000000000000 DUP2 MSTORE PUSH1 0x4 ADD PUSH2 0x23FD SWAP1 PUSH2 0x3677 JUMP JUMPDEST PUSH1 0x40 MLOAD DUP1 SWAP2 SUB SWAP1 REVERT JUMPDEST DUP1 MLOAD DUP2 PUSH1 0x20 ADD REVERT JUMPDEST PUSH4 0x150B7A02 PUSH1 0xE0 SHL PUSH28 0xFFFFFFFFFFFFFFFFFFFFFFFFFFFFFFFFFFFFFFFFFFFFFFFFFFFFFFFF NOT AND DUP2 PUSH28 0xFFFFFFFFFFFFFFFFFFFFFFFFFFFFFFFFFFFFFFFFFFFFFFFFFFFFFFFF NOT AND EQ SWAP2 POP POP PUSH2 0x2463 JUMP JUMPDEST PUSH1 0x1 SWAP1 POP JUMPDEST SWAP5 SWAP4 POP POP POP POP JUMP JUMPDEST PUSH1 0x0 DUP1 DUP3 PUSH20 0xFFFFFFFFFFFFFFFFFFFFFFFFFFFFFFFFFFFFFFFF AND EXTCODESIZE GT SWAP1 POP SWAP2 SWAP1 POP JUMP JUMPDEST PUSH1 0x40 MLOAD DUP1 PUSH1 0xA0 ADD PUSH1 0x40 MSTORE DUP1 PUSH1 0x0 DUP2 MSTORE PUSH1 0x20 ADD PUSH1 0x0 PUSH20 0xFFFFFFFFFFFFFFFFFFFFFFFFFFFFFFFFFFFFFFFF AND DUP2 MSTORE PUSH1 0x20 ADD PUSH1 0x0 DUP2 MSTORE PUSH1 0x20 ADD PUSH1 0x0 DUP2 MSTORE PUSH1 0x20 ADD PUSH1 0x0 ISZERO ISZERO DUP2 MSTORE POP SWAP1 JUMP JUMPDEST PUSH1 0x0 PUSH1 0x40 MLOAD SWAP1 POP SWAP1 JUMP JUMPDEST PUSH1 0x0 DUP1 REVERT JUMPDEST PUSH1 0x0 DUP1 REVERT JUMPDEST PUSH1 0x0 PUSH32 0xFFFFFFFF00000000000000000000000000000000000000000000000000000000 DUP3 AND SWAP1 POP SWAP2 SWAP1 POP JUMP JUMPDEST PUSH2 0x251E DUP2 PUSH2 0x24E9 JUMP JUMPDEST DUP2 EQ PUSH2 0x2529 JUMPI PUSH1 0x0 DUP1 REVERT JUMPDEST POP JUMP JUMPDEST PUSH1 0x0 DUP2 CALLDATALOAD SWAP1 POP PUSH2 0x253B DUP2 PUSH2 0x2515 JUMP JUMPDEST SWAP3 SWAP2 POP POP JUMP JUMPDEST PUSH1 0x0 PUSH1 0x20 DUP3 DUP5 SUB SLT ISZERO PUSH2 0x2557 JUMPI PUSH2 0x2556 PUSH2 0x24DF JUMP JUMPDEST JUMPDEST PUSH1 0x0 PUSH2 0x2565 DUP5 DUP3 DUP6 ADD PUSH2 0x252C JUMP JUMPDEST SWAP2 POP POP SWAP3 SWAP2 POP POP JUMP JUMPDEST PUSH1 0x0 DUP2 ISZERO ISZERO SWAP1 POP SWAP2 SWAP1 POP JUMP JUMPDEST PUSH2 0x2583 DUP2 PUSH2 0x256E JUMP JUMPDEST DUP3 MSTORE POP POP JUMP JUMPDEST PUSH1 0x0 PUSH1 0x20 DUP3 ADD SWAP1 POP PUSH2 0x259E PUSH1 0x0 DUP4 ADD DUP5 PUSH2 0x257A JUMP JUMPDEST SWAP3 SWAP2 POP POP JUMP JUMPDEST PUSH1 0x0 DUP2 MLOAD SWAP1 POP SWAP2 SWAP1 POP JUMP JUMPDEST PUSH1 0x0 DUP3 DUP3 MSTORE PUSH1 0x20 DUP3 ADD SWAP1 POP SWAP3 SWAP2 POP POP JUMP JUMPDEST PUSH1 0x0 JUMPDEST DUP4 DUP2 LT ISZERO PUSH2 0x25DE JUMPI DUP1 DUP3 ADD MLOAD DUP2 DUP5 ADD MSTORE PUSH1 0x20 DUP2 ADD SWAP1 POP PUSH2 0x25C3 JUMP JUMPDEST PUSH1 0x0 DUP5 DUP5 ADD MSTORE POP POP POP POP JUMP JUMPDEST PUSH1 0x0 PUSH1 0x1F NOT PUSH1 0x1F DUP4 ADD AND SWAP1 POP SWAP2 SWAP1 POP JUMP JUMPDEST PUSH1 0x0 PUSH2 0x2606 DUP3 PUSH2 0x25A4 JUMP JUMPDEST PUSH2 0x2610 DUP2 DUP6 PUSH2 0x25AF JUMP JUMPDEST SWAP4 POP PUSH2 0x2620 DUP2 DUP6 PUSH1 0x20 DUP7 ADD PUSH2 0x25C0 JUMP JUMPDEST PUSH2 0x2629 DUP2 PUSH2 0x25EA JUMP JUMPDEST DUP5 ADD SWAP2 POP POP SWAP3 SWAP2 POP POP JUMP JUMPDEST PUSH1 0x0 PUSH1 0x20 DUP3 ADD SWAP1 POP DUP2 DUP2 SUB PUSH1 0x0 DUP4 ADD MSTORE PUSH2 0x264E DUP2 DUP5 PUSH2 0x25FB JUMP JUMPDEST SWAP1 POP SWAP3 SWAP2 POP POP JUMP JUMPDEST PUSH1 0x0 DUP2 SWAP1 POP SWAP2 SWAP1 POP JUMP JUMPDEST PUSH2 0x2669 DUP2 PUSH2 0x2656 JUMP JUMPDEST DUP2 EQ PUSH2 0x2674 JUMPI PUSH1 0x0 DUP1 REVERT JUMPDEST POP JUMP JUMPDEST PUSH1 0x0 DUP2 CALLDATALOAD SWAP1 POP PUSH2 0x2686 DUP2 PUSH2 0x2660 JUMP JUMPDEST SWAP3 SWAP2 POP POP JUMP JUMPDEST PUSH1 0x0 PUSH1 0x20 DUP3 DUP5 SUB SLT ISZERO PUSH2 0x26A2 JUMPI PUSH2 0x26A1 PUSH2 0x24DF JUMP JUMPDEST JUMPDEST PUSH1 0x0 PUSH2 0x26B0 DUP5 DUP3 DUP6 ADD PUSH2 0x2677 JUMP JUMPDEST SWAP2 POP POP SWAP3 SWAP2 POP POP JUMP JUMPDEST PUSH1 0x0 PUSH20 0xFFFFFFFFFFFFFFFFFFFFFFFFFFFFFFFFFFFFFFFF DUP3 AND SWAP1 POP SWAP2 SWAP1 POP JUMP JUMPDEST PUSH1 0x0 PUSH2 0x26E4 DUP3 PUSH2 0x26B9 JUMP JUMPDEST SWAP1 POP SWAP2 SWAP1 POP JUMP JUMPDEST PUSH2 0x26F4 DUP2 PUSH2 0x26D9 JUMP JUMPDEST DUP3 MSTORE POP POP JUMP JUMPDEST PUSH1 0x0 PUSH1 0x20 DUP3 ADD SWAP1 POP PUSH2 0x270F PUSH1 0x0 DUP4 ADD DUP5 PUSH2 0x26EB JUMP JUMPDEST SWAP3 SWAP2 POP POP JUMP JUMPDEST PUSH2 0x271E DUP2 PUSH2 0x26D9 JUMP JUMPDEST DUP2 EQ PUSH2 0x2729 JUMPI PUSH1 0x0 DUP1 REVERT JUMPDEST POP JUMP JUMPDEST PUSH1 0x0 DUP2 CALLDATALOAD SWAP1 POP PUSH2 0x273B DUP2 PUSH2 0x2715 JUMP JUMPDEST SWAP3 SWAP2 POP POP JUMP JUMPDEST PUSH1 0x0 DUP1 PUSH1 0x40 DUP4 DUP6 SUB SLT ISZERO PUSH2 0x2758 JUMPI PUSH2 0x2757 PUSH2 0x24DF JUMP JUMPDEST JUMPDEST PUSH1 0x0 PUSH2 0x2766 DUP6 DUP3 DUP7 ADD PUSH2 0x272C JUMP JUMPDEST SWAP3 POP POP PUSH1 0x20 PUSH2 0x2777 DUP6 DUP3 DUP7 ADD PUSH2 0x2677 JUMP JUMPDEST SWAP2 POP POP SWAP3 POP SWAP3 SWAP1 POP JUMP JUMPDEST PUSH1 0x0 DUP1 PUSH1 0x0 PUSH1 0x60 DUP5 DUP7 SUB SLT ISZERO PUSH2 0x279A JUMPI PUSH2 0x2799 PUSH2 0x24DF JUMP JUMPDEST JUMPDEST PUSH1 0x0 PUSH2 0x27A8 DUP7 DUP3 DUP8 ADD PUSH2 0x272C JUMP JUMPDEST SWAP4 POP POP PUSH1 0x20 PUSH2 0x27B9 DUP7 DUP3 DUP8 ADD PUSH2 0x272C JUMP JUMPDEST SWAP3 POP POP PUSH1 0x40 PUSH2 0x27CA DUP7 DUP3 DUP8 ADD PUSH2 0x2677 JUMP JUMPDEST SWAP2 POP POP SWAP3 POP SWAP3 POP SWAP3 JUMP JUMPDEST PUSH1 0x0 DUP2 SWAP1 POP SWAP2 SWAP1 POP JUMP JUMPDEST PUSH1 0x0 PUSH2 0x27F9 PUSH2 0x27F4 PUSH2 0x27EF DUP5 PUSH2 0x26B9 JUMP JUMPDEST PUSH2 0x27D4 JUMP JUMPDEST PUSH2 0x26B9 JUMP JUMPDEST SWAP1 POP SWAP2 SWAP1 POP JUMP JUMPDEST PUSH1 0x0 PUSH2 0x280B DUP3 PUSH2 0x27DE JUMP JUMPDEST SWAP1 POP SWAP2 SWAP1 POP JUMP JUMPDEST PUSH1 0x0 PUSH2 0x281D DUP3 PUSH2 0x2800 JUMP JUMPDEST SWAP1 POP SWAP2 SWAP1 POP JUMP JUMPDEST PUSH2 0x282D DUP2 PUSH2 0x2812 JUMP JUMPDEST DUP3 MSTORE POP POP JUMP JUMPDEST PUSH1 0x0 PUSH1 0x20 DUP3 ADD SWAP1 POP PUSH2 0x2848 PUSH1 0x0 DUP4 ADD DUP5 PUSH2 0x2824 JUMP JUMPDEST SWAP3 SWAP2 POP POP JUMP JUMPDEST PUSH1 0x0 PUSH1 0x20 DUP3 DUP5 SUB SLT ISZERO PUSH2 0x2864 JUMPI PUSH2 0x2863 PUSH2 0x24DF JUMP JUMPDEST JUMPDEST PUSH1 0x0 PUSH2 0x2872 DUP5 DUP3 DUP6 ADD PUSH2 0x272C JUMP JUMPDEST SWAP2 POP POP SWAP3 SWAP2 POP POP JUMP JUMPDEST PUSH2 0x2884 DUP2 PUSH2 0x2656 JUMP JUMPDEST DUP3 MSTORE POP POP JUMP JUMPDEST PUSH1 0x0 PUSH1 0x20 DUP3 ADD SWAP1 POP PUSH2 0x289F PUSH1 0x0 DUP4 ADD DUP5 PUSH2 0x287B JUMP JUMPDEST SWAP3 SWAP2 POP POP JUMP JUMPDEST PUSH1 0x0 DUP2 MLOAD SWAP1 POP SWAP2 SWAP1 POP JUMP JUMPDEST PUSH1 0x0 DUP3 DUP3 MSTORE PUSH1 0x20 DUP3 ADD SWAP1 POP SWAP3 SWAP2 POP POP JUMP JUMPDEST PUSH1 0x0 DUP2 SWAP1 POP PUSH1 0x20 DUP3 ADD SWAP1 POP SWAP2 SWAP1 POP JUMP JUMPDEST PUSH2 0x28DA DUP2 PUSH2 0x2656 JUMP JUMPDEST DUP3 MSTORE POP POP JUMP JUMPDEST PUSH2 0x28E9 DUP2 PUSH2 0x26D9 JUMP JUMPDEST DUP3 MSTORE POP POP JUMP JUMPDEST PUSH2 0x28F8 DUP2 PUSH2 0x256E JUMP JUMPDEST DUP3 MSTORE POP POP JUMP JUMPDEST PUSH1 0xA0 DUP3 ADD PUSH1 0x0 DUP3 ADD MLOAD PUSH2 0x2914 PUSH1 0x0 DUP6 ADD DUP3 PUSH2 0x28D1 JUMP JUMPDEST POP PUSH1 0x20 DUP3 ADD MLOAD PUSH2 0x2927 PUSH1 0x20 DUP6 ADD DUP3 PUSH2 0x28E0 JUMP JUMPDEST POP PUSH1 0x40 DUP3 ADD MLOAD PUSH2 0x293A PUSH1 0x40 DUP6 ADD DUP3 PUSH2 0x28D1 JUMP JUMPDEST POP PUSH1 0x60 DUP3 ADD MLOAD PUSH2 0x294D PUSH1 0x60 DUP6 ADD DUP3 PUSH2 0x28D1 JUMP JUMPDEST POP PUSH1 0x80 DUP3 ADD MLOAD PUSH2 0x2960 PUSH1 0x80 DUP6 ADD DUP3 PUSH2 0x28EF JUMP JUMPDEST POP POP POP POP JUMP JUMPDEST PUSH1 0x0 PUSH2 0x2972 DUP4 DUP4 PUSH2 0x28FE JUMP JUMPDEST PUSH1 0xA0 DUP4 ADD SWAP1 POP SWAP3 SWAP2 POP POP JUMP JUMPDEST PUSH1 0x0 PUSH1 0x20 DUP3 ADD SWAP1 POP SWAP2 SWAP1 POP JUMP JUMPDEST PUSH1 0x0 PUSH2 0x2996 DUP3 PUSH2 0x28A5 JUMP JUMPDEST PUSH2 0x29A0 DUP2 DUP6 PUSH2 0x28B0 JUMP JUMPDEST SWAP4 POP PUSH2 0x29AB DUP4 PUSH2 0x28C1 JUMP JUMPDEST DUP1 PUSH1 0x0 JUMPDEST DUP4 DUP2 LT ISZERO PUSH2 0x29DC JUMPI DUP2 MLOAD PUSH2 0x29C3 DUP9 DUP3 PUSH2 0x2966 JUMP JUMPDEST SWAP8 POP PUSH2 0x29CE DUP4 PUSH2 0x297E JUMP JUMPDEST SWAP3 POP POP PUSH1 0x1 DUP2 ADD SWAP1 POP PUSH2 0x29AF JUMP JUMPDEST POP DUP6 SWAP4 POP POP POP POP SWAP3 SWAP2 POP POP JUMP JUMPDEST PUSH1 0x0 PUSH1 0x20 DUP3 ADD SWAP1 POP DUP2 DUP2 SUB PUSH1 0x0 DUP4 ADD MSTORE PUSH2 0x2A03 DUP2 DUP5 PUSH2 0x298B JUMP JUMPDEST SWAP1 POP SWAP3 SWAP2 POP POP JUMP JUMPDEST PUSH1 0x0 DUP1 PUSH1 0x40 DUP4 DUP6 SUB SLT ISZERO PUSH2 0x2A22 JUMPI PUSH2 0x2A21 PUSH2 0x24DF JUMP JUMPDEST JUMPDEST PUSH1 0x0 PUSH2 0x2A30 DUP6 DUP3 DUP7 ADD PUSH2 0x2677 JUMP JUMPDEST SWAP3 POP POP PUSH1 0x20 PUSH2 0x2A41 DUP6 DUP3 DUP7 ADD PUSH2 0x2677 JUMP JUMPDEST SWAP2 POP POP SWAP3 POP SWAP3 SWAP1 POP JUMP JUMPDEST PUSH2 0x2A54 DUP2 PUSH2 0x256E JUMP JUMPDEST DUP2 EQ PUSH2 0x2A5F JUMPI PUSH1 0x0 DUP1 REVERT JUMPDEST POP JUMP JUMPDEST PUSH1 0x0 DUP2 CALLDATALOAD SWAP1 POP PUSH2 0x2A71 DUP2 PUSH2 0x2A4B JUMP JUMPDEST SWAP3 SWAP2 POP POP JUMP JUMPDEST PUSH1 0x0 DUP1 PUSH1 0x40 DUP4 DUP6 SUB SLT ISZERO PUSH2 0x2A8E JUMPI PUSH2 0x2A8D PUSH2 0x24DF JUMP JUMPDEST JUMPDEST PUSH1 0x0 PUSH2 0x2A9C DUP6 DUP3 DUP7 ADD PUSH2 0x272C JUMP JUMPDEST SWAP3 POP POP PUSH1 0x20 PUSH2 0x2AAD DUP6 DUP3 DUP7 ADD PUSH2 0x2A62 JUMP JUMPDEST SWAP2 POP POP SWAP3 POP SWAP3 SWAP1 POP JUMP JUMPDEST PUSH1 0x0 PUSH1 0xA0 DUP3 ADD SWAP1 POP PUSH2 0x2ACC PUSH1 0x0 DUP4 ADD DUP9 PUSH2 0x287B JUMP JUMPDEST PUSH2 0x2AD9 PUSH1 0x20 DUP4 ADD DUP8 PUSH2 0x26EB JUMP JUMPDEST PUSH2 0x2AE6 PUSH1 0x40 DUP4 ADD DUP7 PUSH2 0x287B JUMP JUMPDEST PUSH2 0x2AF3 PUSH1 0x60 DUP4 ADD DUP6 PUSH2 0x287B JUMP JUMPDEST PUSH2 0x2B00 PUSH1 0x80 DUP4 ADD DUP5 PUSH2 0x257A JUMP JUMPDEST SWAP7 SWAP6 POP POP POP POP POP POP JUMP JUMPDEST PUSH1 0x0 DUP1 REVERT JUMPDEST PUSH1 0x0 DUP1 REVERT JUMPDEST PUSH32 0x4E487B7100000000000000000000000000000000000000000000000000000000 PUSH1 0x0 MSTORE PUSH1 0x41 PUSH1 0x4 MSTORE PUSH1 0x24 PUSH1 0x0 REVERT JUMPDEST PUSH2 0x2B4C DUP3 PUSH2 0x25EA JUMP JUMPDEST DUP2 ADD DUP2 DUP2 LT PUSH8 0xFFFFFFFFFFFFFFFF DUP3 GT OR ISZERO PUSH2 0x2B6B JUMPI PUSH2 0x2B6A PUSH2 0x2B14 JUMP JUMPDEST JUMPDEST DUP1 PUSH1 0x40 MSTORE POP POP POP JUMP JUMPDEST PUSH1 0x0 PUSH2 0x2B7E PUSH2 0x24D5 JUMP JUMPDEST SWAP1 POP PUSH2 0x2B8A DUP3 DUP3 PUSH2 0x2B43 JUMP JUMPDEST SWAP2 SWAP1 POP JUMP JUMPDEST PUSH1 0x0 PUSH8 0xFFFFFFFFFFFFFFFF DUP3 GT ISZERO PUSH2 0x2BAA JUMPI PUSH2 0x2BA9 PUSH2 0x2B14 JUMP JUMPDEST JUMPDEST PUSH2 0x2BB3 DUP3 PUSH2 0x25EA JUMP JUMPDEST SWAP1 POP PUSH1 0x20 DUP2 ADD SWAP1 POP SWAP2 SWAP1 POP JUMP JUMPDEST DUP3 DUP2 DUP4 CALLDATACOPY PUSH1 0x0 DUP4 DUP4 ADD MSTORE POP POP POP JUMP JUMPDEST PUSH1 0x0 PUSH2 0x2BE2 PUSH2 0x2BDD DUP5 PUSH2 0x2B8F JUMP JUMPDEST PUSH2 0x2B74 JUMP JUMPDEST SWAP1 POP DUP3 DUP2 MSTORE PUSH1 0x20 DUP2 ADD DUP5 DUP5 DUP5 ADD GT ISZERO PUSH2 0x2BFE JUMPI PUSH2 0x2BFD PUSH2 0x2B0F JUMP JUMPDEST JUMPDEST PUSH2 0x2C09 DUP5 DUP3 DUP6 PUSH2 0x2BC0 JUMP JUMPDEST POP SWAP4 SWAP3 POP POP POP JUMP JUMPDEST PUSH1 0x0 DUP3 PUSH1 0x1F DUP4 ADD SLT PUSH2 0x2C26 JUMPI PUSH2 0x2C25 PUSH2 0x2B0A JUMP JUMPDEST JUMPDEST DUP2 CALLDATALOAD PUSH2 0x2C36 DUP5 DUP3 PUSH1 0x20 DUP7 ADD PUSH2 0x2BCF JUMP JUMPDEST SWAP2 POP POP SWAP3 SWAP2 POP POP JUMP JUMPDEST PUSH1 0x0 DUP1 PUSH1 0x0 DUP1 PUSH1 0x80 DUP6 DUP8 SUB SLT ISZERO PUSH2 0x2C59 JUMPI PUSH2 0x2C58 PUSH2 0x24DF JUMP JUMPDEST JUMPDEST PUSH1 0x0 PUSH2 0x2C67 DUP8 DUP3 DUP9 ADD PUSH2 0x272C JUMP JUMPDEST SWAP5 POP POP PUSH1 0x20 PUSH2 0x2C78 DUP8 DUP3 DUP9 ADD PUSH2 0x272C JUMP JUMPDEST SWAP4 POP POP PUSH1 0x40 PUSH2 0x2C89 DUP8 DUP3 DUP9 ADD PUSH2 0x2677 JUMP JUMPDEST SWAP3 POP POP PUSH1 0x60 DUP6 ADD CALLDATALOAD PUSH8 0xFFFFFFFFFFFFFFFF DUP2 GT ISZERO PUSH2 0x2CAA JUMPI PUSH2 0x2CA9 PUSH2 0x24E4 JUMP JUMPDEST JUMPDEST PUSH2 0x2CB6 DUP8 DUP3 DUP9 ADD PUSH2 0x2C11 JUMP JUMPDEST SWAP2 POP POP SWAP3 SWAP6 SWAP2 SWAP5 POP SWAP3 POP JUMP JUMPDEST PUSH1 0x0 DUP1 PUSH1 0x40 DUP4 DUP6 SUB SLT ISZERO PUSH2 0x2CD9 JUMPI PUSH2 0x2CD8 PUSH2 0x24DF JUMP JUMPDEST JUMPDEST PUSH1 0x0 PUSH2 0x2CE7 DUP6 DUP3 DUP7 ADD PUSH2 0x272C JUMP JUMPDEST SWAP3 POP POP PUSH1 0x20 PUSH2 0x2CF8 DUP6 DUP3 DUP7 ADD PUSH2 0x272C JUMP JUMPDEST SWAP2 POP POP SWAP3 POP SWAP3 SWAP1 POP JUMP JUMPDEST PUSH32 0x4E487B7100000000000000000000000000000000000000000000000000000000 PUSH1 0x0 MSTORE PUSH1 0x22 PUSH1 0x4 MSTORE PUSH1 0x24 PUSH1 0x0 REVERT JUMPDEST PUSH1 0x0 PUSH1 0x2 DUP3 DIV SWAP1 POP PUSH1 0x1 DUP3 AND DUP1 PUSH2 0x2D49 JUMPI PUSH1 0x7F DUP3 AND SWAP2 POP JUMPDEST PUSH1 0x20 DUP3 LT DUP2 SUB PUSH2 0x2D5C JUMPI PUSH2 0x2D5B PUSH2 0x2D02 JUMP JUMPDEST JUMPDEST POP SWAP2 SWAP1 POP JUMP JUMPDEST PUSH32 0x4552433732313A20617070726F76616C20746F2063757272656E74206F776E65 PUSH1 0x0 DUP3 ADD MSTORE PUSH32 0x7200000000000000000000000000000000000000000000000000000000000000 PUSH1 0x20 DUP3 ADD MSTORE POP JUMP JUMPDEST PUSH1 0x0 PUSH2 0x2DBE PUSH1 0x21 DUP4 PUSH2 0x25AF JUMP JUMPDEST SWAP2 POP PUSH2 0x2DC9 DUP3 PUSH2 0x2D62 JUMP JUMPDEST PUSH1 0x40 DUP3 ADD SWAP1 POP SWAP2 SWAP1 POP JUMP JUMPDEST PUSH1 0x0 PUSH1 0x20 DUP3 ADD SWAP1 POP DUP2 DUP2 SUB PUSH1 0x0 DUP4 ADD MSTORE PUSH2 0x2DED DUP2 PUSH2 0x2DB1 JUMP JUMPDEST SWAP1 POP SWAP2 SWAP1 POP JUMP JUMPDEST PUSH32 0x4552433732313A20617070726F76652063616C6C6572206973206E6F7420746F PUSH1 0x0 DUP3 ADD MSTORE PUSH32 0x6B656E206F776E6572206E6F7220617070726F76656420666F7220616C6C0000 PUSH1 0x20 DUP3 ADD MSTORE POP JUMP JUMPDEST PUSH1 0x0 PUSH2 0x2E50 PUSH1 0x3E DUP4 PUSH2 0x25AF JUMP JUMPDEST SWAP2 POP PUSH2 0x2E5B DUP3 PUSH2 0x2DF4 JUMP JUMPDEST PUSH1 0x40 DUP3 ADD SWAP1 POP SWAP2 SWAP1 POP JUMP JUMPDEST PUSH1 0x0 PUSH1 0x20 DUP3 ADD SWAP1 POP DUP2 DUP2 SUB PUSH1 0x0 DUP4 ADD MSTORE PUSH2 0x2E7F DUP2 PUSH2 0x2E43 JUMP JUMPDEST SWAP1 POP SWAP2 SWAP1 POP JUMP JUMPDEST PUSH32 0x4552433732313A2063616C6C6572206973206E6F7420746F6B656E206F776E65 PUSH1 0x0 DUP3 ADD MSTORE PUSH32 0x72206E6F7220617070726F766564000000000000000000000000000000000000 PUSH1 0x20 DUP3 ADD MSTORE POP JUMP JUMPDEST PUSH1 0x0 PUSH2 0x2EE2 PUSH1 0x2E DUP4 PUSH2 0x25AF JUMP JUMPDEST SWAP2 POP PUSH2 0x2EED DUP3 PUSH2 0x2E86 JUMP JUMPDEST PUSH1 0x40 DUP3 ADD SWAP1 POP SWAP2 SWAP1 POP JUMP JUMPDEST PUSH1 0x0 PUSH1 0x20 DUP3 ADD SWAP1 POP DUP2 DUP2 SUB PUSH1 0x0 DUP4 ADD MSTORE PUSH2 0x2F11 DUP2 PUSH2 0x2ED5 JUMP JUMPDEST SWAP1 POP SWAP2 SWAP1 POP JUMP JUMPDEST PUSH32 0x486F757365206973206E6F7420666F722073616C650000000000000000000000 PUSH1 0x0 DUP3 ADD MSTORE POP JUMP JUMPDEST PUSH1 0x0 PUSH2 0x2F4E PUSH1 0x15 DUP4 PUSH2 0x25AF JUMP JUMPDEST SWAP2 POP PUSH2 0x2F59 DUP3 PUSH2 0x2F18 JUMP JUMPDEST PUSH1 0x20 DUP3 ADD SWAP1 POP SWAP2 SWAP1 POP JUMP JUMPDEST PUSH1 0x0 PUSH1 0x20 DUP3 ADD SWAP1 POP DUP2 DUP2 SUB PUSH1 0x0 DUP4 ADD MSTORE PUSH2 0x2F7D DUP2 PUSH2 0x2F41 JUMP JUMPDEST SWAP1 POP SWAP2 SWAP1 POP JUMP JUMPDEST PUSH32 0x4E487B7100000000000000000000000000000000000000000000000000000000 PUSH1 0x0 MSTORE PUSH1 0x11 PUSH1 0x4 MSTORE PUSH1 0x24 PUSH1 0x0 REVERT JUMPDEST PUSH1 0x0 PUSH2 0x2FBE DUP3 PUSH2 0x2656 JUMP JUMPDEST SWAP2 POP PUSH2 0x2FC9 DUP4 PUSH2 0x2656 JUMP JUMPDEST SWAP3 POP DUP3 DUP3 MUL PUSH2 0x2FD7 DUP2 PUSH2 0x2656 JUMP JUMPDEST SWAP2 POP DUP3 DUP3 DIV DUP5 EQ DUP4 ISZERO OR PUSH2 0x2FEE JUMPI PUSH2 0x2FED PUSH2 0x2F84 JUMP JUMPDEST JUMPDEST POP SWAP3 SWAP2 POP POP JUMP JUMPDEST PUSH1 0x0 DUP2 MLOAD SWAP1 POP PUSH2 0x3004 DUP2 PUSH2 0x2660 JUMP JUMPDEST SWAP3 SWAP2 POP POP JUMP JUMPDEST PUSH1 0x0 PUSH1 0x20 DUP3 DUP5 SUB SLT ISZERO PUSH2 0x3020 JUMPI PUSH2 0x301F PUSH2 0x24DF JUMP JUMPDEST JUMPDEST PUSH1 0x0 PUSH2 0x302E DUP5 DUP3 DUP6 ADD PUSH2 0x2FF5 JUMP JUMPDEST SWAP2 POP POP SWAP3 SWAP2 POP POP JUMP JUMPDEST PUSH32 0x496E73756666696369656E742045524332302062616C616E6365000000000000 PUSH1 0x0 DUP3 ADD MSTORE POP JUMP JUMPDEST PUSH1 0x0 PUSH2 0x306D PUSH1 0x1A DUP4 PUSH2 0x25AF JUMP JUMPDEST SWAP2 POP PUSH2 0x3078 DUP3 PUSH2 0x3037 JUMP JUMPDEST PUSH1 0x20 DUP3 ADD SWAP1 POP SWAP2 SWAP1 POP JUMP JUMPDEST PUSH1 0x0 PUSH1 0x20 DUP3 ADD SWAP1 POP DUP2 DUP2 SUB PUSH1 0x0 DUP4 ADD MSTORE PUSH2 0x309C DUP2 PUSH2 0x3060 JUMP JUMPDEST SWAP1 POP SWAP2 SWAP1 POP JUMP JUMPDEST PUSH32 0x4E487B7100000000000000000000000000000000000000000000000000000000 PUSH1 0x0 MSTORE PUSH1 0x12 PUSH1 0x4 MSTORE PUSH1 0x24 PUSH1 0x0 REVERT JUMPDEST PUSH1 0x0 PUSH2 0x30DD DUP3 PUSH2 0x2656 JUMP JUMPDEST SWAP2 POP PUSH2 0x30E8 DUP4 PUSH2 0x2656 JUMP JUMPDEST SWAP3 POP DUP3 PUSH2 0x30F8 JUMPI PUSH2 0x30F7 PUSH2 0x30A3 JUMP JUMPDEST JUMPDEST DUP3 DUP3 DIV SWAP1 POP SWAP3 SWAP2 POP POP JUMP JUMPDEST PUSH1 0x0 PUSH2 0x310E DUP3 PUSH2 0x2656 JUMP JUMPDEST SWAP2 POP PUSH2 0x3119 DUP4 PUSH2 0x2656 JUMP JUMPDEST SWAP3 POP DUP3 DUP3 SUB SWAP1 POP DUP2 DUP2 GT ISZERO PUSH2 0x3131 JUMPI PUSH2 0x3130 PUSH2 0x2F84 JUMP JUMPDEST JUMPDEST SWAP3 SWAP2 POP POP JUMP JUMPDEST PUSH1 0x0 PUSH1 0x60 DUP3 ADD SWAP1 POP PUSH2 0x314C PUSH1 0x0 DUP4 ADD DUP7 PUSH2 0x26EB JUMP JUMPDEST PUSH2 0x3159 PUSH1 0x20 DUP4 ADD DUP6 PUSH2 0x26EB JUMP JUMPDEST PUSH2 0x3166 PUSH1 0x40 DUP4 ADD DUP5 PUSH2 0x287B JUMP JUMPDEST SWAP5 SWAP4 POP POP POP POP JUMP JUMPDEST PUSH32 0x4552433732313A20696E76616C696420746F6B656E2049440000000000000000 PUSH1 0x0 DUP3 ADD MSTORE POP JUMP JUMPDEST PUSH1 0x0 PUSH2 0x31A4 PUSH1 0x18 DUP4 PUSH2 0x25AF JUMP JUMPDEST SWAP2 POP PUSH2 0x31AF DUP3 PUSH2 0x316E JUMP JUMPDEST PUSH1 0x20 DUP3 ADD SWAP1 POP SWAP2 SWAP1 POP JUMP JUMPDEST PUSH1 0x0 PUSH1 0x20 DUP3 ADD SWAP1 POP DUP2 DUP2 SUB PUSH1 0x0 DUP4 ADD MSTORE PUSH2 0x31D3 DUP2 PUSH2 0x3197 JUMP JUMPDEST SWAP1 POP SWAP2 SWAP1 POP JUMP JUMPDEST PUSH32 0x4552433732313A2061646472657373207A65726F206973206E6F742061207661 PUSH1 0x0 DUP3 ADD MSTORE PUSH32 0x6C6964206F776E65720000000000000000000000000000000000000000000000 PUSH1 0x20 DUP3 ADD MSTORE POP JUMP JUMPDEST PUSH1 0x0 PUSH2 0x3236 PUSH1 0x29 DUP4 PUSH2 0x25AF JUMP JUMPDEST SWAP2 POP PUSH2 0x3241 DUP3 PUSH2 0x31DA JUMP JUMPDEST PUSH1 0x40 DUP3 ADD SWAP1 POP SWAP2 SWAP1 POP JUMP JUMPDEST PUSH1 0x0 PUSH1 0x20 DUP3 ADD SWAP1 POP DUP2 DUP2 SUB PUSH1 0x0 DUP4 ADD MSTORE PUSH2 0x3265 DUP2 PUSH2 0x3229 JUMP JUMPDEST SWAP1 POP SWAP2 SWAP1 POP JUMP JUMPDEST PUSH32 0x4E487B7100000000000000000000000000000000000000000000000000000000 PUSH1 0x0 MSTORE PUSH1 0x32 PUSH1 0x4 MSTORE PUSH1 0x24 PUSH1 0x0 REVERT JUMPDEST PUSH1 0x0 PUSH2 0x32A6 DUP3 PUSH2 0x2656 JUMP JUMPDEST SWAP2 POP PUSH32 0xFFFFFFFFFFFFFFFFFFFFFFFFFFFFFFFFFFFFFFFFFFFFFFFFFFFFFFFFFFFFFFFF DUP3 SUB PUSH2 0x32D8 JUMPI PUSH2 0x32D7 PUSH2 0x2F84 JUMP JUMPDEST JUMPDEST PUSH1 0x1 DUP3 ADD SWAP1 POP SWAP2 SWAP1 POP JUMP JUMPDEST PUSH32 0x596F7520646F206E6F74206F776E207468697320686F75736500000000000000 PUSH1 0x0 DUP3 ADD MSTORE POP JUMP JUMPDEST PUSH1 0x0 PUSH2 0x3319 PUSH1 0x19 DUP4 PUSH2 0x25AF JUMP JUMPDEST SWAP2 POP PUSH2 0x3324 DUP3 PUSH2 0x32E3 JUMP JUMPDEST PUSH1 0x20 DUP3 ADD SWAP1 POP SWAP2 SWAP1 POP JUMP JUMPDEST PUSH1 0x0 PUSH1 0x20 DUP3 ADD SWAP1 POP DUP2 DUP2 SUB PUSH1 0x0 DUP4 ADD MSTORE PUSH2 0x3348 DUP2 PUSH2 0x330C JUMP JUMPDEST SWAP1 POP SWAP2 SWAP1 POP JUMP JUMPDEST PUSH1 0x0 DUP2 SWAP1 POP SWAP3 SWAP2 POP POP JUMP JUMPDEST PUSH1 0x0 PUSH2 0x3365 DUP3 PUSH2 0x25A4 JUMP JUMPDEST PUSH2 0x336F DUP2 DUP6 PUSH2 0x334F JUMP JUMPDEST SWAP4 POP PUSH2 0x337F DUP2 DUP6 PUSH1 0x20 DUP7 ADD PUSH2 0x25C0 JUMP JUMPDEST DUP1 DUP5 ADD SWAP2 POP POP SWAP3 SWAP2 POP POP JUMP JUMPDEST PUSH1 0x0 PUSH2 0x3397 DUP3 DUP6 PUSH2 0x335A JUMP JUMPDEST SWAP2 POP PUSH2 0x33A3 DUP3 DUP5 PUSH2 0x335A JUMP JUMPDEST SWAP2 POP DUP2 SWAP1 POP SWAP4 SWAP3 POP POP POP JUMP JUMPDEST PUSH32 0x496E73756666696369656E742066756E647320746F2062757920746869732068 PUSH1 0x0 DUP3 ADD MSTORE PUSH32 0x6F75736500000000000000000000000000000000000000000000000000000000 PUSH1 0x20 DUP3 ADD MSTORE POP JUMP JUMPDEST PUSH1 0x0 PUSH2 0x340B PUSH1 0x24 DUP4 PUSH2 0x25AF JUMP JUMPDEST SWAP2 POP PUSH2 0x3416 DUP3 PUSH2 0x33AF JUMP JUMPDEST PUSH1 0x40 DUP3 ADD SWAP1 POP SWAP2 SWAP1 POP JUMP JUMPDEST PUSH1 0x0 PUSH1 0x20 DUP3 ADD SWAP1 POP DUP2 DUP2 SUB PUSH1 0x0 DUP4 ADD MSTORE PUSH2 0x343A DUP2 PUSH2 0x33FE JUMP JUMPDEST SWAP1 POP SWAP2 SWAP1 POP JUMP JUMPDEST PUSH32 0x4552433732313A207472616E736665722066726F6D20696E636F727265637420 PUSH1 0x0 DUP3 ADD MSTORE PUSH32 0x6F776E6572000000000000000000000000000000000000000000000000000000 PUSH1 0x20 DUP3 ADD MSTORE POP JUMP JUMPDEST PUSH1 0x0 PUSH2 0x349D PUSH1 0x25 DUP4 PUSH2 0x25AF JUMP JUMPDEST SWAP2 POP PUSH2 0x34A8 DUP3 PUSH2 0x3441 JUMP JUMPDEST PUSH1 0x40 DUP3 ADD SWAP1 POP SWAP2 SWAP1 POP JUMP JUMPDEST PUSH1 0x0 PUSH1 0x20 DUP3 ADD SWAP1 POP DUP2 DUP2 SUB PUSH1 0x0 DUP4 ADD MSTORE PUSH2 0x34CC DUP2 PUSH2 0x3490 JUMP JUMPDEST SWAP1 POP SWAP2 SWAP1 POP JUMP JUMPDEST PUSH32 0x4552433732313A207472616E7366657220746F20746865207A65726F20616464 PUSH1 0x0 DUP3 ADD MSTORE PUSH32 0x7265737300000000000000000000000000000000000000000000000000000000 PUSH1 0x20 DUP3 ADD MSTORE POP JUMP JUMPDEST PUSH1 0x0 PUSH2 0x352F PUSH1 0x24 DUP4 PUSH2 0x25AF JUMP JUMPDEST SWAP2 POP PUSH2 0x353A DUP3 PUSH2 0x34D3 JUMP JUMPDEST PUSH1 0x40 DUP3 ADD SWAP1 POP SWAP2 SWAP1 POP JUMP JUMPDEST PUSH1 0x0 PUSH1 0x20 DUP3 ADD SWAP1 POP DUP2 DUP2 SUB PUSH1 0x0 DUP4 ADD MSTORE PUSH2 0x355E DUP2 PUSH2 0x3522 JUMP JUMPDEST SWAP1 POP SWAP2 SWAP1 POP JUMP JUMPDEST PUSH1 0x0 PUSH2 0x3570 DUP3 PUSH2 0x2656 JUMP JUMPDEST SWAP2 POP PUSH2 0x357B DUP4 PUSH2 0x2656 JUMP JUMPDEST SWAP3 POP DUP3 DUP3 ADD SWAP1 POP DUP1 DUP3 GT ISZERO PUSH2 0x3593 JUMPI PUSH2 0x3592 PUSH2 0x2F84 JUMP JUMPDEST JUMPDEST SWAP3 SWAP2 POP POP JUMP JUMPDEST PUSH32 0x4552433732313A20617070726F766520746F2063616C6C657200000000000000 PUSH1 0x0 DUP3 ADD MSTORE POP JUMP JUMPDEST PUSH1 0x0 PUSH2 0x35CF PUSH1 0x19 DUP4 PUSH2 0x25AF JUMP JUMPDEST SWAP2 POP PUSH2 0x35DA DUP3 PUSH2 0x3599 JUMP JUMPDEST PUSH1 0x20 DUP3 ADD SWAP1 POP SWAP2 SWAP1 POP JUMP JUMPDEST PUSH1 0x0 PUSH1 0x20 DUP3 ADD SWAP1 POP DUP2 DUP2 SUB PUSH1 0x0 DUP4 ADD MSTORE PUSH2 0x35FE DUP2 PUSH2 0x35C2 JUMP JUMPDEST SWAP1 POP SWAP2 SWAP1 POP JUMP JUMPDEST PUSH32 0x4552433732313A207472616E7366657220746F206E6F6E204552433732315265 PUSH1 0x0 DUP3 ADD MSTORE PUSH32 0x63656976657220696D706C656D656E7465720000000000000000000000000000 PUSH1 0x20 DUP3 ADD MSTORE POP JUMP JUMPDEST PUSH1 0x0 PUSH2 0x3661 PUSH1 0x32 DUP4 PUSH2 0x25AF JUMP JUMPDEST SWAP2 POP PUSH2 0x366C DUP3 PUSH2 0x3605 JUMP JUMPDEST PUSH1 0x40 DUP3 ADD SWAP1 POP SWAP2 SWAP1 POP JUMP JUMPDEST PUSH1 0x0 PUSH1 0x20 DUP3 ADD SWAP1 POP DUP2 DUP2 SUB PUSH1 0x0 DUP4 ADD MSTORE PUSH2 0x3690 DUP2 PUSH2 0x3654 JUMP JUMPDEST SWAP1 POP SWAP2 SWAP1 POP JUMP JUMPDEST PUSH1 0x0 PUSH2 0x36A2 DUP3 PUSH2 0x2656 JUMP JUMPDEST SWAP2 POP PUSH2 0x36AD DUP4 PUSH2 0x2656 JUMP JUMPDEST SWAP3 POP DUP3 PUSH2 0x36BD JUMPI PUSH2 0x36BC PUSH2 0x30A3 JUMP JUMPDEST JUMPDEST DUP3 DUP3 MOD SWAP1 POP SWAP3 SWAP2 POP POP JUMP JUMPDEST PUSH32 0x4552433732313A206D696E7420746F20746865207A65726F2061646472657373 PUSH1 0x0 DUP3 ADD MSTORE POP JUMP JUMPDEST PUSH1 0x0 PUSH2 0x36FE PUSH1 0x20 DUP4 PUSH2 0x25AF JUMP JUMPDEST SWAP2 POP PUSH2 0x3709 DUP3 PUSH2 0x36C8 JUMP JUMPDEST PUSH1 0x20 DUP3 ADD SWAP1 POP SWAP2 SWAP1 POP JUMP JUMPDEST PUSH1 0x0 PUSH1 0x20 DUP3 ADD SWAP1 POP DUP2 DUP2 SUB PUSH1 0x0 DUP4 ADD MSTORE PUSH2 0x372D DUP2 PUSH2 0x36F1 JUMP JUMPDEST SWAP1 POP SWAP2 SWAP1 POP JUMP JUMPDEST PUSH32 0x4552433732313A20746F6B656E20616C7265616479206D696E74656400000000 PUSH1 0x0 DUP3 ADD MSTORE POP JUMP JUMPDEST PUSH1 0x0 PUSH2 0x376A PUSH1 0x1C DUP4 PUSH2 0x25AF JUMP JUMPDEST SWAP2 POP PUSH2 0x3775 DUP3 PUSH2 0x3734 JUMP JUMPDEST PUSH1 0x20 DUP3 ADD SWAP1 POP SWAP2 SWAP1 POP JUMP JUMPDEST PUSH1 0x0 PUSH1 0x20 DUP3 ADD SWAP1 POP DUP2 DUP2 SUB PUSH1 0x0 DUP4 ADD MSTORE PUSH2 0x3799 DUP2 PUSH2 0x375D JUMP JUMPDEST SWAP1 POP SWAP2 SWAP1 POP JUMP JUMPDEST PUSH1 0x0 DUP2 MLOAD SWAP1 POP SWAP2 SWAP1 POP JUMP JUMPDEST PUSH1 0x0 DUP3 DUP3 MSTORE PUSH1 0x20 DUP3 ADD SWAP1 POP SWAP3 SWAP2 POP POP JUMP JUMPDEST PUSH1 0x0 PUSH2 0x37C7 DUP3 PUSH2 0x37A0 JUMP JUMPDEST PUSH2 0x37D1 DUP2 DUP6 PUSH2 0x37AB JUMP JUMPDEST SWAP4 POP PUSH2 0x37E1 DUP2 DUP6 PUSH1 0x20 DUP7 ADD PUSH2 0x25C0 JUMP JUMPDEST PUSH2 0x37EA DUP2 PUSH2 0x25EA JUMP JUMPDEST DUP5 ADD SWAP2 POP POP SWAP3 SWAP2 POP POP JUMP JUMPDEST PUSH1 0x0 PUSH1 0x80 DUP3 ADD SWAP1 POP PUSH2 0x380A PUSH1 0x0 DUP4 ADD DUP8 PUSH2 0x26EB JUMP JUMPDEST PUSH2 0x3817 PUSH1 0x20 DUP4 ADD DUP7 PUSH2 0x26EB JUMP JUMPDEST PUSH2 0x3824 PUSH1 0x40 DUP4 ADD DUP6 PUSH2 0x287B JUMP JUMPDEST DUP2 DUP2 SUB PUSH1 0x60 DUP4 ADD MSTORE PUSH2 0x3836 DUP2 DUP5 PUSH2 0x37BC JUMP JUMPDEST SWAP1 POP SWAP6 SWAP5 POP POP POP POP POP JUMP JUMPDEST PUSH1 0x0 DUP2 MLOAD SWAP1 POP PUSH2 0x3850 DUP2 PUSH2 0x2515 JUMP JUMPDEST SWAP3 SWAP2 POP POP JUMP JUMPDEST PUSH1 0x0 PUSH1 0x20 DUP3 DUP5 SUB SLT ISZERO PUSH2 0x386C JUMPI PUSH2 0x386B PUSH2 0x24DF JUMP JUMPDEST JUMPDEST PUSH1 0x0 PUSH2 0x387A DUP5 DUP3 DUP6 ADD PUSH2 0x3841 JUMP JUMPDEST SWAP2 POP POP SWAP3 SWAP2 POP POP JUMP INVALID LOG2 PUSH5 0x6970667358 0x22 SLT KECCAK256 0xDA SELFBALANCE GT DUP5 EXTCODECOPY CODECOPY PUSH12 0x21FF6F8BAB360B8239D5687 0x49 SWAP4 0xBF 0xAF EXTCODESIZE GT 0xEC PUSH26 0xC2020727D264736F6C634300081400336080604052600A600755 PUSH8 0xDE0B6B3A7640000 PUSH1 0x8 SSTORE PUSH9 0x3635C9ADC5DEA00000 PUSH1 0x9 SSTORE CALLVALUE DUP1 ISZERO PUSH3 0x2F JUMPI PUSH1 0x0 DUP1 REVERT JUMPDEST POP PUSH1 0x40 MLOAD PUSH3 0x1F76 CODESIZE SUB DUP1 PUSH3 0x1F76 DUP4 CODECOPY DUP2 DUP2 ADD PUSH1 0x40 MSTORE DUP2 ADD SWAP1 PUSH3 0x55 SWAP2 SWAP1 PUSH3 0x259 JUMP JUMPDEST DUP2 DUP2 DUP2 PUSH1 0x3 SWAP1 DUP2 PUSH3 0x68 SWAP2 SWAP1 PUSH3 0x529 JUMP JUMPDEST POP DUP1 PUSH1 0x4 SWAP1 DUP2 PUSH3 0x7A SWAP2 SWAP1 PUSH3 0x529 JUMP JUMPDEST POP POP POP CALLER PUSH1 0x6 PUSH1 0x0 PUSH2 0x100 EXP DUP2 SLOAD DUP2 PUSH20 0xFFFFFFFFFFFFFFFFFFFFFFFFFFFFFFFFFFFFFFFF MUL NOT AND SWAP1 DUP4 PUSH20 0xFFFFFFFFFFFFFFFFFFFFFFFFFFFFFFFFFFFFFFFF AND MUL OR SWAP1 SSTORE POP POP POP PUSH3 0x610 JUMP JUMPDEST PUSH1 0x0 PUSH1 0x40 MLOAD SWAP1 POP SWAP1 JUMP JUMPDEST PUSH1 0x0 DUP1 REVERT JUMPDEST PUSH1 0x0 DUP1 REVERT JUMPDEST PUSH1 0x0 DUP1 REVERT JUMPDEST PUSH1 0x0 DUP1 REVERT JUMPDEST PUSH1 0x0 PUSH1 0x1F NOT PUSH1 0x1F DUP4 ADD AND SWAP1 POP SWAP2 SWAP1 POP JUMP JUMPDEST PUSH32 0x4E487B7100000000000000000000000000000000000000000000000000000000 PUSH1 0x0 MSTORE PUSH1 0x41 PUSH1 0x4 MSTORE PUSH1 0x24 PUSH1 0x0 REVERT JUMPDEST PUSH3 0x12F DUP3 PUSH3 0xE4 JUMP JUMPDEST DUP2 ADD DUP2 DUP2 LT PUSH8 0xFFFFFFFFFFFFFFFF DUP3 GT OR ISZERO PUSH3 0x151 JUMPI PUSH3 0x150 PUSH3 0xF5 JUMP JUMPDEST JUMPDEST DUP1 PUSH1 0x40 MSTORE POP POP POP JUMP JUMPDEST PUSH1 0x0 PUSH3 0x166 PUSH3 0xC6 JUMP JUMPDEST SWAP1 POP PUSH3 0x174 DUP3 DUP3 PUSH3 0x124 JUMP JUMPDEST SWAP2 SWAP1 POP JUMP JUMPDEST PUSH1 0x0 PUSH8 0xFFFFFFFFFFFFFFFF DUP3 GT ISZERO PUSH3 0x197 JUMPI PUSH3 0x196 PUSH3 0xF5 JUMP JUMPDEST JUMPDEST PUSH3 0x1A2 DUP3 PUSH3 0xE4 JUMP JUMPDEST SWAP1 POP PUSH1 0x20 DUP2 ADD SWAP1 POP SWAP2 SWAP1 POP JUMP JUMPDEST PUSH1 0x0 JUMPDEST DUP4 DUP2 LT ISZERO PUSH3 0x1CF JUMPI DUP1 DUP3 ADD MLOAD DUP2 DUP5 ADD MSTORE PUSH1 0x20 DUP2 ADD SWAP1 POP PUSH3 0x1B2 JUMP JUMPDEST PUSH1 0x0 DUP5 DUP5 ADD MSTORE POP POP POP POP JUMP JUMPDEST PUSH1 0x0 PUSH3 0x1F2 PUSH3 0x1EC DUP5 PUSH3 0x179 JUMP JUMPDEST PUSH3 0x15A JUMP JUMPDEST SWAP1 POP DUP3 DUP2 MSTORE PUSH1 0x20 DUP2 ADD DUP5 DUP5 DUP5 ADD GT ISZERO PUSH3 0x211 JUMPI PUSH3 0x210 PUSH3 0xDF JUMP JUMPDEST JUMPDEST PUSH3 0x21E DUP5 DUP3 DUP6 PUSH3 0x1AF JUMP JUMPDEST POP SWAP4 SWAP3 POP POP POP JUMP JUMPDEST PUSH1 0x0 DUP3 PUSH1 0x1F DUP4 ADD SLT PUSH3 0x23E JUMPI PUSH3 0x23D PUSH3 0xDA JUMP JUMPDEST JUMPDEST DUP2 MLOAD PUSH3 0x250 DUP5 DUP3 PUSH1 0x20 DUP7 ADD PUSH3 0x1DB JUMP JUMPDEST SWAP2 POP POP SWAP3 SWAP2 POP POP JUMP JUMPDEST PUSH1 0x0 DUP1 PUSH1 0x40 DUP4 DUP6 SUB SLT ISZERO PUSH3 0x273 JUMPI PUSH3 0x272 PUSH3 0xD0 JUMP JUMPDEST JUMPDEST PUSH1 0x0 DUP4 ADD MLOAD PUSH8 0xFFFFFFFFFFFFFFFF DUP2 GT ISZERO PUSH3 0x294 JUMPI PUSH3 0x293 PUSH3 0xD5 JUMP JUMPDEST JUMPDEST PUSH3 0x2A2 DUP6 DUP3 DUP7 ADD PUSH3 0x226 JUMP JUMPDEST SWAP3 POP POP PUSH1 0x20 DUP4 ADD MLOAD PUSH8 0xFFFFFFFFFFFFFFFF DUP2 GT ISZERO PUSH3 0x2C6 JUMPI PUSH3 0x2C5 PUSH3 0xD5 JUMP JUMPDEST JUMPDEST PUSH3 0x2D4 DUP6 DUP3 DUP7 ADD PUSH3 0x226 JUMP JUMPDEST SWAP2 POP POP SWAP3 POP SWAP3 SWAP1 POP JUMP JUMPDEST PUSH1 0x0 DUP2 MLOAD SWAP1 POP SWAP2 SWAP1 POP JUMP JUMPDEST PUSH32 0x4E487B7100000000000000000000000000000000000000000000000000000000 PUSH1 0x0 MSTORE PUSH1 0x22 PUSH1 0x4 MSTORE PUSH1 0x24 PUSH1 0x0 REVERT JUMPDEST PUSH1 0x0 PUSH1 0x2 DUP3 DIV SWAP1 POP PUSH1 0x1 DUP3 AND DUP1 PUSH3 0x331 JUMPI PUSH1 0x7F DUP3 AND SWAP2 POP JUMPDEST PUSH1 0x20 DUP3 LT DUP2 SUB PUSH3 0x347 JUMPI PUSH3 0x346 PUSH3 0x2E9 JUMP JUMPDEST JUMPDEST POP SWAP2 SWAP1 POP JUMP JUMPDEST PUSH1 0x0 DUP2 SWAP1 POP DUP2 PUSH1 0x0 MSTORE PUSH1 0x20 PUSH1 0x0 KECCAK256 SWAP1 POP SWAP2 SWAP1 POP JUMP JUMPDEST PUSH1 0x0 PUSH1 0x20 PUSH1 0x1F DUP4 ADD DIV SWAP1 POP SWAP2 SWAP1 POP JUMP JUMPDEST PUSH1 0x0 DUP3 DUP3 SHL SWAP1 POP SWAP3 SWAP2 POP POP JUMP JUMPDEST PUSH1 0x0 PUSH1 0x8 DUP4 MUL PUSH3 0x3B1 PUSH32 0xFFFFFFFFFFFFFFFFFFFFFFFFFFFFFFFFFFFFFFFFFFFFFFFFFFFFFFFFFFFFFFFF DUP3 PUSH3 0x372 JUMP JUMPDEST PUSH3 0x3BD DUP7 DUP4 PUSH3 0x372 JUMP JUMPDEST SWAP6 POP DUP1 NOT DUP5 AND SWAP4 POP DUP1 DUP7 AND DUP5 OR SWAP3 POP POP POP SWAP4 SWAP3 POP POP POP JUMP JUMPDEST PUSH1 0x0 DUP2 SWAP1 POP SWAP2 SWAP1 POP JUMP JUMPDEST PUSH1 0x0 DUP2 SWAP1 POP SWAP2 SWAP1 POP JUMP JUMPDEST PUSH1 0x0 PUSH3 0x40A PUSH3 0x404 PUSH3 0x3FE DUP5 PUSH3 0x3D5 JUMP JUMPDEST PUSH3 0x3DF JUMP JUMPDEST PUSH3 0x3D5 JUMP JUMPDEST SWAP1 POP SWAP2 SWAP1 POP JUMP JUMPDEST PUSH1 0x0 DUP2 SWAP1 POP SWAP2 SWAP1 POP JUMP JUMPDEST PUSH3 0x426 DUP4 PUSH3 0x3E9 JUMP JUMPDEST PUSH3 0x43E PUSH3 0x435 DUP3 PUSH3 0x411 JUMP JUMPDEST DUP5 DUP5 SLOAD PUSH3 0x37F JUMP JUMPDEST DUP3 SSTORE POP POP POP POP JUMP JUMPDEST PUSH1 0x0 SWAP1 JUMP JUMPDEST PUSH3 0x455 PUSH3 0x446 JUMP JUMPDEST PUSH3 0x462 DUP2 DUP5 DUP5 PUSH3 0x41B JUMP JUMPDEST POP POP POP JUMP JUMPDEST JUMPDEST DUP2 DUP2 LT ISZERO PUSH3 0x48A JUMPI PUSH3 0x47E PUSH1 0x0 DUP3 PUSH3 0x44B JUMP JUMPDEST PUSH1 0x1 DUP2 ADD SWAP1 POP PUSH3 0x468 JUMP JUMPDEST POP POP JUMP JUMPDEST PUSH1 0x1F DUP3 GT ISZERO PUSH3 0x4D9 JUMPI PUSH3 0x4A3 DUP2 PUSH3 0x34D JUMP JUMPDEST PUSH3 0x4AE DUP5 PUSH3 0x362 JUMP JUMPDEST DUP2 ADD PUSH1 0x20 DUP6 LT ISZERO PUSH3 0x4BE JUMPI DUP2 SWAP1 POP JUMPDEST PUSH3 0x4D6 PUSH3 0x4CD DUP6 PUSH3 0x362 JUMP JUMPDEST DUP4 ADD DUP3 PUSH3 0x467 JUMP JUMPDEST POP POP JUMPDEST POP POP POP JUMP JUMPDEST PUSH1 0x0 DUP3 DUP3 SHR SWAP1 POP SWAP3 SWAP2 POP POP JUMP JUMPDEST PUSH1 0x0 PUSH3 0x4FE PUSH1 0x0 NOT DUP5 PUSH1 0x8 MUL PUSH3 0x4DE JUMP JUMPDEST NOT DUP1 DUP4 AND SWAP2 POP POP SWAP3 SWAP2 POP POP JUMP JUMPDEST PUSH1 0x0 PUSH3 0x519 DUP4 DUP4 PUSH3 0x4EB JUMP JUMPDEST SWAP2 POP DUP3 PUSH1 0x2 MUL DUP3 OR SWAP1 POP SWAP3 SWAP2 POP POP JUMP JUMPDEST PUSH3 0x534 DUP3 PUSH3 0x2DE JUMP JUMPDEST PUSH8 0xFFFFFFFFFFFFFFFF DUP2 GT ISZERO PUSH3 0x550 JUMPI PUSH3 0x54F PUSH3 0xF5 JUMP JUMPDEST JUMPDEST PUSH3 0x55C DUP3 SLOAD PUSH3 0x318 JUMP JUMPDEST PUSH3 0x569 DUP3 DUP3 DUP6 PUSH3 0x48E JUMP JUMPDEST PUSH1 0x0 PUSH1 0x20 SWAP1 POP PUSH1 0x1F DUP4 GT PUSH1 0x1 DUP2 EQ PUSH3 0x5A1 JUMPI PUSH1 0x0 DUP5 ISZERO PUSH3 0x58C JUMPI DUP3 DUP8 ADD MLOAD SWAP1 POP JUMPDEST PUSH3 0x598 DUP6 DUP3 PUSH3 0x50B JUMP JUMPDEST DUP7 SSTORE POP PUSH3 0x608 JUMP JUMPDEST PUSH1 0x1F NOT DUP5 AND PUSH3 0x5B1 DUP7 PUSH3 0x34D JUMP JUMPDEST PUSH1 0x0 JUMPDEST DUP3 DUP2 LT ISZERO PUSH3 0x5DB JUMPI DUP5 DUP10 ADD MLOAD DUP3 SSTORE PUSH1 0x1 DUP3 ADD SWAP2 POP PUSH1 0x20 DUP6 ADD SWAP5 POP PUSH1 0x20 DUP2 ADD SWAP1 POP PUSH3 0x5B4 JUMP JUMPDEST DUP7 DUP4 LT ISZERO PUSH3 0x5FB JUMPI DUP5 DUP10 ADD MLOAD PUSH3 0x5F7 PUSH1 0x1F DUP10 AND DUP3 PUSH3 0x4EB JUMP JUMPDEST DUP4 SSTORE POP JUMPDEST PUSH1 0x1 PUSH1 0x2 DUP9 MUL ADD DUP9 SSTORE POP POP POP JUMPDEST POP POP POP POP POP POP JUMP JUMPDEST PUSH2 0x1956 DUP1 PUSH3 0x620 PUSH1 0x0 CODECOPY PUSH1 0x0 RETURN INVALID PUSH1 0x80 PUSH1 0x40 MSTORE PUSH1 0x4 CALLDATASIZE LT PUSH2 0x10D JUMPI PUSH1 0x0 CALLDATALOAD PUSH1 0xE0 SHR DUP1 PUSH4 0x7FFDF53E GT PUSH2 0x95 JUMPI DUP1 PUSH4 0xA464C487 GT PUSH2 0x64 JUMPI DUP1 PUSH4 0xA464C487 EQ PUSH2 0x36D JUMPI DUP1 PUSH4 0xA9059CBB EQ PUSH2 0x398 JUMPI DUP1 PUSH4 0xD0FEBE4C EQ PUSH2 0x3D5 JUMPI DUP1 PUSH4 0xDD62ED3E EQ PUSH2 0x3DF JUMPI DUP1 PUSH4 0xEB8571C8 EQ PUSH2 0x41C JUMPI PUSH2 0x114 JUMP JUMPDEST DUP1 PUSH4 0x7FFDF53E EQ PUSH2 0x2D0 JUMPI DUP1 PUSH4 0x95D89B41 EQ PUSH2 0x2FB JUMPI DUP1 PUSH4 0x9B80D687 EQ PUSH2 0x326 JUMPI DUP1 PUSH4 0xA457C2D7 EQ PUSH2 0x330 JUMPI PUSH2 0x114 JUMP JUMPDEST DUP1 PUSH4 0x23B872DD GT PUSH2 0xDC JUMPI DUP1 PUSH4 0x23B872DD EQ PUSH2 0x1D7 JUMPI DUP1 PUSH4 0x313CE567 EQ PUSH2 0x214 JUMPI DUP1 PUSH4 0x3884D635 EQ PUSH2 0x23F JUMPI DUP1 PUSH4 0x39509351 EQ PUSH2 0x256 JUMPI DUP1 PUSH4 0x70A08231 EQ PUSH2 0x293 JUMPI PUSH2 0x114 JUMP JUMPDEST DUP1 PUSH4 0x6FDDE03 EQ PUSH2 0x119 JUMPI DUP1 PUSH4 0x95EA7B3 EQ PUSH2 0x144 JUMPI DUP1 PUSH4 0x18160DDD EQ PUSH2 0x181 JUMPI DUP1 PUSH4 0x1B8E94A1 EQ PUSH2 0x1AC JUMPI PUSH2 0x114 JUMP JUMPDEST CALLDATASIZE PUSH2 0x114 JUMPI STOP JUMPDEST PUSH1 0x0 DUP1 REVERT JUMPDEST CALLVALUE DUP1 ISZERO PUSH2 0x125 JUMPI PUSH1 0x0 DUP1 REVERT JUMPDEST POP PUSH2 0x12E PUSH2 0x445 JUMP JUMPDEST PUSH1 0x40 MLOAD PUSH2 0x13B SWAP2 SWAP1 PUSH2 0x101B JUMP JUMPDEST PUSH1 0x40 MLOAD DUP1 SWAP2 SUB SWAP1 RETURN JUMPDEST CALLVALUE DUP1 ISZERO PUSH2 0x150 JUMPI PUSH1 0x0 DUP1 REVERT JUMPDEST POP PUSH2 0x16B PUSH1 0x4 DUP1 CALLDATASIZE SUB DUP2 ADD SWAP1 PUSH2 0x166 SWAP2 SWAP1 PUSH2 0x10D6 JUMP JUMPDEST PUSH2 0x4D7 JUMP JUMPDEST PUSH1 0x40 MLOAD PUSH2 0x178 SWAP2 SWAP1 PUSH2 0x1131 JUMP JUMPDEST PUSH1 0x40 MLOAD DUP1 SWAP2 SUB SWAP1 RETURN JUMPDEST CALLVALUE DUP1 ISZERO PUSH2 0x18D JUMPI PUSH1 0x0 DUP1 REVERT JUMPDEST POP PUSH2 0x196 PUSH2 0x4FA JUMP JUMPDEST PUSH1 0x40 MLOAD PUSH2 0x1A3 SWAP2 SWAP1 PUSH2 0x115B JUMP JUMPDEST PUSH1 0x40 MLOAD DUP1 SWAP2 SUB SWAP1 RETURN JUMPDEST CALLVALUE DUP1 ISZERO PUSH2 0x1B8 JUMPI PUSH1 0x0 DUP1 REVERT JUMPDEST POP PUSH2 0x1C1 PUSH2 0x504 JUMP JUMPDEST PUSH1 0x40 MLOAD PUSH2 0x1CE SWAP2 SWAP1 PUSH2 0x115B JUMP JUMPDEST PUSH1 0x40 MLOAD DUP1 SWAP2 SUB SWAP1 RETURN JUMPDEST CALLVALUE DUP1 ISZERO PUSH2 0x1E3 JUMPI PUSH1 0x0 DUP1 REVERT JUMPDEST POP PUSH2 0x1FE PUSH1 0x4 DUP1 CALLDATASIZE SUB DUP2 ADD SWAP1 PUSH2 0x1F9 SWAP2 SWAP1 PUSH2 0x1176 JUMP JUMPDEST PUSH2 0x50A JUMP JUMPDEST PUSH1 0x40 MLOAD PUSH2 0x20B SWAP2 SWAP1 PUSH2 0x1131 JUMP JUMPDEST PUSH1 0x40 MLOAD DUP1 SWAP2 SUB SWAP1 RETURN JUMPDEST CALLVALUE DUP1 ISZERO PUSH2 0x220 JUMPI PUSH1 0x0 DUP1 REVERT JUMPDEST POP PUSH2 0x229 PUSH2 0x539 JUMP JUMPDEST PUSH1 0x40 MLOAD PUSH2 0x236 SWAP2 SWAP1 PUSH2 0x11E5 JUMP JUMPDEST PUSH1 0x40 MLOAD DUP1 SWAP2 SUB SWAP1 RETURN JUMPDEST CALLVALUE DUP1 ISZERO PUSH2 0x24B JUMPI PUSH1 0x0 DUP1 REVERT JUMPDEST POP PUSH2 0x254 PUSH2 0x542 JUMP JUMPDEST STOP JUMPDEST CALLVALUE DUP1 ISZERO PUSH2 0x262 JUMPI PUSH1 0x0 DUP1 REVERT JUMPDEST POP PUSH2 0x27D PUSH1 0x4 DUP1 CALLDATASIZE SUB DUP2 ADD SWAP1 PUSH2 0x278 SWAP2 SWAP1 PUSH2 0x10D6 JUMP JUMPDEST PUSH2 0x635 JUMP JUMPDEST PUSH1 0x40 MLOAD PUSH2 0x28A SWAP2 SWAP1 PUSH2 0x1131 JUMP JUMPDEST PUSH1 0x40 MLOAD DUP1 SWAP2 SUB SWAP1 RETURN JUMPDEST CALLVALUE DUP1 ISZERO PUSH2 0x29F JUMPI PUSH1 0x0 DUP1 REVERT JUMPDEST POP PUSH2 0x2BA PUSH1 0x4 DUP1 CALLDATASIZE SUB DUP2 ADD SWAP1 PUSH2 0x2B5 SWAP2 SWAP1 PUSH2 0x1200 JUMP JUMPDEST PUSH2 0x66C JUMP JUMPDEST PUSH1 0x40 MLOAD PUSH2 0x2C7 SWAP2 SWAP1 PUSH2 0x115B JUMP JUMPDEST PUSH1 0x40 MLOAD DUP1 SWAP2 SUB SWAP1 RETURN JUMPDEST CALLVALUE DUP1 ISZERO PUSH2 0x2DC JUMPI PUSH1 0x0 DUP1 REVERT JUMPDEST POP PUSH2 0x2E5 PUSH2 0x6B4 JUMP JUMPDEST PUSH1 0x40 MLOAD PUSH2 0x2F2 SWAP2 SWAP1 PUSH2 0x115B JUMP JUMPDEST PUSH1 0x40 MLOAD DUP1 SWAP2 SUB SWAP1 RETURN JUMPDEST CALLVALUE DUP1 ISZERO PUSH2 0x307 JUMPI PUSH1 0x0 DUP1 REVERT JUMPDEST POP PUSH2 0x310 PUSH2 0x6BA JUMP JUMPDEST PUSH1 0x40 MLOAD PUSH2 0x31D SWAP2 SWAP1 PUSH2 0x101B JUMP JUMPDEST PUSH1 0x40 MLOAD DUP1 SWAP2 SUB SWAP1 RETURN JUMPDEST PUSH2 0x32E PUSH2 0x74C JUMP JUMPDEST STOP JUMPDEST CALLVALUE DUP1 ISZERO PUSH2 0x33C JUMPI PUSH1 0x0 DUP1 REVERT JUMPDEST POP PUSH2 0x357 PUSH1 0x4 DUP1 CALLDATASIZE SUB DUP2 ADD SWAP1 PUSH2 0x352 SWAP2 SWAP1 PUSH2 0x10D6 JUMP JUMPDEST PUSH2 0x7AE JUMP JUMPDEST PUSH1 0x40 MLOAD PUSH2 0x364 SWAP2 SWAP1 PUSH2 0x1131 JUMP JUMPDEST PUSH1 0x40 MLOAD DUP1 SWAP2 SUB SWAP1 RETURN JUMPDEST CALLVALUE DUP1 ISZERO PUSH2 0x379 JUMPI PUSH1 0x0 DUP1 REVERT JUMPDEST POP PUSH2 0x382 PUSH2 0x825 JUMP JUMPDEST PUSH1 0x40 MLOAD PUSH2 0x38F SWAP2 SWAP1 PUSH2 0x115B JUMP JUMPDEST PUSH1 0x40 MLOAD DUP1 SWAP2 SUB SWAP1 RETURN JUMPDEST CALLVALUE DUP1 ISZERO PUSH2 0x3A4 JUMPI PUSH1 0x0 DUP1 REVERT JUMPDEST POP PUSH2 0x3BF PUSH1 0x4 DUP1 CALLDATASIZE SUB DUP2 ADD SWAP1 PUSH2 0x3BA SWAP2 SWAP1 PUSH2 0x10D6 JUMP JUMPDEST PUSH2 0x82B JUMP JUMPDEST PUSH1 0x40 MLOAD PUSH2 0x3CC SWAP2 SWAP1 PUSH2 0x1131 JUMP JUMPDEST PUSH1 0x40 MLOAD DUP1 SWAP2 SUB SWAP1 RETURN JUMPDEST PUSH2 0x3DD PUSH2 0x84E JUMP JUMPDEST STOP JUMPDEST CALLVALUE DUP1 ISZERO PUSH2 0x3EB JUMPI PUSH1 0x0 DUP1 REVERT JUMPDEST POP PUSH2 0x406 PUSH1 0x4 DUP1 CALLDATASIZE SUB DUP2 ADD SWAP1 PUSH2 0x401 SWAP2 SWAP1 PUSH2 0x122D JUMP JUMPDEST PUSH2 0x8AF JUMP JUMPDEST PUSH1 0x40 MLOAD PUSH2 0x413 SWAP2 SWAP1 PUSH2 0x115B JUMP JUMPDEST PUSH1 0x40 MLOAD DUP1 SWAP2 SUB SWAP1 RETURN JUMPDEST CALLVALUE DUP1 ISZERO PUSH2 0x428 JUMPI PUSH1 0x0 DUP1 REVERT JUMPDEST POP PUSH2 0x443 PUSH1 0x4 DUP1 CALLDATASIZE SUB DUP2 ADD SWAP1 PUSH2 0x43E SWAP2 SWAP1 PUSH2 0x1176 JUMP JUMPDEST PUSH2 0x936 JUMP JUMPDEST STOP JUMPDEST PUSH1 0x60 PUSH1 0x3 DUP1 SLOAD PUSH2 0x454 SWAP1 PUSH2 0x129C JUMP JUMPDEST DUP1 PUSH1 0x1F ADD PUSH1 0x20 DUP1 SWAP2 DIV MUL PUSH1 0x20 ADD PUSH1 0x40 MLOAD SWAP1 DUP2 ADD PUSH1 0x40 MSTORE DUP1 SWAP3 SWAP2 SWAP1 DUP2 DUP2 MSTORE PUSH1 0x20 ADD DUP3 DUP1 SLOAD PUSH2 0x480 SWAP1 PUSH2 0x129C JUMP JUMPDEST DUP1 ISZERO PUSH2 0x4CD JUMPI DUP1 PUSH1 0x1F LT PUSH2 0x4A2 JUMPI PUSH2 0x100 DUP1 DUP4 SLOAD DIV MUL DUP4 MSTORE SWAP2 PUSH1 0x20 ADD SWAP2 PUSH2 0x4CD JUMP JUMPDEST DUP3 ADD SWAP2 SWAP1 PUSH1 0x0 MSTORE PUSH1 0x20 PUSH1 0x0 KECCAK256 SWAP1 JUMPDEST DUP2 SLOAD DUP2 MSTORE SWAP1 PUSH1 0x1 ADD SWAP1 PUSH1 0x20 ADD DUP1 DUP4 GT PUSH2 0x4B0 JUMPI DUP3 SWAP1 SUB PUSH1 0x1F AND DUP3 ADD SWAP2 JUMPDEST POP POP POP POP POP SWAP1 POP SWAP1 JUMP JUMPDEST PUSH1 0x0 DUP1 PUSH2 0x4E2 PUSH2 0x946 JUMP JUMPDEST SWAP1 POP PUSH2 0x4EF DUP2 DUP6 DUP6 PUSH2 0x94E JUMP JUMPDEST PUSH1 0x1 SWAP2 POP POP SWAP3 SWAP2 POP POP JUMP JUMPDEST PUSH1 0x0 PUSH1 0x2 SLOAD SWAP1 POP SWAP1 JUMP JUMPDEST PUSH1 0x8 SLOAD DUP2 JUMP JUMPDEST PUSH1 0x0 DUP1 PUSH2 0x515 PUSH2 0x946 JUMP JUMPDEST SWAP1 POP PUSH2 0x522 DUP6 DUP3 DUP6 PUSH2 0xB17 JUMP JUMPDEST PUSH2 0x52D DUP6 DUP6 DUP6 PUSH2 0xBA3 JUMP JUMPDEST PUSH1 0x1 SWAP2 POP POP SWAP4 SWAP3 POP POP POP JUMP JUMPDEST PUSH1 0x0 PUSH1 0x12 SWAP1 POP SWAP1 JUMP JUMPDEST PUSH1 0x5 PUSH1 0x0 CALLER PUSH20 0xFFFFFFFFFFFFFFFFFFFFFFFFFFFFFFFFFFFFFFFF AND PUSH20 0xFFFFFFFFFFFFFFFFFFFFFFFFFFFFFFFFFFFFFFFF AND DUP2 MSTORE PUSH1 0x20 ADD SWAP1 DUP2 MSTORE PUSH1 0x20 ADD PUSH1 0x0 KECCAK256 PUSH1 0x0 SWAP1 SLOAD SWAP1 PUSH2 0x100 EXP SWAP1 DIV PUSH1 0xFF AND ISZERO PUSH2 0x5CF JUMPI PUSH1 0x40 MLOAD PUSH32 0x8C379A000000000000000000000000000000000000000000000000000000000 DUP2 MSTORE PUSH1 0x4 ADD PUSH2 0x5C6 SWAP1 PUSH2 0x133F JUMP JUMPDEST PUSH1 0x40 MLOAD DUP1 SWAP2 SUB SWAP1 REVERT JUMPDEST PUSH2 0x5DB CALLER PUSH1 0x9 SLOAD PUSH2 0xE22 JUMP JUMPDEST PUSH1 0x1 PUSH1 0x5 PUSH1 0x0 CALLER PUSH20 0xFFFFFFFFFFFFFFFFFFFFFFFFFFFFFFFFFFFFFFFF AND PUSH20 0xFFFFFFFFFFFFFFFFFFFFFFFFFFFFFFFFFFFFFFFF AND DUP2 MSTORE PUSH1 0x20 ADD SWAP1 DUP2 MSTORE PUSH1 0x20 ADD PUSH1 0x0 KECCAK256 PUSH1 0x0 PUSH2 0x100 EXP DUP2 SLOAD DUP2 PUSH1 0xFF MUL NOT AND SWAP1 DUP4 ISZERO ISZERO MUL OR SWAP1 SSTORE POP JUMP JUMPDEST PUSH1 0x0 DUP1 PUSH2 0x640 PUSH2 0x946 JUMP JUMPDEST SWAP1 POP PUSH2 0x661 DUP2 DUP6 DUP6 PUSH2 0x652 DUP6 DUP10 PUSH2 0x8AF JUMP JUMPDEST PUSH2 0x65C SWAP2 SWAP1 PUSH2 0x138E JUMP JUMPDEST PUSH2 0x94E JUMP JUMPDEST PUSH1 0x1 SWAP2 POP POP SWAP3 SWAP2 POP POP JUMP JUMPDEST PUSH1 0x0 DUP1 PUSH1 0x0 DUP4 PUSH20 0xFFFFFFFFFFFFFFFFFFFFFFFFFFFFFFFFFFFFFFFF AND PUSH20 0xFFFFFFFFFFFFFFFFFFFFFFFFFFFFFFFFFFFFFFFF AND DUP2 MSTORE PUSH1 0x20 ADD SWAP1 DUP2 MSTORE PUSH1 0x20 ADD PUSH1 0x0 KECCAK256 SLOAD SWAP1 POP SWAP2 SWAP1 POP JUMP JUMPDEST PUSH1 0x7 SLOAD DUP2 JUMP JUMPDEST PUSH1 0x60 PUSH1 0x4 DUP1 SLOAD PUSH2 0x6C9 SWAP1 PUSH2 0x129C JUMP JUMPDEST DUP1 PUSH1 0x1F ADD PUSH1 0x20 DUP1 SWAP2 DIV MUL PUSH1 0x20 ADD PUSH1 0x40 MLOAD SWAP1 DUP2 ADD PUSH1 0x40 MSTORE DUP1 SWAP3 SWAP2 SWAP1 DUP2 DUP2 MSTORE PUSH1 0x20 ADD DUP3 DUP1 SLOAD PUSH2 0x6F5 SWAP1 PUSH2 0x129C JUMP JUMPDEST DUP1 ISZERO PUSH2 0x742 JUMPI DUP1 PUSH1 0x1F LT PUSH2 0x717 JUMPI PUSH2 0x100 DUP1 DUP4 SLOAD DIV MUL DUP4 MSTORE SWAP2 PUSH1 0x20 ADD SWAP2 PUSH2 0x742 JUMP JUMPDEST DUP3 ADD SWAP2 SWAP1 PUSH1 0x0 MSTORE PUSH1 0x20 PUSH1 0x0 KECCAK256 SWAP1 JUMPDEST DUP2 SLOAD DUP2 MSTORE SWAP1 PUSH1 0x1 ADD SWAP1 PUSH1 0x20 ADD DUP1 DUP4 GT PUSH2 0x725 JUMPI DUP3 SWAP1 SUB PUSH1 0x1F AND DUP3 ADD SWAP2 JUMPDEST POP POP POP POP POP SWAP1 POP SWAP1 JUMP JUMPDEST PUSH1 0x0 CALLVALUE GT PUSH2 0x78F JUMPI PUSH1 0x40 MLOAD PUSH32 0x8C379A000000000000000000000000000000000000000000000000000000000 DUP2 MSTORE PUSH1 0x4 ADD PUSH2 0x786 SWAP1 PUSH2 0x140E JUMP JUMPDEST PUSH1 0x40 MLOAD DUP1 SWAP2 SUB SWAP1 REVERT JUMPDEST PUSH1 0x0 PUSH1 0x7 SLOAD CALLVALUE PUSH2 0x79F SWAP2 SWAP1 PUSH2 0x142E JUMP JUMPDEST SWAP1 POP PUSH2 0x7AB CALLER DUP3 PUSH2 0xE22 JUMP JUMPDEST POP JUMP JUMPDEST PUSH1 0x0 DUP1 PUSH2 0x7B9 PUSH2 0x946 JUMP JUMPDEST SWAP1 POP PUSH1 0x0 PUSH2 0x7C7 DUP3 DUP7 PUSH2 0x8AF JUMP JUMPDEST SWAP1 POP DUP4 DUP2 LT ISZERO PUSH2 0x80C JUMPI PUSH1 0x40 MLOAD PUSH32 0x8C379A000000000000000000000000000000000000000000000000000000000 DUP2 MSTORE PUSH1 0x4 ADD PUSH2 0x803 SWAP1 PUSH2 0x14E2 JUMP JUMPDEST PUSH1 0x40 MLOAD DUP1 SWAP2 SUB SWAP1 REVERT JUMPDEST PUSH2 0x819 DUP3 DUP7 DUP7 DUP5 SUB PUSH2 0x94E JUMP JUMPDEST PUSH1 0x1 SWAP3 POP POP POP SWAP3 SWAP2 POP POP JUMP JUMPDEST PUSH1 0x9 SLOAD DUP2 JUMP JUMPDEST PUSH1 0x0 DUP1 PUSH2 0x836 PUSH2 0x946 JUMP JUMPDEST SWAP1 POP PUSH2 0x843 DUP2 DUP6 DUP6 PUSH2 0xBA3 JUMP JUMPDEST PUSH1 0x1 SWAP2 POP POP SWAP3 SWAP2 POP POP JUMP JUMPDEST PUSH1 0x0 CALLVALUE GT PUSH2 0x891 JUMPI PUSH1 0x40 MLOAD PUSH32 0x8C379A000000000000000000000000000000000000000000000000000000000 DUP2 MSTORE PUSH1 0x4 ADD PUSH2 0x888 SWAP1 PUSH2 0x154E JUMP JUMPDEST PUSH1 0x40 MLOAD DUP1 SWAP2 SUB SWAP1 REVERT JUMPDEST PUSH1 0x0 PUSH1 0x64 CALLVALUE PUSH2 0x8A0 SWAP2 SWAP1 PUSH2 0x142E JUMP JUMPDEST SWAP1 POP PUSH2 0x8AC CALLER DUP3 PUSH2 0xE22 JUMP JUMPDEST POP JUMP JUMPDEST PUSH1 0x0 PUSH1 0x1 PUSH1 0x0 DUP5 PUSH20 0xFFFFFFFFFFFFFFFFFFFFFFFFFFFFFFFFFFFFFFFF AND PUSH20 0xFFFFFFFFFFFFFFFFFFFFFFFFFFFFFFFFFFFFFFFF AND DUP2 MSTORE PUSH1 0x20 ADD SWAP1 DUP2 MSTORE PUSH1 0x20 ADD PUSH1 0x0 KECCAK256 PUSH1 0x0 DUP4 PUSH20 0xFFFFFFFFFFFFFFFFFFFFFFFFFFFFFFFFFFFFFFFF AND PUSH20 0xFFFFFFFFFFFFFFFFFFFFFFFFFFFFFFFFFFFFFFFF AND DUP2 MSTORE PUSH1 0x20 ADD SWAP1 DUP2 MSTORE PUSH1 0x20 ADD PUSH1 0x0 KECCAK256 SLOAD SWAP1 POP SWAP3 SWAP2 POP POP JUMP JUMPDEST PUSH2 0x941 DUP4 DUP4 DUP4 PUSH2 0xBA3 JUMP JUMPDEST POP POP POP JUMP JUMPDEST PUSH1 0x0 CALLER SWAP1 POP SWAP1 JUMP JUMPDEST PUSH1 0x0 PUSH20 0xFFFFFFFFFFFFFFFFFFFFFFFFFFFFFFFFFFFFFFFF AND DUP4 PUSH20 0xFFFFFFFFFFFFFFFFFFFFFFFFFFFFFFFFFFFFFFFF AND SUB PUSH2 0x9BD JUMPI PUSH1 0x40 MLOAD PUSH32 0x8C379A000000000000000000000000000000000000000000000000000000000 DUP2 MSTORE PUSH1 0x4 ADD PUSH2 0x9B4 SWAP1 PUSH2 0x15E0 JUMP JUMPDEST PUSH1 0x40 MLOAD DUP1 SWAP2 SUB SWAP1 REVERT JUMPDEST PUSH1 0x0 PUSH20 0xFFFFFFFFFFFFFFFFFFFFFFFFFFFFFFFFFFFFFFFF AND DUP3 PUSH20 0xFFFFFFFFFFFFFFFFFFFFFFFFFFFFFFFFFFFFFFFF AND SUB PUSH2 0xA2C JUMPI PUSH1 0x40 MLOAD PUSH32 0x8C379A000000000000000000000000000000000000000000000000000000000 DUP2 MSTORE PUSH1 0x4 ADD PUSH2 0xA23 SWAP1 PUSH2 0x1672 JUMP JUMPDEST PUSH1 0x40 MLOAD DUP1 SWAP2 SUB SWAP1 REVERT JUMPDEST DUP1 PUSH1 0x1 PUSH1 0x0 DUP6 PUSH20 0xFFFFFFFFFFFFFFFFFFFFFFFFFFFFFFFFFFFFFFFF AND PUSH20 0xFFFFFFFFFFFFFFFFFFFFFFFFFFFFFFFFFFFFFFFF AND DUP2 MSTORE PUSH1 0x20 ADD SWAP1 DUP2 MSTORE PUSH1 0x20 ADD PUSH1 0x0 KECCAK256 PUSH1 0x0 DUP5 PUSH20 0xFFFFFFFFFFFFFFFFFFFFFFFFFFFFFFFFFFFFFFFF AND PUSH20 0xFFFFFFFFFFFFFFFFFFFFFFFFFFFFFFFFFFFFFFFF AND DUP2 MSTORE PUSH1 0x20 ADD SWAP1 DUP2 MSTORE PUSH1 0x20 ADD PUSH1 0x0 KECCAK256 DUP2 SWAP1 SSTORE POP DUP2 PUSH20 0xFFFFFFFFFFFFFFFFFFFFFFFFFFFFFFFFFFFFFFFF AND DUP4 PUSH20 0xFFFFFFFFFFFFFFFFFFFFFFFFFFFFFFFFFFFFFFFF AND PUSH32 0x8C5BE1E5EBEC7D5BD14F71427D1E84F3DD0314C0F7B2291E5B200AC8C7C3B925 DUP4 PUSH1 0x40 MLOAD PUSH2 0xB0A SWAP2 SWAP1 PUSH2 0x115B JUMP JUMPDEST PUSH1 0x40 MLOAD DUP1 SWAP2 SUB SWAP1 LOG3 POP POP POP JUMP JUMPDEST PUSH1 0x0 PUSH2 0xB23 DUP5 DUP5 PUSH2 0x8AF JUMP JUMPDEST SWAP1 POP PUSH32 0xFFFFFFFFFFFFFFFFFFFFFFFFFFFFFFFFFFFFFFFFFFFFFFFFFFFFFFFFFFFFFFFF DUP2 EQ PUSH2 0xB9D JUMPI DUP2 DUP2 LT ISZERO PUSH2 0xB8F JUMPI PUSH1 0x40 MLOAD PUSH32 0x8C379A000000000000000000000000000000000000000000000000000000000 DUP2 MSTORE PUSH1 0x4 ADD PUSH2 0xB86 SWAP1 PUSH2 0x16DE JUMP JUMPDEST PUSH1 0x40 MLOAD DUP1 SWAP2 SUB SWAP1 REVERT JUMPDEST PUSH2 0xB9C DUP5 DUP5 DUP5 DUP5 SUB PUSH2 0x94E JUMP JUMPDEST JUMPDEST POP POP POP POP JUMP JUMPDEST PUSH1 0x0 PUSH20 0xFFFFFFFFFFFFFFFFFFFFFFFFFFFFFFFFFFFFFFFF AND DUP4 PUSH20 0xFFFFFFFFFFFFFFFFFFFFFFFFFFFFFFFFFFFFFFFF AND SUB PUSH2 0xC12 JUMPI PUSH1 0x40 MLOAD PUSH32 0x8C379A000000000000000000000000000000000000000000000000000000000 DUP2 MSTORE PUSH1 0x4 ADD PUSH2 0xC09 SWAP1 PUSH2 0x1770 JUMP JUMPDEST PUSH1 0x40 MLOAD DUP1 SWAP2 SUB SWAP1 REVERT JUMPDEST PUSH1 0x0 PUSH20 0xFFFFFFFFFFFFFFFFFFFFFFFFFFFFFFFFFFFFFFFF AND DUP3 PUSH20 0xFFFFFFFFFFFFFFFFFFFFFFFFFFFFFFFFFFFFFFFF AND SUB PUSH2 0xC81 JUMPI PUSH1 0x40 MLOAD PUSH32 0x8C379A000000000000000000000000000000000000000000000000000000000 DUP2 MSTORE PUSH1 0x4 ADD PUSH2 0xC78 SWAP1 PUSH2 0x1802 JUMP JUMPDEST PUSH1 0x40 MLOAD DUP1 SWAP2 SUB SWAP1 REVERT JUMPDEST PUSH2 0xC8C DUP4 DUP4 DUP4 PUSH2 0xF81 JUMP JUMPDEST PUSH1 0x0 DUP1 PUSH1 0x0 DUP6 PUSH20 0xFFFFFFFFFFFFFFFFFFFFFFFFFFFFFFFFFFFFFFFF AND PUSH20 0xFFFFFFFFFFFFFFFFFFFFFFFFFFFFFFFFFFFFFFFF AND DUP2 MSTORE PUSH1 0x20 ADD SWAP1 DUP2 MSTORE PUSH1 0x20 ADD PUSH1 0x0 KECCAK256 SLOAD SWAP1 POP DUP2 DUP2 LT ISZERO PUSH2 0xD12 JUMPI PUSH1 0x40 MLOAD PUSH32 0x8C379A000000000000000000000000000000000000000000000000000000000 DUP2 MSTORE PUSH1 0x4 ADD PUSH2 0xD09 SWAP1 PUSH2 0x1894 JUMP JUMPDEST PUSH1 0x40 MLOAD DUP1 SWAP2 SUB SWAP1 REVERT JUMPDEST DUP2 DUP2 SUB PUSH1 0x0 DUP1 DUP7 PUSH20 0xFFFFFFFFFFFFFFFFFFFFFFFFFFFFFFFFFFFFFFFF AND PUSH20 0xFFFFFFFFFFFFFFFFFFFFFFFFFFFFFFFFFFFFFFFF AND DUP2 MSTORE PUSH1 0x20 ADD SWAP1 DUP2 MSTORE PUSH1 0x20 ADD PUSH1 0x0 KECCAK256 DUP2 SWAP1 SSTORE POP DUP2 PUSH1 0x0 DUP1 DUP6 PUSH20 0xFFFFFFFFFFFFFFFFFFFFFFFFFFFFFFFFFFFFFFFF AND PUSH20 0xFFFFFFFFFFFFFFFFFFFFFFFFFFFFFFFFFFFFFFFF AND DUP2 MSTORE PUSH1 0x20 ADD SWAP1 DUP2 MSTORE PUSH1 0x20 ADD PUSH1 0x0 KECCAK256 PUSH1 0x0 DUP3 DUP3 SLOAD PUSH2 0xDA5 SWAP2 SWAP1 PUSH2 0x138E JUMP JUMPDEST SWAP3 POP POP DUP2 SWAP1 SSTORE POP DUP3 PUSH20 0xFFFFFFFFFFFFFFFFFFFFFFFFFFFFFFFFFFFFFFFF AND DUP5 PUSH20 0xFFFFFFFFFFFFFFFFFFFFFFFFFFFFFFFFFFFFFFFF AND PUSH32 0xDDF252AD1BE2C89B69C2B068FC378DAA952BA7F163C4A11628F55A4DF523B3EF DUP5 PUSH1 0x40 MLOAD PUSH2 0xE09 SWAP2 SWAP1 PUSH2 0x115B JUMP JUMPDEST PUSH1 0x40 MLOAD DUP1 SWAP2 SUB SWAP1 LOG3 PUSH2 0xE1C DUP5 DUP5 DUP5 PUSH2 0xF86 JUMP JUMPDEST POP POP POP POP JUMP JUMPDEST PUSH1 0x0 PUSH20 0xFFFFFFFFFFFFFFFFFFFFFFFFFFFFFFFFFFFFFFFF AND DUP3 PUSH20 0xFFFFFFFFFFFFFFFFFFFFFFFFFFFFFFFFFFFFFFFF AND SUB PUSH2 0xE91 JUMPI PUSH1 0x40 MLOAD PUSH32 0x8C379A000000000000000000000000000000000000000000000000000000000 DUP2 MSTORE PUSH1 0x4 ADD PUSH2 0xE88 SWAP1 PUSH2 0x1900 JUMP JUMPDEST PUSH1 0x40 MLOAD DUP1 SWAP2 SUB SWAP1 REVERT JUMPDEST PUSH2 0xE9D PUSH1 0x0 DUP4 DUP4 PUSH2 0xF81 JUMP JUMPDEST DUP1 PUSH1 0x2 PUSH1 0x0 DUP3 DUP3 SLOAD PUSH2 0xEAF SWAP2 SWAP1 PUSH2 0x138E JUMP JUMPDEST SWAP3 POP POP DUP2 SWAP1 SSTORE POP DUP1 PUSH1 0x0 DUP1 DUP5 PUSH20 0xFFFFFFFFFFFFFFFFFFFFFFFFFFFFFFFFFFFFFFFF AND PUSH20 0xFFFFFFFFFFFFFFFFFFFFFFFFFFFFFFFFFFFFFFFF AND DUP2 MSTORE PUSH1 0x20 ADD SWAP1 DUP2 MSTORE PUSH1 0x20 ADD PUSH1 0x0 KECCAK256 PUSH1 0x0 DUP3 DUP3 SLOAD PUSH2 0xF04 SWAP2 SWAP1 PUSH2 0x138E JUMP JUMPDEST SWAP3 POP POP DUP2 SWAP1 SSTORE POP DUP2 PUSH20 0xFFFFFFFFFFFFFFFFFFFFFFFFFFFFFFFFFFFFFFFF AND PUSH1 0x0 PUSH20 0xFFFFFFFFFFFFFFFFFFFFFFFFFFFFFFFFFFFFFFFF AND PUSH32 0xDDF252AD1BE2C89B69C2B068FC378DAA952BA7F163C4A11628F55A4DF523B3EF DUP4 PUSH1 0x40 MLOAD PUSH2 0xF69 SWAP2 SWAP1 PUSH2 0x115B JUMP JUMPDEST PUSH1 0x40 MLOAD DUP1 SWAP2 SUB SWAP1 LOG3 PUSH2 0xF7D PUSH1 0x0 DUP4 DUP4 PUSH2 0xF86 JUMP JUMPDEST POP POP JUMP JUMPDEST POP POP POP JUMP JUMPDEST POP POP POP JUMP JUMPDEST PUSH1 0x0 DUP2 MLOAD SWAP1 POP SWAP2 SWAP1 POP JUMP JUMPDEST PUSH1 0x0 DUP3 DUP3 MSTORE PUSH1 0x20 DUP3 ADD SWAP1 POP SWAP3 SWAP2 POP POP JUMP JUMPDEST PUSH1 0x0 JUMPDEST DUP4 DUP2 LT ISZERO PUSH2 0xFC5 JUMPI DUP1 DUP3 ADD MLOAD DUP2 DUP5 ADD MSTORE PUSH1 0x20 DUP2 ADD SWAP1 POP PUSH2 0xFAA JUMP JUMPDEST PUSH1 0x0 DUP5 DUP5 ADD MSTORE POP POP POP POP JUMP JUMPDEST PUSH1 0x0 PUSH1 0x1F NOT PUSH1 0x1F DUP4 ADD AND SWAP1 POP SWAP2 SWAP1 POP JUMP JUMPDEST PUSH1 0x0 PUSH2 0xFED DUP3 PUSH2 0xF8B JUMP JUMPDEST PUSH2 0xFF7 DUP2 DUP6 PUSH2 0xF96 JUMP JUMPDEST SWAP4 POP PUSH2 0x1007 DUP2 DUP6 PUSH1 0x20 DUP7 ADD PUSH2 0xFA7 JUMP JUMPDEST PUSH2 0x1010 DUP2 PUSH2 0xFD1 JUMP JUMPDEST DUP5 ADD SWAP2 POP POP SWAP3 SWAP2 POP POP JUMP JUMPDEST PUSH1 0x0 PUSH1 0x20 DUP3 ADD SWAP1 POP DUP2 DUP2 SUB PUSH1 0x0 DUP4 ADD MSTORE PUSH2 0x1035 DUP2 DUP5 PUSH2 0xFE2 JUMP JUMPDEST SWAP1 POP SWAP3 SWAP2 POP POP JUMP JUMPDEST PUSH1 0x0 DUP1 REVERT JUMPDEST PUSH1 0x0 PUSH20 0xFFFFFFFFFFFFFFFFFFFFFFFFFFFFFFFFFFFFFFFF DUP3 AND SWAP1 POP SWAP2 SWAP1 POP JUMP JUMPDEST PUSH1 0x0 PUSH2 0x106D DUP3 PUSH2 0x1042 JUMP JUMPDEST SWAP1 POP SWAP2 SWAP1 POP JUMP JUMPDEST PUSH2 0x107D DUP2 PUSH2 0x1062 JUMP JUMPDEST DUP2 EQ PUSH2 0x1088 JUMPI PUSH1 0x0 DUP1 REVERT JUMPDEST POP JUMP JUMPDEST PUSH1 0x0 DUP2 CALLDATALOAD SWAP1 POP PUSH2 0x109A DUP2 PUSH2 0x1074 JUMP JUMPDEST SWAP3 SWAP2 POP POP JUMP JUMPDEST PUSH1 0x0 DUP2 SWAP1 POP SWAP2 SWAP1 POP JUMP JUMPDEST PUSH2 0x10B3 DUP2 PUSH2 0x10A0 JUMP JUMPDEST DUP2 EQ PUSH2 0x10BE JUMPI PUSH1 0x0 DUP1 REVERT JUMPDEST POP JUMP JUMPDEST PUSH1 0x0 DUP2 CALLDATALOAD SWAP1 POP PUSH2 0x10D0 DUP2 PUSH2 0x10AA JUMP JUMPDEST SWAP3 SWAP2 POP POP JUMP JUMPDEST PUSH1 0x0 DUP1 PUSH1 0x40 DUP4 DUP6 SUB SLT ISZERO PUSH2 0x10ED JUMPI PUSH2 0x10EC PUSH2 0x103D JUMP JUMPDEST JUMPDEST PUSH1 0x0 PUSH2 0x10FB DUP6 DUP3 DUP7 ADD PUSH2 0x108B JUMP JUMPDEST SWAP3 POP POP PUSH1 0x20 PUSH2 0x110C DUP6 DUP3 DUP7 ADD PUSH2 0x10C1 JUMP JUMPDEST SWAP2 POP POP SWAP3 POP SWAP3 SWAP1 POP JUMP JUMPDEST PUSH1 0x0 DUP2 ISZERO ISZERO SWAP1 POP SWAP2 SWAP1 POP JUMP JUMPDEST PUSH2 0x112B DUP2 PUSH2 0x1116 JUMP JUMPDEST DUP3 MSTORE POP POP JUMP JUMPDEST PUSH1 0x0 PUSH1 0x20 DUP3 ADD SWAP1 POP PUSH2 0x1146 PUSH1 0x0 DUP4 ADD DUP5 PUSH2 0x1122 JUMP JUMPDEST SWAP3 SWAP2 POP POP JUMP JUMPDEST PUSH2 0x1155 DUP2 PUSH2 0x10A0 JUMP JUMPDEST DUP3 MSTORE POP POP JUMP JUMPDEST PUSH1 0x0 PUSH1 0x20 DUP3 ADD SWAP1 POP PUSH2 0x1170 PUSH1 0x0 DUP4 ADD DUP5 PUSH2 0x114C JUMP JUMPDEST SWAP3 SWAP2 POP POP JUMP JUMPDEST PUSH1 0x0 DUP1 PUSH1 0x0 PUSH1 0x60 DUP5 DUP7 SUB SLT ISZERO PUSH2 0x118F JUMPI PUSH2 0x118E PUSH2 0x103D JUMP JUMPDEST JUMPDEST PUSH1 0x0 PUSH2 0x119D DUP7 DUP3 DUP8 ADD PUSH2 0x108B JUMP JUMPDEST SWAP4 POP POP PUSH1 0x20 PUSH2 0x11AE DUP7 DUP3 DUP8 ADD PUSH2 0x108B JUMP JUMPDEST SWAP3 POP POP PUSH1 0x40 PUSH2 0x11BF DUP7 DUP3 DUP8 ADD PUSH2 0x10C1 JUMP JUMPDEST SWAP2 POP POP SWAP3 POP SWAP3 POP SWAP3 JUMP JUMPDEST PUSH1 0x0 PUSH1 0xFF DUP3 AND SWAP1 POP SWAP2 SWAP1 POP JUMP JUMPDEST PUSH2 0x11DF DUP2 PUSH2 0x11C9 JUMP JUMPDEST DUP3 MSTORE POP POP JUMP JUMPDEST PUSH1 0x0 PUSH1 0x20 DUP3 ADD SWAP1 POP PUSH2 0x11FA PUSH1 0x0 DUP4 ADD DUP5 PUSH2 0x11D6 JUMP JUMPDEST SWAP3 SWAP2 POP POP JUMP JUMPDEST PUSH1 0x0 PUSH1 0x20 DUP3 DUP5 SUB SLT ISZERO PUSH2 0x1216 JUMPI PUSH2 0x1215 PUSH2 0x103D JUMP JUMPDEST JUMPDEST PUSH1 0x0 PUSH2 0x1224 DUP5 DUP3 DUP6 ADD PUSH2 0x108B JUMP JUMPDEST SWAP2 POP POP SWAP3 SWAP2 POP POP JUMP JUMPDEST PUSH1 0x0 DUP1 PUSH1 0x40 DUP4 DUP6 SUB SLT ISZERO PUSH2 0x1244 JUMPI PUSH2 0x1243 PUSH2 0x103D JUMP JUMPDEST JUMPDEST PUSH1 0x0 PUSH2 0x1252 DUP6 DUP3 DUP7 ADD PUSH2 0x108B JUMP JUMPDEST SWAP3 POP POP PUSH1 0x20 PUSH2 0x1263 DUP6 DUP3 DUP7 ADD PUSH2 0x108B JUMP JUMPDEST SWAP2 POP POP SWAP3 POP SWAP3 SWAP1 POP JUMP JUMPDEST PUSH32 0x4E487B7100000000000000000000000000000000000000000000000000000000 PUSH1 0x0 MSTORE PUSH1 0x22 PUSH1 0x4 MSTORE PUSH1 0x24 PUSH1 0x0 REVERT JUMPDEST PUSH1 0x0 PUSH1 0x2 DUP3 DIV SWAP1 POP PUSH1 0x1 DUP3 AND DUP1 PUSH2 0x12B4 JUMPI PUSH1 0x7F DUP3 AND SWAP2 POP JUMPDEST PUSH1 0x20 DUP3 LT DUP2 SUB PUSH2 0x12C7 JUMPI PUSH2 0x12C6 PUSH2 0x126D JUMP JUMPDEST JUMPDEST POP SWAP2 SWAP1 POP JUMP JUMPDEST PUSH32 0x5468697320757365722068617320636C61696D65642061697264726F7020616C PUSH1 0x0 DUP3 ADD MSTORE PUSH32 0x7265616479000000000000000000000000000000000000000000000000000000 PUSH1 0x20 DUP3 ADD MSTORE POP JUMP JUMPDEST PUSH1 0x0 PUSH2 0x1329 PUSH1 0x25 DUP4 PUSH2 0xF96 JUMP JUMPDEST SWAP2 POP PUSH2 0x1334 DUP3 PUSH2 0x12CD JUMP JUMPDEST PUSH1 0x40 DUP3 ADD SWAP1 POP SWAP2 SWAP1 POP JUMP JUMPDEST PUSH1 0x0 PUSH1 0x20 DUP3 ADD SWAP1 POP DUP2 DUP2 SUB PUSH1 0x0 DUP4 ADD MSTORE PUSH2 0x1358 DUP2 PUSH2 0x131C JUMP JUMPDEST SWAP1 POP SWAP2 SWAP1 POP JUMP JUMPDEST PUSH32 0x4E487B7100000000000000000000000000000000000000000000000000000000 PUSH1 0x0 MSTORE PUSH1 0x11 PUSH1 0x4 MSTORE PUSH1 0x24 PUSH1 0x0 REVERT JUMPDEST PUSH1 0x0 PUSH2 0x1399 DUP3 PUSH2 0x10A0 JUMP JUMPDEST SWAP2 POP PUSH2 0x13A4 DUP4 PUSH2 0x10A0 JUMP JUMPDEST SWAP3 POP DUP3 DUP3 ADD SWAP1 POP DUP1 DUP3 GT ISZERO PUSH2 0x13BC JUMPI PUSH2 0x13BB PUSH2 0x135F JUMP JUMPDEST JUMPDEST SWAP3 SWAP2 POP POP JUMP JUMPDEST PUSH32 0x4D7573742073656E642045544820746F20636F6E766572740000000000000000 PUSH1 0x0 DUP3 ADD MSTORE POP JUMP JUMPDEST PUSH1 0x0 PUSH2 0x13F8 PUSH1 0x18 DUP4 PUSH2 0xF96 JUMP JUMPDEST SWAP2 POP PUSH2 0x1403 DUP3 PUSH2 0x13C2 JUMP JUMPDEST PUSH1 0x20 DUP3 ADD SWAP1 POP SWAP2 SWAP1 POP JUMP JUMPDEST PUSH1 0x0 PUSH1 0x20 DUP3 ADD SWAP1 POP DUP2 DUP2 SUB PUSH1 0x0 DUP4 ADD MSTORE PUSH2 0x1427 DUP2 PUSH2 0x13EB JUMP JUMPDEST SWAP1 POP SWAP2 SWAP1 POP JUMP JUMPDEST PUSH1 0x0 PUSH2 0x1439 DUP3 PUSH2 0x10A0 JUMP JUMPDEST SWAP2 POP PUSH2 0x1444 DUP4 PUSH2 0x10A0 JUMP JUMPDEST SWAP3 POP DUP3 DUP3 MUL PUSH2 0x1452 DUP2 PUSH2 0x10A0 JUMP JUMPDEST SWAP2 POP DUP3 DUP3 DIV DUP5 EQ DUP4 ISZERO OR PUSH2 0x1469 JUMPI PUSH2 0x1468 PUSH2 0x135F JUMP JUMPDEST JUMPDEST POP SWAP3 SWAP2 POP POP JUMP JUMPDEST PUSH32 0x45524332303A2064656372656173656420616C6C6F77616E63652062656C6F77 PUSH1 0x0 DUP3 ADD MSTORE PUSH32 0x207A65726F000000000000000000000000000000000000000000000000000000 PUSH1 0x20 DUP3 ADD MSTORE POP JUMP JUMPDEST PUSH1 0x0 PUSH2 0x14CC PUSH1 0x25 DUP4 PUSH2 0xF96 JUMP JUMPDEST SWAP2 POP PUSH2 0x14D7 DUP3 PUSH2 0x1470 JUMP JUMPDEST PUSH1 0x40 DUP3 ADD SWAP1 POP SWAP2 SWAP1 POP JUMP JUMPDEST PUSH1 0x0 PUSH1 0x20 DUP3 ADD SWAP1 POP DUP2 DUP2 SUB PUSH1 0x0 DUP4 ADD MSTORE PUSH2 0x14FB DUP2 PUSH2 0x14BF JUMP JUMPDEST SWAP1 POP SWAP2 SWAP1 POP JUMP JUMPDEST PUSH32 0x4D7573742073656E6420457468657220746F2062757920746F6B656E73000000 PUSH1 0x0 DUP3 ADD MSTORE POP JUMP JUMPDEST PUSH1 0x0 PUSH2 0x1538 PUSH1 0x1D DUP4 PUSH2 0xF96 JUMP JUMPDEST SWAP2 POP PUSH2 0x1543 DUP3 PUSH2 0x1502 JUMP JUMPDEST PUSH1 0x20 DUP3 ADD SWAP1 POP SWAP2 SWAP1 POP JUMP JUMPDEST PUSH1 0x0 PUSH1 0x20 DUP3 ADD SWAP1 POP DUP2 DUP2 SUB PUSH1 0x0 DUP4 ADD MSTORE PUSH2 0x1567 DUP2 PUSH2 0x152B JUMP JUMPDEST SWAP1 POP SWAP2 SWAP1 POP JUMP JUMPDEST PUSH32 0x45524332303A20617070726F76652066726F6D20746865207A65726F20616464 PUSH1 0x0 DUP3 ADD MSTORE PUSH32 0x7265737300000000000000000000000000000000000000000000000000000000 PUSH1 0x20 DUP3 ADD MSTORE POP JUMP JUMPDEST PUSH1 0x0 PUSH2 0x15CA PUSH1 0x24 DUP4 PUSH2 0xF96 JUMP JUMPDEST SWAP2 POP PUSH2 0x15D5 DUP3 PUSH2 0x156E JUMP JUMPDEST PUSH1 0x40 DUP3 ADD SWAP1 POP SWAP2 SWAP1 POP JUMP JUMPDEST PUSH1 0x0 PUSH1 0x20 DUP3 ADD SWAP1 POP DUP2 DUP2 SUB PUSH1 0x0 DUP4 ADD MSTORE PUSH2 0x15F9 DUP2 PUSH2 0x15BD JUMP JUMPDEST SWAP1 POP SWAP2 SWAP1 POP JUMP JUMPDEST PUSH32 0x45524332303A20617070726F766520746F20746865207A65726F206164647265 PUSH1 0x0 DUP3 ADD MSTORE PUSH32 0x7373000000000000000000000000000000000000000000000000000000000000 PUSH1 0x20 DUP3 ADD MSTORE POP JUMP JUMPDEST PUSH1 0x0 PUSH2 0x165C PUSH1 0x22 DUP4 PUSH2 0xF96 JUMP JUMPDEST SWAP2 POP PUSH2 0x1667 DUP3 PUSH2 0x1600 JUMP JUMPDEST PUSH1 0x40 DUP3 ADD SWAP1 POP SWAP2 SWAP1 POP JUMP JUMPDEST PUSH1 0x0 PUSH1 0x20 DUP3 ADD SWAP1 POP DUP2 DUP2 SUB PUSH1 0x0 DUP4 ADD MSTORE PUSH2 0x168B DUP2 PUSH2 0x164F JUMP JUMPDEST SWAP1 POP SWAP2 SWAP1 POP JUMP JUMPDEST PUSH32 0x45524332303A20696E73756666696369656E7420616C6C6F77616E6365000000 PUSH1 0x0 DUP3 ADD MSTORE POP JUMP JUMPDEST PUSH1 0x0 PUSH2 0x16C8 PUSH1 0x1D DUP4 PUSH2 0xF96 JUMP JUMPDEST SWAP2 POP PUSH2 0x16D3 DUP3 PUSH2 0x1692 JUMP JUMPDEST PUSH1 0x20 DUP3 ADD SWAP1 POP SWAP2 SWAP1 POP JUMP JUMPDEST PUSH1 0x0 PUSH1 0x20 DUP3 ADD SWAP1 POP DUP2 DUP2 SUB PUSH1 0x0 DUP4 ADD MSTORE PUSH2 0x16F7 DUP2 PUSH2 0x16BB JUMP JUMPDEST SWAP1 POP SWAP2 SWAP1 POP JUMP JUMPDEST PUSH32 0x45524332303A207472616E736665722066726F6D20746865207A65726F206164 PUSH1 0x0 DUP3 ADD MSTORE PUSH32 0x6472657373000000000000000000000000000000000000000000000000000000 PUSH1 0x20 DUP3 ADD MSTORE POP JUMP JUMPDEST PUSH1 0x0 PUSH2 0x175A PUSH1 0x25 DUP4 PUSH2 0xF96 JUMP JUMPDEST SWAP2 POP PUSH2 0x1765 DUP3 PUSH2 0x16FE JUMP JUMPDEST PUSH1 0x40 DUP3 ADD SWAP1 POP SWAP2 SWAP1 POP JUMP JUMPDEST PUSH1 0x0 PUSH1 0x20 DUP3 ADD SWAP1 POP DUP2 DUP2 SUB PUSH1 0x0 DUP4 ADD MSTORE PUSH2 0x1789 DUP2 PUSH2 0x174D JUMP JUMPDEST SWAP1 POP SWAP2 SWAP1 POP JUMP JUMPDEST PUSH32 0x45524332303A207472616E7366657220746F20746865207A65726F2061646472 PUSH1 0x0 DUP3 ADD MSTORE PUSH32 0x6573730000000000000000000000000000000000000000000000000000000000 PUSH1 0x20 DUP3 ADD MSTORE POP JUMP JUMPDEST PUSH1 0x0 PUSH2 0x17EC PUSH1 0x23 DUP4 PUSH2 0xF96 JUMP JUMPDEST SWAP2 POP PUSH2 0x17F7 DUP3 PUSH2 0x1790 JUMP JUMPDEST PUSH1 0x40 DUP3 ADD SWAP1 POP SWAP2 SWAP1 POP JUMP JUMPDEST PUSH1 0x0 PUSH1 0x20 DUP3 ADD SWAP1 POP DUP2 DUP2 SUB PUSH1 0x0 DUP4 ADD MSTORE PUSH2 0x181B DUP2 PUSH2 0x17DF JUMP JUMPDEST SWAP1 POP SWAP2 SWAP1 POP JUMP JUMPDEST PUSH32 0x45524332303A207472616E7366657220616D6F756E7420657863656564732062 PUSH1 0x0 DUP3 ADD MSTORE PUSH32 0x616C616E63650000000000000000000000000000000000000000000000000000 PUSH1 0x20 DUP3 ADD MSTORE POP JUMP JUMPDEST PUSH1 0x0 PUSH2 0x187E PUSH1 0x26 DUP4 PUSH2 0xF96 JUMP JUMPDEST SWAP2 POP PUSH2 0x1889 DUP3 PUSH2 0x1822 JUMP JUMPDEST PUSH1 0x40 DUP3 ADD SWAP1 POP SWAP2 SWAP1 POP JUMP JUMPDEST PUSH1 0x0 PUSH1 0x20 DUP3 ADD SWAP1 POP DUP2 DUP2 SUB PUSH1 0x0 DUP4 ADD MSTORE PUSH2 0x18AD DUP2 PUSH2 0x1871 JUMP JUMPDEST SWAP1 POP SWAP2 SWAP1 POP JUMP JUMPDEST PUSH32 0x45524332303A206D696E7420746F20746865207A65726F206164647265737300 PUSH1 0x0 DUP3 ADD MSTORE POP JUMP JUMPDEST PUSH1 0x0 PUSH2 0x18EA PUSH1 0x1F DUP4 PUSH2 0xF96 JUMP JUMPDEST SWAP2 POP PUSH2 0x18F5 DUP3 PUSH2 0x18B4 JUMP JUMPDEST PUSH1 0x20 DUP3 ADD SWAP1 POP SWAP2 SWAP1 POP JUMP JUMPDEST PUSH1 0x0 PUSH1 0x20 DUP3 ADD SWAP1 POP DUP2 DUP2 SUB PUSH1 0x0 DUP4 ADD MSTORE PUSH2 0x1919 DUP2 PUSH2 0x18DD JUMP JUMPDEST SWAP1 POP SWAP2 SWAP1 POP JUMP INVALID LOG2 PUSH5 0x6970667358 0x22 SLT KECCAK256 0xF7 PUSH20 0x679FA875648E2E8FC32C3CDBC0B2B143F247DD8F 0xCE PUSH3 0x27EF42 0xAA PUSH9 0x413C3264736F6C6343 STOP ADDMOD EQ STOP CALLER "},"methodIdentifiers":{"approve(address,uint256)":"095ea7b3","balanceOf(address)":"70a08231","buyHouse(uint256)":"eddc4269","buyHouseWithERC20(uint256)":"242b3e72","getApproved(uint256)":"081812fc","getHousesForSale()":"9e4ffa7f","getMyHouses()":"b14f1afd","houses(uint256)":"aeda852f","isApprovedForAll(address,address)":"e985e9c5","manager()":"481c6a75","mintHouse()":"f364333d","myERC20()":"6d3739c4","name()":"06fdde03","ownerOf(uint256)":"6352211e","putHouseForSale(uint256,uint256)":"9f76a037","safeTransferFrom(address,address,uint256)":"42842e0e","safeTransferFrom(address,address,uint256,bytes)":"b88d4fde","setApprovalForAll(address,bool)":"a22cb465","supportsInterface(bytes4)":"01ffc9a7","symbol()":"95d89b41","tokenURI(uint256)":"c87b56dd","transferFrom(address,address,uint256)":"23b872dd"}}}}}