{"contracts/BuyMyRoom.sol":{"MyERC20":{"abi":[{"inputs":[{"internalType":"string","name":"name","type":"string"},{"internalType":"string","name":"symbol","type":"string"}],"stateMutability":"nonpayable","type":"constructor"},{"anonymous":false,"inputs":[{"indexed":true,"internalType":"address","name":"owner","type":"address"},{"indexed":true,"internalType":"address","name":"spender","type":"address"},{"indexed":false,"internalType":"uint256","name":"value","type":"uint256"}],"name":"Approval","type":"event"},{"anonymous":false,"inputs":[{"indexed":true,"internalType":"address","name":"from","type":"address"},{"indexed":true,"internalType":"address","name":"to","type":"address"},{"indexed":false,"internalType":"uint256","name":"value","type":"uint256"}],"name":"Transfer","type":"event"},{"inputs":[],"name":"Rate","outputs":[{"internalType":"uint256","name":"","type":"uint256"}],"stateMutability":"view","type":"function"},{"inputs":[],"name":"airdrop","outputs":[],"stateMutability":"nonpayable","type":"function"},{"inputs":[],"name":"airdropamount","outputs":[{"internalType":"uint256","name":"","type":"uint256"}],"stateMutability":"view","type":"function"},{"inputs":[{"internalType":"address","name":"owner","type":"address"},{"internalType":"address","name":"spender","type":"address"}],"name":"allowance","outputs":[{"internalType":"uint256","name":"","type":"uint256"}],"stateMutability":"view","type":"function"},{"inputs":[{"internalType":"address","name":"spender","type":"address"},{"internalType":"uint256","name":"amount","type":"uint256"}],"name":"approve","outputs":[{"internalType":"bool","name":"","type":"bool"}],"stateMutability":"nonpayable","type":"function"},{"inputs":[{"internalType":"address","name":"account","type":"address"}],"name":"balanceOf","outputs":[{"internalType":"uint256","name":"","type":"uint256"}],"stateMutability":"view","type":"function"},{"inputs":[],"name":"buyTokens","outputs":[],"stateMutability":"payable","type":"function"},{"inputs":[],"name":"conversionRate","outputs":[{"internalType":"uint256","name":"","type":"uint256"}],"stateMutability":"view","type":"function"},{"inputs":[],"name":"convertEthToErc20","outputs":[],"stateMutability":"payable","type":"function"},{"inputs":[],"name":"decimals","outputs":[{"internalType":"uint8","name":"","type":"uint8"}],"stateMutability":"view","type":"function"},{"inputs":[{"internalType":"address","name":"spender","type":"address"},{"internalType":"uint256","name":"subtractedValue","type":"uint256"}],"name":"decreaseAllowance","outputs":[{"internalType":"bool","name":"","type":"bool"}],"stateMutability":"nonpayable","type":"function"},{"inputs":[{"internalType":"address","name":"spender","type":"address"},{"internalType":"uint256","name":"addedValue","type":"uint256"}],"name":"increaseAllowance","outputs":[{"internalType":"bool","name":"","type":"bool"}],"stateMutability":"nonpayable","type":"function"},{"inputs":[],"name":"name","outputs":[{"internalType":"string","name":"","type":"string"}],"stateMutability":"view","type":"function"},{"inputs":[],"name":"symbol","outputs":[{"internalType":"string","name":"","type":"string"}],"stateMutability":"view","type":"function"},{"inputs":[],"name":"totalSupply","outputs":[{"internalType":"uint256","name":"","type":"uint256"}],"stateMutability":"view","type":"function"},{"inputs":[{"internalType":"address","name":"a1","type":"address"},{"internalType":"address","name":"a2","type":"address"},{"internalType":"uint256","name":"amount","type":"uint256"}],"name":"trans","outputs":[],"stateMutability":"nonpayable","type":"function"},{"inputs":[{"internalType":"address","name":"to","type":"address"},{"internalType":"uint256","name":"amount","type":"uint256"}],"name":"transfer","outputs":[{"internalType":"bool","name":"","type":"bool"}],"stateMutability":"nonpayable","type":"function"},{"inputs":[{"internalType":"address","name":"from","type":"address"},{"internalType":"address","name":"to","type":"address"},{"internalType":"uint256","name":"amount","type":"uint256"}],"name":"transferFrom","outputs":[{"internalType":"bool","name":"","type":"bool"}],"stateMutability":"nonpayable","type":"function"},{"stateMutability":"payable","type":"receive"}],"evm":{"bytecode":{"linkReferences":{},"object":"6080604052600a600755670de0b6b3a7640000600855683635c9adc5dea000006009553480156200002f57600080fd5b5060405162001f7638038062001f76833981810160405281019062000055919062000259565b8181816003908162000068919062000529565b5080600490816200007a919062000529565b50505033600660006101000a81548173ffffffffffffffffffffffffffffffffffffffff021916908373ffffffffffffffffffffffffffffffffffffffff160217905550505062000610565b6000604051905090565b600080fd5b600080fd5b600080fd5b600080fd5b6000601f19601f8301169050919050565b7f4e487b7100000000000000000000000000000000000000000000000000000000600052604160045260246000fd5b6200012f82620000e4565b810181811067ffffffffffffffff82111715620001515762000150620000f5565b5b80604052505050565b600062000166620000c6565b905062000174828262000124565b919050565b600067ffffffffffffffff821115620001975762000196620000f5565b5b620001a282620000e4565b9050602081019050919050565b60005b83811015620001cf578082015181840152602081019050620001b2565b60008484015250505050565b6000620001f2620001ec8462000179565b6200015a565b905082815260208101848484011115620002115762000210620000df565b5b6200021e848285620001af565b509392505050565b600082601f8301126200023e576200023d620000da565b5b815162000250848260208601620001db565b91505092915050565b60008060408385031215620002735762000272620000d0565b5b600083015167ffffffffffffffff811115620002945762000293620000d5565b5b620002a28582860162000226565b925050602083015167ffffffffffffffff811115620002c657620002c5620000d5565b5b620002d48582860162000226565b9150509250929050565b600081519050919050565b7f4e487b7100000000000000000000000000000000000000000000000000000000600052602260045260246000fd5b600060028204905060018216806200033157607f821691505b602082108103620003475762000346620002e9565b5b50919050565b60008190508160005260206000209050919050565b60006020601f8301049050919050565b600082821b905092915050565b600060088302620003b17fffffffffffffffffffffffffffffffffffffffffffffffffffffffffffffffff8262000372565b620003bd868362000372565b95508019841693508086168417925050509392505050565b6000819050919050565b6000819050919050565b60006200040a62000404620003fe84620003d5565b620003df565b620003d5565b9050919050565b6000819050919050565b6200042683620003e9565b6200043e620004358262000411565b8484546200037f565b825550505050565b600090565b6200045562000446565b620004628184846200041b565b505050565b5b818110156200048a576200047e6000826200044b565b60018101905062000468565b5050565b601f821115620004d957620004a3816200034d565b620004ae8462000362565b81016020851015620004be578190505b620004d6620004cd8562000362565b83018262000467565b50505b505050565b600082821c905092915050565b6000620004fe60001984600802620004de565b1980831691505092915050565b6000620005198383620004eb565b9150826002028217905092915050565b6200053482620002de565b67ffffffffffffffff81111562000550576200054f620000f5565b5b6200055c825462000318565b620005698282856200048e565b600060209050601f831160018114620005a157600084156200058c578287015190505b6200059885826200050b565b86555062000608565b601f198416620005b1866200034d565b60005b82811015620005db57848901518255600182019150602085019450602081019050620005b4565b86831015620005fb5784890151620005f7601f891682620004eb565b8355505b6001600288020188555050505b505050505050565b61195680620006206000396000f3fe60806040526004361061010d5760003560e01c80637ffdf53e11610095578063a464c48711610064578063a464c4871461036d578063a9059cbb14610398578063d0febe4c146103d5578063dd62ed3e146103df578063eb8571c81461041c57610114565b80637ffdf53e146102d057806395d89b41146102fb5780639b80d68714610326578063a457c2d71461033057610114565b806323b872dd116100dc57806323b872dd146101d7578063313ce567146102145780633884d6351461023f578063395093511461025657806370a082311461029357610114565b806306fdde0314610119578063095ea7b31461014457806318160ddd146101815780631b8e94a1146101ac57610114565b3661011457005b600080fd5b34801561012557600080fd5b5061012e610445565b60405161013b919061101b565b60405180910390f35b34801561015057600080fd5b5061016b600480360381019061016691906110d6565b6104d7565b6040516101789190611131565b60405180910390f35b34801561018d57600080fd5b506101966104fa565b6040516101a3919061115b565b60405180910390f35b3480156101b857600080fd5b506101c1610504565b6040516101ce919061115b565b60405180910390f35b3480156101e357600080fd5b506101fe60048036038101906101f99190611176565b61050a565b60405161020b9190611131565b60405180910390f35b34801561022057600080fd5b50610229610539565b60405161023691906111e5565b60405180910390f35b34801561024b57600080fd5b50610254610542565b005b34801561026257600080fd5b5061027d600480360381019061027891906110d6565b610635565b60405161028a9190611131565b60405180910390f35b34801561029f57600080fd5b506102ba60048036038101906102b59190611200565b61066c565b6040516102c7919061115b565b60405180910390f35b3480156102dc57600080fd5b506102e56106b4565b6040516102f2919061115b565b60405180910390f35b34801561030757600080fd5b506103106106ba565b60405161031d919061101b565b60405180910390f35b61032e61074c565b005b34801561033c57600080fd5b50610357600480360381019061035291906110d6565b6107ae565b6040516103649190611131565b60405180910390f35b34801561037957600080fd5b50610382610825565b60405161038f919061115b565b60405180910390f35b3480156103a457600080fd5b506103bf60048036038101906103ba91906110d6565b61082b565b6040516103cc9190611131565b60405180910390f35b6103dd61084e565b005b3480156103eb57600080fd5b506104066004803603810190610401919061122d565b6108af565b604051610413919061115b565b60405180910390f35b34801561042857600080fd5b50610443600480360381019061043e9190611176565b610936565b005b6060600380546104549061129c565b80601f01602080910402602001604051908101604052809291908181526020018280546104809061129c565b80156104cd5780601f106104a2576101008083540402835291602001916104cd565b820191906000526020600020905b8154815290600101906020018083116104b057829003601f168201915b5050505050905090565b6000806104e2610946565b90506104ef81858561094e565b600191505092915050565b6000600254905090565b60085481565b600080610515610946565b9050610522858285610b17565b61052d858585610ba3565b60019150509392505050565b60006012905090565b600560003373ffffffffffffffffffffffffffffffffffffffff1673ffffffffffffffffffffffffffffffffffffffff16815260200190815260200160002060009054906101000a900460ff16156105cf576040517f08c379a00000000000000000000000000000000000000000000000000000000081526004016105c69061133f565b60405180910390fd5b6105db33600954610e22565b6001600560003373ffffffffffffffffffffffffffffffffffffffff1673ffffffffffffffffffffffffffffffffffffffff16815260200190815260200160002060006101000a81548160ff021916908315150217905550565b600080610640610946565b905061066181858561065285896108af565b61065c919061138e565b61094e565b600191505092915050565b60008060008373ffffffffffffffffffffffffffffffffffffffff1673ffffffffffffffffffffffffffffffffffffffff168152602001908152602001600020549050919050565b60075481565b6060600480546106c99061129c565b80601f01602080910402602001604051908101604052809291908181526020018280546106f59061129c565b80156107425780601f1061071757610100808354040283529160200191610742565b820191906000526020600020905b81548152906001019060200180831161072557829003601f168201915b5050505050905090565b6000341161078f576040517f08c379a00000000000000000000000000000000000000000000000000000000081526004016107869061140e565b60405180910390fd5b60006007543461079f919061142e565b90506107ab3382610e22565b50565b6000806107b9610946565b905060006107c782866108af565b90508381101561080c576040517f08c379a0000000000000000000000000000000000000000000000000000000008152600401610803906114e2565b60405180910390fd5b610819828686840361094e565b60019250505092915050565b60095481565b600080610836610946565b9050610843818585610ba3565b600191505092915050565b60003411610891576040517f08c379a00000000000000000000000000000000000000000000000000000000081526004016108889061154e565b60405180910390fd5b60006064346108a0919061142e565b90506108ac3382610e22565b50565b6000600160008473ffffffffffffffffffffffffffffffffffffffff1673ffffffffffffffffffffffffffffffffffffffff16815260200190815260200160002060008373ffffffffffffffffffffffffffffffffffffffff1673ffffffffffffffffffffffffffffffffffffffff16815260200190815260200160002054905092915050565b610941838383610ba3565b505050565b600033905090565b600073ffffffffffffffffffffffffffffffffffffffff168373ffffffffffffffffffffffffffffffffffffffff16036109bd576040517f08c379a00000000000000000000000000000000000000000000000000000000081526004016109b4906115e0565b60405180910390fd5b600073ffffffffffffffffffffffffffffffffffffffff168273ffffffffffffffffffffffffffffffffffffffff1603610a2c576040517f08c379a0000000000000000000000000000000000000000000000000000000008152600401610a2390611672565b60405180910390fd5b80600160008573ffffffffffffffffffffffffffffffffffffffff1673ffffffffffffffffffffffffffffffffffffffff16815260200190815260200160002060008473ffffffffffffffffffffffffffffffffffffffff1673ffffffffffffffffffffffffffffffffffffffff168152602001908152602001600020819055508173ffffffffffffffffffffffffffffffffffffffff168373ffffffffffffffffffffffffffffffffffffffff167f8c5be1e5ebec7d5bd14f71427d1e84f3dd0314c0f7b2291e5b200ac8c7c3b92583604051610b0a919061115b565b60405180910390a3505050565b6000610b2384846108af565b90507fffffffffffffffffffffffffffffffffffffffffffffffffffffffffffffffff8114610b9d5781811015610b8f576040517f08c379a0000000000000000000000000000000000000000000000000000000008152600401610b86906116de565b60405180910390fd5b610b9c848484840361094e565b5b50505050565b600073ffffffffffffffffffffffffffffffffffffffff168373ffffffffffffffffffffffffffffffffffffffff1603610c12576040517f08c379a0000000000000000000000000000000000000000000000000000000008152600401610c0990611770565b60405180910390fd5b600073ffffffffffffffffffffffffffffffffffffffff168273ffffffffffffffffffffffffffffffffffffffff1603610c81576040517f08c379a0000000000000000000000000000000000000000000000000000000008152600401610c7890611802565b60405180910390fd5b610c8c838383610f81565b60008060008573ffffffffffffffffffffffffffffffffffffffff1673ffffffffffffffffffffffffffffffffffffffff16815260200190815260200160002054905081811015610d12576040517f08c379a0000000000000000000000000000000000000000000000000000000008152600401610d0990611894565b60405180910390fd5b8181036000808673ffffffffffffffffffffffffffffffffffffffff1673ffffffffffffffffffffffffffffffffffffffff16815260200190815260200160002081905550816000808573ffffffffffffffffffffffffffffffffffffffff1673ffffffffffffffffffffffffffffffffffffffff1681526020019081526020016000206000828254610da5919061138e565b925050819055508273ffffffffffffffffffffffffffffffffffffffff168473ffffffffffffffffffffffffffffffffffffffff167fddf252ad1be2c89b69c2b068fc378daa952ba7f163c4a11628f55a4df523b3ef84604051610e09919061115b565b60405180910390a3610e1c848484610f86565b50505050565b600073ffffffffffffffffffffffffffffffffffffffff168273ffffffffffffffffffffffffffffffffffffffff1603610e91576040517f08c379a0000000000000000000000000000000000000000000000000000000008152600401610e8890611900565b60405180910390fd5b610e9d60008383610f81565b8060026000828254610eaf919061138e565b92505081905550806000808473ffffffffffffffffffffffffffffffffffffffff1673ffffffffffffffffffffffffffffffffffffffff1681526020019081526020016000206000828254610f04919061138e565b925050819055508173ffffffffffffffffffffffffffffffffffffffff16600073ffffffffffffffffffffffffffffffffffffffff167fddf252ad1be2c89b69c2b068fc378daa952ba7f163c4a11628f55a4df523b3ef83604051610f69919061115b565b60405180910390a3610f7d60008383610f86565b5050565b505050565b505050565b600081519050919050565b600082825260208201905092915050565b60005b83811015610fc5578082015181840152602081019050610faa565b60008484015250505050565b6000601f19601f8301169050919050565b6000610fed82610f8b565b610ff78185610f96565b9350611007818560208601610fa7565b61101081610fd1565b840191505092915050565b600060208201905081810360008301526110358184610fe2565b905092915050565b600080fd5b600073ffffffffffffffffffffffffffffffffffffffff82169050919050565b600061106d82611042565b9050919050565b61107d81611062565b811461108857600080fd5b50565b60008135905061109a81611074565b92915050565b6000819050919050565b6110b3816110a0565b81146110be57600080fd5b50565b6000813590506110d0816110aa565b92915050565b600080604083850312156110ed576110ec61103d565b5b60006110fb8582860161108b565b925050602061110c858286016110c1565b9150509250929050565b60008115159050919050565b61112b81611116565b82525050565b60006020820190506111466000830184611122565b92915050565b611155816110a0565b82525050565b6000602082019050611170600083018461114c565b92915050565b60008060006060848603121561118f5761118e61103d565b5b600061119d8682870161108b565b93505060206111ae8682870161108b565b92505060406111bf868287016110c1565b9150509250925092565b600060ff82169050919050565b6111df816111c9565b82525050565b60006020820190506111fa60008301846111d6565b92915050565b6000602082840312156112165761121561103d565b5b60006112248482850161108b565b91505092915050565b600080604083850312156112445761124361103d565b5b60006112528582860161108b565b92505060206112638582860161108b565b9150509250929050565b7f4e487b7100000000000000000000000000000000000000000000000000000000600052602260045260246000fd5b600060028204905060018216806112b457607f821691505b6020821081036112c7576112c661126d565b5b50919050565b7f5468697320757365722068617320636c61696d65642061697264726f7020616c60008201527f7265616479000000000000000000000000000000000000000000000000000000602082015250565b6000611329602583610f96565b9150611334826112cd565b604082019050919050565b600060208201905081810360008301526113588161131c565b9050919050565b7f4e487b7100000000000000000000000000000000000000000000000000000000600052601160045260246000fd5b6000611399826110a0565b91506113a4836110a0565b92508282019050808211156113bc576113bb61135f565b5b92915050565b7f4d7573742073656e642045544820746f20636f6e766572740000000000000000600082015250565b60006113f8601883610f96565b9150611403826113c2565b602082019050919050565b60006020820190508181036000830152611427816113eb565b9050919050565b6000611439826110a0565b9150611444836110a0565b9250828202611452816110a0565b915082820484148315176114695761146861135f565b5b5092915050565b7f45524332303a2064656372656173656420616c6c6f77616e63652062656c6f7760008201527f207a65726f000000000000000000000000000000000000000000000000000000602082015250565b60006114cc602583610f96565b91506114d782611470565b604082019050919050565b600060208201905081810360008301526114fb816114bf565b9050919050565b7f4d7573742073656e6420457468657220746f2062757920746f6b656e73000000600082015250565b6000611538601d83610f96565b915061154382611502565b602082019050919050565b600060208201905081810360008301526115678161152b565b9050919050565b7f45524332303a20617070726f76652066726f6d20746865207a65726f2061646460008201527f7265737300000000000000000000000000000000000000000000000000000000602082015250565b60006115ca602483610f96565b91506115d58261156e565b604082019050919050565b600060208201905081810360008301526115f9816115bd565b9050919050565b7f45524332303a20617070726f766520746f20746865207a65726f20616464726560008201527f7373000000000000000000000000000000000000000000000000000000000000602082015250565b600061165c602283610f96565b915061166782611600565b604082019050919050565b6000602082019050818103600083015261168b8161164f565b9050919050565b7f45524332303a20696e73756666696369656e7420616c6c6f77616e6365000000600082015250565b60006116c8601d83610f96565b91506116d382611692565b602082019050919050565b600060208201905081810360008301526116f7816116bb565b9050919050565b7f45524332303a207472616e736665722066726f6d20746865207a65726f20616460008201527f6472657373000000000000000000000000000000000000000000000000000000602082015250565b600061175a602583610f96565b9150611765826116fe565b604082019050919050565b600060208201905081810360008301526117898161174d565b9050919050565b7f45524332303a207472616e7366657220746f20746865207a65726f206164647260008201527f6573730000000000000000000000000000000000000000000000000000000000602082015250565b60006117ec602383610f96565b91506117f782611790565b604082019050919050565b6000602082019050818103600083015261181b816117df565b9050919050565b7f45524332303a207472616e7366657220616d6f756e742065786365656473206260008201527f616c616e63650000000000000000000000000000000000000000000000000000602082015250565b600061187e602683610f96565b915061188982611822565b604082019050919050565b600060208201905081810360008301526118ad81611871565b9050919050565b7f45524332303a206d696e7420746f20746865207a65726f206164647265737300600082015250565b60006118ea601f83610f96565b91506118f5826118b4565b602082019050919050565b60006020820190508181036000830152611919816118dd565b905091905056fea2646970667358221220f773679fa875648e2e8fc32c3cdbc0b2b143f247dd8fce6227ef42aa68413c3264736f6c63430008140033","opcodes":"PUSH1 0x80 PUSH1 0x40 MSTORE PUSH1 0xA PUSH1 0x7 SSTORE PUSH8 0xDE0B6B3A7640000 PUSH1 0x8 SSTORE PUSH9 0x3635C9ADC5DEA00000 PUSH1 0x9 SSTORE CALLVALUE DUP1 ISZERO PUSH3 0x2F JUMPI PUSH1 0x0 DUP1 REVERT JUMPDEST POP PUSH1 0x40 MLOAD PUSH3 0x1F76 CODESIZE SUB DUP1 PUSH3 0x1F76 DUP4 CODECOPY DUP2 DUP2 ADD PUSH1 0x40 MSTORE DUP2 ADD SWAP1 PUSH3 0x55 SWAP2 SWAP1 PUSH3 0x259 JUMP JUMPDEST DUP2 DUP2 DUP2 PUSH1 0x3 SWAP1 DUP2 PUSH3 0x68 SWAP2 SWAP1 PUSH3 0x529 JUMP JUMPDEST POP DUP1 PUSH1 0x4 SWAP1 DUP2 PUSH3 0x7A SWAP2 SWAP1 PUSH3 0x529 JUMP JUMPDEST POP POP POP CALLER PUSH1 0x6 PUSH1 0x0 PUSH2 0x100 EXP DUP2 SLOAD DUP2 PUSH20 0xFFFFFFFFFFFFFFFFFFFFFFFFFFFFFFFFFFFFFFFF MUL NOT AND SWAP1 DUP4 PUSH20 0xFFFFFFFFFFFFFFFFFFFFFFFFFFFFFFFFFFFFFFFF AND MUL OR SWAP1 SSTORE POP POP POP PUSH3 0x610 JUMP JUMPDEST PUSH1 0x0 PUSH1 0x40 MLOAD SWAP1 POP SWAP1 JUMP JUMPDEST PUSH1 0x0 DUP1 REVERT JUMPDEST PUSH1 0x0 DUP1 REVERT JUMPDEST PUSH1 0x0 DUP1 REVERT JUMPDEST PUSH1 0x0 DUP1 REVERT JUMPDEST PUSH1 0x0 PUSH1 0x1F NOT PUSH1 0x1F DUP4 ADD AND SWAP1 POP SWAP2 SWAP1 POP JUMP JUMPDEST PUSH32 0x4E487B7100000000000000000000000000000000000000000000000000000000 PUSH1 0x0 MSTORE PUSH1 0x41 PUSH1 0x4 MSTORE PUSH1 0x24 PUSH1 0x0 REVERT JUMPDEST PUSH3 0x12F DUP3 PUSH3 0xE4 JUMP JUMPDEST DUP2 ADD DUP2 DUP2 LT PUSH8 0xFFFFFFFFFFFFFFFF DUP3 GT OR ISZERO PUSH3 0x151 JUMPI PUSH3 0x150 PUSH3 0xF5 JUMP JUMPDEST JUMPDEST DUP1 PUSH1 0x40 MSTORE POP POP POP JUMP JUMPDEST PUSH1 0x0 PUSH3 0x166 PUSH3 0xC6 JUMP JUMPDEST SWAP1 POP PUSH3 0x174 DUP3 DUP3 PUSH3 0x124 JUMP JUMPDEST SWAP2 SWAP1 POP JUMP JUMPDEST PUSH1 0x0 PUSH8 0xFFFFFFFFFFFFFFFF DUP3 GT ISZERO PUSH3 0x197 JUMPI PUSH3 0x196 PUSH3 0xF5 JUMP JUMPDEST JUMPDEST PUSH3 0x1A2 DUP3 PUSH3 0xE4 JUMP JUMPDEST SWAP1 POP PUSH1 0x20 DUP2 ADD SWAP1 POP SWAP2 SWAP1 POP JUMP JUMPDEST PUSH1 0x0 JUMPDEST DUP4 DUP2 LT ISZERO PUSH3 0x1CF JUMPI DUP1 DUP3 ADD MLOAD DUP2 DUP5 ADD MSTORE PUSH1 0x20 DUP2 ADD SWAP1 POP PUSH3 0x1B2 JUMP JUMPDEST PUSH1 0x0 DUP5 DUP5 ADD MSTORE POP POP POP POP JUMP JUMPDEST PUSH1 0x0 PUSH3 0x1F2 PUSH3 0x1EC DUP5 PUSH3 0x179 JUMP JUMPDEST PUSH3 0x15A JUMP JUMPDEST SWAP1 POP DUP3 DUP2 MSTORE PUSH1 0x20 DUP2 ADD DUP5 DUP5 DUP5 ADD GT ISZERO PUSH3 0x211 JUMPI PUSH3 0x210 PUSH3 0xDF JUMP JUMPDEST JUMPDEST PUSH3 0x21E DUP5 DUP3 DUP6 PUSH3 0x1AF JUMP JUMPDEST POP SWAP4 SWAP3 POP POP POP JUMP JUMPDEST PUSH1 0x0 DUP3 PUSH1 0x1F DUP4 ADD SLT PUSH3 0x23E JUMPI PUSH3 0x23D PUSH3 0xDA JUMP JUMPDEST JUMPDEST DUP2 MLOAD PUSH3 0x250 DUP5 DUP3 PUSH1 0x20 DUP7 ADD PUSH3 0x1DB JUMP JUMPDEST SWAP2 POP POP SWAP3 SWAP2 POP POP JUMP JUMPDEST PUSH1 0x0 DUP1 PUSH1 0x40 DUP4 DUP6 SUB SLT ISZERO PUSH3 0x273 JUMPI PUSH3 0x272 PUSH3 0xD0 JUMP JUMPDEST JUMPDEST PUSH1 0x0 DUP4 ADD MLOAD PUSH8 0xFFFFFFFFFFFFFFFF DUP2 GT ISZERO PUSH3 0x294 JUMPI PUSH3 0x293 PUSH3 0xD5 JUMP JUMPDEST JUMPDEST PUSH3 0x2A2 DUP6 DUP3 DUP7 ADD PUSH3 0x226 JUMP JUMPDEST SWAP3 POP POP PUSH1 0x20 DUP4 ADD MLOAD PUSH8 0xFFFFFFFFFFFFFFFF DUP2 GT ISZERO PUSH3 0x2C6 JUMPI PUSH3 0x2C5 PUSH3 0xD5 JUMP JUMPDEST JUMPDEST PUSH3 0x2D4 DUP6 DUP3 DUP7 ADD PUSH3 0x226 JUMP JUMPDEST SWAP2 POP POP SWAP3 POP SWAP3 SWAP1 POP JUMP JUMPDEST PUSH1 0x0 DUP2 MLOAD SWAP1 POP SWAP2 SWAP1 POP JUMP JUMPDEST PUSH32 0x4E487B7100000000000000000000000000000000000000000000000000000000 PUSH1 0x0 MSTORE PUSH1 0x22 PUSH1 0x4 MSTORE PUSH1 0x24 PUSH1 0x0 REVERT JUMPDEST PUSH1 0x0 PUSH1 0x2 DUP3 DIV SWAP1 POP PUSH1 0x1 DUP3 AND DUP1 PUSH3 0x331 JUMPI PUSH1 0x7F DUP3 AND SWAP2 POP JUMPDEST PUSH1 0x20 DUP3 LT DUP2 SUB PUSH3 0x347 JUMPI PUSH3 0x346 PUSH3 0x2E9 JUMP JUMPDEST JUMPDEST POP SWAP2 SWAP1 POP JUMP JUMPDEST PUSH1 0x0 DUP2 SWAP1 POP DUP2 PUSH1 0x0 MSTORE PUSH1 0x20 PUSH1 0x0 KECCAK256 SWAP1 POP SWAP2 SWAP1 POP JUMP JUMPDEST PUSH1 0x0 PUSH1 0x20 PUSH1 0x1F DUP4 ADD DIV SWAP1 POP SWAP2 SWAP1 POP JUMP JUMPDEST PUSH1 0x0 DUP3 DUP3 SHL SWAP1 POP SWAP3 SWAP2 POP POP JUMP JUMPDEST PUSH1 0x0 PUSH1 0x8 DUP4 MUL PUSH3 0x3B1 PUSH32 0xFFFFFFFFFFFFFFFFFFFFFFFFFFFFFFFFFFFFFFFFFFFFFFFFFFFFFFFFFFFFFFFF DUP3 PUSH3 0x372 JUMP JUMPDEST PUSH3 0x3BD DUP7 DUP4 PUSH3 0x372 JUMP JUMPDEST SWAP6 POP DUP1 NOT DUP5 AND SWAP4 POP DUP1 DUP7 AND DUP5 OR SWAP3 POP POP POP SWAP4 SWAP3 POP POP POP JUMP JUMPDEST PUSH1 0x0 DUP2 SWAP1 POP SWAP2 SWAP1 POP JUMP JUMPDEST PUSH1 0x0 DUP2 SWAP1 POP SWAP2 SWAP1 POP JUMP JUMPDEST PUSH1 0x0 PUSH3 0x40A PUSH3 0x404 PUSH3 0x3FE DUP5 PUSH3 0x3D5 JUMP JUMPDEST PUSH3 0x3DF JUMP JUMPDEST PUSH3 0x3D5 JUMP JUMPDEST SWAP1 POP SWAP2 SWAP1 POP JUMP JUMPDEST PUSH1 0x0 DUP2 SWAP1 POP SWAP2 SWAP1 POP JUMP JUMPDEST PUSH3 0x426 DUP4 PUSH3 0x3E9 JUMP JUMPDEST PUSH3 0x43E PUSH3 0x435 DUP3 PUSH3 0x411 JUMP JUMPDEST DUP5 DUP5 SLOAD PUSH3 0x37F JUMP JUMPDEST DUP3 SSTORE POP POP POP POP JUMP JUMPDEST PUSH1 0x0 SWAP1 JUMP JUMPDEST PUSH3 0x455 PUSH3 0x446 JUMP JUMPDEST PUSH3 0x462 DUP2 DUP5 DUP5 PUSH3 0x41B JUMP JUMPDEST POP POP POP JUMP JUMPDEST JUMPDEST DUP2 DUP2 LT ISZERO PUSH3 0x48A JUMPI PUSH3 0x47E PUSH1 0x0 DUP3 PUSH3 0x44B JUMP JUMPDEST PUSH1 0x1 DUP2 ADD SWAP1 POP PUSH3 0x468 JUMP JUMPDEST POP POP JUMP JUMPDEST PUSH1 0x1F DUP3 GT ISZERO PUSH3 0x4D9 JUMPI PUSH3 0x4A3 DUP2 PUSH3 0x34D JUMP JUMPDEST PUSH3 0x4AE DUP5 PUSH3 0x362 JUMP JUMPDEST DUP2 ADD PUSH1 0x20 DUP6 LT ISZERO PUSH3 0x4BE JUMPI DUP2 SWAP1 POP JUMPDEST PUSH3 0x4D6 PUSH3 0x4CD DUP6 PUSH3 0x362 JUMP JUMPDEST DUP4 ADD DUP3 PUSH3 0x467 JUMP JUMPDEST POP POP JUMPDEST POP POP POP JUMP JUMPDEST PUSH1 0x0 DUP3 DUP3 SHR SWAP1 POP SWAP3 SWAP2 POP POP JUMP JUMPDEST PUSH1 0x0 PUSH3 0x4FE PUSH1 0x0 NOT DUP5 PUSH1 0x8 MUL PUSH3 0x4DE JUMP JUMPDEST NOT DUP1 DUP4 AND SWAP2 POP POP SWAP3 SWAP2 POP POP JUMP JUMPDEST PUSH1 0x0 PUSH3 0x519 DUP4 DUP4 PUSH3 0x4EB JUMP JUMPDEST SWAP2 POP DUP3 PUSH1 0x2 MUL DUP3 OR SWAP1 POP SWAP3 SWAP2 POP POP JUMP JUMPDEST PUSH3 0x534 DUP3 PUSH3 0x2DE JUMP JUMPDEST PUSH8 0xFFFFFFFFFFFFFFFF DUP2 GT ISZERO PUSH3 0x550 JUMPI PUSH3 0x54F PUSH3 0xF5 JUMP JUMPDEST JUMPDEST PUSH3 0x55C DUP3 SLOAD PUSH3 0x318 JUMP JUMPDEST PUSH3 0x569 DUP3 DUP3 DUP6 PUSH3 0x48E JUMP JUMPDEST PUSH1 0x0 PUSH1 0x20 SWAP1 POP PUSH1 0x1F DUP4 GT PUSH1 0x1 DUP2 EQ PUSH3 0x5A1 JUMPI PUSH1 0x0 DUP5 ISZERO PUSH3 0x58C JUMPI DUP3 DUP8 ADD MLOAD SWAP1 POP JUMPDEST PUSH3 0x598 DUP6 DUP3 PUSH3 0x50B JUMP JUMPDEST DUP7 SSTORE POP PUSH3 0x608 JUMP JUMPDEST PUSH1 0x1F NOT DUP5 AND PUSH3 0x5B1 DUP7 PUSH3 0x34D JUMP JUMPDEST PUSH1 0x0 JUMPDEST DUP3 DUP2 LT ISZERO PUSH3 0x5DB JUMPI DUP5 DUP10 ADD MLOAD DUP3 SSTORE PUSH1 0x1 DUP3 ADD SWAP2 POP PUSH1 0x20 DUP6 ADD SWAP5 POP PUSH1 0x20 DUP2 ADD SWAP1 POP PUSH3 0x5B4 JUMP JUMPDEST DUP7 DUP4 LT ISZERO PUSH3 0x5FB JUMPI DUP5 DUP10 ADD MLOAD PUSH3 0x5F7 PUSH1 0x1F DUP10 AND DUP3 PUSH3 0x4EB JUMP JUMPDEST DUP4 SSTORE POP JUMPDEST PUSH1 0x1 PUSH1 0x2 DUP9 MUL ADD DUP9 SSTORE POP POP POP JUMPDEST POP POP POP POP POP POP JUMP JUMPDEST PUSH2 0x1956 DUP1 PUSH3 0x620 PUSH1 0x0 CODECOPY PUSH1 0x0 RETURN INVALID PUSH1 0x80 PUSH1 0x40 MSTORE PUSH1 0x4 CALLDATASIZE LT PUSH2 0x10D JUMPI PUSH1 0x0 CALLDATALOAD PUSH1 0xE0 SHR DUP1 PUSH4 0x7FFDF53E GT PUSH2 0x95 JUMPI DUP1 PUSH4 0xA464C487 GT PUSH2 0x64 JUMPI DUP1 PUSH4 0xA464C487 EQ PUSH2 0x36D JUMPI DUP1 PUSH4 0xA9059CBB EQ PUSH2 0x398 JUMPI DUP1 PUSH4 0xD0FEBE4C EQ PUSH2 0x3D5 JUMPI DUP1 PUSH4 0xDD62ED3E EQ PUSH2 0x3DF JUMPI DUP1 PUSH4 0xEB8571C8 EQ PUSH2 0x41C JUMPI PUSH2 0x114 JUMP JUMPDEST DUP1 PUSH4 0x7FFDF53E EQ PUSH2 0x2D0 JUMPI DUP1 PUSH4 0x95D89B41 EQ PUSH2 0x2FB JUMPI DUP1 PUSH4 0x9B80D687 EQ PUSH2 0x326 JUMPI DUP1 PUSH4 0xA457C2D7 EQ PUSH2 0x330 JUMPI PUSH2 0x114 JUMP JUMPDEST DUP1 PUSH4 0x23B872DD GT PUSH2 0xDC JUMPI DUP1 PUSH4 0x23B872DD EQ PUSH2 0x1D7 JUMPI DUP1 PUSH4 0x313CE567 EQ PUSH2 0x214 JUMPI DUP1 PUSH4 0x3884D635 EQ PUSH2 0x23F JUMPI DUP1 PUSH4 0x39509351 EQ PUSH2 0x256 JUMPI DUP1 PUSH4 0x70A08231 EQ PUSH2 0x293 JUMPI PUSH2 0x114 JUMP JUMPDEST DUP1 PUSH4 0x6FDDE03 EQ PUSH2 0x119 JUMPI DUP1 PUSH4 0x95EA7B3 EQ PUSH2 0x144 JUMPI DUP1 PUSH4 0x18160DDD EQ PUSH2 0x181 JUMPI DUP1 PUSH4 0x1B8E94A1 EQ PUSH2 0x1AC JUMPI PUSH2 0x114 JUMP JUMPDEST CALLDATASIZE PUSH2 0x114 JUMPI STOP JUMPDEST PUSH1 0x0 DUP1 REVERT JUMPDEST CALLVALUE DUP1 ISZERO PUSH2 0x125 JUMPI PUSH1 0x0 DUP1 REVERT JUMPDEST POP PUSH2 0x12E PUSH2 0x445 JUMP JUMPDEST PUSH1 0x40 MLOAD PUSH2 0x13B SWAP2 SWAP1 PUSH2 0x101B JUMP JUMPDEST PUSH1 0x40 MLOAD DUP1 SWAP2 SUB SWAP1 RETURN JUMPDEST CALLVALUE DUP1 ISZERO PUSH2 0x150 JUMPI PUSH1 0x0 DUP1 REVERT JUMPDEST POP PUSH2 0x16B PUSH1 0x4 DUP1 CALLDATASIZE SUB DUP2 ADD SWAP1 PUSH2 0x166 SWAP2 SWAP1 PUSH2 0x10D6 JUMP JUMPDEST PUSH2 0x4D7 JUMP JUMPDEST PUSH1 0x40 MLOAD PUSH2 0x178 SWAP2 SWAP1 PUSH2 0x1131 JUMP JUMPDEST PUSH1 0x40 MLOAD DUP1 SWAP2 SUB SWAP1 RETURN JUMPDEST CALLVALUE DUP1 ISZERO PUSH2 0x18D JUMPI PUSH1 0x0 DUP1 REVERT JUMPDEST POP PUSH2 0x196 PUSH2 0x4FA JUMP JUMPDEST PUSH1 0x40 MLOAD PUSH2 0x1A3 SWAP2 SWAP1 PUSH2 0x115B JUMP JUMPDEST PUSH1 0x40 MLOAD DUP1 SWAP2 SUB SWAP1 RETURN JUMPDEST CALLVALUE DUP1 ISZERO PUSH2 0x1B8 JUMPI PUSH1 0x0 DUP1 REVERT JUMPDEST POP PUSH2 0x1C1 PUSH2 0x504 JUMP JUMPDEST PUSH1 0x40 MLOAD PUSH2 0x1CE SWAP2 SWAP1 PUSH2 0x115B JUMP JUMPDEST PUSH1 0x40 MLOAD DUP1 SWAP2 SUB SWAP1 RETURN JUMPDEST CALLVALUE DUP1 ISZERO PUSH2 0x1E3 JUMPI PUSH1 0x0 DUP1 REVERT JUMPDEST POP PUSH2 0x1FE PUSH1 0x4 DUP1 CALLDATASIZE SUB DUP2 ADD SWAP1 PUSH2 0x1F9 SWAP2 SWAP1 PUSH2 0x1176 JUMP JUMPDEST PUSH2 0x50A JUMP JUMPDEST PUSH1 0x40 MLOAD PUSH2 0x20B SWAP2 SWAP1 PUSH2 0x1131 JUMP JUMPDEST PUSH1 0x40 MLOAD DUP1 SWAP2 SUB SWAP1 RETURN JUMPDEST CALLVALUE DUP1 ISZERO PUSH2 0x220 JUMPI PUSH1 0x0 DUP1 REVERT JUMPDEST POP PUSH2 0x229 PUSH2 0x539 JUMP JUMPDEST PUSH1 0x40 MLOAD PUSH2 0x236 SWAP2 SWAP1 PUSH2 0x11E5 JUMP JUMPDEST PUSH1 0x40 MLOAD DUP1 SWAP2 SUB SWAP1 RETURN JUMPDEST CALLVALUE DUP1 ISZERO PUSH2 0x24B JUMPI PUSH1 0x0 DUP1 REVERT JUMPDEST POP PUSH2 0x254 PUSH2 0x542 JUMP JUMPDEST STOP JUMPDEST CALLVALUE DUP1 ISZERO PUSH2 0x262 JUMPI PUSH1 0x0 DUP1 REVERT JUMPDEST POP PUSH2 0x27D PUSH1 0x4 DUP1 CALLDATASIZE SUB DUP2 ADD SWAP1 PUSH2 0x278 SWAP2 SWAP1 PUSH2 0x10D6 JUMP JUMPDEST PUSH2 0x635 JUMP JUMPDEST PUSH1 0x40 MLOAD PUSH2 0x28A SWAP2 SWAP1 PUSH2 0x1131 JUMP JUMPDEST PUSH1 0x40 MLOAD DUP1 SWAP2 SUB SWAP1 RETURN JUMPDEST CALLVALUE DUP1 ISZERO PUSH2 0x29F JUMPI PUSH1 0x0 DUP1 REVERT JUMPDEST POP PUSH2 0x2BA PUSH1 0x4 DUP1 CALLDATASIZE SUB DUP2 ADD SWAP1 PUSH2 0x2B5 SWAP2 SWAP1 PUSH2 0x1200 JUMP JUMPDEST PUSH2 0x66C JUMP JUMPDEST PUSH1 0x40 MLOAD PUSH2 0x2C7 SWAP2 SWAP1 PUSH2 0x115B JUMP JUMPDEST PUSH1 0x40 MLOAD DUP1 SWAP2 SUB SWAP1 RETURN JUMPDEST CALLVALUE DUP1 ISZERO PUSH2 0x2DC JUMPI PUSH1 0x0 DUP1 REVERT JUMPDEST POP PUSH2 0x2E5 PUSH2 0x6B4 JUMP JUMPDEST PUSH1 0x40 MLOAD PUSH2 0x2F2 SWAP2 SWAP1 PUSH2 0x115B JUMP JUMPDEST PUSH1 0x40 MLOAD DUP1 SWAP2 SUB SWAP1 RETURN JUMPDEST CALLVALUE DUP1 ISZERO PUSH2 0x307 JUMPI PUSH1 0x0 DUP1 REVERT JUMPDEST POP PUSH2 0x310 PUSH2 0x6BA JUMP JUMPDEST PUSH1 0x40 MLOAD PUSH2 0x31D SWAP2 SWAP1 PUSH2 0x101B JUMP JUMPDEST PUSH1 0x40 MLOAD DUP1 SWAP2 SUB SWAP1 RETURN JUMPDEST PUSH2 0x32E PUSH2 0x74C JUMP JUMPDEST STOP JUMPDEST CALLVALUE DUP1 ISZERO PUSH2 0x33C JUMPI PUSH1 0x0 DUP1 REVERT JUMPDEST POP PUSH2 0x357 PUSH1 0x4 DUP1 CALLDATASIZE SUB DUP2 ADD SWAP1 PUSH2 0x352 SWAP2 SWAP1 PUSH2 0x10D6 JUMP JUMPDEST PUSH2 0x7AE JUMP JUMPDEST PUSH1 0x40 MLOAD PUSH2 0x364 SWAP2 SWAP1 PUSH2 0x1131 JUMP JUMPDEST PUSH1 0x40 MLOAD DUP1 SWAP2 SUB SWAP1 RETURN JUMPDEST CALLVALUE DUP1 ISZERO PUSH2 0x379 JUMPI PUSH1 0x0 DUP1 REVERT JUMPDEST POP PUSH2 0x382 PUSH2 0x825 JUMP JUMPDEST PUSH1 0x40 MLOAD PUSH2 0x38F SWAP2 SWAP1 PUSH2 0x115B JUMP JUMPDEST PUSH1 0x40 MLOAD DUP1 SWAP2 SUB SWAP1 RETURN JUMPDEST CALLVALUE DUP1 ISZERO PUSH2 0x3A4 JUMPI PUSH1 0x0 DUP1 REVERT JUMPDEST POP PUSH2 0x3BF PUSH1 0x4 DUP1 CALLDATASIZE SUB DUP2 ADD SWAP1 PUSH2 0x3BA SWAP2 SWAP1 PUSH2 0x10D6 JUMP JUMPDEST PUSH2 0x82B JUMP JUMPDEST PUSH1 0x40 MLOAD PUSH2 0x3CC SWAP2 SWAP1 PUSH2 0x1131 JUMP JUMPDEST PUSH1 0x40 MLOAD DUP1 SWAP2 SUB SWAP1 RETURN JUMPDEST PUSH2 0x3DD PUSH2 0x84E JUMP JUMPDEST STOP JUMPDEST CALLVALUE DUP1 ISZERO PUSH2 0x3EB JUMPI PUSH1 0x0 DUP1 REVERT JUMPDEST POP PUSH2 0x406 PUSH1 0x4 DUP1 CALLDATASIZE SUB DUP2 ADD SWAP1 PUSH2 0x401 SWAP2 SWAP1 PUSH2 0x122D JUMP JUMPDEST PUSH2 0x8AF JUMP JUMPDEST PUSH1 0x40 MLOAD PUSH2 0x413 SWAP2 SWAP1 PUSH2 0x115B JUMP JUMPDEST PUSH1 0x40 MLOAD DUP1 SWAP2 SUB SWAP1 RETURN JUMPDEST CALLVALUE DUP1 ISZERO PUSH2 0x428 JUMPI PUSH1 0x0 DUP1 REVERT JUMPDEST POP PUSH2 0x443 PUSH1 0x4 DUP1 CALLDATASIZE SUB DUP2 ADD SWAP1 PUSH2 0x43E SWAP2 SWAP1 PUSH2 0x1176 JUMP JUMPDEST PUSH2 0x936 JUMP JUMPDEST STOP JUMPDEST PUSH1 0x60 PUSH1 0x3 DUP1 SLOAD PUSH2 0x454 SWAP1 PUSH2 0x129C JUMP JUMPDEST DUP1 PUSH1 0x1F ADD PUSH1 0x20 DUP1 SWAP2 DIV MUL PUSH1 0x20 ADD PUSH1 0x40 MLOAD SWAP1 DUP2 ADD PUSH1 0x40 MSTORE DUP1 SWAP3 SWAP2 SWAP1 DUP2 DUP2 MSTORE PUSH1 0x20 ADD DUP3 DUP1 SLOAD PUSH2 0x480 SWAP1 PUSH2 0x129C JUMP JUMPDEST DUP1 ISZERO PUSH2 0x4CD JUMPI DUP1 PUSH1 0x1F LT PUSH2 0x4A2 JUMPI PUSH2 0x100 DUP1 DUP4 SLOAD DIV MUL DUP4 MSTORE SWAP2 PUSH1 0x20 ADD SWAP2 PUSH2 0x4CD JUMP JUMPDEST DUP3 ADD SWAP2 SWAP1 PUSH1 0x0 MSTORE PUSH1 0x20 PUSH1 0x0 KECCAK256 SWAP1 JUMPDEST DUP2 SLOAD DUP2 MSTORE SWAP1 PUSH1 0x1 ADD SWAP1 PUSH1 0x20 ADD DUP1 DUP4 GT PUSH2 0x4B0 JUMPI DUP3 SWAP1 SUB PUSH1 0x1F AND DUP3 ADD SWAP2 JUMPDEST POP POP POP POP POP SWAP1 POP SWAP1 JUMP JUMPDEST PUSH1 0x0 DUP1 PUSH2 0x4E2 PUSH2 0x946 JUMP JUMPDEST SWAP1 POP PUSH2 0x4EF DUP2 DUP6 DUP6 PUSH2 0x94E JUMP JUMPDEST PUSH1 0x1 SWAP2 POP POP SWAP3 SWAP2 POP POP JUMP JUMPDEST PUSH1 0x0 PUSH1 0x2 SLOAD SWAP1 POP SWAP1 JUMP JUMPDEST PUSH1 0x8 SLOAD DUP2 JUMP JUMPDEST PUSH1 0x0 DUP1 PUSH2 0x515 PUSH2 0x946 JUMP JUMPDEST SWAP1 POP PUSH2 0x522 DUP6 DUP3 DUP6 PUSH2 0xB17 JUMP JUMPDEST PUSH2 0x52D DUP6 DUP6 DUP6 PUSH2 0xBA3 JUMP JUMPDEST PUSH1 0x1 SWAP2 POP POP SWAP4 SWAP3 POP POP POP JUMP JUMPDEST PUSH1 0x0 PUSH1 0x12 SWAP1 POP SWAP1 JUMP JUMPDEST PUSH1 0x5 PUSH1 0x0 CALLER PUSH20 0xFFFFFFFFFFFFFFFFFFFFFFFFFFFFFFFFFFFFFFFF AND PUSH20 0xFFFFFFFFFFFFFFFFFFFFFFFFFFFFFFFFFFFFFFFF AND DUP2 MSTORE PUSH1 0x20 ADD SWAP1 DUP2 MSTORE PUSH1 0x20 ADD PUSH1 0x0 KECCAK256 PUSH1 0x0 SWAP1 SLOAD SWAP1 PUSH2 0x100 EXP SWAP1 DIV PUSH1 0xFF AND ISZERO PUSH2 0x5CF JUMPI PUSH1 0x40 MLOAD PUSH32 0x8C379A000000000000000000000000000000000000000000000000000000000 DUP2 MSTORE PUSH1 0x4 ADD PUSH2 0x5C6 SWAP1 PUSH2 0x133F JUMP JUMPDEST PUSH1 0x40 MLOAD DUP1 SWAP2 SUB SWAP1 REVERT JUMPDEST PUSH2 0x5DB CALLER PUSH1 0x9 SLOAD PUSH2 0xE22 JUMP JUMPDEST PUSH1 0x1 PUSH1 0x5 PUSH1 0x0 CALLER PUSH20 0xFFFFFFFFFFFFFFFFFFFFFFFFFFFFFFFFFFFFFFFF AND PUSH20 0xFFFFFFFFFFFFFFFFFFFFFFFFFFFFFFFFFFFFFFFF AND DUP2 MSTORE PUSH1 0x20 ADD SWAP1 DUP2 MSTORE PUSH1 0x20 ADD PUSH1 0x0 KECCAK256 PUSH1 0x0 PUSH2 0x100 EXP DUP2 SLOAD DUP2 PUSH1 0xFF MUL NOT AND SWAP1 DUP4 ISZERO ISZERO MUL OR SWAP1 SSTORE POP JUMP JUMPDEST PUSH1 0x0 DUP1 PUSH2 0x640 PUSH2 0x946 JUMP JUMPDEST SWAP1 POP PUSH2 0x661 DUP2 DUP6 DUP6 PUSH2 0x652 DUP6 DUP10 PUSH2 0x8AF JUMP JUMPDEST PUSH2 0x65C SWAP2 SWAP1 PUSH2 0x138E JUMP JUMPDEST PUSH2 0x94E JUMP JUMPDEST PUSH1 0x1 SWAP2 POP POP SWAP3 SWAP2 POP POP JUMP JUMPDEST PUSH1 0x0 DUP1 PUSH1 0x0 DUP4 PUSH20 0xFFFFFFFFFFFFFFFFFFFFFFFFFFFFFFFFFFFFFFFF AND PUSH20 0xFFFFFFFFFFFFFFFFFFFFFFFFFFFFFFFFFFFFFFFF AND DUP2 MSTORE PUSH1 0x20 ADD SWAP1 DUP2 MSTORE PUSH1 0x20 ADD PUSH1 0x0 KECCAK256 SLOAD SWAP1 POP SWAP2 SWAP1 POP JUMP JUMPDEST PUSH1 0x7 SLOAD DUP2 JUMP JUMPDEST PUSH1 0x60 PUSH1 0x4 DUP1 SLOAD PUSH2 0x6C9 SWAP1 PUSH2 0x129C JUMP JUMPDEST DUP1 PUSH1 0x1F ADD PUSH1 0x20 DUP1 SWAP2 DIV MUL PUSH1 0x20 ADD PUSH1 0x40 MLOAD SWAP1 DUP2 ADD PUSH1 0x40 MSTORE DUP1 SWAP3 SWAP2 SWAP1 DUP2 DUP2 MSTORE PUSH1 0x20 ADD DUP3 DUP1 SLOAD PUSH2 0x6F5 SWAP1 PUSH2 0x129C JUMP JUMPDEST DUP1 ISZERO PUSH2 0x742 JUMPI DUP1 PUSH1 0x1F LT PUSH2 0x717 JUMPI PUSH2 0x100 DUP1 DUP4 SLOAD DIV MUL DUP4 MSTORE SWAP2 PUSH1 0x20 ADD SWAP2 PUSH2 0x742 JUMP JUMPDEST DUP3 ADD SWAP2 SWAP1 PUSH1 0x0 MSTORE PUSH1 0x20 PUSH1 0x0 KECCAK256 SWAP1 JUMPDEST DUP2 SLOAD DUP2 MSTORE SWAP1 PUSH1 0x1 ADD SWAP1 PUSH1 0x20 ADD DUP1 DUP4 GT PUSH2 0x725 JUMPI DUP3 SWAP1 SUB PUSH1 0x1F AND DUP3 ADD SWAP2 JUMPDEST POP POP POP POP POP SWAP1 POP SWAP1 JUMP JUMPDEST PUSH1 0x0 CALLVALUE GT PUSH2 0x78F JUMPI PUSH1 0x40 MLOAD PUSH32 0x8C379A000000000000000000000000000000000000000000000000000000000 DUP2 MSTORE PUSH1 0x4 ADD PUSH2 0x786 SWAP1 PUSH2 0x140E JUMP JUMPDEST PUSH1 0x40 MLOAD DUP1 SWAP2 SUB SWAP1 REVERT JUMPDEST PUSH1 0x0 PUSH1 0x7 SLOAD CALLVALUE PUSH2 0x79F SWAP2 SWAP1 PUSH2 0x142E JUMP JUMPDEST SWAP1 POP PUSH2 0x7AB CALLER DUP3 PUSH2 0xE22 JUMP JUMPDEST POP JUMP JUMPDEST PUSH1 0x0 DUP1 PUSH2 0x7B9 PUSH2 0x946 JUMP JUMPDEST SWAP1 POP PUSH1 0x0 PUSH2 0x7C7 DUP3 DUP7 PUSH2 0x8AF JUMP JUMPDEST SWAP1 POP DUP4 DUP2 LT ISZERO PUSH2 0x80C JUMPI PUSH1 0x40 MLOAD PUSH32 0x8C379A000000000000000000000000000000000000000000000000000000000 DUP2 MSTORE PUSH1 0x4 ADD PUSH2 0x803 SWAP1 PUSH2 0x14E2 JUMP JUMPDEST PUSH1 0x40 MLOAD DUP1 SWAP2 SUB SWAP1 REVERT JUMPDEST PUSH2 0x819 DUP3 DUP7 DUP7 DUP5 SUB PUSH2 0x94E JUMP JUMPDEST PUSH1 0x1 SWAP3 POP POP POP SWAP3 SWAP2 POP POP JUMP JUMPDEST PUSH1 0x9 SLOAD DUP2 JUMP JUMPDEST PUSH1 0x0 DUP1 PUSH2 0x836 PUSH2 0x946 JUMP JUMPDEST SWAP1 POP PUSH2 0x843 DUP2 DUP6 DUP6 PUSH2 0xBA3 JUMP JUMPDEST PUSH1 0x1 SWAP2 POP POP SWAP3 SWAP2 POP POP JUMP JUMPDEST PUSH1 0x0 CALLVALUE GT PUSH2 0x891 JUMPI PUSH1 0x40 MLOAD PUSH32 0x8C379A000000000000000000000000000000000000000000000000000000000 DUP2 MSTORE PUSH1 0x4 ADD PUSH2 0x888 SWAP1 PUSH2 0x154E JUMP JUMPDEST PUSH1 0x40 MLOAD DUP1 SWAP2 SUB SWAP1 REVERT JUMPDEST PUSH1 0x0 PUSH1 0x64 CALLVALUE PUSH2 0x8A0 SWAP2 SWAP1 PUSH2 0x142E JUMP JUMPDEST SWAP1 POP PUSH2 0x8AC CALLER DUP3 PUSH2 0xE22 JUMP JUMPDEST POP JUMP JUMPDEST PUSH1 0x0 PUSH1 0x1 PUSH1 0x0 DUP5 PUSH20 0xFFFFFFFFFFFFFFFFFFFFFFFFFFFFFFFFFFFFFFFF AND PUSH20 0xFFFFFFFFFFFFFFFFFFFFFFFFFFFFFFFFFFFFFFFF AND DUP2 MSTORE PUSH1 0x20 ADD SWAP1 DUP2 MSTORE PUSH1 0x20 ADD PUSH1 0x0 KECCAK256 PUSH1 0x0 DUP4 PUSH20 0xFFFFFFFFFFFFFFFFFFFFFFFFFFFFFFFFFFFFFFFF AND PUSH20 0xFFFFFFFFFFFFFFFFFFFFFFFFFFFFFFFFFFFFFFFF AND DUP2 MSTORE PUSH1 0x20 ADD SWAP1 DUP2 MSTORE PUSH1 0x20 ADD PUSH1 0x0 KECCAK256 SLOAD SWAP1 POP SWAP3 SWAP2 POP POP JUMP JUMPDEST PUSH2 0x941 DUP4 DUP4 DUP4 PUSH2 0xBA3 JUMP JUMPDEST POP POP POP JUMP JUMPDEST PUSH1 0x0 CALLER SWAP1 POP SWAP1 JUMP JUMPDEST PUSH1 0x0 PUSH20 0xFFFFFFFFFFFFFFFFFFFFFFFFFFFFFFFFFFFFFFFF AND DUP4 PUSH20 0xFFFFFFFFFFFFFFFFFFFFFFFFFFFFFFFFFFFFFFFF AND SUB PUSH2 0x9BD JUMPI PUSH1 0x40 MLOAD PUSH32 0x8C379A000000000000000000000000000000000000000000000000000000000 DUP2 MSTORE PUSH1 0x4 ADD PUSH2 0x9B4 SWAP1 PUSH2 0x15E0 JUMP JUMPDEST PUSH1 0x40 MLOAD DUP1 SWAP2 SUB SWAP1 REVERT JUMPDEST PUSH1 0x0 PUSH20 0xFFFFFFFFFFFFFFFFFFFFFFFFFFFFFFFFFFFFFFFF AND DUP3 PUSH20 0xFFFFFFFFFFFFFFFFFFFFFFFFFFFFFFFFFFFFFFFF AND SUB PUSH2 0xA2C JUMPI PUSH1 0x40 MLOAD PUSH32 0x8C379A000000000000000000000000000000000000000000000000000000000 DUP2 MSTORE PUSH1 0x4 ADD PUSH2 0xA23 SWAP1 PUSH2 0x1672 JUMP JUMPDEST PUSH1 0x40 MLOAD DUP1 SWAP2 SUB SWAP1 REVERT JUMPDEST DUP1 PUSH1 0x1 PUSH1 0x0 DUP6 PUSH20 0xFFFFFFFFFFFFFFFFFFFFFFFFFFFFFFFFFFFFFFFF AND PUSH20 0xFFFFFFFFFFFFFFFFFFFFFFFFFFFFFFFFFFFFFFFF AND DUP2 MSTORE PUSH1 0x20 ADD SWAP1 DUP2 MSTORE PUSH1 0x20 ADD PUSH1 0x0 KECCAK256 PUSH1 0x0 DUP5 PUSH20 0xFFFFFFFFFFFFFFFFFFFFFFFFFFFFFFFFFFFFFFFF AND PUSH20 0xFFFFFFFFFFFFFFFFFFFFFFFFFFFFFFFFFFFFFFFF AND DUP2 MSTORE PUSH1 0x20 ADD SWAP1 DUP2 MSTORE PUSH1 0x20 ADD PUSH1 0x0 KECCAK256 DUP2 SWAP1 SSTORE POP DUP2 PUSH20 0xFFFFFFFFFFFFFFFFFFFFFFFFFFFFFFFFFFFFFFFF AND DUP4 PUSH20 0xFFFFFFFFFFFFFFFFFFFFFFFFFFFFFFFFFFFFFFFF AND PUSH32 0x8C5BE1E5EBEC7D5BD14F71427D1E84F3DD0314C0F7B2291E5B200AC8C7C3B925 DUP4 PUSH1 0x40 MLOAD PUSH2 0xB0A SWAP2 SWAP1 PUSH2 0x115B JUMP JUMPDEST PUSH1 0x40 MLOAD DUP1 SWAP2 SUB SWAP1 LOG3 POP POP POP JUMP JUMPDEST PUSH1 0x0 PUSH2 0xB23 DUP5 DUP5 PUSH2 0x8AF JUMP JUMPDEST SWAP1 POP PUSH32 0xFFFFFFFFFFFFFFFFFFFFFFFFFFFFFFFFFFFFFFFFFFFFFFFFFFFFFFFFFFFFFFFF DUP2 EQ PUSH2 0xB9D JUMPI DUP2 DUP2 LT ISZERO PUSH2 0xB8F JUMPI PUSH1 0x40 MLOAD PUSH32 0x8C379A000000000000000000000000000000000000000000000000000000000 DUP2 MSTORE PUSH1 0x4 ADD PUSH2 0xB86 SWAP1 PUSH2 0x16DE JUMP JUMPDEST PUSH1 0x40 MLOAD DUP1 SWAP2 SUB SWAP1 REVERT JUMPDEST PUSH2 0xB9C DUP5 DUP5 DUP5 DUP5 SUB PUSH2 0x94E JUMP JUMPDEST JUMPDEST POP POP POP POP JUMP JUMPDEST PUSH1 0x0 PUSH20 0xFFFFFFFFFFFFFFFFFFFFFFFFFFFFFFFFFFFFFFFF AND DUP4 PUSH20 0xFFFFFFFFFFFFFFFFFFFFFFFFFFFFFFFFFFFFFFFF AND SUB PUSH2 0xC12 JUMPI PUSH1 0x40 MLOAD PUSH32 0x8C379A000000000000000000000000000000000000000000000000000000000 DUP2 MSTORE PUSH1 0x4 ADD PUSH2 0xC09 SWAP1 PUSH2 0x1770 JUMP JUMPDEST PUSH1 0x40 MLOAD DUP1 SWAP2 SUB SWAP1 REVERT JUMPDEST PUSH1 0x0 PUSH20 0xFFFFFFFFFFFFFFFFFFFFFFFFFFFFFFFFFFFFFFFF AND DUP3 PUSH20 0xFFFFFFFFFFFFFFFFFFFFFFFFFFFFFFFFFFFFFFFF AND SUB PUSH2 0xC81 JUMPI PUSH1 0x40 MLOAD PUSH32 0x8C379A000000000000000000000000000000000000000000000000000000000 DUP2 MSTORE PUSH1 0x4 ADD PUSH2 0xC78 SWAP1 PUSH2 0x1802 JUMP JUMPDEST PUSH1 0x40 MLOAD DUP1 SWAP2 SUB SWAP1 REVERT JUMPDEST PUSH2 0xC8C DUP4 DUP4 DUP4 PUSH2 0xF81 JUMP JUMPDEST PUSH1 0x0 DUP1 PUSH1 0x0 DUP6 PUSH20 0xFFFFFFFFFFFFFFFFFFFFFFFFFFFFFFFFFFFFFFFF AND PUSH20 0xFFFFFFFFFFFFFFFFFFFFFFFFFFFFFFFFFFFFFFFF AND DUP2 MSTORE PUSH1 0x20 ADD SWAP1 DUP2 MSTORE PUSH1 0x20 ADD PUSH1 0x0 KECCAK256 SLOAD SWAP1 POP DUP2 DUP2 LT ISZERO PUSH2 0xD12 JUMPI PUSH1 0x40 MLOAD PUSH32 0x8C379A000000000000000000000000000000000000000000000000000000000 DUP2 MSTORE PUSH1 0x4 ADD PUSH2 0xD09 SWAP1 PUSH2 0x1894 JUMP JUMPDEST PUSH1 0x40 MLOAD DUP1 SWAP2 SUB SWAP1 REVERT JUMPDEST DUP2 DUP2 SUB PUSH1 0x0 DUP1 DUP7 PUSH20 0xFFFFFFFFFFFFFFFFFFFFFFFFFFFFFFFFFFFFFFFF AND PUSH20 0xFFFFFFFFFFFFFFFFFFFFFFFFFFFFFFFFFFFFFFFF AND DUP2 MSTORE PUSH1 0x20 ADD SWAP1 DUP2 MSTORE PUSH1 0x20 ADD PUSH1 0x0 KECCAK256 DUP2 SWAP1 SSTORE POP DUP2 PUSH1 0x0 DUP1 DUP6 PUSH20 0xFFFFFFFFFFFFFFFFFFFFFFFFFFFFFFFFFFFFFFFF AND PUSH20 0xFFFFFFFFFFFFFFFFFFFFFFFFFFFFFFFFFFFFFFFF AND DUP2 MSTORE PUSH1 0x20 ADD SWAP1 DUP2 MSTORE PUSH1 0x20 ADD PUSH1 0x0 KECCAK256 PUSH1 0x0 DUP3 DUP3 SLOAD PUSH2 0xDA5 SWAP2 SWAP1 PUSH2 0x138E JUMP JUMPDEST SWAP3 POP POP DUP2 SWAP1 SSTORE POP DUP3 PUSH20 0xFFFFFFFFFFFFFFFFFFFFFFFFFFFFFFFFFFFFFFFF AND DUP5 PUSH20 0xFFFFFFFFFFFFFFFFFFFFFFFFFFFFFFFFFFFFFFFF AND PUSH32 0xDDF252AD1BE2C89B69C2B068FC378DAA952BA7F163C4A11628F55A4DF523B3EF DUP5 PUSH1 0x40 MLOAD PUSH2 0xE09 SWAP2 SWAP1 PUSH2 0x115B JUMP JUMPDEST PUSH1 0x40 MLOAD DUP1 SWAP2 SUB SWAP1 LOG3 PUSH2 0xE1C DUP5 DUP5 DUP5 PUSH2 0xF86 JUMP JUMPDEST POP POP POP POP JUMP JUMPDEST PUSH1 0x0 PUSH20 0xFFFFFFFFFFFFFFFFFFFFFFFFFFFFFFFFFFFFFFFF AND DUP3 PUSH20 0xFFFFFFFFFFFFFFFFFFFFFFFFFFFFFFFFFFFFFFFF AND SUB PUSH2 0xE91 JUMPI PUSH1 0x40 MLOAD PUSH32 0x8C379A000000000000000000000000000000000000000000000000000000000 DUP2 MSTORE PUSH1 0x4 ADD PUSH2 0xE88 SWAP1 PUSH2 0x1900 JUMP JUMPDEST PUSH1 0x40 MLOAD DUP1 SWAP2 SUB SWAP1 REVERT JUMPDEST PUSH2 0xE9D PUSH1 0x0 DUP4 DUP4 PUSH2 0xF81 JUMP JUMPDEST DUP1 PUSH1 0x2 PUSH1 0x0 DUP3 DUP3 SLOAD PUSH2 0xEAF SWAP2 SWAP1 PUSH2 0x138E JUMP JUMPDEST SWAP3 POP POP DUP2 SWAP1 SSTORE POP DUP1 PUSH1 0x0 DUP1 DUP5 PUSH20 0xFFFFFFFFFFFFFFFFFFFFFFFFFFFFFFFFFFFFFFFF AND PUSH20 0xFFFFFFFFFFFFFFFFFFFFFFFFFFFFFFFFFFFFFFFF AND DUP2 MSTORE PUSH1 0x20 ADD SWAP1 DUP2 MSTORE PUSH1 0x20 ADD PUSH1 0x0 KECCAK256 PUSH1 0x0 DUP3 DUP3 SLOAD PUSH2 0xF04 SWAP2 SWAP1 PUSH2 0x138E JUMP JUMPDEST SWAP3 POP POP DUP2 SWAP1 SSTORE POP DUP2 PUSH20 0xFFFFFFFFFFFFFFFFFFFFFFFFFFFFFFFFFFFFFFFF AND PUSH1 0x0 PUSH20 0xFFFFFFFFFFFFFFFFFFFFFFFFFFFFFFFFFFFFFFFF AND PUSH32 0xDDF252AD1BE2C89B69C2B068FC378DAA952BA7F163C4A11628F55A4DF523B3EF DUP4 PUSH1 0x40 MLOAD PUSH2 0xF69 SWAP2 SWAP1 PUSH2 0x115B JUMP JUMPDEST PUSH1 0x40 MLOAD DUP1 SWAP2 SUB SWAP1 LOG3 PUSH2 0xF7D PUSH1 0x0 DUP4 DUP4 PUSH2 0xF86 JUMP JUMPDEST POP POP JUMP JUMPDEST POP POP POP JUMP JUMPDEST POP POP POP JUMP JUMPDEST PUSH1 0x0 DUP2 MLOAD SWAP1 POP SWAP2 SWAP1 POP JUMP JUMPDEST PUSH1 0x0 DUP3 DUP3 MSTORE PUSH1 0x20 DUP3 ADD SWAP1 POP SWAP3 SWAP2 POP POP JUMP JUMPDEST PUSH1 0x0 JUMPDEST DUP4 DUP2 LT ISZERO PUSH2 0xFC5 JUMPI DUP1 DUP3 ADD MLOAD DUP2 DUP5 ADD MSTORE PUSH1 0x20 DUP2 ADD SWAP1 POP PUSH2 0xFAA JUMP JUMPDEST PUSH1 0x0 DUP5 DUP5 ADD MSTORE POP POP POP POP JUMP JUMPDEST PUSH1 0x0 PUSH1 0x1F NOT PUSH1 0x1F DUP4 ADD AND SWAP1 POP SWAP2 SWAP1 POP JUMP JUMPDEST PUSH1 0x0 PUSH2 0xFED DUP3 PUSH2 0xF8B JUMP JUMPDEST PUSH2 0xFF7 DUP2 DUP6 PUSH2 0xF96 JUMP JUMPDEST SWAP4 POP PUSH2 0x1007 DUP2 DUP6 PUSH1 0x20 DUP7 ADD PUSH2 0xFA7 JUMP JUMPDEST PUSH2 0x1010 DUP2 PUSH2 0xFD1 JUMP JUMPDEST DUP5 ADD SWAP2 POP POP SWAP3 SWAP2 POP POP JUMP JUMPDEST PUSH1 0x0 PUSH1 0x20 DUP3 ADD SWAP1 POP DUP2 DUP2 SUB PUSH1 0x0 DUP4 ADD MSTORE PUSH2 0x1035 DUP2 DUP5 PUSH2 0xFE2 JUMP JUMPDEST SWAP1 POP SWAP3 SWAP2 POP POP JUMP JUMPDEST PUSH1 0x0 DUP1 REVERT JUMPDEST PUSH1 0x0 PUSH20 0xFFFFFFFFFFFFFFFFFFFFFFFFFFFFFFFFFFFFFFFF DUP3 AND SWAP1 POP SWAP2 SWAP1 POP JUMP JUMPDEST PUSH1 0x0 PUSH2 0x106D DUP3 PUSH2 0x1042 JUMP JUMPDEST SWAP1 POP SWAP2 SWAP1 POP JUMP JUMPDEST PUSH2 0x107D DUP2 PUSH2 0x1062 JUMP JUMPDEST DUP2 EQ PUSH2 0x1088 JUMPI PUSH1 0x0 DUP1 REVERT JUMPDEST POP JUMP JUMPDEST PUSH1 0x0 DUP2 CALLDATALOAD SWAP1 POP PUSH2 0x109A DUP2 PUSH2 0x1074 JUMP JUMPDEST SWAP3 SWAP2 POP POP JUMP JUMPDEST PUSH1 0x0 DUP2 SWAP1 POP SWAP2 SWAP1 POP JUMP JUMPDEST PUSH2 0x10B3 DUP2 PUSH2 0x10A0 JUMP JUMPDEST DUP2 EQ PUSH2 0x10BE JUMPI PUSH1 0x0 DUP1 REVERT JUMPDEST POP JUMP JUMPDEST PUSH1 0x0 DUP2 CALLDATALOAD SWAP1 POP PUSH2 0x10D0 DUP2 PUSH2 0x10AA JUMP JUMPDEST SWAP3 SWAP2 POP POP JUMP JUMPDEST PUSH1 0x0 DUP1 PUSH1 0x40 DUP4 DUP6 SUB SLT ISZERO PUSH2 0x10ED JUMPI PUSH2 0x10EC PUSH2 0x103D JUMP JUMPDEST JUMPDEST PUSH1 0x0 PUSH2 0x10FB DUP6 DUP3 DUP7 ADD PUSH2 0x108B JUMP JUMPDEST SWAP3 POP POP PUSH1 0x20 PUSH2 0x110C DUP6 DUP3 DUP7 ADD PUSH2 0x10C1 JUMP JUMPDEST SWAP2 POP POP SWAP3 POP SWAP3 SWAP1 POP JUMP JUMPDEST PUSH1 0x0 DUP2 ISZERO ISZERO SWAP1 POP SWAP2 SWAP1 POP JUMP JUMPDEST PUSH2 0x112B DUP2 PUSH2 0x1116 JUMP JUMPDEST DUP3 MSTORE POP POP JUMP JUMPDEST PUSH1 0x0 PUSH1 0x20 DUP3 ADD SWAP1 POP PUSH2 0x1146 PUSH1 0x0 DUP4 ADD DUP5 PUSH2 0x1122 JUMP JUMPDEST SWAP3 SWAP2 POP POP JUMP JUMPDEST PUSH2 0x1155 DUP2 PUSH2 0x10A0 JUMP JUMPDEST DUP3 MSTORE POP POP JUMP JUMPDEST PUSH1 0x0 PUSH1 0x20 DUP3 ADD SWAP1 POP PUSH2 0x1170 PUSH1 0x0 DUP4 ADD DUP5 PUSH2 0x114C JUMP JUMPDEST SWAP3 SWAP2 POP POP JUMP JUMPDEST PUSH1 0x0 DUP1 PUSH1 0x0 PUSH1 0x60 DUP5 DUP7 SUB SLT ISZERO PUSH2 0x118F JUMPI PUSH2 0x118E PUSH2 0x103D JUMP JUMPDEST JUMPDEST PUSH1 0x0 PUSH2 0x119D DUP7 DUP3 DUP8 ADD PUSH2 0x108B JUMP JUMPDEST SWAP4 POP POP PUSH1 0x20 PUSH2 0x11AE DUP7 DUP3 DUP8 ADD PUSH2 0x108B JUMP JUMPDEST SWAP3 POP POP PUSH1 0x40 PUSH2 0x11BF DUP7 DUP3 DUP8 ADD PUSH2 0x10C1 JUMP JUMPDEST SWAP2 POP POP SWAP3 POP SWAP3 POP SWAP3 JUMP JUMPDEST PUSH1 0x0 PUSH1 0xFF DUP3 AND SWAP1 POP SWAP2 SWAP1 POP JUMP JUMPDEST PUSH2 0x11DF DUP2 PUSH2 0x11C9 JUMP JUMPDEST DUP3 MSTORE POP POP JUMP JUMPDEST PUSH1 0x0 PUSH1 0x20 DUP3 ADD SWAP1 POP PUSH2 0x11FA PUSH1 0x0 DUP4 ADD DUP5 PUSH2 0x11D6 JUMP JUMPDEST SWAP3 SWAP2 POP POP JUMP JUMPDEST PUSH1 0x0 PUSH1 0x20 DUP3 DUP5 SUB SLT ISZERO PUSH2 0x1216 JUMPI PUSH2 0x1215 PUSH2 0x103D JUMP JUMPDEST JUMPDEST PUSH1 0x0 PUSH2 0x1224 DUP5 DUP3 DUP6 ADD PUSH2 0x108B JUMP JUMPDEST SWAP2 POP POP SWAP3 SWAP2 POP POP JUMP JUMPDEST PUSH1 0x0 DUP1 PUSH1 0x40 DUP4 DUP6 SUB SLT ISZERO PUSH2 0x1244 JUMPI PUSH2 0x1243 PUSH2 0x103D JUMP JUMPDEST JUMPDEST PUSH1 0x0 PUSH2 0x1252 DUP6 DUP3 DUP7 ADD PUSH2 0x108B JUMP JUMPDEST SWAP3 POP POP PUSH1 0x20 PUSH2 0x1263 DUP6 DUP3 DUP7 ADD PUSH2 0x108B JUMP JUMPDEST SWAP2 POP POP SWAP3 POP SWAP3 SWAP1 POP JUMP JUMPDEST PUSH32 0x4E487B7100000000000000000000000000000000000000000000000000000000 PUSH1 0x0 MSTORE PUSH1 0x22 PUSH1 0x4 MSTORE PUSH1 0x24 PUSH1 0x0 REVERT JUMPDEST PUSH1 0x0 PUSH1 0x2 DUP3 DIV SWAP1 POP PUSH1 0x1 DUP3 AND DUP1 PUSH2 0x12B4 JUMPI PUSH1 0x7F DUP3 AND SWAP2 POP JUMPDEST PUSH1 0x20 DUP3 LT DUP2 SUB PUSH2 0x12C7 JUMPI PUSH2 0x12C6 PUSH2 0x126D JUMP JUMPDEST JUMPDEST POP SWAP2 SWAP1 POP JUMP JUMPDEST PUSH32 0x5468697320757365722068617320636C61696D65642061697264726F7020616C PUSH1 0x0 DUP3 ADD MSTORE PUSH32 0x7265616479000000000000000000000000000000000000000000000000000000 PUSH1 0x20 DUP3 ADD MSTORE POP JUMP JUMPDEST PUSH1 0x0 PUSH2 0x1329 PUSH1 0x25 DUP4 PUSH2 0xF96 JUMP JUMPDEST SWAP2 POP PUSH2 0x1334 DUP3 PUSH2 0x12CD JUMP JUMPDEST PUSH1 0x40 DUP3 ADD SWAP1 POP SWAP2 SWAP1 POP JUMP JUMPDEST PUSH1 0x0 PUSH1 0x20 DUP3 ADD SWAP1 POP DUP2 DUP2 SUB PUSH1 0x0 DUP4 ADD MSTORE PUSH2 0x1358 DUP2 PUSH2 0x131C JUMP JUMPDEST SWAP1 POP SWAP2 SWAP1 POP JUMP JUMPDEST PUSH32 0x4E487B7100000000000000000000000000000000000000000000000000000000 PUSH1 0x0 MSTORE PUSH1 0x11 PUSH1 0x4 MSTORE PUSH1 0x24 PUSH1 0x0 REVERT JUMPDEST PUSH1 0x0 PUSH2 0x1399 DUP3 PUSH2 0x10A0 JUMP JUMPDEST SWAP2 POP PUSH2 0x13A4 DUP4 PUSH2 0x10A0 JUMP JUMPDEST SWAP3 POP DUP3 DUP3 ADD SWAP1 POP DUP1 DUP3 GT ISZERO PUSH2 0x13BC JUMPI PUSH2 0x13BB PUSH2 0x135F JUMP JUMPDEST JUMPDEST SWAP3 SWAP2 POP POP JUMP JUMPDEST PUSH32 0x4D7573742073656E642045544820746F20636F6E766572740000000000000000 PUSH1 0x0 DUP3 ADD MSTORE POP JUMP JUMPDEST PUSH1 0x0 PUSH2 0x13F8 PUSH1 0x18 DUP4 PUSH2 0xF96 JUMP JUMPDEST SWAP2 POP PUSH2 0x1403 DUP3 PUSH2 0x13C2 JUMP JUMPDEST PUSH1 0x20 DUP3 ADD SWAP1 POP SWAP2 SWAP1 POP JUMP JUMPDEST PUSH1 0x0 PUSH1 0x20 DUP3 ADD SWAP1 POP DUP2 DUP2 SUB PUSH1 0x0 DUP4 ADD MSTORE PUSH2 0x1427 DUP2 PUSH2 0x13EB JUMP JUMPDEST SWAP1 POP SWAP2 SWAP1 POP JUMP JUMPDEST PUSH1 0x0 PUSH2 0x1439 DUP3 PUSH2 0x10A0 JUMP JUMPDEST SWAP2 POP PUSH2 0x1444 DUP4 PUSH2 0x10A0 JUMP JUMPDEST SWAP3 POP DUP3 DUP3 MUL PUSH2 0x1452 DUP2 PUSH2 0x10A0 JUMP JUMPDEST SWAP2 POP DUP3 DUP3 DIV DUP5 EQ DUP4 ISZERO OR PUSH2 0x1469 JUMPI PUSH2 0x1468 PUSH2 0x135F JUMP JUMPDEST JUMPDEST POP SWAP3 SWAP2 POP POP JUMP JUMPDEST PUSH32 0x45524332303A2064656372656173656420616C6C6F77616E63652062656C6F77 PUSH1 0x0 DUP3 ADD MSTORE PUSH32 0x207A65726F000000000000000000000000000000000000000000000000000000 PUSH1 0x20 DUP3 ADD MSTORE POP JUMP JUMPDEST PUSH1 0x0 PUSH2 0x14CC PUSH1 0x25 DUP4 PUSH2 0xF96 JUMP JUMPDEST SWAP2 POP PUSH2 0x14D7 DUP3 PUSH2 0x1470 JUMP JUMPDEST PUSH1 0x40 DUP3 ADD SWAP1 POP SWAP2 SWAP1 POP JUMP JUMPDEST PUSH1 0x0 PUSH1 0x20 DUP3 ADD SWAP1 POP DUP2 DUP2 SUB PUSH1 0x0 DUP4 ADD MSTORE PUSH2 0x14FB DUP2 PUSH2 0x14BF JUMP JUMPDEST SWAP1 POP SWAP2 SWAP1 POP JUMP JUMPDEST PUSH32 0x4D7573742073656E6420457468657220746F2062757920746F6B656E73000000 PUSH1 0x0 DUP3 ADD MSTORE POP JUMP JUMPDEST PUSH1 0x0 PUSH2 0x1538 PUSH1 0x1D DUP4 PUSH2 0xF96 JUMP JUMPDEST SWAP2 POP PUSH2 0x1543 DUP3 PUSH2 0x1502 JUMP JUMPDEST PUSH1 0x20 DUP3 ADD SWAP1 POP SWAP2 SWAP1 POP JUMP JUMPDEST PUSH1 0x0 PUSH1 0x20 DUP3 ADD SWAP1 POP DUP2 DUP2 SUB PUSH1 0x0 DUP4 ADD MSTORE PUSH2 0x1567 DUP2 PUSH2 0x152B JUMP JUMPDEST SWAP1 POP SWAP2 SWAP1 POP JUMP JUMPDEST PUSH32 0x45524332303A20617070726F76652066726F6D20746865207A65726F20616464 PUSH1 0x0 DUP3 ADD MSTORE PUSH32 0x7265737300000000000000000000000000000000000000000000000000000000 PUSH1 0x20 DUP3 ADD MSTORE POP JUMP JUMPDEST PUSH1 0x0 PUSH2 0x15CA PUSH1 0x24 DUP4 PUSH2 0xF96 JUMP JUMPDEST SWAP2 POP PUSH2 0x15D5 DUP3 PUSH2 0x156E JUMP JUMPDEST PUSH1 0x40 DUP3 ADD SWAP1 POP SWAP2 SWAP1 POP JUMP JUMPDEST PUSH1 0x0 PUSH1 0x20 DUP3 ADD SWAP1 POP DUP2 DUP2 SUB PUSH1 0x0 DUP4 ADD MSTORE PUSH2 0x15F9 DUP2 PUSH2 0x15BD JUMP JUMPDEST SWAP1 POP SWAP2 SWAP1 POP JUMP JUMPDEST PUSH32 0x45524332303A20617070726F766520746F20746865207A65726F206164647265 PUSH1 0x0 DUP3 ADD MSTORE PUSH32 0x7373000000000000000000000000000000000000000000000000000000000000 PUSH1 0x20 DUP3 ADD MSTORE POP JUMP JUMPDEST PUSH1 0x0 PUSH2 0x165C PUSH1 0x22 DUP4 PUSH2 0xF96 JUMP JUMPDEST SWAP2 POP PUSH2 0x1667 DUP3 PUSH2 0x1600 JUMP JUMPDEST PUSH1 0x40 DUP3 ADD SWAP1 POP SWAP2 SWAP1 POP JUMP JUMPDEST PUSH1 0x0 PUSH1 0x20 DUP3 ADD SWAP1 POP DUP2 DUP2 SUB PUSH1 0x0 DUP4 ADD MSTORE PUSH2 0x168B DUP2 PUSH2 0x164F JUMP JUMPDEST SWAP1 POP SWAP2 SWAP1 POP JUMP JUMPDEST PUSH32 0x45524332303A20696E73756666696369656E7420616C6C6F77616E6365000000 PUSH1 0x0 DUP3 ADD MSTORE POP JUMP JUMPDEST PUSH1 0x0 PUSH2 0x16C8 PUSH1 0x1D DUP4 PUSH2 0xF96 JUMP JUMPDEST SWAP2 POP PUSH2 0x16D3 DUP3 PUSH2 0x1692 JUMP JUMPDEST PUSH1 0x20 DUP3 ADD SWAP1 POP SWAP2 SWAP1 POP JUMP JUMPDEST PUSH1 0x0 PUSH1 0x20 DUP3 ADD SWAP1 POP DUP2 DUP2 SUB PUSH1 0x0 DUP4 ADD MSTORE PUSH2 0x16F7 DUP2 PUSH2 0x16BB JUMP JUMPDEST SWAP1 POP SWAP2 SWAP1 POP JUMP JUMPDEST PUSH32 0x45524332303A207472616E736665722066726F6D20746865207A65726F206164 PUSH1 0x0 DUP3 ADD MSTORE PUSH32 0x6472657373000000000000000000000000000000000000000000000000000000 PUSH1 0x20 DUP3 ADD MSTORE POP JUMP JUMPDEST PUSH1 0x0 PUSH2 0x175A PUSH1 0x25 DUP4 PUSH2 0xF96 JUMP JUMPDEST SWAP2 POP PUSH2 0x1765 DUP3 PUSH2 0x16FE JUMP JUMPDEST PUSH1 0x40 DUP3 ADD SWAP1 POP SWAP2 SWAP1 POP JUMP JUMPDEST PUSH1 0x0 PUSH1 0x20 DUP3 ADD SWAP1 POP DUP2 DUP2 SUB PUSH1 0x0 DUP4 ADD MSTORE PUSH2 0x1789 DUP2 PUSH2 0x174D JUMP JUMPDEST SWAP1 POP SWAP2 SWAP1 POP JUMP JUMPDEST PUSH32 0x45524332303A207472616E7366657220746F20746865207A65726F2061646472 PUSH1 0x0 DUP3 ADD MSTORE PUSH32 0x6573730000000000000000000000000000000000000000000000000000000000 PUSH1 0x20 DUP3 ADD MSTORE POP JUMP JUMPDEST PUSH1 0x0 PUSH2 0x17EC PUSH1 0x23 DUP4 PUSH2 0xF96 JUMP JUMPDEST SWAP2 POP PUSH2 0x17F7 DUP3 PUSH2 0x1790 JUMP JUMPDEST PUSH1 0x40 DUP3 ADD SWAP1 POP SWAP2 SWAP1 POP JUMP JUMPDEST PUSH1 0x0 PUSH1 0x20 DUP3 ADD SWAP1 POP DUP2 DUP2 SUB PUSH1 0x0 DUP4 ADD MSTORE PUSH2 0x181B DUP2 PUSH2 0x17DF JUMP JUMPDEST SWAP1 POP SWAP2 SWAP1 POP JUMP JUMPDEST PUSH32 0x45524332303A207472616E7366657220616D6F756E7420657863656564732062 PUSH1 0x0 DUP3 ADD MSTORE PUSH32 0x616C616E63650000000000000000000000000000000000000000000000000000 PUSH1 0x20 DUP3 ADD MSTORE POP JUMP JUMPDEST PUSH1 0x0 PUSH2 0x187E PUSH1 0x26 DUP4 PUSH2 0xF96 JUMP JUMPDEST SWAP2 POP PUSH2 0x1889 DUP3 PUSH2 0x1822 JUMP JUMPDEST PUSH1 0x40 DUP3 ADD SWAP1 POP SWAP2 SWAP1 POP JUMP JUMPDEST PUSH1 0x0 PUSH1 0x20 DUP3 ADD SWAP1 POP DUP2 DUP2 SUB PUSH1 0x0 DUP4 ADD MSTORE PUSH2 0x18AD DUP2 PUSH2 0x1871 JUMP JUMPDEST SWAP1 POP SWAP2 SWAP1 POP JUMP JUMPDEST PUSH32 0x45524332303A206D696E7420746F20746865207A65726F206164647265737300 PUSH1 0x0 DUP3 ADD MSTORE POP JUMP JUMPDEST PUSH1 0x0 PUSH2 0x18EA PUSH1 0x1F DUP4 PUSH2 0xF96 JUMP JUMPDEST SWAP2 POP PUSH2 0x18F5 DUP3 PUSH2 0x18B4 JUMP JUMPDEST PUSH1 0x20 DUP3 ADD SWAP1 POP SWAP2 SWAP1 POP JUMP JUMPDEST PUSH1 0x0 PUSH1 0x20 DUP3 ADD SWAP1 POP DUP2 DUP2 SUB PUSH1 0x0 DUP4 ADD MSTORE PUSH2 0x1919 DUP2 PUSH2 0x18DD JUMP JUMPDEST SWAP1 POP SWAP2 SWAP1 POP JUMP INVALID LOG2 PUSH5 0x6970667358 0x22 SLT KECCAK256 0xF7 PUSH20 0x679FA875648E2E8FC32C3CDBC0B2B143F247DD8F 0xCE PUSH3 0x27EF42 0xAA PUSH9 0x413C3264736F6C6343 STOP ADDMOD EQ STOP CALLER "},"methodIdentifiers":{"Rate()":"1b8e94a1","airdrop()":"3884d635","airdropamount()":"a464c487","allowance(address,address)":"dd62ed3e","approve(address,uint256)":"095ea7b3","balanceOf(address)":"70a08231","buyTokens()":"d0febe4c","conversionRate()":"7ffdf53e","convertEthToErc20()":"9b80d687","decimals()":"313ce567","decreaseAllowance(address,uint256)":"a457c2d7","increaseAllowance(address,uint256)":"39509351","name()":"06fdde03","symbol()":"95d89b41","totalSupply()":"18160ddd","trans(address,address,uint256)":"eb8571c8","transfer(address,uint256)":"a9059cbb","transferFrom(address,address,uint256)":"23b872dd"}}}}}