{
  "_format": "hh-sol-artifact-1",
  "contractName": "BuyMyRoom",
  "sourceName": "contracts/BuyMyRoom.sol",
  "abi": [
    {
      "inputs": [],
      "stateMutability": "nonpayable",
      "type": "constructor"
    },
    {
      "anonymous": false,
      "inputs": [
        {
          "indexed": true,
          "internalType": "address",
          "name": "owner",
          "type": "address"
        },
        {
          "indexed": true,
          "internalType": "address",
          "name": "approved",
          "type": "address"
        },
        {
          "indexed": true,
          "internalType": "uint256",
          "name": "tokenId",
          "type": "uint256"
        }
      ],
      "name": "Approval",
      "type": "event"
    },
    {
      "anonymous": false,
      "inputs": [
        {
          "indexed": true,
          "internalType": "address",
          "name": "owner",
          "type": "address"
        },
        {
          "indexed": true,
          "internalType": "address",
          "name": "operator",
          "type": "address"
        },
        {
          "indexed": false,
          "internalType": "bool",
          "name": "approved",
          "type": "bool"
        }
      ],
      "name": "ApprovalForAll",
      "type": "event"
    },
    {
      "anonymous": false,
      "inputs": [
        {
          "indexed": true,
          "internalType": "address",
          "name": "from",
          "type": "address"
        },
        {
          "indexed": true,
          "internalType": "address",
          "name": "to",
          "type": "address"
        },
        {
          "indexed": true,
          "internalType": "uint256",
          "name": "tokenId",
          "type": "uint256"
        }
      ],
      "name": "Transfer",
      "type": "event"
    },
    {
      "inputs": [
        {
          "internalType": "address",
          "name": "to",
          "type": "address"
        },
        {
          "internalType": "uint256",
          "name": "tokenId",
          "type": "uint256"
        }
      ],
      "name": "approve",
      "outputs": [],
      "stateMutability": "nonpayable",
      "type": "function"
    },
    {
      "inputs": [
        {
          "internalType": "address",
          "name": "owner",
          "type": "address"
        }
      ],
      "name": "balanceOf",
      "outputs": [
        {
          "internalType": "uint256",
          "name": "",
          "type": "uint256"
        }
      ],
      "stateMutability": "view",
      "type": "function"
    },
    {
      "inputs": [
        {
          "internalType": "uint256",
          "name": "tokenId",
          "type": "uint256"
        }
      ],
      "name": "buyHouse",
      "outputs": [],
      "stateMutability": "payable",
      "type": "function"
    },
    {
      "inputs": [
        {
          "internalType": "uint256",
          "name": "tokenId",
          "type": "uint256"
        }
      ],
      "name": "buyHouseWithERC20",
      "outputs": [],
      "stateMutability": "nonpayable",
      "type": "function"
    },
    {
      "inputs": [
        {
          "internalType": "uint256",
          "name": "tokenId",
          "type": "uint256"
        }
      ],
      "name": "getApproved",
      "outputs": [
        {
          "internalType": "address",
          "name": "",
          "type": "address"
        }
      ],
      "stateMutability": "view",
      "type": "function"
    },
    {
      "inputs": [],
      "name": "getHousesForSale",
      "outputs": [
        {
          "components": [
            {
              "internalType": "uint256",
              "name": "tokenId",
              "type": "uint256"
            },
            {
              "internalType": "address",
              "name": "owner",
              "type": "address"
            },
            {
              "internalType": "uint256",
              "name": "price",
              "type": "uint256"
            },
            {
              "internalType": "uint256",
              "name": "erc20Price",
              "type": "uint256"
            },
            {
              "internalType": "bool",
              "name": "forSale",
              "type": "bool"
            }
          ],
          "internalType": "struct BuyMyRoom.House[]",
          "name": "",
          "type": "tuple[]"
        }
      ],
      "stateMutability": "view",
      "type": "function"
    },
    {
      "inputs": [],
      "name": "getMyHouses",
      "outputs": [
        {
          "components": [
            {
              "internalType": "uint256",
              "name": "tokenId",
              "type": "uint256"
            },
            {
              "internalType": "address",
              "name": "owner",
              "type": "address"
            },
            {
              "internalType": "uint256",
              "name": "price",
              "type": "uint256"
            },
            {
              "internalType": "uint256",
              "name": "erc20Price",
              "type": "uint256"
            },
            {
              "internalType": "bool",
              "name": "forSale",
              "type": "bool"
            }
          ],
          "internalType": "struct BuyMyRoom.House[]",
          "name": "",
          "type": "tuple[]"
        }
      ],
      "stateMutability": "view",
      "type": "function"
    },
    {
      "inputs": [
        {
          "internalType": "uint256",
          "name": "",
          "type": "uint256"
        }
      ],
      "name": "houses",
      "outputs": [
        {
          "internalType": "uint256",
          "name": "tokenId",
          "type": "uint256"
        },
        {
          "internalType": "address",
          "name": "owner",
          "type": "address"
        },
        {
          "internalType": "uint256",
          "name": "price",
          "type": "uint256"
        },
        {
          "internalType": "uint256",
          "name": "erc20Price",
          "type": "uint256"
        },
        {
          "internalType": "bool",
          "name": "forSale",
          "type": "bool"
        }
      ],
      "stateMutability": "view",
      "type": "function"
    },
    {
      "inputs": [
        {
          "internalType": "address",
          "name": "owner",
          "type": "address"
        },
        {
          "internalType": "address",
          "name": "operator",
          "type": "address"
        }
      ],
      "name": "isApprovedForAll",
      "outputs": [
        {
          "internalType": "bool",
          "name": "",
          "type": "bool"
        }
      ],
      "stateMutability": "view",
      "type": "function"
    },
    {
      "inputs": [],
      "name": "manager",
      "outputs": [
        {
          "internalType": "address",
          "name": "",
          "type": "address"
        }
      ],
      "stateMutability": "view",
      "type": "function"
    },
    {
      "inputs": [],
      "name": "mintHouse",
      "outputs": [],
      "stateMutability": "nonpayable",
      "type": "function"
    },
    {
      "inputs": [],
      "name": "myERC20",
      "outputs": [
        {
          "internalType": "contract MyERC20",
          "name": "",
          "type": "address"
        }
      ],
      "stateMutability": "view",
      "type": "function"
    },
    {
      "inputs": [],
      "name": "name",
      "outputs": [
        {
          "internalType": "string",
          "name": "",
          "type": "string"
        }
      ],
      "stateMutability": "view",
      "type": "function"
    },
    {
      "inputs": [
        {
          "internalType": "uint256",
          "name": "tokenId",
          "type": "uint256"
        }
      ],
      "name": "ownerOf",
      "outputs": [
        {
          "internalType": "address",
          "name": "",
          "type": "address"
        }
      ],
      "stateMutability": "view",
      "type": "function"
    },
    {
      "inputs": [
        {
          "internalType": "uint256",
          "name": "tokenId",
          "type": "uint256"
        },
        {
          "internalType": "uint256",
          "name": "price",
          "type": "uint256"
        }
      ],
      "name": "putHouseForSale",
      "outputs": [],
      "stateMutability": "nonpayable",
      "type": "function"
    },
    {
      "inputs": [
        {
          "internalType": "address",
          "name": "from",
          "type": "address"
        },
        {
          "internalType": "address",
          "name": "to",
          "type": "address"
        },
        {
          "internalType": "uint256",
          "name": "tokenId",
          "type": "uint256"
        }
      ],
      "name": "safeTransferFrom",
      "outputs": [],
      "stateMutability": "nonpayable",
      "type": "function"
    },
    {
      "inputs": [
        {
          "internalType": "address",
          "name": "from",
          "type": "address"
        },
        {
          "internalType": "address",
          "name": "to",
          "type": "address"
        },
        {
          "internalType": "uint256",
          "name": "tokenId",
          "type": "uint256"
        },
        {
          "internalType": "bytes",
          "name": "data",
          "type": "bytes"
        }
      ],
      "name": "safeTransferFrom",
      "outputs": [],
      "stateMutability": "nonpayable",
      "type": "function"
    },
    {
      "inputs": [
        {
          "internalType": "address",
          "name": "operator",
          "type": "address"
        },
        {
          "internalType": "bool",
          "name": "approved",
          "type": "bool"
        }
      ],
      "name": "setApprovalForAll",
      "outputs": [],
      "stateMutability": "nonpayable",
      "type": "function"
    },
    {
      "inputs": [
        {
          "internalType": "bytes4",
          "name": "interfaceId",
          "type": "bytes4"
        }
      ],
      "name": "supportsInterface",
      "outputs": [
        {
          "internalType": "bool",
          "name": "",
          "type": "bool"
        }
      ],
      "stateMutability": "view",
      "type": "function"
    },
    {
      "inputs": [],
      "name": "symbol",
      "outputs": [
        {
          "internalType": "string",
          "name": "",
          "type": "string"
        }
      ],
      "stateMutability": "view",
      "type": "function"
    },
    {
      "inputs": [
        {
          "internalType": "uint256",
          "name": "tokenId",
          "type": "uint256"
        }
      ],
      "name": "tokenURI",
      "outputs": [
        {
          "internalType": "string",
          "name": "",
          "type": "string"
        }
      ],
      "stateMutability": "view",
      "type": "function"
    },
    {
      "inputs": [
        {
          "internalType": "address",
          "name": "from",
          "type": "address"
        },
        {
          "internalType": "address",
          "name": "to",
          "type": "address"
        },
        {
          "internalType": "uint256",
          "name": "tokenId",
          "type": "uint256"
        }
      ],
      "name": "transferFrom",
      "outputs": [],
      "stateMutability": "nonpayable",
      "type": "function"
    }
  ],
  "bytecode": "0x60806040523480156200001157600080fd5b506040518060400160405280600881526020017f486f7573654e46540000000000000000000000000000000000000000000000008152506040518060400160405280600481526020017f484e46540000000000000000000000000000000000000000000000000000000081525081600090816200008f9190620003f2565b508060019081620000a19190620003f2565b505050604051620000b2906200016a565b620000bd906200058a565b604051809103906000f080158015620000da573d6000803e3d6000fd5b50600960006101000a81548173ffffffffffffffffffffffffffffffffffffffff021916908373ffffffffffffffffffffffffffffffffffffffff160217905550600060068190555033600760006101000a81548173ffffffffffffffffffffffffffffffffffffffff021916908373ffffffffffffffffffffffffffffffffffffffff160217905550620005c1565b611f768062003e8a83390190565b600081519050919050565b7f4e487b7100000000000000000000000000000000000000000000000000000000600052604160045260246000fd5b7f4e487b7100000000000000000000000000000000000000000000000000000000600052602260045260246000fd5b60006002820490506001821680620001fa57607f821691505b60208210810362000210576200020f620001b2565b5b50919050565b60008190508160005260206000209050919050565b60006020601f8301049050919050565b600082821b905092915050565b6000600883026200027a7fffffffffffffffffffffffffffffffffffffffffffffffffffffffffffffffff826200023b565b6200028686836200023b565b95508019841693508086168417925050509392505050565b6000819050919050565b6000819050919050565b6000620002d3620002cd620002c7846200029e565b620002a8565b6200029e565b9050919050565b6000819050919050565b620002ef83620002b2565b62000307620002fe82620002da565b84845462000248565b825550505050565b600090565b6200031e6200030f565b6200032b818484620002e4565b505050565b5b8181101562000353576200034760008262000314565b60018101905062000331565b5050565b601f821115620003a2576200036c8162000216565b62000377846200022b565b8101602085101562000387578190505b6200039f62000396856200022b565b83018262000330565b50505b505050565b600082821c905092915050565b6000620003c760001984600802620003a7565b1980831691505092915050565b6000620003e28383620003b4565b9150826002028217905092915050565b620003fd8262000178565b67ffffffffffffffff81111562000419576200041862000183565b5b620004258254620001e1565b6200043282828562000357565b600060209050601f8311600181146200046a576000841562000455578287015190505b620004618582620003d4565b865550620004d1565b601f1984166200047a8662000216565b60005b82811015620004a4578489015182556001820191506020850194506020810190506200047d565b86831015620004c45784890151620004c0601f891682620003b4565b8355505b6001600288020188555050505b505050505050565b600082825260208201905092915050565b7f4d79546f6b656e00000000000000000000000000000000000000000000000000600082015250565b600062000522600783620004d9565b91506200052f82620004ea565b602082019050919050565b7f4d544b0000000000000000000000000000000000000000000000000000000000600082015250565b600062000572600383620004d9565b91506200057f826200053a565b602082019050919050565b60006040820190508181036000830152620005a58162000513565b90508181036020830152620005ba8162000563565b9050919050565b6138b980620005d16000396000f3fe6080604052600436106101355760003560e01c806395d89b41116100ab578063b14f1afd1161006f578063b14f1afd1461043c578063b88d4fde14610467578063c87b56dd14610490578063e985e9c5146104cd578063eddc42691461050a578063f364333d1461052657610135565b806395d89b41146103535780639e4ffa7f1461037e5780639f76a037146103a9578063a22cb465146103d2578063aeda852f146103fb57610135565b8063242b3e72116100fd578063242b3e721461023157806342842e0e1461025a578063481c6a75146102835780636352211e146102ae5780636d3739c4146102eb57806370a082311461031657610135565b806301ffc9a71461013a57806306fdde0314610177578063081812fc146101a2578063095ea7b3146101df57806323b872dd14610208575b600080fd5b34801561014657600080fd5b50610161600480360381019061015c9190612541565b61053d565b60405161016e9190612589565b60405180910390f35b34801561018357600080fd5b5061018c61061f565b6040516101999190612634565b60405180910390f35b3480156101ae57600080fd5b506101c960048036038101906101c4919061268c565b6106b1565b6040516101d691906126fa565b60405180910390f35b3480156101eb57600080fd5b5061020660048036038101906102019190612741565b6106f7565b005b34801561021457600080fd5b5061022f600480360381019061022a9190612781565b61080e565b005b34801561023d57600080fd5b506102586004803603810190610253919061268c565b61086e565b005b34801561026657600080fd5b50610281600480360381019061027c9190612781565b610be5565b005b34801561028f57600080fd5b50610298610c05565b6040516102a591906126fa565b60405180910390f35b3480156102ba57600080fd5b506102d560048036038101906102d0919061268c565b610c2f565b6040516102e291906126fa565b60405180910390f35b3480156102f757600080fd5b50610300610ce0565b60405161030d9190612833565b60405180910390f35b34801561032257600080fd5b5061033d6004803603810190610338919061284e565b610d06565b60405161034a919061288a565b60405180910390f35b34801561035f57600080fd5b50610368610dbd565b6040516103759190612634565b60405180910390f35b34801561038a57600080fd5b50610393610e4f565b6040516103a091906129e9565b60405180910390f35b3480156103b557600080fd5b506103d060048036038101906103cb9190612a0b565b61108d565b005b3480156103de57600080fd5b506103f960048036038101906103f49190612a77565b611178565b005b34801561040757600080fd5b50610422600480360381019061041d919061268c565b61118e565b604051610433959493929190612ab7565b60405180910390f35b34801561044857600080fd5b506104516111f1565b60405161045e91906129e9565b60405180910390f35b34801561047357600080fd5b5061048e60048036038101906104899190612c3f565b611457565b005b34801561049c57600080fd5b506104b760048036038101906104b2919061268c565b6114b9565b6040516104c49190612634565b60405180910390f35b3480156104d957600080fd5b506104f460048036038101906104ef9190612cc2565b611521565b6040516105019190612589565b60405180910390f35b610524600480360381019061051f919061268c565b6115b5565b005b34801561053257600080fd5b5061053b6117dc565b005b60007f80ac58cd000000000000000000000000000000000000000000000000000000007bffffffffffffffffffffffffffffffffffffffffffffffffffffffff1916827bffffffffffffffffffffffffffffffffffffffffffffffffffffffff1916148061060857507f5b5e139f000000000000000000000000000000000000000000000000000000007bffffffffffffffffffffffffffffffffffffffffffffffffffffffff1916827bffffffffffffffffffffffffffffffffffffffffffffffffffffffff1916145b806106185750610617826118e5565b5b9050919050565b60606000805461062e90612d31565b80601f016020809104026020016040519081016040528092919081815260200182805461065a90612d31565b80156106a75780601f1061067c576101008083540402835291602001916106a7565b820191906000526020600020905b81548152906001019060200180831161068a57829003601f168201915b5050505050905090565b60006106bc8261194f565b6004600083815260200190815260200160002060009054906101000a900473ffffffffffffffffffffffffffffffffffffffff169050919050565b600061070282610c2f565b90508073ffffffffffffffffffffffffffffffffffffffff168373ffffffffffffffffffffffffffffffffffffffff1603610772576040517f08c379a000000000000000000000000000000000000000000000000000000000815260040161076990612dd4565b60405180910390fd5b8073ffffffffffffffffffffffffffffffffffffffff1661079161199a565b73ffffffffffffffffffffffffffffffffffffffff1614806107c057506107bf816107ba61199a565b611521565b5b6107ff576040517f08c379a00000000000000000000000000000000000000000000000000000000081526004016107f690612e66565b60405180910390fd5b61080983836119a2565b505050565b61081f61081961199a565b82611a5b565b61085e576040517f08c379a000000000000000000000000000000000000000000000000000000000815260040161085590612ef8565b60405180910390fd5b610869838383611af0565b505050565b60006008600083815260200190815260200160002090508060040160009054906101000a900460ff166108d6576040517f08c379a00000000000000000000000000000000000000000000000000000000081526004016108cd90612f64565b60405180910390fd5b600a81600201546108e79190612fb3565b600960009054906101000a900473ffffffffffffffffffffffffffffffffffffffff1673ffffffffffffffffffffffffffffffffffffffff166370a08231336040518263ffffffff1660e01b815260040161094291906126fa565b602060405180830381865afa15801561095f573d6000803e3d6000fd5b505050506040513d601f19601f82011682018060405250810190610983919061300a565b10156109c4576040517f08c379a00000000000000000000000000000000000000000000000000000000081526004016109bb90613083565b60405180910390fd5b600060646103b683600201546109da9190612fb3565b6109e491906130d2565b9050600081600a84600201546109fa9190612fb3565b610a049190613103565b905060008360010160009054906101000a900473ffffffffffffffffffffffffffffffffffffffff169050338460010160006101000a81548173ffffffffffffffffffffffffffffffffffffffff021916908373ffffffffffffffffffffffffffffffffffffffff16021790555060008460040160006101000a81548160ff021916908315150217905550610a9a813387611af0565b600960009054906101000a900473ffffffffffffffffffffffffffffffffffffffff1673ffffffffffffffffffffffffffffffffffffffff1663eb8571c83383866040518463ffffffff1660e01b8152600401610af993929190613137565b600060405180830381600087803b158015610b1357600080fd5b505af1158015610b27573d6000803e3d6000fd5b50505050600960009054906101000a900473ffffffffffffffffffffffffffffffffffffffff1673ffffffffffffffffffffffffffffffffffffffff1663eb8571c833600760009054906101000a900473ffffffffffffffffffffffffffffffffffffffff16856040518463ffffffff1660e01b8152600401610bac93929190613137565b600060405180830381600087803b158015610bc657600080fd5b505af1158015610bda573d6000803e3d6000fd5b505050505050505050565b610c0083838360405180602001604052806000815250611457565b505050565b6000600760009054906101000a900473ffffffffffffffffffffffffffffffffffffffff16905090565b6000806002600084815260200190815260200160002060009054906101000a900473ffffffffffffffffffffffffffffffffffffffff169050600073ffffffffffffffffffffffffffffffffffffffff168173ffffffffffffffffffffffffffffffffffffffff1603610cd7576040517f08c379a0000000000000000000000000000000000000000000000000000000008152600401610cce906131ba565b60405180910390fd5b80915050919050565b600960009054906101000a900473ffffffffffffffffffffffffffffffffffffffff1681565b60008073ffffffffffffffffffffffffffffffffffffffff168273ffffffffffffffffffffffffffffffffffffffff1603610d76576040517f08c379a0000000000000000000000000000000000000000000000000000000008152600401610d6d9061324c565b60405180910390fd5b600360008373ffffffffffffffffffffffffffffffffffffffff1673ffffffffffffffffffffffffffffffffffffffff168152602001908152602001600020549050919050565b606060018054610dcc90612d31565b80601f0160208091040260200160405190810160405280929190818152602001828054610df890612d31565b8015610e455780601f10610e1a57610100808354040283529160200191610e45565b820191906000526020600020905b815481529060010190602001808311610e2857829003601f168201915b5050505050905090565b60606000600654905060008167ffffffffffffffff811115610e7457610e73612b14565b5b604051908082528060200260200182016040528015610ead57816020015b610e9a61248e565b815260200190600190039081610e925790505b5090506000805b83811015610fd2576008600082815260200190815260200160002060040160009054906101000a900460ff1615610fbf57600860008281526020019081526020016000206040518060a0016040529081600082015481526020016001820160009054906101000a900473ffffffffffffffffffffffffffffffffffffffff1673ffffffffffffffffffffffffffffffffffffffff1673ffffffffffffffffffffffffffffffffffffffff16815260200160028201548152602001600382015481526020016004820160009054906101000a900460ff161515151581525050838381518110610fa557610fa461326c565b5b60200260200101819052508180610fbb9061329b565b9250505b8080610fca9061329b565b915050610eb4565b5060008167ffffffffffffffff811115610fef57610fee612b14565b5b60405190808252806020026020018201604052801561102857816020015b61101561248e565b81526020019060019003908161100d5790505b50905060005b82811015611082578381815181106110495761104861326c565b5b60200260200101518282815181106110645761106361326c565b5b6020026020010181905250808061107a9061329b565b91505061102e565b508094505050505090565b3373ffffffffffffffffffffffffffffffffffffffff166110ad83610c2f565b73ffffffffffffffffffffffffffffffffffffffff1614611103576040517f08c379a00000000000000000000000000000000000000000000000000000000081526004016110fa9061332f565b60405180910390fd5b60016008600084815260200190815260200160002060040160006101000a81548160ff021916908315150217905550806008600084815260200190815260200160002060020181905550600a8161115a9190612fb3565b60086000848152602001908152602001600020600301819055505050565b61118a61118361199a565b8383611d56565b5050565b60086020528060005260406000206000915090508060000154908060010160009054906101000a900473ffffffffffffffffffffffffffffffffffffffff16908060020154908060030154908060040160009054906101000a900460ff16905085565b6060600060065490506000805b82811015611291573373ffffffffffffffffffffffffffffffffffffffff166008600083815260200190815260200160002060010160009054906101000a900473ffffffffffffffffffffffffffffffffffffffff1673ffffffffffffffffffffffffffffffffffffffff160361127e57818061127a9061329b565b9250505b80806112899061329b565b9150506111fe565b5060008167ffffffffffffffff8111156112ae576112ad612b14565b5b6040519080825280602002602001820160405280156112e757816020015b6112d461248e565b8152602001906001900390816112cc5790505b5090506000805b8481101561144c573373ffffffffffffffffffffffffffffffffffffffff166008600083815260200190815260200160002060010160009054906101000a900473ffffffffffffffffffffffffffffffffffffffff1673ffffffffffffffffffffffffffffffffffffffff160361143957600860008281526020019081526020016000206040518060a0016040529081600082015481526020016001820160009054906101000a900473ffffffffffffffffffffffffffffffffffffffff1673ffffffffffffffffffffffffffffffffffffffff1673ffffffffffffffffffffffffffffffffffffffff16815260200160028201548152602001600382015481526020016004820160009054906101000a900460ff16151515158152505083838151811061141f5761141e61326c565b5b602002602001018190525081806114359061329b565b9250505b80806114449061329b565b9150506112ee565b508194505050505090565b61146861146261199a565b83611a5b565b6114a7576040517f08c379a000000000000000000000000000000000000000000000000000000000815260040161149e90612ef8565b60405180910390fd5b6114b384848484611ec2565b50505050565b60606114c48261194f565b60006114ce611f1e565b905060008151116114ee5760405180602001604052806000815250611519565b806114f884611f35565b60405160200161150992919061338b565b6040516020818303038152906040525b915050919050565b6000600560008473ffffffffffffffffffffffffffffffffffffffff1673ffffffffffffffffffffffffffffffffffffffff16815260200190815260200160002060008373ffffffffffffffffffffffffffffffffffffffff1673ffffffffffffffffffffffffffffffffffffffff16815260200190815260200160002060009054906101000a900460ff16905092915050565b60006008600083815260200190815260200160002090508060040160009054906101000a900460ff1661161d576040517f08c379a000000000000000000000000000000000000000000000000000000000815260040161161490612f64565b60405180910390fd5b8060020154341015611664576040517f08c379a000000000000000000000000000000000000000000000000000000000815260040161165b90613421565b60405180910390fd5b60006064605f346116759190612fb3565b61167f91906130d2565b90506000813461168f9190613103565b905060008360010160009054906101000a900473ffffffffffffffffffffffffffffffffffffffff169050338460010160006101000a81548173ffffffffffffffffffffffffffffffffffffffff021916908373ffffffffffffffffffffffffffffffffffffffff16021790555060008460040160006101000a81548160ff021916908315150217905550611725813387611af0565b8073ffffffffffffffffffffffffffffffffffffffff166108fc849081150290604051600060405180830381858888f1935050505015801561176b573d6000803e3d6000fd5b50600760009054906101000a900473ffffffffffffffffffffffffffffffffffffffff1673ffffffffffffffffffffffffffffffffffffffff166108fc839081150290604051600060405180830381858888f193505050501580156117d4573d6000803e3d6000fd5b505050505050565b600060065490506117ed3382612095565b6040518060a001604052808281526020013373ffffffffffffffffffffffffffffffffffffffff168152602001600081526020016000815260200160001515815250600860008381526020019081526020016000206000820151816000015560208201518160010160006101000a81548173ffffffffffffffffffffffffffffffffffffffff021916908373ffffffffffffffffffffffffffffffffffffffff160217905550604082015181600201556060820151816003015560808201518160040160006101000a81548160ff021916908315150217905550905050600660008154809291906118dd9061329b565b919050555050565b60007f01ffc9a7000000000000000000000000000000000000000000000000000000007bffffffffffffffffffffffffffffffffffffffffffffffffffffffff1916827bffffffffffffffffffffffffffffffffffffffffffffffffffffffff1916149050919050565b6119588161226e565b611997576040517f08c379a000000000000000000000000000000000000000000000000000000000815260040161198e906131ba565b60405180910390fd5b50565b600033905090565b816004600083815260200190815260200160002060006101000a81548173ffffffffffffffffffffffffffffffffffffffff021916908373ffffffffffffffffffffffffffffffffffffffff160217905550808273ffffffffffffffffffffffffffffffffffffffff16611a1583610c2f565b73ffffffffffffffffffffffffffffffffffffffff167f8c5be1e5ebec7d5bd14f71427d1e84f3dd0314c0f7b2291e5b200ac8c7c3b92560405160405180910390a45050565b600080611a6783610c2f565b90508073ffffffffffffffffffffffffffffffffffffffff168473ffffffffffffffffffffffffffffffffffffffff161480611aa95750611aa88185611521565b5b80611ae757508373ffffffffffffffffffffffffffffffffffffffff16611acf846106b1565b73ffffffffffffffffffffffffffffffffffffffff16145b91505092915050565b8273ffffffffffffffffffffffffffffffffffffffff16611b1082610c2f565b73ffffffffffffffffffffffffffffffffffffffff1614611b66576040517f08c379a0000000000000000000000000000000000000000000000000000000008152600401611b5d906134b3565b60405180910390fd5b600073ffffffffffffffffffffffffffffffffffffffff168273ffffffffffffffffffffffffffffffffffffffff1603611bd5576040517f08c379a0000000000000000000000000000000000000000000000000000000008152600401611bcc90613545565b60405180910390fd5b611be08383836122da565b611beb6000826119a2565b6001600360008573ffffffffffffffffffffffffffffffffffffffff1673ffffffffffffffffffffffffffffffffffffffff1681526020019081526020016000206000828254611c3b9190613103565b925050819055506001600360008473ffffffffffffffffffffffffffffffffffffffff1673ffffffffffffffffffffffffffffffffffffffff1681526020019081526020016000206000828254611c929190613565565b92505081905550816002600083815260200190815260200160002060006101000a81548173ffffffffffffffffffffffffffffffffffffffff021916908373ffffffffffffffffffffffffffffffffffffffff160217905550808273ffffffffffffffffffffffffffffffffffffffff168473ffffffffffffffffffffffffffffffffffffffff167fddf252ad1be2c89b69c2b068fc378daa952ba7f163c4a11628f55a4df523b3ef60405160405180910390a4611d518383836122df565b505050565b8173ffffffffffffffffffffffffffffffffffffffff168373ffffffffffffffffffffffffffffffffffffffff1603611dc4576040517f08c379a0000000000000000000000000000000000000000000000000000000008152600401611dbb906135e5565b60405180910390fd5b80600560008573ffffffffffffffffffffffffffffffffffffffff1673ffffffffffffffffffffffffffffffffffffffff16815260200190815260200160002060008473ffffffffffffffffffffffffffffffffffffffff1673ffffffffffffffffffffffffffffffffffffffff16815260200190815260200160002060006101000a81548160ff0219169083151502179055508173ffffffffffffffffffffffffffffffffffffffff168373ffffffffffffffffffffffffffffffffffffffff167f17307eab39ab6107e8899845ad3d59bd9653f200f220920489ca2b5937696c3183604051611eb59190612589565b60405180910390a3505050565b611ecd848484611af0565b611ed9848484846122e4565b611f18576040517f08c379a0000000000000000000000000000000000000000000000000000000008152600401611f0f90613677565b60405180910390fd5b50505050565b606060405180602001604052806000815250905090565b606060008203611f7c576040518060400160405280600181526020017f30000000000000000000000000000000000000000000000000000000000000008152509050612090565b600082905060005b60008214611fae578080611f979061329b565b915050600a82611fa791906130d2565b9150611f84565b60008167ffffffffffffffff811115611fca57611fc9612b14565b5b6040519080825280601f01601f191660200182016040528015611ffc5781602001600182028036833780820191505090505b5090505b60008514612089576001826120159190613103565b9150600a856120249190613697565b60306120309190613565565b60f81b8183815181106120465761204561326c565b5b60200101907effffffffffffffffffffffffffffffffffffffffffffffffffffffffffffff1916908160001a905350600a8561208291906130d2565b9450612000565b8093505050505b919050565b600073ffffffffffffffffffffffffffffffffffffffff168273ffffffffffffffffffffffffffffffffffffffff1603612104576040517f08c379a00000000000000000000000000000000000000000000000000000000081526004016120fb90613714565b60405180910390fd5b61210d8161226e565b1561214d576040517f08c379a000000000000000000000000000000000000000000000000000000000815260040161214490613780565b60405180910390fd5b612159600083836122da565b6001600360008473ffffffffffffffffffffffffffffffffffffffff1673ffffffffffffffffffffffffffffffffffffffff16815260200190815260200160002060008282546121a99190613565565b92505081905550816002600083815260200190815260200160002060006101000a81548173ffffffffffffffffffffffffffffffffffffffff021916908373ffffffffffffffffffffffffffffffffffffffff160217905550808273ffffffffffffffffffffffffffffffffffffffff16600073ffffffffffffffffffffffffffffffffffffffff167fddf252ad1be2c89b69c2b068fc378daa952ba7f163c4a11628f55a4df523b3ef60405160405180910390a461226a600083836122df565b5050565b60008073ffffffffffffffffffffffffffffffffffffffff166002600084815260200190815260200160002060009054906101000a900473ffffffffffffffffffffffffffffffffffffffff1673ffffffffffffffffffffffffffffffffffffffff1614159050919050565b505050565b505050565b60006123058473ffffffffffffffffffffffffffffffffffffffff1661246b565b1561245e578373ffffffffffffffffffffffffffffffffffffffff1663150b7a0261232e61199a565b8786866040518563ffffffff1660e01b815260040161235094939291906137f5565b6020604051808303816000875af192505050801561238c57506040513d601f19601f820116820180604052508101906123899190613856565b60015b61240e573d80600081146123bc576040519150601f19603f3d011682016040523d82523d6000602084013e6123c1565b606091505b506000815103612406576040517f08c379a00000000000000000000000000000000000000000000000000000000081526004016123fd90613677565b60405180910390fd5b805181602001fd5b63150b7a0260e01b7bffffffffffffffffffffffffffffffffffffffffffffffffffffffff1916817bffffffffffffffffffffffffffffffffffffffffffffffffffffffff191614915050612463565b600190505b949350505050565b6000808273ffffffffffffffffffffffffffffffffffffffff163b119050919050565b6040518060a0016040528060008152602001600073ffffffffffffffffffffffffffffffffffffffff16815260200160008152602001600081526020016000151581525090565b6000604051905090565b600080fd5b600080fd5b60007fffffffff0000000000000000000000000000000000000000000000000000000082169050919050565b61251e816124e9565b811461252957600080fd5b50565b60008135905061253b81612515565b92915050565b600060208284031215612557576125566124df565b5b60006125658482850161252c565b91505092915050565b60008115159050919050565b6125838161256e565b82525050565b600060208201905061259e600083018461257a565b92915050565b600081519050919050565b600082825260208201905092915050565b60005b838110156125de5780820151818401526020810190506125c3565b60008484015250505050565b6000601f19601f8301169050919050565b6000612606826125a4565b61261081856125af565b93506126208185602086016125c0565b612629816125ea565b840191505092915050565b6000602082019050818103600083015261264e81846125fb565b905092915050565b6000819050919050565b61266981612656565b811461267457600080fd5b50565b60008135905061268681612660565b92915050565b6000602082840312156126a2576126a16124df565b5b60006126b084828501612677565b91505092915050565b600073ffffffffffffffffffffffffffffffffffffffff82169050919050565b60006126e4826126b9565b9050919050565b6126f4816126d9565b82525050565b600060208201905061270f60008301846126eb565b92915050565b61271e816126d9565b811461272957600080fd5b50565b60008135905061273b81612715565b92915050565b60008060408385031215612758576127576124df565b5b60006127668582860161272c565b925050602061277785828601612677565b9150509250929050565b60008060006060848603121561279a576127996124df565b5b60006127a88682870161272c565b93505060206127b98682870161272c565b92505060406127ca86828701612677565b9150509250925092565b6000819050919050565b60006127f96127f46127ef846126b9565b6127d4565b6126b9565b9050919050565b600061280b826127de565b9050919050565b600061281d82612800565b9050919050565b61282d81612812565b82525050565b60006020820190506128486000830184612824565b92915050565b600060208284031215612864576128636124df565b5b60006128728482850161272c565b91505092915050565b61288481612656565b82525050565b600060208201905061289f600083018461287b565b92915050565b600081519050919050565b600082825260208201905092915050565b6000819050602082019050919050565b6128da81612656565b82525050565b6128e9816126d9565b82525050565b6128f88161256e565b82525050565b60a08201600082015161291460008501826128d1565b50602082015161292760208501826128e0565b50604082015161293a60408501826128d1565b50606082015161294d60608501826128d1565b50608082015161296060808501826128ef565b50505050565b600061297283836128fe565b60a08301905092915050565b6000602082019050919050565b6000612996826128a5565b6129a081856128b0565b93506129ab836128c1565b8060005b838110156129dc5781516129c38882612966565b97506129ce8361297e565b9250506001810190506129af565b5085935050505092915050565b60006020820190508181036000830152612a03818461298b565b905092915050565b60008060408385031215612a2257612a216124df565b5b6000612a3085828601612677565b9250506020612a4185828601612677565b9150509250929050565b612a548161256e565b8114612a5f57600080fd5b50565b600081359050612a7181612a4b565b92915050565b60008060408385031215612a8e57612a8d6124df565b5b6000612a9c8582860161272c565b9250506020612aad85828601612a62565b9150509250929050565b600060a082019050612acc600083018861287b565b612ad960208301876126eb565b612ae6604083018661287b565b612af3606083018561287b565b612b00608083018461257a565b9695505050505050565b600080fd5b600080fd5b7f4e487b7100000000000000000000000000000000000000000000000000000000600052604160045260246000fd5b612b4c826125ea565b810181811067ffffffffffffffff82111715612b6b57612b6a612b14565b5b80604052505050565b6000612b7e6124d5565b9050612b8a8282612b43565b919050565b600067ffffffffffffffff821115612baa57612ba9612b14565b5b612bb3826125ea565b9050602081019050919050565b82818337600083830152505050565b6000612be2612bdd84612b8f565b612b74565b905082815260208101848484011115612bfe57612bfd612b0f565b5b612c09848285612bc0565b509392505050565b600082601f830112612c2657612c25612b0a565b5b8135612c36848260208601612bcf565b91505092915050565b60008060008060808587031215612c5957612c586124df565b5b6000612c678782880161272c565b9450506020612c788782880161272c565b9350506040612c8987828801612677565b925050606085013567ffffffffffffffff811115612caa57612ca96124e4565b5b612cb687828801612c11565b91505092959194509250565b60008060408385031215612cd957612cd86124df565b5b6000612ce78582860161272c565b9250506020612cf88582860161272c565b9150509250929050565b7f4e487b7100000000000000000000000000000000000000000000000000000000600052602260045260246000fd5b60006002820490506001821680612d4957607f821691505b602082108103612d5c57612d5b612d02565b5b50919050565b7f4552433732313a20617070726f76616c20746f2063757272656e74206f776e6560008201527f7200000000000000000000000000000000000000000000000000000000000000602082015250565b6000612dbe6021836125af565b9150612dc982612d62565b604082019050919050565b60006020820190508181036000830152612ded81612db1565b9050919050565b7f4552433732313a20617070726f76652063616c6c6572206973206e6f7420746f60008201527f6b656e206f776e6572206e6f7220617070726f76656420666f7220616c6c0000602082015250565b6000612e50603e836125af565b9150612e5b82612df4565b604082019050919050565b60006020820190508181036000830152612e7f81612e43565b9050919050565b7f4552433732313a2063616c6c6572206973206e6f7420746f6b656e206f776e6560008201527f72206e6f7220617070726f766564000000000000000000000000000000000000602082015250565b6000612ee2602e836125af565b9150612eed82612e86565b604082019050919050565b60006020820190508181036000830152612f1181612ed5565b9050919050565b7f486f757365206973206e6f7420666f722073616c650000000000000000000000600082015250565b6000612f4e6015836125af565b9150612f5982612f18565b602082019050919050565b60006020820190508181036000830152612f7d81612f41565b9050919050565b7f4e487b7100000000000000000000000000000000000000000000000000000000600052601160045260246000fd5b6000612fbe82612656565b9150612fc983612656565b9250828202612fd781612656565b91508282048414831517612fee57612fed612f84565b5b5092915050565b60008151905061300481612660565b92915050565b6000602082840312156130205761301f6124df565b5b600061302e84828501612ff5565b91505092915050565b7f496e73756666696369656e742045524332302062616c616e6365000000000000600082015250565b600061306d601a836125af565b915061307882613037565b602082019050919050565b6000602082019050818103600083015261309c81613060565b9050919050565b7f4e487b7100000000000000000000000000000000000000000000000000000000600052601260045260246000fd5b60006130dd82612656565b91506130e883612656565b9250826130f8576130f76130a3565b5b828204905092915050565b600061310e82612656565b915061311983612656565b925082820390508181111561313157613130612f84565b5b92915050565b600060608201905061314c60008301866126eb565b61315960208301856126eb565b613166604083018461287b565b949350505050565b7f4552433732313a20696e76616c696420746f6b656e2049440000000000000000600082015250565b60006131a46018836125af565b91506131af8261316e565b602082019050919050565b600060208201905081810360008301526131d381613197565b9050919050565b7f4552433732313a2061646472657373207a65726f206973206e6f74206120766160008201527f6c6964206f776e65720000000000000000000000000000000000000000000000602082015250565b60006132366029836125af565b9150613241826131da565b604082019050919050565b6000602082019050818103600083015261326581613229565b9050919050565b7f4e487b7100000000000000000000000000000000000000000000000000000000600052603260045260246000fd5b60006132a682612656565b91507fffffffffffffffffffffffffffffffffffffffffffffffffffffffffffffffff82036132d8576132d7612f84565b5b600182019050919050565b7f596f7520646f206e6f74206f776e207468697320686f75736500000000000000600082015250565b60006133196019836125af565b9150613324826132e3565b602082019050919050565b600060208201905081810360008301526133488161330c565b9050919050565b600081905092915050565b6000613365826125a4565b61336f818561334f565b935061337f8185602086016125c0565b80840191505092915050565b6000613397828561335a565b91506133a3828461335a565b91508190509392505050565b7f496e73756666696369656e742066756e647320746f206275792074686973206860008201527f6f75736500000000000000000000000000000000000000000000000000000000602082015250565b600061340b6024836125af565b9150613416826133af565b604082019050919050565b6000602082019050818103600083015261343a816133fe565b9050919050565b7f4552433732313a207472616e736665722066726f6d20696e636f72726563742060008201527f6f776e6572000000000000000000000000000000000000000000000000000000602082015250565b600061349d6025836125af565b91506134a882613441565b604082019050919050565b600060208201905081810360008301526134cc81613490565b9050919050565b7f4552433732313a207472616e7366657220746f20746865207a65726f2061646460008201527f7265737300000000000000000000000000000000000000000000000000000000602082015250565b600061352f6024836125af565b915061353a826134d3565b604082019050919050565b6000602082019050818103600083015261355e81613522565b9050919050565b600061357082612656565b915061357b83612656565b925082820190508082111561359357613592612f84565b5b92915050565b7f4552433732313a20617070726f766520746f2063616c6c657200000000000000600082015250565b60006135cf6019836125af565b91506135da82613599565b602082019050919050565b600060208201905081810360008301526135fe816135c2565b9050919050565b7f4552433732313a207472616e7366657220746f206e6f6e20455243373231526560008201527f63656976657220696d706c656d656e7465720000000000000000000000000000602082015250565b60006136616032836125af565b915061366c82613605565b604082019050919050565b6000602082019050818103600083015261369081613654565b9050919050565b60006136a282612656565b91506136ad83612656565b9250826136bd576136bc6130a3565b5b828206905092915050565b7f4552433732313a206d696e7420746f20746865207a65726f2061646472657373600082015250565b60006136fe6020836125af565b9150613709826136c8565b602082019050919050565b6000602082019050818103600083015261372d816136f1565b9050919050565b7f4552433732313a20746f6b656e20616c7265616479206d696e74656400000000600082015250565b600061376a601c836125af565b915061377582613734565b602082019050919050565b600060208201905081810360008301526137998161375d565b9050919050565b600081519050919050565b600082825260208201905092915050565b60006137c7826137a0565b6137d181856137ab565b93506137e18185602086016125c0565b6137ea816125ea565b840191505092915050565b600060808201905061380a60008301876126eb565b61381760208301866126eb565b613824604083018561287b565b818103606083015261383681846137bc565b905095945050505050565b60008151905061385081612515565b92915050565b60006020828403121561386c5761386b6124df565b5b600061387a84828501613841565b9150509291505056fea2646970667358221220da4711843c396b021ff6f8bab360b8239d56874993bfaf3b11ec79c2020727d264736f6c634300081400336080604052600a600755670de0b6b3a7640000600855683635c9adc5dea000006009553480156200002f57600080fd5b5060405162001f7638038062001f76833981810160405281019062000055919062000259565b8181816003908162000068919062000529565b5080600490816200007a919062000529565b50505033600660006101000a81548173ffffffffffffffffffffffffffffffffffffffff021916908373ffffffffffffffffffffffffffffffffffffffff160217905550505062000610565b6000604051905090565b600080fd5b600080fd5b600080fd5b600080fd5b6000601f19601f8301169050919050565b7f4e487b7100000000000000000000000000000000000000000000000000000000600052604160045260246000fd5b6200012f82620000e4565b810181811067ffffffffffffffff82111715620001515762000150620000f5565b5b80604052505050565b600062000166620000c6565b905062000174828262000124565b919050565b600067ffffffffffffffff821115620001975762000196620000f5565b5b620001a282620000e4565b9050602081019050919050565b60005b83811015620001cf578082015181840152602081019050620001b2565b60008484015250505050565b6000620001f2620001ec8462000179565b6200015a565b905082815260208101848484011115620002115762000210620000df565b5b6200021e848285620001af565b509392505050565b600082601f8301126200023e576200023d620000da565b5b815162000250848260208601620001db565b91505092915050565b60008060408385031215620002735762000272620000d0565b5b600083015167ffffffffffffffff811115620002945762000293620000d5565b5b620002a28582860162000226565b925050602083015167ffffffffffffffff811115620002c657620002c5620000d5565b5b620002d48582860162000226565b9150509250929050565b600081519050919050565b7f4e487b7100000000000000000000000000000000000000000000000000000000600052602260045260246000fd5b600060028204905060018216806200033157607f821691505b602082108103620003475762000346620002e9565b5b50919050565b60008190508160005260206000209050919050565b60006020601f8301049050919050565b600082821b905092915050565b600060088302620003b17fffffffffffffffffffffffffffffffffffffffffffffffffffffffffffffffff8262000372565b620003bd868362000372565b95508019841693508086168417925050509392505050565b6000819050919050565b6000819050919050565b60006200040a62000404620003fe84620003d5565b620003df565b620003d5565b9050919050565b6000819050919050565b6200042683620003e9565b6200043e620004358262000411565b8484546200037f565b825550505050565b600090565b6200045562000446565b620004628184846200041b565b505050565b5b818110156200048a576200047e6000826200044b565b60018101905062000468565b5050565b601f821115620004d957620004a3816200034d565b620004ae8462000362565b81016020851015620004be578190505b620004d6620004cd8562000362565b83018262000467565b50505b505050565b600082821c905092915050565b6000620004fe60001984600802620004de565b1980831691505092915050565b6000620005198383620004eb565b9150826002028217905092915050565b6200053482620002de565b67ffffffffffffffff81111562000550576200054f620000f5565b5b6200055c825462000318565b620005698282856200048e565b600060209050601f831160018114620005a157600084156200058c578287015190505b6200059885826200050b565b86555062000608565b601f198416620005b1866200034d565b60005b82811015620005db57848901518255600182019150602085019450602081019050620005b4565b86831015620005fb5784890151620005f7601f891682620004eb565b8355505b6001600288020188555050505b505050505050565b61195680620006206000396000f3fe60806040526004361061010d5760003560e01c80637ffdf53e11610095578063a464c48711610064578063a464c4871461036d578063a9059cbb14610398578063d0febe4c146103d5578063dd62ed3e146103df578063eb8571c81461041c57610114565b80637ffdf53e146102d057806395d89b41146102fb5780639b80d68714610326578063a457c2d71461033057610114565b806323b872dd116100dc57806323b872dd146101d7578063313ce567146102145780633884d6351461023f578063395093511461025657806370a082311461029357610114565b806306fdde0314610119578063095ea7b31461014457806318160ddd146101815780631b8e94a1146101ac57610114565b3661011457005b600080fd5b34801561012557600080fd5b5061012e610445565b60405161013b919061101b565b60405180910390f35b34801561015057600080fd5b5061016b600480360381019061016691906110d6565b6104d7565b6040516101789190611131565b60405180910390f35b34801561018d57600080fd5b506101966104fa565b6040516101a3919061115b565b60405180910390f35b3480156101b857600080fd5b506101c1610504565b6040516101ce919061115b565b60405180910390f35b3480156101e357600080fd5b506101fe60048036038101906101f99190611176565b61050a565b60405161020b9190611131565b60405180910390f35b34801561022057600080fd5b50610229610539565b60405161023691906111e5565b60405180910390f35b34801561024b57600080fd5b50610254610542565b005b34801561026257600080fd5b5061027d600480360381019061027891906110d6565b610635565b60405161028a9190611131565b60405180910390f35b34801561029f57600080fd5b506102ba60048036038101906102b59190611200565b61066c565b6040516102c7919061115b565b60405180910390f35b3480156102dc57600080fd5b506102e56106b4565b6040516102f2919061115b565b60405180910390f35b34801561030757600080fd5b506103106106ba565b60405161031d919061101b565b60405180910390f35b61032e61074c565b005b34801561033c57600080fd5b50610357600480360381019061035291906110d6565b6107ae565b6040516103649190611131565b60405180910390f35b34801561037957600080fd5b50610382610825565b60405161038f919061115b565b60405180910390f35b3480156103a457600080fd5b506103bf60048036038101906103ba91906110d6565b61082b565b6040516103cc9190611131565b60405180910390f35b6103dd61084e565b005b3480156103eb57600080fd5b506104066004803603810190610401919061122d565b6108af565b604051610413919061115b565b60405180910390f35b34801561042857600080fd5b50610443600480360381019061043e9190611176565b610936565b005b6060600380546104549061129c565b80601f01602080910402602001604051908101604052809291908181526020018280546104809061129c565b80156104cd5780601f106104a2576101008083540402835291602001916104cd565b820191906000526020600020905b8154815290600101906020018083116104b057829003601f168201915b5050505050905090565b6000806104e2610946565b90506104ef81858561094e565b600191505092915050565b6000600254905090565b60085481565b600080610515610946565b9050610522858285610b17565b61052d858585610ba3565b60019150509392505050565b60006012905090565b600560003373ffffffffffffffffffffffffffffffffffffffff1673ffffffffffffffffffffffffffffffffffffffff16815260200190815260200160002060009054906101000a900460ff16156105cf576040517f08c379a00000000000000000000000000000000000000000000000000000000081526004016105c69061133f565b60405180910390fd5b6105db33600954610e22565b6001600560003373ffffffffffffffffffffffffffffffffffffffff1673ffffffffffffffffffffffffffffffffffffffff16815260200190815260200160002060006101000a81548160ff021916908315150217905550565b600080610640610946565b905061066181858561065285896108af565b61065c919061138e565b61094e565b600191505092915050565b60008060008373ffffffffffffffffffffffffffffffffffffffff1673ffffffffffffffffffffffffffffffffffffffff168152602001908152602001600020549050919050565b60075481565b6060600480546106c99061129c565b80601f01602080910402602001604051908101604052809291908181526020018280546106f59061129c565b80156107425780601f1061071757610100808354040283529160200191610742565b820191906000526020600020905b81548152906001019060200180831161072557829003601f168201915b5050505050905090565b6000341161078f576040517f08c379a00000000000000000000000000000000000000000000000000000000081526004016107869061140e565b60405180910390fd5b60006007543461079f919061142e565b90506107ab3382610e22565b50565b6000806107b9610946565b905060006107c782866108af565b90508381101561080c576040517f08c379a0000000000000000000000000000000000000000000000000000000008152600401610803906114e2565b60405180910390fd5b610819828686840361094e565b60019250505092915050565b60095481565b600080610836610946565b9050610843818585610ba3565b600191505092915050565b60003411610891576040517f08c379a00000000000000000000000000000000000000000000000000000000081526004016108889061154e565b60405180910390fd5b60006064346108a0919061142e565b90506108ac3382610e22565b50565b6000600160008473ffffffffffffffffffffffffffffffffffffffff1673ffffffffffffffffffffffffffffffffffffffff16815260200190815260200160002060008373ffffffffffffffffffffffffffffffffffffffff1673ffffffffffffffffffffffffffffffffffffffff16815260200190815260200160002054905092915050565b610941838383610ba3565b505050565b600033905090565b600073ffffffffffffffffffffffffffffffffffffffff168373ffffffffffffffffffffffffffffffffffffffff16036109bd576040517f08c379a00000000000000000000000000000000000000000000000000000000081526004016109b4906115e0565b60405180910390fd5b600073ffffffffffffffffffffffffffffffffffffffff168273ffffffffffffffffffffffffffffffffffffffff1603610a2c576040517f08c379a0000000000000000000000000000000000000000000000000000000008152600401610a2390611672565b60405180910390fd5b80600160008573ffffffffffffffffffffffffffffffffffffffff1673ffffffffffffffffffffffffffffffffffffffff16815260200190815260200160002060008473ffffffffffffffffffffffffffffffffffffffff1673ffffffffffffffffffffffffffffffffffffffff168152602001908152602001600020819055508173ffffffffffffffffffffffffffffffffffffffff168373ffffffffffffffffffffffffffffffffffffffff167f8c5be1e5ebec7d5bd14f71427d1e84f3dd0314c0f7b2291e5b200ac8c7c3b92583604051610b0a919061115b565b60405180910390a3505050565b6000610b2384846108af565b90507fffffffffffffffffffffffffffffffffffffffffffffffffffffffffffffffff8114610b9d5781811015610b8f576040517f08c379a0000000000000000000000000000000000000000000000000000000008152600401610b86906116de565b60405180910390fd5b610b9c848484840361094e565b5b50505050565b600073ffffffffffffffffffffffffffffffffffffffff168373ffffffffffffffffffffffffffffffffffffffff1603610c12576040517f08c379a0000000000000000000000000000000000000000000000000000000008152600401610c0990611770565b60405180910390fd5b600073ffffffffffffffffffffffffffffffffffffffff168273ffffffffffffffffffffffffffffffffffffffff1603610c81576040517f08c379a0000000000000000000000000000000000000000000000000000000008152600401610c7890611802565b60405180910390fd5b610c8c838383610f81565b60008060008573ffffffffffffffffffffffffffffffffffffffff1673ffffffffffffffffffffffffffffffffffffffff16815260200190815260200160002054905081811015610d12576040517f08c379a0000000000000000000000000000000000000000000000000000000008152600401610d0990611894565b60405180910390fd5b8181036000808673ffffffffffffffffffffffffffffffffffffffff1673ffffffffffffffffffffffffffffffffffffffff16815260200190815260200160002081905550816000808573ffffffffffffffffffffffffffffffffffffffff1673ffffffffffffffffffffffffffffffffffffffff1681526020019081526020016000206000828254610da5919061138e565b925050819055508273ffffffffffffffffffffffffffffffffffffffff168473ffffffffffffffffffffffffffffffffffffffff167fddf252ad1be2c89b69c2b068fc378daa952ba7f163c4a11628f55a4df523b3ef84604051610e09919061115b565b60405180910390a3610e1c848484610f86565b50505050565b600073ffffffffffffffffffffffffffffffffffffffff168273ffffffffffffffffffffffffffffffffffffffff1603610e91576040517f08c379a0000000000000000000000000000000000000000000000000000000008152600401610e8890611900565b60405180910390fd5b610e9d60008383610f81565b8060026000828254610eaf919061138e565b92505081905550806000808473ffffffffffffffffffffffffffffffffffffffff1673ffffffffffffffffffffffffffffffffffffffff1681526020019081526020016000206000828254610f04919061138e565b925050819055508173ffffffffffffffffffffffffffffffffffffffff16600073ffffffffffffffffffffffffffffffffffffffff167fddf252ad1be2c89b69c2b068fc378daa952ba7f163c4a11628f55a4df523b3ef83604051610f69919061115b565b60405180910390a3610f7d60008383610f86565b5050565b505050565b505050565b600081519050919050565b600082825260208201905092915050565b60005b83811015610fc5578082015181840152602081019050610faa565b60008484015250505050565b6000601f19601f8301169050919050565b6000610fed82610f8b565b610ff78185610f96565b9350611007818560208601610fa7565b61101081610fd1565b840191505092915050565b600060208201905081810360008301526110358184610fe2565b905092915050565b600080fd5b600073ffffffffffffffffffffffffffffffffffffffff82169050919050565b600061106d82611042565b9050919050565b61107d81611062565b811461108857600080fd5b50565b60008135905061109a81611074565b92915050565b6000819050919050565b6110b3816110a0565b81146110be57600080fd5b50565b6000813590506110d0816110aa565b92915050565b600080604083850312156110ed576110ec61103d565b5b60006110fb8582860161108b565b925050602061110c858286016110c1565b9150509250929050565b60008115159050919050565b61112b81611116565b82525050565b60006020820190506111466000830184611122565b92915050565b611155816110a0565b82525050565b6000602082019050611170600083018461114c565b92915050565b60008060006060848603121561118f5761118e61103d565b5b600061119d8682870161108b565b93505060206111ae8682870161108b565b92505060406111bf868287016110c1565b9150509250925092565b600060ff82169050919050565b6111df816111c9565b82525050565b60006020820190506111fa60008301846111d6565b92915050565b6000602082840312156112165761121561103d565b5b60006112248482850161108b565b91505092915050565b600080604083850312156112445761124361103d565b5b60006112528582860161108b565b92505060206112638582860161108b565b9150509250929050565b7f4e487b7100000000000000000000000000000000000000000000000000000000600052602260045260246000fd5b600060028204905060018216806112b457607f821691505b6020821081036112c7576112c661126d565b5b50919050565b7f5468697320757365722068617320636c61696d65642061697264726f7020616c60008201527f7265616479000000000000000000000000000000000000000000000000000000602082015250565b6000611329602583610f96565b9150611334826112cd565b604082019050919050565b600060208201905081810360008301526113588161131c565b9050919050565b7f4e487b7100000000000000000000000000000000000000000000000000000000600052601160045260246000fd5b6000611399826110a0565b91506113a4836110a0565b92508282019050808211156113bc576113bb61135f565b5b92915050565b7f4d7573742073656e642045544820746f20636f6e766572740000000000000000600082015250565b60006113f8601883610f96565b9150611403826113c2565b602082019050919050565b60006020820190508181036000830152611427816113eb565b9050919050565b6000611439826110a0565b9150611444836110a0565b9250828202611452816110a0565b915082820484148315176114695761146861135f565b5b5092915050565b7f45524332303a2064656372656173656420616c6c6f77616e63652062656c6f7760008201527f207a65726f000000000000000000000000000000000000000000000000000000602082015250565b60006114cc602583610f96565b91506114d782611470565b604082019050919050565b600060208201905081810360008301526114fb816114bf565b9050919050565b7f4d7573742073656e6420457468657220746f2062757920746f6b656e73000000600082015250565b6000611538601d83610f96565b915061154382611502565b602082019050919050565b600060208201905081810360008301526115678161152b565b9050919050565b7f45524332303a20617070726f76652066726f6d20746865207a65726f2061646460008201527f7265737300000000000000000000000000000000000000000000000000000000602082015250565b60006115ca602483610f96565b91506115d58261156e565b604082019050919050565b600060208201905081810360008301526115f9816115bd565b9050919050565b7f45524332303a20617070726f766520746f20746865207a65726f20616464726560008201527f7373000000000000000000000000000000000000000000000000000000000000602082015250565b600061165c602283610f96565b915061166782611600565b604082019050919050565b6000602082019050818103600083015261168b8161164f565b9050919050565b7f45524332303a20696e73756666696369656e7420616c6c6f77616e6365000000600082015250565b60006116c8601d83610f96565b91506116d382611692565b602082019050919050565b600060208201905081810360008301526116f7816116bb565b9050919050565b7f45524332303a207472616e736665722066726f6d20746865207a65726f20616460008201527f6472657373000000000000000000000000000000000000000000000000000000602082015250565b600061175a602583610f96565b9150611765826116fe565b604082019050919050565b600060208201905081810360008301526117898161174d565b9050919050565b7f45524332303a207472616e7366657220746f20746865207a65726f206164647260008201527f6573730000000000000000000000000000000000000000000000000000000000602082015250565b60006117ec602383610f96565b91506117f782611790565b604082019050919050565b6000602082019050818103600083015261181b816117df565b9050919050565b7f45524332303a207472616e7366657220616d6f756e742065786365656473206260008201527f616c616e63650000000000000000000000000000000000000000000000000000602082015250565b600061187e602683610f96565b915061188982611822565b604082019050919050565b600060208201905081810360008301526118ad81611871565b9050919050565b7f45524332303a206d696e7420746f20746865207a65726f206164647265737300600082015250565b60006118ea601f83610f96565b91506118f5826118b4565b602082019050919050565b60006020820190508181036000830152611919816118dd565b905091905056fea2646970667358221220f773679fa875648e2e8fc32c3cdbc0b2b143f247dd8fce6227ef42aa68413c3264736f6c63430008140033",
  "linkReferences": {},
  "deployedLinkReferences": {}
}