{
  "_format": "hh-sol-artifact-1",
  "contractName": "MyERC20",
  "sourceName": "contracts/BuyMyRoom.sol",
  "abi": [
    {
      "inputs": [
        {
          "internalType": "string",
          "name": "name",
          "type": "string"
        },
        {
          "internalType": "string",
          "name": "symbol",
          "type": "string"
        }
      ],
      "stateMutability": "nonpayable",
      "type": "constructor"
    },
    {
      "anonymous": false,
      "inputs": [
        {
          "indexed": true,
          "internalType": "address",
          "name": "owner",
          "type": "address"
        },
        {
          "indexed": true,
          "internalType": "address",
          "name": "spender",
          "type": "address"
        },
        {
          "indexed": false,
          "internalType": "uint256",
          "name": "value",
          "type": "uint256"
        }
      ],
      "name": "Approval",
      "type": "event"
    },
    {
      "anonymous": false,
      "inputs": [
        {
          "indexed": true,
          "internalType": "address",
          "name": "from",
          "type": "address"
        },
        {
          "indexed": true,
          "internalType": "address",
          "name": "to",
          "type": "address"
        },
        {
          "indexed": false,
          "internalType": "uint256",
          "name": "value",
          "type": "uint256"
        }
      ],
      "name": "Transfer",
      "type": "event"
    },
    {
      "inputs": [],
      "name": "Rate",
      "outputs": [
        {
          "internalType": "uint256",
          "name": "",
          "type": "uint256"
        }
      ],
      "stateMutability": "view",
      "type": "function"
    },
    {
      "inputs": [],
      "name": "airdrop",
      "outputs": [],
      "stateMutability": "nonpayable",
      "type": "function"
    },
    {
      "inputs": [],
      "name": "airdropamount",
      "outputs": [
        {
          "internalType": "uint256",
          "name": "",
          "type": "uint256"
        }
      ],
      "stateMutability": "view",
      "type": "function"
    },
    {
      "inputs": [
        {
          "internalType": "address",
          "name": "owner",
          "type": "address"
        },
        {
          "internalType": "address",
          "name": "spender",
          "type": "address"
        }
      ],
      "name": "allowance",
      "outputs": [
        {
          "internalType": "uint256",
          "name": "",
          "type": "uint256"
        }
      ],
      "stateMutability": "view",
      "type": "function"
    },
    {
      "inputs": [
        {
          "internalType": "address",
          "name": "spender",
          "type": "address"
        },
        {
          "internalType": "uint256",
          "name": "amount",
          "type": "uint256"
        }
      ],
      "name": "approve",
      "outputs": [
        {
          "internalType": "bool",
          "name": "",
          "type": "bool"
        }
      ],
      "stateMutability": "nonpayable",
      "type": "function"
    },
    {
      "inputs": [
        {
          "internalType": "address",
          "name": "account",
          "type": "address"
        }
      ],
      "name": "balanceOf",
      "outputs": [
        {
          "internalType": "uint256",
          "name": "",
          "type": "uint256"
        }
      ],
      "stateMutability": "view",
      "type": "function"
    },
    {
      "inputs": [],
      "name": "buyTokens",
      "outputs": [],
      "stateMutability": "payable",
      "type": "function"
    },
    {
      "inputs": [],
      "name": "conversionRate",
      "outputs": [
        {
          "internalType": "uint256",
          "name": "",
          "type": "uint256"
        }
      ],
      "stateMutability": "view",
      "type": "function"
    },
    {
      "inputs": [],
      "name": "convertEthToErc20",
      "outputs": [],
      "stateMutability": "payable",
      "type": "function"
    },
    {
      "inputs": [],
      "name": "decimals",
      "outputs": [
        {
          "internalType": "uint8",
          "name": "",
          "type": "uint8"
        }
      ],
      "stateMutability": "view",
      "type": "function"
    },
    {
      "inputs": [
        {
          "internalType": "address",
          "name": "spender",
          "type": "address"
        },
        {
          "internalType": "uint256",
          "name": "subtractedValue",
          "type": "uint256"
        }
      ],
      "name": "decreaseAllowance",
      "outputs": [
        {
          "internalType": "bool",
          "name": "",
          "type": "bool"
        }
      ],
      "stateMutability": "nonpayable",
      "type": "function"
    },
    {
      "inputs": [
        {
          "internalType": "address",
          "name": "spender",
          "type": "address"
        },
        {
          "internalType": "uint256",
          "name": "addedValue",
          "type": "uint256"
        }
      ],
      "name": "increaseAllowance",
      "outputs": [
        {
          "internalType": "bool",
          "name": "",
          "type": "bool"
        }
      ],
      "stateMutability": "nonpayable",
      "type": "function"
    },
    {
      "inputs": [],
      "name": "name",
      "outputs": [
        {
          "internalType": "string",
          "name": "",
          "type": "string"
        }
      ],
      "stateMutability": "view",
      "type": "function"
    },
    {
      "inputs": [],
      "name": "symbol",
      "outputs": [
        {
          "internalType": "string",
          "name": "",
          "type": "string"
        }
      ],
      "stateMutability": "view",
      "type": "function"
    },
    {
      "inputs": [],
      "name": "totalSupply",
      "outputs": [
        {
          "internalType": "uint256",
          "name": "",
          "type": "uint256"
        }
      ],
      "stateMutability": "view",
      "type": "function"
    },
    {
      "inputs": [
        {
          "internalType": "address",
          "name": "a1",
          "type": "address"
        },
        {
          "internalType": "address",
          "name": "a2",
          "type": "address"
        },
        {
          "internalType": "uint256",
          "name": "amount",
          "type": "uint256"
        }
      ],
      "name": "trans",
      "outputs": [],
      "stateMutability": "nonpayable",
      "type": "function"
    },
    {
      "inputs": [
        {
          "internalType": "address",
          "name": "to",
          "type": "address"
        },
        {
          "internalType": "uint256",
          "name": "amount",
          "type": "uint256"
        }
      ],
      "name": "transfer",
      "outputs": [
        {
          "internalType": "bool",
          "name": "",
          "type": "bool"
        }
      ],
      "stateMutability": "nonpayable",
      "type": "function"
    },
    {
      "inputs": [
        {
          "internalType": "address",
          "name": "from",
          "type": "address"
        },
        {
          "internalType": "address",
          "name": "to",
          "type": "address"
        },
        {
          "internalType": "uint256",
          "name": "amount",
          "type": "uint256"
        }
      ],
      "name": "transferFrom",
      "outputs": [
        {
          "internalType": "bool",
          "name": "",
          "type": "bool"
        }
      ],
      "stateMutability": "nonpayable",
      "type": "function"
    },
    {
      "stateMutability": "payable",
      "type": "receive"
    }
  ],
  "bytecode": "0x6080604052600a600755670de0b6b3a7640000600855683635c9adc5dea000006009553480156200002f57600080fd5b5060405162001f7638038062001f76833981810160405281019062000055919062000259565b8181816003908162000068919062000529565b5080600490816200007a919062000529565b50505033600660006101000a81548173ffffffffffffffffffffffffffffffffffffffff021916908373ffffffffffffffffffffffffffffffffffffffff160217905550505062000610565b6000604051905090565b600080fd5b600080fd5b600080fd5b600080fd5b6000601f19601f8301169050919050565b7f4e487b7100000000000000000000000000000000000000000000000000000000600052604160045260246000fd5b6200012f82620000e4565b810181811067ffffffffffffffff82111715620001515762000150620000f5565b5b80604052505050565b600062000166620000c6565b905062000174828262000124565b919050565b600067ffffffffffffffff821115620001975762000196620000f5565b5b620001a282620000e4565b9050602081019050919050565b60005b83811015620001cf578082015181840152602081019050620001b2565b60008484015250505050565b6000620001f2620001ec8462000179565b6200015a565b905082815260208101848484011115620002115762000210620000df565b5b6200021e848285620001af565b509392505050565b600082601f8301126200023e576200023d620000da565b5b815162000250848260208601620001db565b91505092915050565b60008060408385031215620002735762000272620000d0565b5b600083015167ffffffffffffffff811115620002945762000293620000d5565b5b620002a28582860162000226565b925050602083015167ffffffffffffffff811115620002c657620002c5620000d5565b5b620002d48582860162000226565b9150509250929050565b600081519050919050565b7f4e487b7100000000000000000000000000000000000000000000000000000000600052602260045260246000fd5b600060028204905060018216806200033157607f821691505b602082108103620003475762000346620002e9565b5b50919050565b60008190508160005260206000209050919050565b60006020601f8301049050919050565b600082821b905092915050565b600060088302620003b17fffffffffffffffffffffffffffffffffffffffffffffffffffffffffffffffff8262000372565b620003bd868362000372565b95508019841693508086168417925050509392505050565b6000819050919050565b6000819050919050565b60006200040a62000404620003fe84620003d5565b620003df565b620003d5565b9050919050565b6000819050919050565b6200042683620003e9565b6200043e620004358262000411565b8484546200037f565b825550505050565b600090565b6200045562000446565b620004628184846200041b565b505050565b5b818110156200048a576200047e6000826200044b565b60018101905062000468565b5050565b601f821115620004d957620004a3816200034d565b620004ae8462000362565b81016020851015620004be578190505b620004d6620004cd8562000362565b83018262000467565b50505b505050565b600082821c905092915050565b6000620004fe60001984600802620004de565b1980831691505092915050565b6000620005198383620004eb565b9150826002028217905092915050565b6200053482620002de565b67ffffffffffffffff81111562000550576200054f620000f5565b5b6200055c825462000318565b620005698282856200048e565b600060209050601f831160018114620005a157600084156200058c578287015190505b6200059885826200050b565b86555062000608565b601f198416620005b1866200034d565b60005b82811015620005db57848901518255600182019150602085019450602081019050620005b4565b86831015620005fb5784890151620005f7601f891682620004eb565b8355505b6001600288020188555050505b505050505050565b61195680620006206000396000f3fe60806040526004361061010d5760003560e01c80637ffdf53e11610095578063a464c48711610064578063a464c4871461036d578063a9059cbb14610398578063d0febe4c146103d5578063dd62ed3e146103df578063eb8571c81461041c57610114565b80637ffdf53e146102d057806395d89b41146102fb5780639b80d68714610326578063a457c2d71461033057610114565b806323b872dd116100dc57806323b872dd146101d7578063313ce567146102145780633884d6351461023f578063395093511461025657806370a082311461029357610114565b806306fdde0314610119578063095ea7b31461014457806318160ddd146101815780631b8e94a1146101ac57610114565b3661011457005b600080fd5b34801561012557600080fd5b5061012e610445565b60405161013b919061101b565b60405180910390f35b34801561015057600080fd5b5061016b600480360381019061016691906110d6565b6104d7565b6040516101789190611131565b60405180910390f35b34801561018d57600080fd5b506101966104fa565b6040516101a3919061115b565b60405180910390f35b3480156101b857600080fd5b506101c1610504565b6040516101ce919061115b565b60405180910390f35b3480156101e357600080fd5b506101fe60048036038101906101f99190611176565b61050a565b60405161020b9190611131565b60405180910390f35b34801561022057600080fd5b50610229610539565b60405161023691906111e5565b60405180910390f35b34801561024b57600080fd5b50610254610542565b005b34801561026257600080fd5b5061027d600480360381019061027891906110d6565b610635565b60405161028a9190611131565b60405180910390f35b34801561029f57600080fd5b506102ba60048036038101906102b59190611200565b61066c565b6040516102c7919061115b565b60405180910390f35b3480156102dc57600080fd5b506102e56106b4565b6040516102f2919061115b565b60405180910390f35b34801561030757600080fd5b506103106106ba565b60405161031d919061101b565b60405180910390f35b61032e61074c565b005b34801561033c57600080fd5b50610357600480360381019061035291906110d6565b6107ae565b6040516103649190611131565b60405180910390f35b34801561037957600080fd5b50610382610825565b60405161038f919061115b565b60405180910390f35b3480156103a457600080fd5b506103bf60048036038101906103ba91906110d6565b61082b565b6040516103cc9190611131565b60405180910390f35b6103dd61084e565b005b3480156103eb57600080fd5b506104066004803603810190610401919061122d565b6108af565b604051610413919061115b565b60405180910390f35b34801561042857600080fd5b50610443600480360381019061043e9190611176565b610936565b005b6060600380546104549061129c565b80601f01602080910402602001604051908101604052809291908181526020018280546104809061129c565b80156104cd5780601f106104a2576101008083540402835291602001916104cd565b820191906000526020600020905b8154815290600101906020018083116104b057829003601f168201915b5050505050905090565b6000806104e2610946565b90506104ef81858561094e565b600191505092915050565b6000600254905090565b60085481565b600080610515610946565b9050610522858285610b17565b61052d858585610ba3565b60019150509392505050565b60006012905090565b600560003373ffffffffffffffffffffffffffffffffffffffff1673ffffffffffffffffffffffffffffffffffffffff16815260200190815260200160002060009054906101000a900460ff16156105cf576040517f08c379a00000000000000000000000000000000000000000000000000000000081526004016105c69061133f565b60405180910390fd5b6105db33600954610e22565b6001600560003373ffffffffffffffffffffffffffffffffffffffff1673ffffffffffffffffffffffffffffffffffffffff16815260200190815260200160002060006101000a81548160ff021916908315150217905550565b600080610640610946565b905061066181858561065285896108af565b61065c919061138e565b61094e565b600191505092915050565b60008060008373ffffffffffffffffffffffffffffffffffffffff1673ffffffffffffffffffffffffffffffffffffffff168152602001908152602001600020549050919050565b60075481565b6060600480546106c99061129c565b80601f01602080910402602001604051908101604052809291908181526020018280546106f59061129c565b80156107425780601f1061071757610100808354040283529160200191610742565b820191906000526020600020905b81548152906001019060200180831161072557829003601f168201915b5050505050905090565b6000341161078f576040517f08c379a00000000000000000000000000000000000000000000000000000000081526004016107869061140e565b60405180910390fd5b60006007543461079f919061142e565b90506107ab3382610e22565b50565b6000806107b9610946565b905060006107c782866108af565b90508381101561080c576040517f08c379a0000000000000000000000000000000000000000000000000000000008152600401610803906114e2565b60405180910390fd5b610819828686840361094e565b60019250505092915050565b60095481565b600080610836610946565b9050610843818585610ba3565b600191505092915050565b60003411610891576040517f08c379a00000000000000000000000000000000000000000000000000000000081526004016108889061154e565b60405180910390fd5b60006064346108a0919061142e565b90506108ac3382610e22565b50565b6000600160008473ffffffffffffffffffffffffffffffffffffffff1673ffffffffffffffffffffffffffffffffffffffff16815260200190815260200160002060008373ffffffffffffffffffffffffffffffffffffffff1673ffffffffffffffffffffffffffffffffffffffff16815260200190815260200160002054905092915050565b610941838383610ba3565b505050565b600033905090565b600073ffffffffffffffffffffffffffffffffffffffff168373ffffffffffffffffffffffffffffffffffffffff16036109bd576040517f08c379a00000000000000000000000000000000000000000000000000000000081526004016109b4906115e0565b60405180910390fd5b600073ffffffffffffffffffffffffffffffffffffffff168273ffffffffffffffffffffffffffffffffffffffff1603610a2c576040517f08c379a0000000000000000000000000000000000000000000000000000000008152600401610a2390611672565b60405180910390fd5b80600160008573ffffffffffffffffffffffffffffffffffffffff1673ffffffffffffffffffffffffffffffffffffffff16815260200190815260200160002060008473ffffffffffffffffffffffffffffffffffffffff1673ffffffffffffffffffffffffffffffffffffffff168152602001908152602001600020819055508173ffffffffffffffffffffffffffffffffffffffff168373ffffffffffffffffffffffffffffffffffffffff167f8c5be1e5ebec7d5bd14f71427d1e84f3dd0314c0f7b2291e5b200ac8c7c3b92583604051610b0a919061115b565b60405180910390a3505050565b6000610b2384846108af565b90507fffffffffffffffffffffffffffffffffffffffffffffffffffffffffffffffff8114610b9d5781811015610b8f576040517f08c379a0000000000000000000000000000000000000000000000000000000008152600401610b86906116de565b60405180910390fd5b610b9c848484840361094e565b5b50505050565b600073ffffffffffffffffffffffffffffffffffffffff168373ffffffffffffffffffffffffffffffffffffffff1603610c12576040517f08c379a0000000000000000000000000000000000000000000000000000000008152600401610c0990611770565b60405180910390fd5b600073ffffffffffffffffffffffffffffffffffffffff168273ffffffffffffffffffffffffffffffffffffffff1603610c81576040517f08c379a0000000000000000000000000000000000000000000000000000000008152600401610c7890611802565b60405180910390fd5b610c8c838383610f81565b60008060008573ffffffffffffffffffffffffffffffffffffffff1673ffffffffffffffffffffffffffffffffffffffff16815260200190815260200160002054905081811015610d12576040517f08c379a0000000000000000000000000000000000000000000000000000000008152600401610d0990611894565b60405180910390fd5b8181036000808673ffffffffffffffffffffffffffffffffffffffff1673ffffffffffffffffffffffffffffffffffffffff16815260200190815260200160002081905550816000808573ffffffffffffffffffffffffffffffffffffffff1673ffffffffffffffffffffffffffffffffffffffff1681526020019081526020016000206000828254610da5919061138e565b925050819055508273ffffffffffffffffffffffffffffffffffffffff168473ffffffffffffffffffffffffffffffffffffffff167fddf252ad1be2c89b69c2b068fc378daa952ba7f163c4a11628f55a4df523b3ef84604051610e09919061115b565b60405180910390a3610e1c848484610f86565b50505050565b600073ffffffffffffffffffffffffffffffffffffffff168273ffffffffffffffffffffffffffffffffffffffff1603610e91576040517f08c379a0000000000000000000000000000000000000000000000000000000008152600401610e8890611900565b60405180910390fd5b610e9d60008383610f81565b8060026000828254610eaf919061138e565b92505081905550806000808473ffffffffffffffffffffffffffffffffffffffff1673ffffffffffffffffffffffffffffffffffffffff1681526020019081526020016000206000828254610f04919061138e565b925050819055508173ffffffffffffffffffffffffffffffffffffffff16600073ffffffffffffffffffffffffffffffffffffffff167fddf252ad1be2c89b69c2b068fc378daa952ba7f163c4a11628f55a4df523b3ef83604051610f69919061115b565b60405180910390a3610f7d60008383610f86565b5050565b505050565b505050565b600081519050919050565b600082825260208201905092915050565b60005b83811015610fc5578082015181840152602081019050610faa565b60008484015250505050565b6000601f19601f8301169050919050565b6000610fed82610f8b565b610ff78185610f96565b9350611007818560208601610fa7565b61101081610fd1565b840191505092915050565b600060208201905081810360008301526110358184610fe2565b905092915050565b600080fd5b600073ffffffffffffffffffffffffffffffffffffffff82169050919050565b600061106d82611042565b9050919050565b61107d81611062565b811461108857600080fd5b50565b60008135905061109a81611074565b92915050565b6000819050919050565b6110b3816110a0565b81146110be57600080fd5b50565b6000813590506110d0816110aa565b92915050565b600080604083850312156110ed576110ec61103d565b5b60006110fb8582860161108b565b925050602061110c858286016110c1565b9150509250929050565b60008115159050919050565b61112b81611116565b82525050565b60006020820190506111466000830184611122565b92915050565b611155816110a0565b82525050565b6000602082019050611170600083018461114c565b92915050565b60008060006060848603121561118f5761118e61103d565b5b600061119d8682870161108b565b93505060206111ae8682870161108b565b92505060406111bf868287016110c1565b9150509250925092565b600060ff82169050919050565b6111df816111c9565b82525050565b60006020820190506111fa60008301846111d6565b92915050565b6000602082840312156112165761121561103d565b5b60006112248482850161108b565b91505092915050565b600080604083850312156112445761124361103d565b5b60006112528582860161108b565b92505060206112638582860161108b565b9150509250929050565b7f4e487b7100000000000000000000000000000000000000000000000000000000600052602260045260246000fd5b600060028204905060018216806112b457607f821691505b6020821081036112c7576112c661126d565b5b50919050565b7f5468697320757365722068617320636c61696d65642061697264726f7020616c60008201527f7265616479000000000000000000000000000000000000000000000000000000602082015250565b6000611329602583610f96565b9150611334826112cd565b604082019050919050565b600060208201905081810360008301526113588161131c565b9050919050565b7f4e487b7100000000000000000000000000000000000000000000000000000000600052601160045260246000fd5b6000611399826110a0565b91506113a4836110a0565b92508282019050808211156113bc576113bb61135f565b5b92915050565b7f4d7573742073656e642045544820746f20636f6e766572740000000000000000600082015250565b60006113f8601883610f96565b9150611403826113c2565b602082019050919050565b60006020820190508181036000830152611427816113eb565b9050919050565b6000611439826110a0565b9150611444836110a0565b9250828202611452816110a0565b915082820484148315176114695761146861135f565b5b5092915050565b7f45524332303a2064656372656173656420616c6c6f77616e63652062656c6f7760008201527f207a65726f000000000000000000000000000000000000000000000000000000602082015250565b60006114cc602583610f96565b91506114d782611470565b604082019050919050565b600060208201905081810360008301526114fb816114bf565b9050919050565b7f4d7573742073656e6420457468657220746f2062757920746f6b656e73000000600082015250565b6000611538601d83610f96565b915061154382611502565b602082019050919050565b600060208201905081810360008301526115678161152b565b9050919050565b7f45524332303a20617070726f76652066726f6d20746865207a65726f2061646460008201527f7265737300000000000000000000000000000000000000000000000000000000602082015250565b60006115ca602483610f96565b91506115d58261156e565b604082019050919050565b600060208201905081810360008301526115f9816115bd565b9050919050565b7f45524332303a20617070726f766520746f20746865207a65726f20616464726560008201527f7373000000000000000000000000000000000000000000000000000000000000602082015250565b600061165c602283610f96565b915061166782611600565b604082019050919050565b6000602082019050818103600083015261168b8161164f565b9050919050565b7f45524332303a20696e73756666696369656e7420616c6c6f77616e6365000000600082015250565b60006116c8601d83610f96565b91506116d382611692565b602082019050919050565b600060208201905081810360008301526116f7816116bb565b9050919050565b7f45524332303a207472616e736665722066726f6d20746865207a65726f20616460008201527f6472657373000000000000000000000000000000000000000000000000000000602082015250565b600061175a602583610f96565b9150611765826116fe565b604082019050919050565b600060208201905081810360008301526117898161174d565b9050919050565b7f45524332303a207472616e7366657220746f20746865207a65726f206164647260008201527f6573730000000000000000000000000000000000000000000000000000000000602082015250565b60006117ec602383610f96565b91506117f782611790565b604082019050919050565b6000602082019050818103600083015261181b816117df565b9050919050565b7f45524332303a207472616e7366657220616d6f756e742065786365656473206260008201527f616c616e63650000000000000000000000000000000000000000000000000000602082015250565b600061187e602683610f96565b915061188982611822565b604082019050919050565b600060208201905081810360008301526118ad81611871565b9050919050565b7f45524332303a206d696e7420746f20746865207a65726f206164647265737300600082015250565b60006118ea601f83610f96565b91506118f5826118b4565b602082019050919050565b60006020820190508181036000830152611919816118dd565b905091905056fea2646970667358221220f773679fa875648e2e8fc32c3cdbc0b2b143f247dd8fce6227ef42aa68413c3264736f6c63430008140033",
  "linkReferences": {},
  "deployedLinkReferences": {}
}